{"abi":[{"type":"constructor","inputs":[{"name":"_token","type":"address","internalType":"address"},{"name":"_verifier","type":"address","internalType":"address"}],"stateMutability":"nonpayable"},{"type":"function","name":"DENOM_LARGE","inputs":[],"outputs":[{"name":"","type":"uint256","internalType":"uint256"}],"stateMutability":"view"},{"type":"function","name":"DENOM_MEDIUM","inputs":[],"outputs":[{"name":"","type":"uint256","internalType":"uint256"}],"stateMutability":"view"},{"type":"function","name":"DENOM_SMALL","inputs":[],"outputs":[{"name":"","type":"uint256","internalType":"uint256"}],"stateMutability":"view"},{"type":"function","name":"ENTRY_FEE_BPS","inputs":[],"outputs":[{"name":"","type":"uint256","internalType":"uint256"}],"stateMutability":"view"},{"type":"function","name":"EXIT_FEE_BPS","inputs":[],"outputs":[{"name":"","type":"uint256","internalType":"uint256"}],"stateMutability":"view"},{"type":"function","name":"FIELD_SIZE","inputs":[],"outputs":[{"name":"","type":"uint256","internalType":"uint256"}],"stateMutability":"view"},{"type":"function","name":"ROOT_HISTORY_SIZE","inputs":[],"outputs":[{"name":"","type":"uint32","internalType":"uint32"}],"stateMutability":"view"},{"type":"function","name":"SNARK_SCALAR_FIELD","inputs":[],"outputs":[{"name":"","type":"uint256","internalType":"uint256"}],"stateMutability":"view"},{"type":"function","name":"ZERO_VALUE","inputs":[],"outputs":[{"name":"","type":"uint256","internalType":"uint256"}],"stateMutability":"view"},{"type":"function","name":"accumulatedEntryFees","inputs":[],"outputs":[{"name":"","type":"uint256","internalType":"uint256"}],"stateMutability":"view"},{"type":"function","name":"accumulatedExitFees","inputs":[],"outputs":[{"name":"","type":"uint256","internalType":"uint256"}],"stateMutability":"view"},{"type":"function","name":"batchWithdraw","inputs":[{"name":"proofs","type":"bytes[]","internalType":"bytes[]"},{"name":"args","type":"tuple","internalType":"struct VeilVault.BatchWithdrawArgs","components":[{"name":"nullifierHashes","type":"bytes32[]","internalType":"bytes32[]"},{"name":"roots","type":"bytes32[]","internalType":"bytes32[]"},{"name":"recipients","type":"address[]","internalType":"address[]"},{"name":"denominations","type":"uint256[]","internalType":"uint256[]"},{"name":"relayers","type":"address[]","internalType":"address[]"},{"name":"fees","type":"uint256[]","internalType":"uint256[]"}]}],"outputs":[],"stateMutability":"nonpayable"},{"type":"function","name":"claimFees","inputs":[],"outputs":[],"stateMutability":"nonpayable"},{"type":"function","name":"commitmentExists","inputs":[{"name":"","type":"bytes32","internalType":"bytes32"}],"outputs":[{"name":"","type":"bool","internalType":"bool"}],"stateMutability":"view"},{"type":"function","name":"currentRootIndex","inputs":[],"outputs":[{"name":"","type":"uint32","internalType":"uint32"}],"stateMutability":"view"},{"type":"function","name":"deposit","inputs":[{"name":"commitment","type":"bytes32","internalType":"bytes32"},{"name":"denomination","type":"uint256","internalType":"uint256"}],"outputs":[],"stateMutability":"nonpayable"},{"type":"function","name":"distributeEntryFees","inputs":[],"outputs":[],"stateMutability":"nonpayable"},{"type":"function","name":"filledSubtrees","inputs":[{"name":"","type":"uint256","internalType":"uint256"}],"outputs":[{"name":"","type":"uint256","internalType":"uint256"}],"stateMutability":"view"},{"type":"function","name":"getLastRoot","inputs":[],"outputs":[{"name":"","type":"uint256","internalType":"uint256"}],"stateMutability":"view"},{"type":"function","name":"getLeafCount","inputs":[],"outputs":[{"name":"","type":"uint256","internalType":"uint256"}],"stateMutability":"view"},{"type":"function","name":"getRoot","inputs":[],"outputs":[{"name":"","type":"bytes32","internalType":"bytes32"}],"stateMutability":"view"},{"type":"function","name":"hashLeftRight","inputs":[{"name":"_left","type":"uint256","internalType":"uint256"},{"name":"_right","type":"uint256","internalType":"uint256"}],"outputs":[{"name":"","type":"uint256","internalType":"uint256"}],"stateMutability":"pure"},{"type":"function","name":"isKnownRoot","inputs":[{"name":"_root","type":"uint256","internalType":"uint256"}],"outputs":[{"name":"","type":"bool","internalType":"bool"}],"stateMutability":"view"},{"type":"function","name":"levels","inputs":[],"outputs":[{"name":"","type":"uint32","internalType":"uint32"}],"stateMutability":"view"},{"type":"function","name":"nextIndex","inputs":[],"outputs":[{"name":"","type":"uint32","internalType":"uint32"}],"stateMutability":"view"},{"type":"function","name":"nullifierSpent","inputs":[{"name":"","type":"bytes32","internalType":"bytes32"}],"outputs":[{"name":"","type":"bool","internalType":"bool"}],"stateMutability":"view"},{"type":"function","name":"owner","inputs":[],"outputs":[{"name":"","type":"address","internalType":"address"}],"stateMutability":"view"},{"type":"function","name":"renounceOwnership","inputs":[],"outputs":[],"stateMutability":"nonpayable"},{"type":"function","name":"roots","inputs":[{"name":"","type":"uint256","internalType":"uint256"}],"outputs":[{"name":"","type":"uint256","internalType":"uint256"}],"stateMutability":"view"},{"type":"function","name":"token","inputs":[],"outputs":[{"name":"","type":"address","internalType":"contract IERC20"}],"stateMutability":"view"},{"type":"function","name":"transferOwnership","inputs":[{"name":"newOwner","type":"address","internalType":"address"}],"outputs":[],"stateMutability":"nonpayable"},{"type":"function","name":"verifier","inputs":[],"outputs":[{"name":"","type":"address","internalType":"address"}],"stateMutability":"view"},{"type":"function","name":"withdraw","inputs":[{"name":"proof","type":"bytes","internalType":"bytes"},{"name":"nullifierHash","type":"bytes32","internalType":"bytes32"},{"name":"root","type":"bytes32","internalType":"bytes32"},{"name":"recipient","type":"address","internalType":"address"},{"name":"denomination","type":"uint256","internalType":"uint256"},{"name":"relayer","type":"address","internalType":"address"},{"name":"fee","type":"uint256","internalType":"uint256"}],"outputs":[],"stateMutability":"nonpayable"},{"type":"function","name":"zeros","inputs":[{"name":"i","type":"uint256","internalType":"uint256"}],"outputs":[{"name":"","type":"uint256","internalType":"uint256"}],"stateMutability":"pure"},{"type":"event","name":"Deposit","inputs":[{"name":"commitment","type":"bytes32","indexed":true,"internalType":"bytes32"},{"name":"leafIndex","type":"uint32","indexed":false,"internalType":"uint32"},{"name":"denomination","type":"uint256","indexed":false,"internalType":"uint256"}],"anonymous":false},{"type":"event","name":"OwnershipTransferred","inputs":[{"name":"previousOwner","type":"address","indexed":true,"internalType":"address"},{"name":"newOwner","type":"address","indexed":true,"internalType":"address"}],"anonymous":false},{"type":"event","name":"Withdrawal","inputs":[{"name":"recipient","type":"address","indexed":true,"internalType":"address"},{"name":"nullifierHash","type":"bytes32","indexed":false,"internalType":"bytes32"},{"name":"amount","type":"uint256","indexed":false,"internalType":"uint256"}],"anonymous":false},{"type":"error","name":"ArrayLengthMismatch","inputs":[]},{"type":"error","name":"CommitmentAlreadyExists","inputs":[]},{"type":"error","name":"CommitmentOutOfField","inputs":[]},{"type":"error","name":"EmptyBatch","inputs":[]},{"type":"error","name":"FeeTooHigh","inputs":[]},{"type":"error","name":"InvalidDenomination","inputs":[]},{"type":"error","name":"InvalidRoot","inputs":[]},{"type":"error","name":"NullifierAlreadySpent","inputs":[]},{"type":"error","name":"OwnableInvalidOwner","inputs":[{"name":"owner","type":"address","internalType":"address"}]},{"type":"error","name":"OwnableUnauthorizedAccount","inputs":[{"name":"account","type":"address","internalType":"address"}]},{"type":"error","name":"ProofVerificationFailed","inputs":[]},{"type":"error","name":"ReentrancyGuardReentrantCall","inputs":[]},{"type":"error","name":"SafeERC20FailedOperation","inputs":[{"name":"token","type":"address","internalType":"address"}]}],"bytecode":{"object":"0x60c0604052600380546001600160401b031916905534801561001f575f5ffd5b50604051613f20380380613f2083398101604081905261003e91610835565b33601461004f565b60405180910390fd5b60208163ffffffff16106100a55760405162461bcd60e51b815260206004820152601e60248201527f5f6c6576656c732073686f756c64206265206c657373207468616e20333200006044820152606401610046565b5f805463ffffffff191663ffffffff83161781555b8163ffffffff168163ffffffff1610156100fe576100dd63ffffffff82166101b1565b63ffffffff82165f90815260016020819052604090912091909155016100ba565b5061011861010d600183610866565b63ffffffff166101b1565b5f805260026020527fac33ff75c19e70fe83507db0d683fd3465c996598dc972688b7ace676c89077b555060017f9b779b17422d0df92223018b32b4d1fa46e071723d6817e2486d003becc55f00556001600160a01b03811661019057604051631e4fbdf760e01b81525f6004820152602401610046565b610199816107b8565b506001600160a01b039182166080521660a052610894565b5f815f036101c057505f919050565b816001036101ef57507f18dfb8dc9b82229cff974efefc8df78b1ce96d9d844236b496785c698bc6732e919050565b8160020361021e57507f2c0d184fc7a25c124a27a67b2c46220b039b1a5072c3b693a18ffee458f6425d919050565b8160030361024d57507f268b2b93ac5fe540e618a378b8a71b8f2407232744d71e501ce8699980b306e5919050565b8160040361027c57507f2d436f654e14cc4febcafdf4a753b149dd8c88a75df9e5d6707e83a853b5f791919050565b816005036102ab57507f0b66fdef5a7f00f6fb45d1498b4d7131218e69ccf0a2751b6a1fb1bcd982867d919050565b816006036102da57507f1d542b476c671bb6f0d2ab2939335d7cbad03476f1e3bcba70973b1adfe88b91919050565b8160070361030957507f0680c6388c5798caf80642a1e84316b8b2f7caa99da076f3057d2962a46c5358919050565b8160080361033857507f03c53ce5296e3e895171f89aa09f84214e3fb0755fe7a423b87888e4b3d731b8919050565b8160090361036757507f2dd4e2510b33275359bba6edf72e6bdacad259950b024b2cc19d63c3a5b761df919050565b81600a0361039657507f11cb221f69d954d521fb5393767e77fe4d14133757a706b318e62fa984f98157919050565b81600b036103c557507f039d78bac8f890788eefe39af15eee5825056648f99210054fd03c25213f4de7919050565b81600c036103f457507f0c55b828a83062a77d2b3e0a66bbb50cb6040990d9f368da8b24c0e82b692349919050565b81600d0361042357507f24c866ac88715851268d808487e20e6986084fc222d7188e2a8e0f5b9f8457ef919050565b81600e0361045257507f0f6a94e437b9dfb35cdedf41e2e154c3ae449b7c04c13add0996a7b53cde5400919050565b81600f0361048157507f22afe7696b87cb782742e2d3ecb0f749a9beefbbb2159d178b09000e55b22cab919050565b816010036104b057507f121b01164d32e9ab841ba8f5602b0ec58b576e62552c96911d4d988d49468cdd919050565b816011036104df57507f05f3810707b1336c953b7db191215dab2b5772f93025aa345b954b43135b627b919050565b8160120361050e57507f287515b2d5975c74e3fd85a20d68611a463ffe605a1c54d8140ab16d1b77f57b919050565b8160130361053d57507f276ff13fde3afa1adb26149ddc3aa67240d603b6a91da5e494c8e58706381a38919050565b8160140361056c57507f3039bcb20f03fd9c8650138ef2cfe643edeed152f9c20999f43aeed54d79e387919050565b8160150361059b57507f087e5af439450ef09ce6f12a47571971d83309bb6fd1e280c29baf69257f8a4f919050565b816016036105ca57507f1821495b1919fa5439ae4a314ff98843067381a3c015f744592bfd64101def1d919050565b816017036105f957507f25789f32f958568364c8139771d7864d93f97efb5bbb87cce1959e7e7443ac80919050565b8160180361062857507f25ad0850411551115fd697c4d91668f92dde52421be59650357cd50363880543919050565b8160190361065757507f10b604f35a902419a0fdcf8ee57123e92f0d650ab009b5105916cac7813c9137919050565b81601a0361068657507f1bb07b96cdddee486afb20c78a3b82208cb80d2c55e596896fa1879164a751db919050565b81601b036106b557507f04ab93e9c494b67162063e77960cd36f4e3e5cdee5388a603dc55a03875c72bb919050565b81601c036106e457507f0f9e7f4ad948e7e487831c37fef6e032d66ab2cd3d742d024274612a86cc55ed919050565b81601d0361071357507f2f1c6920644cd674376a6d3ba4fd3cbe3a571685af0d9ab28e1461e4c1d6fc0a919050565b81601e0361074257507f0de2cd9dffe1e710647fdc179884bd0367276612ef83d2aeea0f7d8aecb9c3d7919050565b81601f0361077057507e77ed17dad4b561a9b4a21cf58720ef0c057699fec72b92f2ca26fdf6b48a83919050565b60405162461bcd60e51b815260206004820152601360248201527f496e646578206f7574206f6620626f756e6473000000000000000000000000006044820152606401610046565b600380546001600160a01b0383811668010000000000000000818102600160401b600160e01b031985161790945560405193909204169182907f8be0079c531659141344cd1fd0a4f28419497f9722a3daafe3b4186f6b6457e0905f90a35050565b80516001600160a01b0381168114610830575f5ffd5b919050565b5f5f60408385031215610846575f5ffd5b61084f8361081a565b915061085d6020840161081a565b90509250929050565b63ffffffff828116828216039081111561088e57634e487b7160e01b5f52601160045260245ffd5b92915050565b60805160a05161363a6108e65f395f818161026801528181610b17015261121a01525f818161046e0152818161059f01528181610d8301528181610dfb0152818161133a0152611370015261363a5ff3fe608060405234801561000f575f5ffd5b50600436106101fd575f3560e01c80639089ad0e11610114578063cd87a3b4116100a9578063ec73295911610079578063ec73295914610430578063f178e47c14610437578063f2fde38b14610456578063fc0c546a14610469578063fc7e9c6f14610490575f5ffd5b8063cd87a3b4146103f7578063d294f093146103ff578063d3ea612514610407578063e82955881461041d575f5ffd5b8063b269d812116100e4578063b269d812146103c3578063ba70f7571461031e578063c2b40ae4146103cf578063cb799633146103ee575f5ffd5b80639089ad0e1461038557806390eeb02b1461038d578063a366184a1461039d578063a6232a93146103b0575f5ffd5b806338d1b172116101955780635ca1e165116101655780635ca1e1651461031e5780636509055c1461033a578063715018a614610343578063863078651461034b5780638da5cb5b1461036d575f5ffd5b806338d1b172146102dc578063414a37ba146102475780634ecf518b146102e75780635bb939951461030b575f5ffd5b80632b274e51116101d05780632b274e511461025b5780632b7ac3f314610263578063324d8438146102a257806338c86911146102aa575f5ffd5b80630ffe92ea146102015780631de26e161461021f5780631f4205911461023457806325c2cd1214610247575b5f5ffd5b61020c6305f5e10081565b6040519081526020015b60405180910390f35b61023261022d366004613080565b6104a8565b005b6102326102423660046130b6565b610648565b61020c5f5160206135c55f395f51905f5281565b610232610f04565b61028a7f000000000000000000000000000000000000000000000000000000000000000081565b6040516001600160a01b039091168152602001610216565b61020c600a81565b6102cc6102b836600461314e565b60076020525f908152604090205460ff1681565b6040519015158152602001610216565b61020c633b9aca0081565b5f546102f69063ffffffff1681565b60405163ffffffff9091168152602001610216565b61020c610319366004613080565b610f2b565b60035463ffffffff165f9081526002602052604090205461020c565b61020c60045481565b61023261100b565b6102cc61035936600461314e565b60066020525f908152604090205460ff1681565b600354600160401b90046001600160a01b031661028a565b61020c601481565b6003546102f69063ffffffff1681565b6102326103ab36600461317b565b61101e565b6102cc6103be36600461314e565b6113ff565b61020c6402540be40081565b61020c6103dd36600461314e565b60026020525f908152604090205481565b61020c60055481565b6102f6606481565b610232611478565b600354640100000000900463ffffffff1661020c565b61020c61042b36600461314e565b6114a4565b61020c5f81565b61020c61044536600461314e565b60016020525f908152604090205481565b61023261046436600461322d565b611aa1565b61028a7f000000000000000000000000000000000000000000000000000000000000000081565b6003546102f690640100000000900463ffffffff1681565b6104b0611adb565b6305f5e10081141580156104c85750633b9aca008114155b80156104d957506402540be4008114155b156104f757604051637833d9e360e11b815260040160405180910390fd5b5f5160206135c55f395f51905f52821061052457604051632e4eedd760e21b815260040160405180910390fd5b5f8281526006602052604090205460ff16156105535760405163145718a760e01b815260040160405180910390fd5b5f61271061056260148461325a565b61056c9190613285565b5f848152600660205260409020805460ff1916600117905590506105c733306105958486613298565b6001600160a01b037f000000000000000000000000000000000000000000000000000000000000000016929190611af6565b8060045f8282546105d89190613298565b909155505f90506105e884611b32565b6040805163ffffffff831681526020810186905291925085917fa945e51eec50ab98c161376f0db4cf2aeba3ec92755fe2fcd388bdbbb80ff196910160405180910390a2505061064460015f5160206135e55f395f51905f5255565b5050565b610650611adb565b5f61065b82806132ab565b915050828114158061067b57508061067660208401846132ab565b905014155b8061069457508061068f60408401846132ab565b905014155b806106ad5750806106a860608401846132ab565b905014155b806106c65750806106c160808401846132ab565b905014155b806106df5750806106da60a08401846132ab565b905014155b156106fd5760405163512509d360e11b815260040160405180910390fd5b805f0361071d5760405163c2e5347d60e01b815260040160405180910390fd5b5f805b82811015610ecf5761075661073860208601866132ab565b83818110610748576107486132f8565b905060200201355f1c6113ff565b6107735760405163504570e360e01b815260040160405180910390fd5b60075f61078086806132ab565b84818110610790576107906132f8565b602090810292909201358352508101919091526040015f205460ff16156107ca5760405163b115d85760e01b815260040160405180910390fd5b6305f5e1006107dc60608601866132ab565b838181106107ec576107ec6132f8565b90506020020135141580156108285750633b9aca0061080e60608601866132ab565b8381811061081e5761081e6132f8565b9050602002013514155b801561085c57506402540be40061084260608601866132ab565b83818110610852576108526132f8565b9050602002013514155b1561087a57604051637833d9e360e11b815260040160405180910390fd5b5f612710600a61088d60608801886132ab565b8581811061089d5761089d6132f8565b905060200201356108ae919061325a565b6108b89190613285565b90506108c760608601866132ab565b838181106108d7576108d76132f8565b9050602002013581868060a001906108ef91906132ab565b858181106108ff576108ff6132f8565b905060200201356109109190613298565b111561092f5760405163cd4e616760e01b815260040160405180910390fd5b60408051600680825260e082019092525f916020820160c08036833701905050905061095b86806132ab565b8481811061096b5761096b6132f8565b90506020020135815f81518110610984576109846132f8565b6020026020010181815250508580602001906109a091906132ab565b848181106109b0576109b06132f8565b90506020020135816001815181106109ca576109ca6132f8565b60209081029190910101526109e260408701876132ab565b848181106109f2576109f26132f8565b9050602002016020810190610a07919061322d565b6001600160a01b03165f1b81600281518110610a2557610a256132f8565b6020908102919091010152610a3d60608701876132ab565b84818110610a4d57610a4d6132f8565b905060200201355f1b81600381518110610a6957610a696132f8565b6020908102919091010152610a8160808701876132ab565b84818110610a9157610a916132f8565b9050602002016020810190610aa6919061322d565b6001600160a01b03165f1b81600481518110610ac457610ac46132f8565b6020908102919091010152610adc60a08701876132ab565b84818110610aec57610aec6132f8565b905060200201355f1b81600581518110610b0857610b086132f8565b6020026020010181815250505f7f00000000000000000000000000000000000000000000000000000000000000006001600160a01b031663ea50d0e48a8a87818110610b5657610b566132f8565b9050602002810190610b68919061330c565b856040518463ffffffff1660e01b8152600401610b879392919061334f565b602060405180830381865afa925050508015610bc0575060408051601f3d908101601f19168201909252610bbd918101906133c7565b60015b610bdd57604051631ac2386360e31b815260040160405180910390fd5b905080610bfd57604051631ac2386360e31b815260040160405180910390fd5b600160075f610c0c8a806132ab565b88818110610c1c57610c1c6132f8565b602090810292909201358352508101919091526040015f20805460ff1916911515919091179055610c4d8386613298565b94505f610c5d60a08901896132ab565b86818110610c6d57610c6d6132f8565b9050602002013584898060600190610c8591906132ab565b88818110610c9557610c956132f8565b90506020020135610ca691906133ed565b610cb091906133ed565b90505f610cc060a08a018a6132ab565b87818110610cd057610cd06132f8565b905060200201351115610dbc575f80610cec60808b018b6132ab565b88818110610cfc57610cfc6132f8565b9050602002016020810190610d11919061322d565b6001600160a01b031603610d255733610d57565b610d3260808a018a6132ab565b87818110610d4257610d426132f8565b9050602002016020810190610d57919061322d565b9050610dba81610d6a60a08c018c6132ab565b89818110610d7a57610d7a6132f8565b905060200201357f00000000000000000000000000000000000000000000000000000000000000006001600160a01b0316611cf29092919063ffffffff16565b505b610e22610dcc60408a018a6132ab565b87818110610ddc57610ddc6132f8565b9050602002016020810190610df1919061322d565b6001600160a01b037f0000000000000000000000000000000000000000000000000000000000000000169083611cf2565b610e2f60408901896132ab565b86818110610e3f57610e3f6132f8565b9050602002016020810190610e54919061322d565b6001600160a01b03167f4206db6775563d1043abfcf27cd0ecd19fcc464be574a1487fc95b24957a671a610e888a806132ab565b88818110610e9857610e986132f8565b9050602002013583604051610eb7929190918252602082015260400190565b60405180910390a25050600190920191506107209050565b508060055f828254610ee19190613298565b909155505060015f5160206135e55f395f51905f525550610eff9050565b505050565b600480545f909155600354610f2890600160401b90046001600160a01b0316610df1565b50565b5f5f5160206135c55f395f51905f528310610f8d5760405162461bcd60e51b815260206004820181905260248201527f5f6c6566742073686f756c6420626520696e7369646520746865206669656c6460448201526064015b60405180910390fd5b5f5160206135c55f395f51905f528210610ff35760405162461bcd60e51b815260206004820152602160248201527f5f72696768742073686f756c6420626520696e7369646520746865206669656c6044820152601960fa1b6064820152608401610f84565b610ffd8383611d27565b90505b92915050565b919050565b611013611d83565b61101c5f611db8565b565b611026611adb565b61102f856113ff565b61104c5760405163504570e360e01b815260040160405180910390fd5b5f8681526007602052604090205460ff161561107b5760405163b115d85760e01b815260040160405180910390fd5b6305f5e10083141580156110935750633b9aca008314155b80156110a457506402540be4008314155b156110c257604051637833d9e360e11b815260040160405180910390fd5b5f6127106110d1600a8661325a565b6110db9190613285565b9050836110e88284613298565b11156111075760405163cd4e616760e01b815260040160405180910390fd5b60408051600680825260e082019092525f916020820160c08036833701905050905087815f8151811061113c5761113c6132f8565b602002602001018181525050868160018151811061115c5761115c6132f8565b602002602001018181525050856001600160a01b03165f1b81600281518110611187576111876132f8565b602002602001018181525050845f1b816003815181106111a9576111a96132f8565b602002602001018181525050836001600160a01b03165f1b816004815181106111d4576111d46132f8565b602002602001018181525050825f1b816005815181106111f6576111f66132f8565b6020908102919091010152604051633a94343960e21b81525f906001600160a01b037f0000000000000000000000000000000000000000000000000000000000000000169063ea50d0e490611253908e908e90879060040161334f565b602060405180830381865afa92505050801561128c575060408051601f3d908101601f19168201909252611289918101906133c7565b60015b6112a957604051631ac2386360e31b815260040160405180910390fd5b9050806112c957604051631ac2386360e31b815260040160405180910390fd5b5f898152600760205260408120805460ff19166001179055846112ec85896133ed565b6112f691906133ed565b90508360055f8282546113099190613298565b90915550508415611363575f6001600160a01b038716611329573361132b565b865b90506113616001600160a01b037f0000000000000000000000000000000000000000000000000000000000000000168288611cf2565b505b6113976001600160a01b037f0000000000000000000000000000000000000000000000000000000000000000168983611cf2565b604080518b8152602081018390526001600160a01b038a16917f4206db6775563d1043abfcf27cd0ecd19fcc464be574a1487fc95b24957a671a910160405180910390a2505050506113f560015f5160206135e55f395f51905f5255565b5050505050505050565b5f815f0361140e57505f919050565b60035463ffffffff16805b63ffffffff81165f90815260026020526040902054840361143e575060019392505050565b8063ffffffff165f0361144f575060645b8061145981613400565b9150508163ffffffff168163ffffffff160361141957505f9392505050565b611480611d83565b600580545f909155600354610f2890600160401b90046001600160a01b0316610df1565b5f815f036114b357505f919050565b816001036114e257507f18dfb8dc9b82229cff974efefc8df78b1ce96d9d844236b496785c698bc6732e919050565b8160020361151157507f2c0d184fc7a25c124a27a67b2c46220b039b1a5072c3b693a18ffee458f6425d919050565b8160030361154057507f268b2b93ac5fe540e618a378b8a71b8f2407232744d71e501ce8699980b306e5919050565b8160040361156f57507f2d436f654e14cc4febcafdf4a753b149dd8c88a75df9e5d6707e83a853b5f791919050565b8160050361159e57507f0b66fdef5a7f00f6fb45d1498b4d7131218e69ccf0a2751b6a1fb1bcd982867d919050565b816006036115cd57507f1d542b476c671bb6f0d2ab2939335d7cbad03476f1e3bcba70973b1adfe88b91919050565b816007036115fc57507f0680c6388c5798caf80642a1e84316b8b2f7caa99da076f3057d2962a46c5358919050565b8160080361162b57507f03c53ce5296e3e895171f89aa09f84214e3fb0755fe7a423b87888e4b3d731b8919050565b8160090361165a57507f2dd4e2510b33275359bba6edf72e6bdacad259950b024b2cc19d63c3a5b761df919050565b81600a0361168957507f11cb221f69d954d521fb5393767e77fe4d14133757a706b318e62fa984f98157919050565b81600b036116b857507f039d78bac8f890788eefe39af15eee5825056648f99210054fd03c25213f4de7919050565b81600c036116e757507f0c55b828a83062a77d2b3e0a66bbb50cb6040990d9f368da8b24c0e82b692349919050565b81600d0361171657507f24c866ac88715851268d808487e20e6986084fc222d7188e2a8e0f5b9f8457ef919050565b81600e0361174557507f0f6a94e437b9dfb35cdedf41e2e154c3ae449b7c04c13add0996a7b53cde5400919050565b81600f0361177457507f22afe7696b87cb782742e2d3ecb0f749a9beefbbb2159d178b09000e55b22cab919050565b816010036117a357507f121b01164d32e9ab841ba8f5602b0ec58b576e62552c96911d4d988d49468cdd919050565b816011036117d257507f05f3810707b1336c953b7db191215dab2b5772f93025aa345b954b43135b627b919050565b8160120361180157507f287515b2d5975c74e3fd85a20d68611a463ffe605a1c54d8140ab16d1b77f57b919050565b8160130361183057507f276ff13fde3afa1adb26149ddc3aa67240d603b6a91da5e494c8e58706381a38919050565b8160140361185f57507f3039bcb20f03fd9c8650138ef2cfe643edeed152f9c20999f43aeed54d79e387919050565b8160150361188e57507f087e5af439450ef09ce6f12a47571971d83309bb6fd1e280c29baf69257f8a4f919050565b816016036118bd57507f1821495b1919fa5439ae4a314ff98843067381a3c015f744592bfd64101def1d919050565b816017036118ec57507f25789f32f958568364c8139771d7864d93f97efb5bbb87cce1959e7e7443ac80919050565b8160180361191b57507f25ad0850411551115fd697c4d91668f92dde52421be59650357cd50363880543919050565b8160190361194a57507f10b604f35a902419a0fdcf8ee57123e92f0d650ab009b5105916cac7813c9137919050565b81601a0361197957507f1bb07b96cdddee486afb20c78a3b82208cb80d2c55e596896fa1879164a751db919050565b81601b036119a857507f04ab93e9c494b67162063e77960cd36f4e3e5cdee5388a603dc55a03875c72bb919050565b81601c036119d757507f0f9e7f4ad948e7e487831c37fef6e032d66ab2cd3d742d024274612a86cc55ed919050565b81601d03611a0657507f2f1c6920644cd674376a6d3ba4fd3cbe3a571685af0d9ab28e1461e4c1d6fc0a919050565b81601e03611a3557507f0de2cd9dffe1e710647fdc179884bd0367276612ef83d2aeea0f7d8aecb9c3d7919050565b81601f03611a6357507e77ed17dad4b561a9b4a21cf58720ef0c057699fec72b92f2ca26fdf6b48a83919050565b60405162461bcd60e51b8152602060048201526013602482015272496e646578206f7574206f6620626f756e647360681b6044820152606401610f84565b611aa9611d83565b6001600160a01b038116611ad257604051631e4fbdf760e01b81525f6004820152602401610f84565b610f2881611db8565b611ae3611e1a565b60025f5160206135e55f395f51905f5255565b611b04848484846001611e49565b611b2c57604051635274afe760e01b81526001600160a01b0385166004820152602401610f84565b50505050565b6003545f8054909163ffffffff640100000000909104811691611b5791166002613530565b63ffffffff168163ffffffff1603611bca5760405162461bcd60e51b815260206004820152603060248201527f4d65726b6c6520747265652069732066756c6c2e204e6f206d6f7265206c656160448201526f1d995cc818d85b88189948185919195960821b6064820152608401610f84565b80835f80805b5f5463ffffffff9081169082161015611c6657611bee600286613547565b63ffffffff165f03611c2a57839250611c0c8163ffffffff166114a4565b63ffffffff82165f9081526001602052604090208590559150611c45565b63ffffffff81165f9081526001602052604090205492508391505b611c4f8383610f2b565b9350611c5c60028661356e565b9450600101611bd0565b506003545f90606490611c809063ffffffff166001613595565b611c8a9190613547565b6003805463ffffffff191663ffffffff83169081179091555f9081526002602052604090208590559050611cbf866001613595565b6003805463ffffffff929092166401000000000267ffffffff000000001990921691909117905550939695505050505050565b611cff8383836001611eb6565b610eff57604051635274afe760e01b81526001600160a01b0384166004820152602401610f84565b5f611d30613062565b611d475f5160206135c55f395f51905f52856135b1565b8152611d605f5160206135c55f395f51905f52846135b1565b60208201525f604082018190526060820152611d7b81611f18565b519392505050565b6003546001600160a01b03600160401b90910416331461101c5760405163118cdaa760e01b8152336004820152602401610f84565b600380546001600160a01b03838116600160401b81810268010000000000000000600160e01b031985161790945560405193909204169182907f8be0079c531659141344cd1fd0a4f28419497f9722a3daafe3b4186f6b6457e0905f90a35050565b5f5160206135e55f395f51905f525460020361101c57604051633ee5aeb560e01b815260040160405180910390fd5b6040516323b872dd60e01b5f8181526001600160a01b038781166004528616602452604485905291602083606481808c5af1925060015f51148316611ea5578383151615611e99573d5f823e3d81fd5b5f883b113d1516831692505b604052505f60605295945050505050565b60405163a9059cbb60e01b5f8181526001600160a01b038616600452602485905291602083604481808b5af1925060015f51148316611f0c578383151615611f00573d5f823e3d81fd5b5f873b113d1516831692505b60405250949350505050565b611f2181612cb7565b611fae817f19b849f69450b06848da1d39bd5e4a4302bb86744edc26238b0878e269ed23e57f265ddfe127dd51bd7239347b758f0a1320eb2cc7450acc1dad47f80c8dcf34d67f199750ec472f1809e0f66a545e1e51624108ac845015c2aa3dfc36bab497d8aa7f157ff3fe65ac7208110f06a5f74302b14d743ea25067f0ffd032f787c7f1cdf8612dee565b61203b817f2e49c43c4569dd9c5fd35ac45fca33f10b15c590692f8beefe18f4896ac949027f0e35fb89981890520d4aef2b6d6506c3cb2f0b6973c24fa82731345ffa2d1f1e7f251ad47cb15c4f1105f109ae5e944f1ba9d9e7806d667ffec6fe723002e0b9967f13da07dc64d428369873e97160234641f8beb56fdd05e5f3563fa39d9c22df4e612dee565b6120c8817f0c009b84e650e6d23dc00c7dccef7483a553939689d350cd46e7b89055fd47387f011f16b1c63a854f01992e3956f42d8b04eb650c6d535eb0203dec74befdca067f0ed69e5e383a688f209d9a561daa79612f3f78d0467ad45485df07093f3675497f04dba94a7b0ce9e221acad41472b6bbe3aec507f5eb3d33f463672264c9f789b612dee565b612155817f0a3f2637d840f3a16eb094271c9d237b6036757d4bb50bf7ce732ff1d4fa28e87f259a666f129eea198f8a1c502fdb38fa39b1f075569564b6e54a485d1182323f7f28bf7459c9b2f4c6d8e7d06a4ee3a47f7745d4271038e5157a32fdf7ede0d6a17f0a1ca941f057037526ea200f489be8d4c37c85bbcce6a2aeec91bd6941432447612dee565b61217f817f0c6f8f958be0e93053d7fd4fc54512855535ed1539f051dcb43a26fd926361cf612eaa565b6121a9817f123106a93cd17578d426e8128ac9d90aa9e8a00708e296e084dd57e69caaf811612eaa565b6121d3817f26e1ba52ad9285d97dd3ab52f8e840085e8fa83ff1e8f1877b074867cd2dee75612eaa565b6121fd817f1cb55cad7bd133de18a64c5c47b9c97cbe4d8b7bf9e095864471537e6a4ae2c5612eaa565b612227817f1dcd73e46acd8f8e0e2c7ce04bde7f6d2a53043d5060a41c7143f08e6e9055d0612eaa565b612251817f011003e32f6d9c66f5852f05474a4def0cda294a0eb4e9b9b12b9bb4512e5574612eaa565b61227b817f2b1e809ac1d10ab29ad5f20d03a57dfebadfe5903f58bafed7c508dd2287ae8c612eaa565b6122a5817f2539de1785b735999fb4dac35ee17ed0ef995d05ab2fc5faeaa69ae87bcec0a5612eaa565b6122cf817f0c246c5a2ef8ee0126497f222b3e0a0ef4e1c3d41c86d46e43982cb11d77951d612eaa565b6122f9817f192089c4974f68e95408148f7c0632edbb09e6a6ad1a1c2f3f0305f5d03b527b612eaa565b612323817f1eae0ad8ab68b2f06a0ee36eeb0d0c058529097d91096b756d8fdc2fb5a60d85612eaa565b61234d817f179190e5d0e22179e46f8282872abc88db6e2fdc0dee99e69768bd98c5d06bfb612eaa565b612377817f29bb9e2c9076732576e9a81c7ac4b83214528f7db00f31bf6cafe794a9b3cd1c612eaa565b6123a1817f225d394e42207599403efd0c2464a90d52652645882aac35b10e590e6e691e08612eaa565b6123cb817f064760623c25c8cf753d238055b444532be13557451c087de09efd454b23fd59612eaa565b6123f5817f10ba3a0e01df92e87f301c4b716d8a394d67f4bf42a75c10922910a78f6b5b87612eaa565b61241f817f0e070bf53f8451b24f9c6e96b0c2a801cb511bc0c242eb9d361b77693f21471c612eaa565b612449817f1b94cd61b051b04dd39755ff93821a73ccd6cb11d2491d8aa7f921014de252fb612eaa565b612473817f1d7cb39bafb8c744e148787a2e70230f9d4e917d5713bb050487b5aa7d74070b612eaa565b61249d817f2ec93189bd1ab4f69117d0fe980c80ff8785c2961829f701bb74ac1f303b17db612eaa565b6124c7817f2db366bfdd36d277a692bb825b86275beac404a19ae07a9082ea46bd83517926612eaa565b6124f1817f062100eb485db06269655cf186a68532985275428450359adc99cec6960711b8612eaa565b61251b817f0761d33c66614aaa570e7f1e8244ca1120243f92fa59e4f900c567bf41f5a59b612eaa565b612545817f20fc411a114d13992c2705aa034e3f315d78608a0f7de4ccf7a72e494855ad0d612eaa565b61256f817f25b5c004a4bdfcb5add9ec4e9ab219ba102c67e8b3effb5fc3a30f317250bc5a612eaa565b612599817f23b1822d278ed632a494e58f6df6f5ed038b186d8474155ad87e7dff62b37f4b612eaa565b6125c3817f22734b4c5c3f9493606c4ba9012499bf0f14d13bfcfcccaa16102a29cc2f69e0612eaa565b6125ed817f26c0c8fe09eb30b7e27a74dc33492347e5bdff409aa3610254413d3fad795ce5612eaa565b612617817f070dd0ccb6bd7bbae88eac03fa1fbb26196be3083a809829bbd626df348ccad9612eaa565b612641817f12b6595bdb329b6fb043ba78bb28c3bec2c0a6de46d8c5ad6067c4ebfd4250da612eaa565b61266b817f248d97d7f76283d63bec30e7a5876c11c06fca9b275c671c5e33d95bb7e8d729612eaa565b612695817f1a306d439d463b0816fc6fd64cc939318b45eb759ddde4aa106d15d9bd9baaaa612eaa565b6126bf817f28a8f8372e3c38daced7c00421cb4621f4f1b54ddc27821b0d62d3d6ec7c56cf612eaa565b6126e8817e94975717f9a8a8bb35152f24d43294071ce320c829f388bc852183e1e2ce7e612eaa565b612712817f04d5ee4c3aa78f7d80fde60d716480d3593f74d4f653ae83f4103246db2e8d65612eaa565b61273c817f2a6cf5e9aa03d4336349ad6fb8ed2269c7bef54b8822cc76d08495c12efde187612eaa565b612766817f2304d31eaab960ba9274da43e19ddeb7f792180808fd6e43baae48d7efcba3f3612eaa565b612790817f03fd9ac865a4b2a6d5e7009785817249bff08a7e0726fcb4e1c11d39d199f0b0612eaa565b6127b9817eb7258ded52bbda2248404d55ee5044798afc3a209193073f7954d4d63b0b64612eaa565b6127e3817f159f81ada0771799ec38fca2d4bf65ebb13d3a74f3298db36272c5ca65e92d9a612eaa565b61280d817f1ef90e67437fbc8550237a75bc28e3bb9000130ea25f0c5471e144cf4264431f612eaa565b612837817f1e65f838515e5ff0196b49aa41a2d2568df739bc176b08ec95a79ed82932e30d612eaa565b612861817f2b1b045def3a166cec6ce768d079ba74b18c844e570e1f826575c1068c94c33f612eaa565b61288b817f0832e5753ceb0ff6402543b1109229c165dc2d73bef715e3f1c6e07c168bb173612eaa565b6128b5817f02f614e9cedfb3dc6b762ae0a37d41bab1b841c2e8b6451bc5a8e3c390b6ad16612eaa565b6128df817f0e2427d38bd46a60dd640b8e362cad967370ebb777bedff40f6a0be27e7ed705612eaa565b612909817f0493630b7c670b6deb7c84d414e7ce79049f0ec098c3c7c50768bbe29214a53a612eaa565b612933817f22ead100e8e482674decdab17066c5a26bb1515355d5461a3dc06cc85327cea9612eaa565b61295d817f25b3e56e655b42cdaae2626ed2554d48583f1ae35626d04de5084e0b6d2a6f16612eaa565b612987817f1e32752ada8836ef5837a6cde8ff13dbb599c336349e4c584b4fdc0a0cf6f9d0612eaa565b6129b1817f2fa2a871c15a387cc50f68f6f3c3455b23c00995f05078f672a9864074d412e5612eaa565b6129db817f2f569b8a9a4424c9278e1db7311e889f54ccbf10661bab7fcd18e7c7a7d83505612eaa565b612a05817f044cb455110a8fdd531ade530234c518a7df93f7332ffd2144165374b246b43d612eaa565b612a2f817f227808de93906d5d420246157f2e42b191fe8c90adfe118178ddc723a5319025612eaa565b612a59817f02fcca2934e046bc623adead873579865d03781ae090ad4a8579d2e7a6800355612eaa565b612a83817f0ef915f0ac120b876abccceb344a1d36bad3f3c5ab91a8ddcbec2e060d8befac612eaa565b612b10817f1797130f4b7a3e1777eb757bc6f287f6ab0fb85f6be63b09f3b16ef2b1405d387f0a76225dc04170ae3306c85abab59e608c7f497c20156d4d36c668555decc6e57f1fffb9ec1992d66ba1e77a7b93209af6f8fa76d48acb664796174b5326a31a5c7f25721c4fc15a3f2853b57c338fa538d85f8fbba6c6b9c6090611889b797b9c5f612dee565b612b9d817f0c817fd42d5f7a41215e3d07ba197216adb4c3790705da95eb63b982bfcaf75a7f13abe3f5239915d39f7e13c2c24970b6df8cf86ce00a22002bc15866e52b5a967f2106feea546224ea12ef7f39987a46c85c1bc3dc29bdbd7a92cd60acb4d391ce7f21ca859468a746b6aaa79474a37dab49f1ca5a28c748bc7157e1b3345bb0f959612dee565b612c2a817f05ccd6255c1e6f0c5cf1f0df934194c62911d14d0321662a8f1a48999e34185b7f0f0e34a64b70a626e464d846674c4c8816c4fb267fe44fe6ea28678cb09490a47f0558531a4e25470c6157794ca36d0e9647dbfcfe350d64838f5b1a8a2de0d4bf7f09d3dca9173ed2faceea125157683d18924cadad3f655a60b72f5864961f1455612dee565b610f28817f0328cbd54e8c0913493f866ed03d218bf23f92d68aaec48617d4c722e5bd43357f2bf07216e2aff0a223a487b1a7094e07e79e7bcc9798c648ee3347dd5329d34b7f1daf345a58006b736499c583cb76c316d6f78ed6a6dffc82111e11a63fe412df7f176563472456aaa746b694c60e1823611ef39039b2edc7ff391e6f2293d2c404612dee565b602081015181515f915f5160206135c55f395f51905f52910890505f5f5160206135c55f395f51905f52836003602002015184600260200201510860208401519091505f905f5160206135c55f395f51905f52908390829080080860608501519091505f905f5160206135c55f395f51905f52908590829080080890505f5f5160206135c55f395f51905f5284850890505f5160206135c55f395f51905f5281820890505f5160206135c55f395f51905f5282820890505f5f5160206135c55f395f51905f5286870890505f5160206135c55f395f51905f5281820890505f5160206135c55f395f51905f5284820890505f5f5160206135c55f395f51905f5282850890505f5f5160206135c55f395f51905f52848708918952506020880191909152604087015260609095019490945250505050565b84515f5160206135c55f395f51905f5290859008855260208501515f5160206135c55f395f51905f5290849008602086015260408501515f5160206135c55f395f51905f5290839008604086015260608501515f5160206135c55f395f51905f52908290086060860152612e68855f5b6020020151612ed5565b8552612e75856001612e5e565b6020860152612e85856002612e5e565b6040860152612e95856003612e5e565b6060860152612ea385612cb7565b5050505050565b81515f5160206135c55f395f51905f52908290088252612eca825f612e5e565b825261064482612f17565b5f805f5160206135c55f395f51905f5283840990505f5f5160206135c55f395f51905f5282830990505f5160206135c55f395f51905f52848209949350505050565b5f5f5160206135c55f395f51905f52808360036020020151846002602002015108602084015184515f5160206135c55f395f51905f529190080890505f5160206135c55f395f51905f52815f5160206135c55f395f51905f52845f60200201517f10dc6e9c006ea38b04b1e03b4bd9490c0d03f98929ca1d7fb56821fd19d3b6e70908825260208201515f5160206135c55f395f51905f5290829082907f0c28145b6a44df3e0149b3d0a30b3bb599df9756d4dd9b84a86b38cfb45a740b0908602083015260408201515f5160206135c55f395f51905f5290829082907e544b8338791518b2c7645a50392798b21f75bb60e3596170067d00141cac150908604083015260608201515f5160206135c55f395f51905f5290829082907f222c01175718386f2e2e82eb122789e352e105a3b8fa852613bc534433ee428b090882600360200201525050565b60405180608001604052806004906020820280368337509192915050565b5f5f60408385031215613091575f5ffd5b50508035926020909101359150565b5f60c082840312156130b0575f5ffd5b50919050565b5f5f5f604084860312156130c8575f5ffd5b833567ffffffffffffffff8111156130de575f5ffd5b8401601f810186136130ee575f5ffd5b803567ffffffffffffffff811115613104575f5ffd5b8660208260051b8401011115613118575f5ffd5b60209182019450925084013567ffffffffffffffff811115613138575f5ffd5b613144868287016130a0565b9150509250925092565b5f6020828403121561315e575f5ffd5b5035919050565b80356001600160a01b0381168114611006575f5ffd5b5f5f5f5f5f5f5f5f60e0898b031215613192575f5ffd5b883567ffffffffffffffff8111156131a8575f5ffd5b8901601f81018b136131b8575f5ffd5b803567ffffffffffffffff8111156131ce575f5ffd5b8b60208284010111156131df575f5ffd5b60209182019950975089013595506040890135945061320060608a01613165565b93506080890135925061321560a08a01613165565b979a969950949793969295919450919260c001359150565b5f6020828403121561323d575f5ffd5b610ffd82613165565b634e487b7160e01b5f52601160045260245ffd5b808202811582820484141761100057611000613246565b634e487b7160e01b5f52601260045260245ffd5b5f8261329357613293613271565b500490565b8082018082111561100057611000613246565b5f5f8335601e198436030181126132c0575f5ffd5b83018035915067ffffffffffffffff8211156132da575f5ffd5b6020019150600581901b36038213156132f1575f5ffd5b9250929050565b634e487b7160e01b5f52603260045260245ffd5b5f5f8335601e19843603018112613321575f5ffd5b83018035915067ffffffffffffffff82111561333b575f5ffd5b6020019150368190038213156132f1575f5ffd5b60408152826040820152828460608301375f606084830101525f601f19601f85011682016060810160608483030160208501528085518083526080840191506020870193505f92505b808310156133bb5783518252602082019150602084019350600183019250613398565b50979650505050505050565b5f602082840312156133d7575f5ffd5b815180151581146133e6575f5ffd5b9392505050565b8181038181111561100057611000613246565b5f63ffffffff82168061341557613415613246565b5f190192915050565b6001815b60018411156134595780850481111561343d5761343d613246565b600184161561344b57908102905b60019390931c928002613422565b935093915050565b5f8261346f57506001611000565b8161347b57505f611000565b8160018114613491576002811461349b576134cc565b6001915050611000565b60ff8411156134ac576134ac613246565b6001841b915063ffffffff8211156134c6576134c6613246565b50611000565b5060208310610133831016604e8410600b8410161715613503575081810a63ffffffff8111156134fe576134fe613246565b611000565b61351263ffffffff848461341e565b8063ffffffff0482111561352857613528613246565b029392505050565b5f610ffd63ffffffff841663ffffffff8416613461565b5f63ffffffff83168061355c5761355c613271565b8063ffffffff84160691505092915050565b5f63ffffffff83168061358357613583613271565b8063ffffffff84160491505092915050565b63ffffffff818116838216019081111561100057611000613246565b5f826135bf576135bf613271565b50069056fe30644e72e131a029b85045b68181585d2833e84879b9709143e1f593f00000019b779b17422d0df92223018b32b4d1fa46e071723d6817e2486d003becc55f00a2646970667358221220146bef67b33a429c4b896a7d41edd2f4fb378e12eb8bd2c18e917cbc5e2661bb64736f6c634300081b0033","linkReferences":{}},"methodIdentifiers":{"DENOM_LARGE()":"b269d812","DENOM_MEDIUM()":"38d1b172","DENOM_SMALL()":"0ffe92ea","ENTRY_FEE_BPS()":"9089ad0e","EXIT_FEE_BPS()":"324d8438","FIELD_SIZE()":"414a37ba","ROOT_HISTORY_SIZE()":"cd87a3b4","SNARK_SCALAR_FIELD()":"25c2cd12","ZERO_VALUE()":"ec732959","accumulatedEntryFees()":"6509055c","accumulatedExitFees()":"cb799633","batchWithdraw(bytes[],(bytes32[],bytes32[],address[],uint256[],address[],uint256[]))":"1f420591","claimFees()":"d294f093","commitmentExists(bytes32)":"86307865","currentRootIndex()":"90eeb02b","deposit(bytes32,uint256)":"1de26e16","distributeEntryFees()":"2b274e51","filledSubtrees(uint256)":"f178e47c","getLastRoot()":"ba70f757","getLeafCount()":"d3ea6125","getRoot()":"5ca1e165","hashLeftRight(uint256,uint256)":"5bb93995","isKnownRoot(uint256)":"a6232a93","levels()":"4ecf518b","nextIndex()":"fc7e9c6f","nullifierSpent(bytes32)":"38c86911","owner()":"8da5cb5b","renounceOwnership()":"715018a6","roots(uint256)":"c2b40ae4","token()":"fc0c546a","transferOwnership(address)":"f2fde38b","verifier()":"2b7ac3f3","withdraw(bytes,bytes32,bytes32,address,uint256,address,uint256)":"a366184a","zeros(uint256)":"e8295588"},"id":35}