{"abi":[{"type":"constructor","inputs":[{"name":"_token","type":"address","internalType":"address"},{"name":"_verifier","type":"address","internalType":"address"}],"stateMutability":"nonpayable"},{"type":"function","name":"DENOM_LARGE","inputs":[],"outputs":[{"name":"","type":"uint256","internalType":"uint256"}],"stateMutability":"view"},{"type":"function","name":"DENOM_MEDIUM","inputs":[],"outputs":[{"name":"","type":"uint256","internalType":"uint256"}],"stateMutability":"view"},{"type":"function","name":"DENOM_SMALL","inputs":[],"outputs":[{"name":"","type":"uint256","internalType":"uint256"}],"stateMutability":"view"},{"type":"function","name":"ENTRY_FEE_BPS","inputs":[],"outputs":[{"name":"","type":"uint256","internalType":"uint256"}],"stateMutability":"view"},{"type":"function","name":"EXIT_FEE_BPS","inputs":[],"outputs":[{"name":"","type":"uint256","internalType":"uint256"}],"stateMutability":"view"},{"type":"function","name":"FIELD_SIZE","inputs":[],"outputs":[{"name":"","type":"uint256","internalType":"uint256"}],"stateMutability":"view"},{"type":"function","name":"ROOT_HISTORY_SIZE","inputs":[],"outputs":[{"name":"","type":"uint32","internalType":"uint32"}],"stateMutability":"view"},{"type":"function","name":"SNARK_SCALAR_FIELD","inputs":[],"outputs":[{"name":"","type":"uint256","internalType":"uint256"}],"stateMutability":"view"},{"type":"function","name":"ZERO_VALUE","inputs":[],"outputs":[{"name":"","type":"uint256","internalType":"uint256"}],"stateMutability":"view"},{"type":"function","name":"accumulatedEntryFees","inputs":[],"outputs":[{"name":"","type":"uint256","internalType":"uint256"}],"stateMutability":"view"},{"type":"function","name":"accumulatedExitFees","inputs":[],"outputs":[{"name":"","type":"uint256","internalType":"uint256"}],"stateMutability":"view"},{"type":"function","name":"batchWithdraw","inputs":[{"name":"proof","type":"bytes","internalType":"bytes"},{"name":"args","type":"tuple","internalType":"struct VeilVault.BatchWithdrawArgs","components":[{"name":"nullifierHashes","type":"bytes32[]","internalType":"bytes32[]"},{"name":"roots","type":"bytes32[]","internalType":"bytes32[]"},{"name":"recipients","type":"address[]","internalType":"address[]"},{"name":"denominations","type":"uint256[]","internalType":"uint256[]"},{"name":"relayers","type":"address[]","internalType":"address[]"},{"name":"fees","type":"uint256[]","internalType":"uint256[]"}]}],"outputs":[],"stateMutability":"nonpayable"},{"type":"function","name":"claimFees","inputs":[],"outputs":[],"stateMutability":"nonpayable"},{"type":"function","name":"commitmentExists","inputs":[{"name":"","type":"bytes32","internalType":"bytes32"}],"outputs":[{"name":"","type":"bool","internalType":"bool"}],"stateMutability":"view"},{"type":"function","name":"currentRootIndex","inputs":[],"outputs":[{"name":"","type":"uint32","internalType":"uint32"}],"stateMutability":"view"},{"type":"function","name":"deposit","inputs":[{"name":"commitment","type":"bytes32","internalType":"bytes32"},{"name":"denomination","type":"uint256","internalType":"uint256"}],"outputs":[],"stateMutability":"nonpayable"},{"type":"function","name":"distributeEntryFees","inputs":[],"outputs":[],"stateMutability":"nonpayable"},{"type":"function","name":"filledSubtrees","inputs":[{"name":"","type":"uint256","internalType":"uint256"}],"outputs":[{"name":"","type":"uint256","internalType":"uint256"}],"stateMutability":"view"},{"type":"function","name":"getLastRoot","inputs":[],"outputs":[{"name":"","type":"uint256","internalType":"uint256"}],"stateMutability":"view"},{"type":"function","name":"getLeafCount","inputs":[],"outputs":[{"name":"","type":"uint256","internalType":"uint256"}],"stateMutability":"view"},{"type":"function","name":"getRoot","inputs":[],"outputs":[{"name":"","type":"bytes32","internalType":"bytes32"}],"stateMutability":"view"},{"type":"function","name":"hashLeftRight","inputs":[{"name":"_left","type":"uint256","internalType":"uint256"},{"name":"_right","type":"uint256","internalType":"uint256"}],"outputs":[{"name":"","type":"uint256","internalType":"uint256"}],"stateMutability":"pure"},{"type":"function","name":"isKnownRoot","inputs":[{"name":"_root","type":"uint256","internalType":"uint256"}],"outputs":[{"name":"","type":"bool","internalType":"bool"}],"stateMutability":"view"},{"type":"function","name":"levels","inputs":[],"outputs":[{"name":"","type":"uint32","internalType":"uint32"}],"stateMutability":"view"},{"type":"function","name":"nextIndex","inputs":[],"outputs":[{"name":"","type":"uint32","internalType":"uint32"}],"stateMutability":"view"},{"type":"function","name":"nullifierSpent","inputs":[{"name":"","type":"bytes32","internalType":"bytes32"}],"outputs":[{"name":"","type":"bool","internalType":"bool"}],"stateMutability":"view"},{"type":"function","name":"owner","inputs":[],"outputs":[{"name":"","type":"address","internalType":"address"}],"stateMutability":"view"},{"type":"function","name":"renounceOwnership","inputs":[],"outputs":[],"stateMutability":"nonpayable"},{"type":"function","name":"roots","inputs":[{"name":"","type":"uint256","internalType":"uint256"}],"outputs":[{"name":"","type":"uint256","internalType":"uint256"}],"stateMutability":"view"},{"type":"function","name":"token","inputs":[],"outputs":[{"name":"","type":"address","internalType":"contract IERC20"}],"stateMutability":"view"},{"type":"function","name":"transferOwnership","inputs":[{"name":"newOwner","type":"address","internalType":"address"}],"outputs":[],"stateMutability":"nonpayable"},{"type":"function","name":"verifier","inputs":[],"outputs":[{"name":"","type":"address","internalType":"address"}],"stateMutability":"view"},{"type":"function","name":"withdraw","inputs":[{"name":"proof","type":"bytes","internalType":"bytes"},{"name":"nullifierHash","type":"bytes32","internalType":"bytes32"},{"name":"root","type":"bytes32","internalType":"bytes32"},{"name":"recipient","type":"address","internalType":"address"},{"name":"denomination","type":"uint256","internalType":"uint256"},{"name":"relayer","type":"address","internalType":"address"},{"name":"fee","type":"uint256","internalType":"uint256"}],"outputs":[],"stateMutability":"nonpayable"},{"type":"function","name":"zeros","inputs":[{"name":"i","type":"uint256","internalType":"uint256"}],"outputs":[{"name":"","type":"uint256","internalType":"uint256"}],"stateMutability":"pure"},{"type":"event","name":"Deposit","inputs":[{"name":"commitment","type":"bytes32","indexed":true,"internalType":"bytes32"},{"name":"leafIndex","type":"uint32","indexed":false,"internalType":"uint32"},{"name":"denomination","type":"uint256","indexed":false,"internalType":"uint256"}],"anonymous":false},{"type":"event","name":"OwnershipTransferred","inputs":[{"name":"previousOwner","type":"address","indexed":true,"internalType":"address"},{"name":"newOwner","type":"address","indexed":true,"internalType":"address"}],"anonymous":false},{"type":"event","name":"Withdrawal","inputs":[{"name":"recipient","type":"address","indexed":true,"internalType":"address"},{"name":"nullifierHash","type":"bytes32","indexed":false,"internalType":"bytes32"},{"name":"amount","type":"uint256","indexed":false,"internalType":"uint256"}],"anonymous":false},{"type":"error","name":"ArrayLengthMismatch","inputs":[]},{"type":"error","name":"CommitmentAlreadyExists","inputs":[]},{"type":"error","name":"CommitmentOutOfField","inputs":[]},{"type":"error","name":"EmptyBatch","inputs":[]},{"type":"error","name":"FeeTooHigh","inputs":[]},{"type":"error","name":"InvalidDenomination","inputs":[]},{"type":"error","name":"InvalidRoot","inputs":[]},{"type":"error","name":"NullifierAlreadySpent","inputs":[]},{"type":"error","name":"OwnableInvalidOwner","inputs":[{"name":"owner","type":"address","internalType":"address"}]},{"type":"error","name":"OwnableUnauthorizedAccount","inputs":[{"name":"account","type":"address","internalType":"address"}]},{"type":"error","name":"ProofVerificationFailed","inputs":[]},{"type":"error","name":"ReentrancyGuardReentrantCall","inputs":[]},{"type":"error","name":"SafeERC20FailedOperation","inputs":[{"name":"token","type":"address","internalType":"address"}]},{"type":"error","name":"UnauthorizedRelayer","inputs":[]}],"bytecode":{"object":"0x60c0604052600380546001600160401b031916905534801561001f575f5ffd5b506040516140d33803806140d383398101604081905261003e91610835565b33601461004f565b60405180910390fd5b60208163ffffffff16106100a55760405162461bcd60e51b815260206004820152601e60248201527f5f6c6576656c732073686f756c64206265206c657373207468616e20333200006044820152606401610046565b5f805463ffffffff191663ffffffff83161781555b8163ffffffff168163ffffffff1610156100fe576100dd63ffffffff82166101b1565b63ffffffff82165f90815260016020819052604090912091909155016100ba565b5061011861010d600183610866565b63ffffffff166101b1565b5f805260026020527fac33ff75c19e70fe83507db0d683fd3465c996598dc972688b7ace676c89077b555060017f9b779b17422d0df92223018b32b4d1fa46e071723d6817e2486d003becc55f00556001600160a01b03811661019057604051631e4fbdf760e01b81525f6004820152602401610046565b610199816107b8565b506001600160a01b039182166080521660a052610894565b5f815f036101c057505f919050565b816001036101ef57507f18dfb8dc9b82229cff974efefc8df78b1ce96d9d844236b496785c698bc6732e919050565b8160020361021e57507f2c0d184fc7a25c124a27a67b2c46220b039b1a5072c3b693a18ffee458f6425d919050565b8160030361024d57507f268b2b93ac5fe540e618a378b8a71b8f2407232744d71e501ce8699980b306e5919050565b8160040361027c57507f2d436f654e14cc4febcafdf4a753b149dd8c88a75df9e5d6707e83a853b5f791919050565b816005036102ab57507f0b66fdef5a7f00f6fb45d1498b4d7131218e69ccf0a2751b6a1fb1bcd982867d919050565b816006036102da57507f1d542b476c671bb6f0d2ab2939335d7cbad03476f1e3bcba70973b1adfe88b91919050565b8160070361030957507f0680c6388c5798caf80642a1e84316b8b2f7caa99da076f3057d2962a46c5358919050565b8160080361033857507f03c53ce5296e3e895171f89aa09f84214e3fb0755fe7a423b87888e4b3d731b8919050565b8160090361036757507f2dd4e2510b33275359bba6edf72e6bdacad259950b024b2cc19d63c3a5b761df919050565b81600a0361039657507f11cb221f69d954d521fb5393767e77fe4d14133757a706b318e62fa984f98157919050565b81600b036103c557507f039d78bac8f890788eefe39af15eee5825056648f99210054fd03c25213f4de7919050565b81600c036103f457507f0c55b828a83062a77d2b3e0a66bbb50cb6040990d9f368da8b24c0e82b692349919050565b81600d0361042357507f24c866ac88715851268d808487e20e6986084fc222d7188e2a8e0f5b9f8457ef919050565b81600e0361045257507f0f6a94e437b9dfb35cdedf41e2e154c3ae449b7c04c13add0996a7b53cde5400919050565b81600f0361048157507f22afe7696b87cb782742e2d3ecb0f749a9beefbbb2159d178b09000e55b22cab919050565b816010036104b057507f121b01164d32e9ab841ba8f5602b0ec58b576e62552c96911d4d988d49468cdd919050565b816011036104df57507f05f3810707b1336c953b7db191215dab2b5772f93025aa345b954b43135b627b919050565b8160120361050e57507f287515b2d5975c74e3fd85a20d68611a463ffe605a1c54d8140ab16d1b77f57b919050565b8160130361053d57507f276ff13fde3afa1adb26149ddc3aa67240d603b6a91da5e494c8e58706381a38919050565b8160140361056c57507f3039bcb20f03fd9c8650138ef2cfe643edeed152f9c20999f43aeed54d79e387919050565b8160150361059b57507f087e5af439450ef09ce6f12a47571971d83309bb6fd1e280c29baf69257f8a4f919050565b816016036105ca57507f1821495b1919fa5439ae4a314ff98843067381a3c015f744592bfd64101def1d919050565b816017036105f957507f25789f32f958568364c8139771d7864d93f97efb5bbb87cce1959e7e7443ac80919050565b8160180361062857507f25ad0850411551115fd697c4d91668f92dde52421be59650357cd50363880543919050565b8160190361065757507f10b604f35a902419a0fdcf8ee57123e92f0d650ab009b5105916cac7813c9137919050565b81601a0361068657507f1bb07b96cdddee486afb20c78a3b82208cb80d2c55e596896fa1879164a751db919050565b81601b036106b557507f04ab93e9c494b67162063e77960cd36f4e3e5cdee5388a603dc55a03875c72bb919050565b81601c036106e457507f0f9e7f4ad948e7e487831c37fef6e032d66ab2cd3d742d024274612a86cc55ed919050565b81601d0361071357507f2f1c6920644cd674376a6d3ba4fd3cbe3a571685af0d9ab28e1461e4c1d6fc0a919050565b81601e0361074257507f0de2cd9dffe1e710647fdc179884bd0367276612ef83d2aeea0f7d8aecb9c3d7919050565b81601f0361077057507e77ed17dad4b561a9b4a21cf58720ef0c057699fec72b92f2ca26fdf6b48a83919050565b60405162461bcd60e51b815260206004820152601360248201527f496e646578206f7574206f6620626f756e6473000000000000000000000000006044820152606401610046565b600380546001600160a01b0383811668010000000000000000818102600160401b600160e01b031985161790945560405193909204169182907f8be0079c531659141344cd1fd0a4f28419497f9722a3daafe3b4186f6b6457e0905f90a35050565b80516001600160a01b0381168114610830575f5ffd5b919050565b5f5f60408385031215610846575f5ffd5b61084f8361081a565b915061085d6020840161081a565b90509250929050565b63ffffffff828116828216039081111561088e57634e487b7160e01b5f52601160045260245ffd5b92915050565b60805160a0516137ed6108e65f395f8181610255015281816109ca015261128b01525f818161046e0152818161059f0152818161067201528181610aea01528181610b20015261156701526137ed5ff3fe608060405234801561000f575f5ffd5b50600436106101fd575f3560e01c806390eeb02b11610114578063d294f093116100a9578063ec73295911610079578063ec73295914610430578063f178e47c14610437578063f2fde38b14610456578063fc0c546a14610469578063fc7e9c6f14610490575f5ffd5b8063d294f093146103ec578063d3ea6125146103f4578063d495f03d1461040a578063e82955881461041d575f5ffd5b8063ba70f757116100e4578063ba70f7571461030b578063c2b40ae4146103bc578063cb799633146103db578063cd87a3b4146103e4575f5ffd5b806390eeb02b1461037a578063a366184a1461038a578063a6232a931461039d578063b269d812146103b0575f5ffd5b8063414a37ba116101955780636509055c116101655780636509055c14610327578063715018a61461033057806386307865146103385780638da5cb5b1461035a5780639089ad0e14610372575f5ffd5b8063414a37ba146102345780634ecf518b146102d45780635bb93995146102f85780635ca1e1651461030b575f5ffd5b80632b7ac3f3116101d05780632b7ac3f314610250578063324d84381461028f57806338c869111461029757806338d1b172146102c9575f5ffd5b80630ffe92ea146102015780631de26e161461021f57806325c2cd12146102345780632b274e5114610248575b5f5ffd5b61020c6305f5e10081565b6040519081526020015b60405180910390f35b61023261022d36600461328f565b6104a8565b005b61020c5f5160206137785f395f51905f5281565b610232610648565b6102777f000000000000000000000000000000000000000000000000000000000000000081565b6040516001600160a01b039091168152602001610216565b61020c600a81565b6102b96102a53660046132af565b60076020525f908152604090205460ff1681565b6040519015158152602001610216565b61020c633b9aca0081565b5f546102e39063ffffffff1681565b60405163ffffffff9091168152602001610216565b61020c61030636600461328f565b61069c565b60035463ffffffff165f9081526002602052604090205461020c565b61020c60045481565b61023261077c565b6102b96103463660046132af565b60066020525f908152604090205460ff1681565b600354600160401b90046001600160a01b0316610277565b61020c601481565b6003546102e39063ffffffff1681565b610232610398366004613321565b61078f565b6102b96103ab3660046132af565b610baf565b61020c6402540be40081565b61020c6103ca3660046132af565b60026020525f908152604090205481565b61020c60055481565b6102e3606481565b610232610c28565b600354640100000000900463ffffffff1661020c565b6102326104183660046133a7565b610c54565b61020c61042b3660046132af565b6116b3565b61020c5f81565b61020c6104453660046132af565b60016020525f908152604090205481565b610232610464366004613416565b611cb0565b6102777f000000000000000000000000000000000000000000000000000000000000000081565b6003546102e390640100000000900463ffffffff1681565b6104b0611cea565b6305f5e10081141580156104c85750633b9aca008114155b80156104d957506402540be4008114155b156104f757604051637833d9e360e11b815260040160405180910390fd5b5f5160206137785f395f51905f52821061052457604051632e4eedd760e21b815260040160405180910390fd5b5f8281526006602052604090205460ff16156105535760405163145718a760e01b815260040160405180910390fd5b5f612710610562601484613443565b61056c919061346e565b5f848152600660205260409020805460ff1916600117905590506105c733306105958486613481565b6001600160a01b037f000000000000000000000000000000000000000000000000000000000000000016929190611d05565b8060045f8282546105d89190613481565b909155505f90506105e884611d41565b6040805163ffffffff831681526020810186905291925085917fa945e51eec50ab98c161376f0db4cf2aeba3ec92755fe2fcd388bdbbb80ff196910160405180910390a2505061064460015f5160206137985f395f51905f5255565b5050565b600480545f90915560035461069990600160401b90046001600160a01b03165b6001600160a01b037f0000000000000000000000000000000000000000000000000000000000000000169083611f01565b50565b5f5f5160206137785f395f51905f5283106106fe5760405162461bcd60e51b815260206004820181905260248201527f5f6c6566742073686f756c6420626520696e7369646520746865206669656c6460448201526064015b60405180910390fd5b5f5160206137785f395f51905f5282106107645760405162461bcd60e51b815260206004820152602160248201527f5f72696768742073686f756c6420626520696e7369646520746865206669656c6044820152601960fa1b60648201526084016106f5565b61076e8383611f36565b90505b92915050565b919050565b610784611f92565b61078d5f611fc7565b565b610797611cea565b6107a085610baf565b6107bd5760405163504570e360e01b815260040160405180910390fd5b5f8681526007602052604090205460ff16156107ec5760405163b115d85760e01b815260040160405180910390fd5b6305f5e10083141580156108045750633b9aca008314155b801561081557506402540be4008314155b1561083357604051637833d9e360e11b815260040160405180910390fd5b6001600160a01b038216158015906108545750336001600160a01b03831614155b1561087257604051633c20627b60e01b815260040160405180910390fd5b5f612710610881600a86613443565b61088b919061346e565b9050836108988284613481565b11156108b75760405163cd4e616760e01b815260040160405180910390fd5b60408051600680825260e082019092525f916020820160c08036833701905050905087815f815181106108ec576108ec6134a8565b602002602001018181525050868160018151811061090c5761090c6134a8565b602002602001018181525050856001600160a01b03165f1b81600281518110610937576109376134a8565b602002602001018181525050845f1b81600381518110610959576109596134a8565b602002602001018181525050836001600160a01b03165f1b81600481518110610984576109846134a8565b602002602001018181525050825f1b816005815181106109a6576109a66134a8565b6020908102919091010152604051633a94343960e21b81525f906001600160a01b037f0000000000000000000000000000000000000000000000000000000000000000169063ea50d0e490610a03908e908e9087906004016134bc565b602060405180830381865afa925050508015610a3c575060408051601f3d908101601f19168201909252610a3991810190613534565b60015b610a5957604051631ac2386360e31b815260040160405180910390fd5b905080610a7957604051631ac2386360e31b815260040160405180910390fd5b5f898152600760205260408120805460ff1916600117905584610a9c858961355a565b610aa6919061355a565b90508360055f828254610ab99190613481565b90915550508415610b13575f6001600160a01b038716610ad95733610adb565b865b9050610b116001600160a01b037f0000000000000000000000000000000000000000000000000000000000000000168288611f01565b505b610b476001600160a01b037f0000000000000000000000000000000000000000000000000000000000000000168983611f01565b604080518b8152602081018390526001600160a01b038a16917f4206db6775563d1043abfcf27cd0ecd19fcc464be574a1487fc95b24957a671a910160405180910390a250505050610ba560015f5160206137985f395f51905f5255565b5050505050505050565b5f815f03610bbe57505f919050565b60035463ffffffff16805b63ffffffff81165f908152600260205260409020548403610bee575060019392505050565b8063ffffffff165f03610bff575060645b80610c098161356d565b9150508163ffffffff168163ffffffff1603610bc957505f9392505050565b610c30611f92565b600580545f90915560035461069990600160401b90046001600160a01b0316610668565b610c5c611cea565b5f610c67828061358b565b9150819050610c79602084018461358b565b9050141580610c96575080610c91604084018461358b565b905014155b80610caf575080610caa606084018461358b565b905014155b80610cc8575080610cc3608084018461358b565b905014155b80610ce1575080610cdc60a084018461358b565b905014155b15610cff5760405163512509d360e11b815260040160405180910390fd5b805f03610d1f5760405163c2e5347d60e01b815260040160405180910390fd5b5f610d2b826006613443565b67ffffffffffffffff811115610d4357610d43613494565b604051908082528060200260200182016040528015610d6c578160200160208202803683370190505b5090505f805b8381101561127157610da8610d8a602087018761358b565b83818110610d9a57610d9a6134a8565b905060200201355f1c610baf565b610dc55760405163504570e360e01b815260040160405180910390fd5b60075f610dd2878061358b565b84818110610de257610de26134a8565b602090810292909201358352508101919091526040015f205460ff1615610e1c5760405163b115d85760e01b815260040160405180910390fd5b6305f5e100610e2e606087018761358b565b83818110610e3e57610e3e6134a8565b9050602002013514158015610e7a5750633b9aca00610e60606087018761358b565b83818110610e7057610e706134a8565b9050602002013514155b8015610eae57506402540be400610e94606087018761358b565b83818110610ea457610ea46134a8565b9050602002013514155b15610ecc57604051637833d9e360e11b815260040160405180910390fd5b5f610eda608087018761358b565b83818110610eea57610eea6134a8565b9050602002016020810190610eff9190613416565b6001600160a01b031614158015610f595750610f1e608086018661358b565b82818110610f2e57610f2e6134a8565b9050602002016020810190610f439190613416565b6001600160a01b0316336001600160a01b031614155b15610f7757604051633c20627b60e01b815260040160405180910390fd5b5f612710600a610f8a606089018961358b565b85818110610f9a57610f9a6134a8565b90506020020135610fab9190613443565b610fb5919061346e565b9050610fc4606087018761358b565b83818110610fd457610fd46134a8565b9050602002013581878060a00190610fec919061358b565b85818110610ffc57610ffc6134a8565b9050602002013561100d9190613481565b111561102c5760405163cd4e616760e01b815260040160405180910390fd5b611036868061358b565b83818110611046576110466134a8565b905060200201358483600661105b9190613443565b611065905f613481565b81518110611075576110756134a8565b602002602001018181525050858060200190611091919061358b565b838181106110a1576110a16134a8565b90506020020135848360066110b69190613443565b6110c1906001613481565b815181106110d1576110d16134a8565b60209081029190910101526110e9604087018761358b565b838181106110f9576110f96134a8565b905060200201602081019061110e9190613416565b6001600160a01b031684611123846006613443565b61112e906002613481565b8151811061113e5761113e6134a8565b6020908102919091010152611156606087018761358b565b83818110611166576111666134a8565b602002919091013590508461117c846006613443565b611187906003613481565b81518110611197576111976134a8565b60209081029190910101526111af608087018761358b565b838181106111bf576111bf6134a8565b90506020020160208101906111d49190613416565b6001600160a01b0316846111e9846006613443565b6111f4906004613481565b81518110611204576112046134a8565b602090810291909101015261121c60a087018761358b565b8381811061122c5761122c6134a8565b6020029190910135905084611242846006613443565b61124d906005613481565b8151811061125d5761125d6134a8565b602090810291909101015250600101610d72565b50604051633a94343960e21b81525f906001600160a01b037f0000000000000000000000000000000000000000000000000000000000000000169063ea50d0e4906112c4908a908a9088906004016134bc565b602060405180830381865afa9250505080156112fd575060408051601f3d908101601f191682019092526112fa91810190613534565b60015b61131a57604051631ac2386360e31b815260040160405180910390fd5b90508061133a57604051631ac2386360e31b815260040160405180910390fd5b5f5b8481101561167c5760075f611351888061358b565b84818110611361576113616134a8565b602090810292909201358352508101919091526040015f205460ff161561139b5760405163b115d85760e01b815260040160405180910390fd5b600160075f6113aa898061358b565b858181106113ba576113ba6134a8565b9050602002013581526020019081526020015f205f6101000a81548160ff0219169083151502179055505f612710600a8880606001906113fa919061358b565b8581811061140a5761140a6134a8565b9050602002013561141b9190613443565b611425919061346e565b90506114318185613481565b93505f61144160a089018961358b565b84818110611451576114516134a8565b9050602002013582898060600190611469919061358b565b86818110611479576114796134a8565b9050602002013561148a919061355a565b611494919061355a565b90505f6114a460a08a018a61358b565b858181106114b4576114b46134a8565b9050602002013511156115a0575f806114d060808b018b61358b565b868181106114e0576114e06134a8565b90506020020160208101906114f59190613416565b6001600160a01b031603611509573361153b565b61151660808a018a61358b565b85818110611526576115266134a8565b905060200201602081019061153b9190613416565b905061159e8161154e60a08c018c61358b565b8781811061155e5761155e6134a8565b905060200201357f00000000000000000000000000000000000000000000000000000000000000006001600160a01b0316611f019092919063ffffffff16565b505b6115d56115b060408a018a61358b565b858181106115c0576115c06134a8565b90506020020160208101906106689190613416565b6115e2604089018961358b565b848181106115f2576115f26134a8565b90506020020160208101906116079190613416565b6001600160a01b03167f4206db6775563d1043abfcf27cd0ecd19fcc464be574a1487fc95b24957a671a61163b8a8061358b565b8681811061164b5761164b6134a8565b905060200201358360405161166a929190918252602082015260400190565b60405180910390a2505060010161133c565b508160055f82825461168e9190613481565b909155505060015f5160206137985f395f51905f5255506116ae92505050565b505050565b5f815f036116c257505f919050565b816001036116f157507f18dfb8dc9b82229cff974efefc8df78b1ce96d9d844236b496785c698bc6732e919050565b8160020361172057507f2c0d184fc7a25c124a27a67b2c46220b039b1a5072c3b693a18ffee458f6425d919050565b8160030361174f57507f268b2b93ac5fe540e618a378b8a71b8f2407232744d71e501ce8699980b306e5919050565b8160040361177e57507f2d436f654e14cc4febcafdf4a753b149dd8c88a75df9e5d6707e83a853b5f791919050565b816005036117ad57507f0b66fdef5a7f00f6fb45d1498b4d7131218e69ccf0a2751b6a1fb1bcd982867d919050565b816006036117dc57507f1d542b476c671bb6f0d2ab2939335d7cbad03476f1e3bcba70973b1adfe88b91919050565b8160070361180b57507f0680c6388c5798caf80642a1e84316b8b2f7caa99da076f3057d2962a46c5358919050565b8160080361183a57507f03c53ce5296e3e895171f89aa09f84214e3fb0755fe7a423b87888e4b3d731b8919050565b8160090361186957507f2dd4e2510b33275359bba6edf72e6bdacad259950b024b2cc19d63c3a5b761df919050565b81600a0361189857507f11cb221f69d954d521fb5393767e77fe4d14133757a706b318e62fa984f98157919050565b81600b036118c757507f039d78bac8f890788eefe39af15eee5825056648f99210054fd03c25213f4de7919050565b81600c036118f657507f0c55b828a83062a77d2b3e0a66bbb50cb6040990d9f368da8b24c0e82b692349919050565b81600d0361192557507f24c866ac88715851268d808487e20e6986084fc222d7188e2a8e0f5b9f8457ef919050565b81600e0361195457507f0f6a94e437b9dfb35cdedf41e2e154c3ae449b7c04c13add0996a7b53cde5400919050565b81600f0361198357507f22afe7696b87cb782742e2d3ecb0f749a9beefbbb2159d178b09000e55b22cab919050565b816010036119b257507f121b01164d32e9ab841ba8f5602b0ec58b576e62552c96911d4d988d49468cdd919050565b816011036119e157507f05f3810707b1336c953b7db191215dab2b5772f93025aa345b954b43135b627b919050565b81601203611a1057507f287515b2d5975c74e3fd85a20d68611a463ffe605a1c54d8140ab16d1b77f57b919050565b81601303611a3f57507f276ff13fde3afa1adb26149ddc3aa67240d603b6a91da5e494c8e58706381a38919050565b81601403611a6e57507f3039bcb20f03fd9c8650138ef2cfe643edeed152f9c20999f43aeed54d79e387919050565b81601503611a9d57507f087e5af439450ef09ce6f12a47571971d83309bb6fd1e280c29baf69257f8a4f919050565b81601603611acc57507f1821495b1919fa5439ae4a314ff98843067381a3c015f744592bfd64101def1d919050565b81601703611afb57507f25789f32f958568364c8139771d7864d93f97efb5bbb87cce1959e7e7443ac80919050565b81601803611b2a57507f25ad0850411551115fd697c4d91668f92dde52421be59650357cd50363880543919050565b81601903611b5957507f10b604f35a902419a0fdcf8ee57123e92f0d650ab009b5105916cac7813c9137919050565b81601a03611b8857507f1bb07b96cdddee486afb20c78a3b82208cb80d2c55e596896fa1879164a751db919050565b81601b03611bb757507f04ab93e9c494b67162063e77960cd36f4e3e5cdee5388a603dc55a03875c72bb919050565b81601c03611be657507f0f9e7f4ad948e7e487831c37fef6e032d66ab2cd3d742d024274612a86cc55ed919050565b81601d03611c1557507f2f1c6920644cd674376a6d3ba4fd3cbe3a571685af0d9ab28e1461e4c1d6fc0a919050565b81601e03611c4457507f0de2cd9dffe1e710647fdc179884bd0367276612ef83d2aeea0f7d8aecb9c3d7919050565b81601f03611c7257507e77ed17dad4b561a9b4a21cf58720ef0c057699fec72b92f2ca26fdf6b48a83919050565b60405162461bcd60e51b8152602060048201526013602482015272496e646578206f7574206f6620626f756e647360681b60448201526064016106f5565b611cb8611f92565b6001600160a01b038116611ce157604051631e4fbdf760e01b81525f60048201526024016106f5565b61069981611fc7565b611cf2612029565b60025f5160206137985f395f51905f5255565b611d13848484846001612058565b611d3b57604051635274afe760e01b81526001600160a01b03851660048201526024016106f5565b50505050565b6003545f8054909163ffffffff640100000000909104811691611d66911660026136e3565b63ffffffff168163ffffffff1603611dd95760405162461bcd60e51b815260206004820152603060248201527f4d65726b6c6520747265652069732066756c6c2e204e6f206d6f7265206c656160448201526f1d995cc818d85b88189948185919195960821b60648201526084016106f5565b80835f80805b5f5463ffffffff9081169082161015611e7557611dfd6002866136fa565b63ffffffff165f03611e3957839250611e1b8163ffffffff166116b3565b63ffffffff82165f9081526001602052604090208590559150611e54565b63ffffffff81165f9081526001602052604090205492508391505b611e5e838361069c565b9350611e6b600286613721565b9450600101611ddf565b506003545f90606490611e8f9063ffffffff166001613748565b611e9991906136fa565b6003805463ffffffff191663ffffffff83169081179091555f9081526002602052604090208590559050611ece866001613748565b6003805463ffffffff929092166401000000000267ffffffff000000001990921691909117905550939695505050505050565b611f0e83838360016120c5565b6116ae57604051635274afe760e01b81526001600160a01b03841660048201526024016106f5565b5f611f3f613271565b611f565f5160206137785f395f51905f5285613764565b8152611f6f5f5160206137785f395f51905f5284613764565b60208201525f604082018190526060820152611f8a81612127565b519392505050565b6003546001600160a01b03600160401b90910416331461078d5760405163118cdaa760e01b81523360048201526024016106f5565b600380546001600160a01b03838116600160401b81810268010000000000000000600160e01b031985161790945560405193909204169182907f8be0079c531659141344cd1fd0a4f28419497f9722a3daafe3b4186f6b6457e0905f90a35050565b5f5160206137985f395f51905f525460020361078d57604051633ee5aeb560e01b815260040160405180910390fd5b6040516323b872dd60e01b5f8181526001600160a01b038781166004528616602452604485905291602083606481808c5af1925060015f511483166120b45783831516156120a8573d5f823e3d81fd5b5f883b113d1516831692505b604052505f60605295945050505050565b60405163a9059cbb60e01b5f8181526001600160a01b038616600452602485905291602083604481808b5af1925060015f5114831661211b57838315161561210f573d5f823e3d81fd5b5f873b113d1516831692505b60405250949350505050565b61213081612ec6565b6121bd817f19b849f69450b06848da1d39bd5e4a4302bb86744edc26238b0878e269ed23e57f265ddfe127dd51bd7239347b758f0a1320eb2cc7450acc1dad47f80c8dcf34d67f199750ec472f1809e0f66a545e1e51624108ac845015c2aa3dfc36bab497d8aa7f157ff3fe65ac7208110f06a5f74302b14d743ea25067f0ffd032f787c7f1cdf8612ffd565b61224a817f2e49c43c4569dd9c5fd35ac45fca33f10b15c590692f8beefe18f4896ac949027f0e35fb89981890520d4aef2b6d6506c3cb2f0b6973c24fa82731345ffa2d1f1e7f251ad47cb15c4f1105f109ae5e944f1ba9d9e7806d667ffec6fe723002e0b9967f13da07dc64d428369873e97160234641f8beb56fdd05e5f3563fa39d9c22df4e612ffd565b6122d7817f0c009b84e650e6d23dc00c7dccef7483a553939689d350cd46e7b89055fd47387f011f16b1c63a854f01992e3956f42d8b04eb650c6d535eb0203dec74befdca067f0ed69e5e383a688f209d9a561daa79612f3f78d0467ad45485df07093f3675497f04dba94a7b0ce9e221acad41472b6bbe3aec507f5eb3d33f463672264c9f789b612ffd565b612364817f0a3f2637d840f3a16eb094271c9d237b6036757d4bb50bf7ce732ff1d4fa28e87f259a666f129eea198f8a1c502fdb38fa39b1f075569564b6e54a485d1182323f7f28bf7459c9b2f4c6d8e7d06a4ee3a47f7745d4271038e5157a32fdf7ede0d6a17f0a1ca941f057037526ea200f489be8d4c37c85bbcce6a2aeec91bd6941432447612ffd565b61238e817f0c6f8f958be0e93053d7fd4fc54512855535ed1539f051dcb43a26fd926361cf6130b9565b6123b8817f123106a93cd17578d426e8128ac9d90aa9e8a00708e296e084dd57e69caaf8116130b9565b6123e2817f26e1ba52ad9285d97dd3ab52f8e840085e8fa83ff1e8f1877b074867cd2dee756130b9565b61240c817f1cb55cad7bd133de18a64c5c47b9c97cbe4d8b7bf9e095864471537e6a4ae2c56130b9565b612436817f1dcd73e46acd8f8e0e2c7ce04bde7f6d2a53043d5060a41c7143f08e6e9055d06130b9565b612460817f011003e32f6d9c66f5852f05474a4def0cda294a0eb4e9b9b12b9bb4512e55746130b9565b61248a817f2b1e809ac1d10ab29ad5f20d03a57dfebadfe5903f58bafed7c508dd2287ae8c6130b9565b6124b4817f2539de1785b735999fb4dac35ee17ed0ef995d05ab2fc5faeaa69ae87bcec0a56130b9565b6124de817f0c246c5a2ef8ee0126497f222b3e0a0ef4e1c3d41c86d46e43982cb11d77951d6130b9565b612508817f192089c4974f68e95408148f7c0632edbb09e6a6ad1a1c2f3f0305f5d03b527b6130b9565b612532817f1eae0ad8ab68b2f06a0ee36eeb0d0c058529097d91096b756d8fdc2fb5a60d856130b9565b61255c817f179190e5d0e22179e46f8282872abc88db6e2fdc0dee99e69768bd98c5d06bfb6130b9565b612586817f29bb9e2c9076732576e9a81c7ac4b83214528f7db00f31bf6cafe794a9b3cd1c6130b9565b6125b0817f225d394e42207599403efd0c2464a90d52652645882aac35b10e590e6e691e086130b9565b6125da817f064760623c25c8cf753d238055b444532be13557451c087de09efd454b23fd596130b9565b612604817f10ba3a0e01df92e87f301c4b716d8a394d67f4bf42a75c10922910a78f6b5b876130b9565b61262e817f0e070bf53f8451b24f9c6e96b0c2a801cb511bc0c242eb9d361b77693f21471c6130b9565b612658817f1b94cd61b051b04dd39755ff93821a73ccd6cb11d2491d8aa7f921014de252fb6130b9565b612682817f1d7cb39bafb8c744e148787a2e70230f9d4e917d5713bb050487b5aa7d74070b6130b9565b6126ac817f2ec93189bd1ab4f69117d0fe980c80ff8785c2961829f701bb74ac1f303b17db6130b9565b6126d6817f2db366bfdd36d277a692bb825b86275beac404a19ae07a9082ea46bd835179266130b9565b612700817f062100eb485db06269655cf186a68532985275428450359adc99cec6960711b86130b9565b61272a817f0761d33c66614aaa570e7f1e8244ca1120243f92fa59e4f900c567bf41f5a59b6130b9565b612754817f20fc411a114d13992c2705aa034e3f315d78608a0f7de4ccf7a72e494855ad0d6130b9565b61277e817f25b5c004a4bdfcb5add9ec4e9ab219ba102c67e8b3effb5fc3a30f317250bc5a6130b9565b6127a8817f23b1822d278ed632a494e58f6df6f5ed038b186d8474155ad87e7dff62b37f4b6130b9565b6127d2817f22734b4c5c3f9493606c4ba9012499bf0f14d13bfcfcccaa16102a29cc2f69e06130b9565b6127fc817f26c0c8fe09eb30b7e27a74dc33492347e5bdff409aa3610254413d3fad795ce56130b9565b612826817f070dd0ccb6bd7bbae88eac03fa1fbb26196be3083a809829bbd626df348ccad96130b9565b612850817f12b6595bdb329b6fb043ba78bb28c3bec2c0a6de46d8c5ad6067c4ebfd4250da6130b9565b61287a817f248d97d7f76283d63bec30e7a5876c11c06fca9b275c671c5e33d95bb7e8d7296130b9565b6128a4817f1a306d439d463b0816fc6fd64cc939318b45eb759ddde4aa106d15d9bd9baaaa6130b9565b6128ce817f28a8f8372e3c38daced7c00421cb4621f4f1b54ddc27821b0d62d3d6ec7c56cf6130b9565b6128f7817e94975717f9a8a8bb35152f24d43294071ce320c829f388bc852183e1e2ce7e6130b9565b612921817f04d5ee4c3aa78f7d80fde60d716480d3593f74d4f653ae83f4103246db2e8d656130b9565b61294b817f2a6cf5e9aa03d4336349ad6fb8ed2269c7bef54b8822cc76d08495c12efde1876130b9565b612975817f2304d31eaab960ba9274da43e19ddeb7f792180808fd6e43baae48d7efcba3f36130b9565b61299f817f03fd9ac865a4b2a6d5e7009785817249bff08a7e0726fcb4e1c11d39d199f0b06130b9565b6129c8817eb7258ded52bbda2248404d55ee5044798afc3a209193073f7954d4d63b0b646130b9565b6129f2817f159f81ada0771799ec38fca2d4bf65ebb13d3a74f3298db36272c5ca65e92d9a6130b9565b612a1c817f1ef90e67437fbc8550237a75bc28e3bb9000130ea25f0c5471e144cf4264431f6130b9565b612a46817f1e65f838515e5ff0196b49aa41a2d2568df739bc176b08ec95a79ed82932e30d6130b9565b612a70817f2b1b045def3a166cec6ce768d079ba74b18c844e570e1f826575c1068c94c33f6130b9565b612a9a817f0832e5753ceb0ff6402543b1109229c165dc2d73bef715e3f1c6e07c168bb1736130b9565b612ac4817f02f614e9cedfb3dc6b762ae0a37d41bab1b841c2e8b6451bc5a8e3c390b6ad166130b9565b612aee817f0e2427d38bd46a60dd640b8e362cad967370ebb777bedff40f6a0be27e7ed7056130b9565b612b18817f0493630b7c670b6deb7c84d414e7ce79049f0ec098c3c7c50768bbe29214a53a6130b9565b612b42817f22ead100e8e482674decdab17066c5a26bb1515355d5461a3dc06cc85327cea96130b9565b612b6c817f25b3e56e655b42cdaae2626ed2554d48583f1ae35626d04de5084e0b6d2a6f166130b9565b612b96817f1e32752ada8836ef5837a6cde8ff13dbb599c336349e4c584b4fdc0a0cf6f9d06130b9565b612bc0817f2fa2a871c15a387cc50f68f6f3c3455b23c00995f05078f672a9864074d412e56130b9565b612bea817f2f569b8a9a4424c9278e1db7311e889f54ccbf10661bab7fcd18e7c7a7d835056130b9565b612c14817f044cb455110a8fdd531ade530234c518a7df93f7332ffd2144165374b246b43d6130b9565b612c3e817f227808de93906d5d420246157f2e42b191fe8c90adfe118178ddc723a53190256130b9565b612c68817f02fcca2934e046bc623adead873579865d03781ae090ad4a8579d2e7a68003556130b9565b612c92817f0ef915f0ac120b876abccceb344a1d36bad3f3c5ab91a8ddcbec2e060d8befac6130b9565b612d1f817f1797130f4b7a3e1777eb757bc6f287f6ab0fb85f6be63b09f3b16ef2b1405d387f0a76225dc04170ae3306c85abab59e608c7f497c20156d4d36c668555decc6e57f1fffb9ec1992d66ba1e77a7b93209af6f8fa76d48acb664796174b5326a31a5c7f25721c4fc15a3f2853b57c338fa538d85f8fbba6c6b9c6090611889b797b9c5f612ffd565b612dac817f0c817fd42d5f7a41215e3d07ba197216adb4c3790705da95eb63b982bfcaf75a7f13abe3f5239915d39f7e13c2c24970b6df8cf86ce00a22002bc15866e52b5a967f2106feea546224ea12ef7f39987a46c85c1bc3dc29bdbd7a92cd60acb4d391ce7f21ca859468a746b6aaa79474a37dab49f1ca5a28c748bc7157e1b3345bb0f959612ffd565b612e39817f05ccd6255c1e6f0c5cf1f0df934194c62911d14d0321662a8f1a48999e34185b7f0f0e34a64b70a626e464d846674c4c8816c4fb267fe44fe6ea28678cb09490a47f0558531a4e25470c6157794ca36d0e9647dbfcfe350d64838f5b1a8a2de0d4bf7f09d3dca9173ed2faceea125157683d18924cadad3f655a60b72f5864961f1455612ffd565b610699817f0328cbd54e8c0913493f866ed03d218bf23f92d68aaec48617d4c722e5bd43357f2bf07216e2aff0a223a487b1a7094e07e79e7bcc9798c648ee3347dd5329d34b7f1daf345a58006b736499c583cb76c316d6f78ed6a6dffc82111e11a63fe412df7f176563472456aaa746b694c60e1823611ef39039b2edc7ff391e6f2293d2c404612ffd565b602081015181515f915f5160206137785f395f51905f52910890505f5f5160206137785f395f51905f52836003602002015184600260200201510860208401519091505f905f5160206137785f395f51905f52908390829080080860608501519091505f905f5160206137785f395f51905f52908590829080080890505f5f5160206137785f395f51905f5284850890505f5160206137785f395f51905f5281820890505f5160206137785f395f51905f5282820890505f5f5160206137785f395f51905f5286870890505f5160206137785f395f51905f5281820890505f5160206137785f395f51905f5284820890505f5f5160206137785f395f51905f5282850890505f5f5160206137785f395f51905f52848708918952506020880191909152604087015260609095019490945250505050565b84515f5160206137785f395f51905f5290859008855260208501515f5160206137785f395f51905f5290849008602086015260408501515f5160206137785f395f51905f5290839008604086015260608501515f5160206137785f395f51905f52908290086060860152613077855f5b60200201516130e4565b855261308485600161306d565b602086015261309485600261306d565b60408601526130a485600361306d565b60608601526130b285612ec6565b5050505050565b81515f5160206137785f395f51905f529082900882526130d9825f61306d565b825261064482613126565b5f805f5160206137785f395f51905f5283840990505f5f5160206137785f395f51905f5282830990505f5160206137785f395f51905f52848209949350505050565b5f5f5160206137785f395f51905f52808360036020020151846002602002015108602084015184515f5160206137785f395f51905f529190080890505f5160206137785f395f51905f52815f5160206137785f395f51905f52845f60200201517f10dc6e9c006ea38b04b1e03b4bd9490c0d03f98929ca1d7fb56821fd19d3b6e70908825260208201515f5160206137785f395f51905f5290829082907f0c28145b6a44df3e0149b3d0a30b3bb599df9756d4dd9b84a86b38cfb45a740b0908602083015260408201515f5160206137785f395f51905f5290829082907e544b8338791518b2c7645a50392798b21f75bb60e3596170067d00141cac150908604083015260608201515f5160206137785f395f51905f5290829082907f222c01175718386f2e2e82eb122789e352e105a3b8fa852613bc534433ee428b090882600360200201525050565b60405180608001604052806004906020820280368337509192915050565b5f5f604083850312156132a0575f5ffd5b50508035926020909101359150565b5f602082840312156132bf575f5ffd5b5035919050565b5f5f83601f8401126132d6575f5ffd5b50813567ffffffffffffffff8111156132ed575f5ffd5b602083019150836020828501011115613304575f5ffd5b9250929050565b80356001600160a01b0381168114610777575f5ffd5b5f5f5f5f5f5f5f5f60e0898b031215613338575f5ffd5b883567ffffffffffffffff81111561334e575f5ffd5b61335a8b828c016132c6565b909950975050602089013595506040890135945061337a60608a0161330b565b93506080890135925061338f60a08a0161330b565b979a969950949793969295919450919260c001359150565b5f5f5f604084860312156133b9575f5ffd5b833567ffffffffffffffff8111156133cf575f5ffd5b6133db868287016132c6565b909450925050602084013567ffffffffffffffff8111156133fa575f5ffd5b840160c0818703121561340b575f5ffd5b809150509250925092565b5f60208284031215613426575f5ffd5b61076e8261330b565b634e487b7160e01b5f52601160045260245ffd5b80820281158282048414176107715761077161342f565b634e487b7160e01b5f52601260045260245ffd5b5f8261347c5761347c61345a565b500490565b808201808211156107715761077161342f565b634e487b7160e01b5f52604160045260245ffd5b634e487b7160e01b5f52603260045260245ffd5b60408152826040820152828460608301375f606084830101525f601f19601f85011682016060810160608483030160208501528085518083526080840191506020870193505f92505b808310156135285783518252602082019150602084019350600183019250613505565b50979650505050505050565b5f60208284031215613544575f5ffd5b81518015158114613553575f5ffd5b9392505050565b818103818111156107715761077161342f565b5f63ffffffff8216806135825761358261342f565b5f190192915050565b5f5f8335601e198436030181126135a0575f5ffd5b83018035915067ffffffffffffffff8211156135ba575f5ffd5b6020019150600581901b3603821315613304575f5ffd5b6001815b600184111561360c578085048111156135f0576135f061342f565b60018416156135fe57908102905b60019390931c9280026135d5565b935093915050565b5f8261362257506001610771565b8161362e57505f610771565b8160018114613644576002811461364e5761367f565b6001915050610771565b60ff84111561365f5761365f61342f565b6001841b915063ffffffff8211156136795761367961342f565b50610771565b5060208310610133831016604e8410600b84101617156136b6575081810a63ffffffff8111156136b1576136b161342f565b610771565b6136c563ffffffff84846135d1565b8063ffffffff048211156136db576136db61342f565b029392505050565b5f61076e63ffffffff841663ffffffff8416613614565b5f63ffffffff83168061370f5761370f61345a565b8063ffffffff84160691505092915050565b5f63ffffffff8316806137365761373661345a565b8063ffffffff84160491505092915050565b63ffffffff81811683821601908111156107715761077161342f565b5f826137725761377261345a565b50069056fe30644e72e131a029b85045b68181585d2833e84879b9709143e1f593f00000019b779b17422d0df92223018b32b4d1fa46e071723d6817e2486d003becc55f00a26469706673582212204b0a3354a706d24c27f673a5519bf078ebf344f0ddb7137f5cab2553abaaff8464736f6c634300081b0033","linkReferences":{}},"methodIdentifiers":{"DENOM_LARGE()":"b269d812","DENOM_MEDIUM()":"38d1b172","DENOM_SMALL()":"0ffe92ea","ENTRY_FEE_BPS()":"9089ad0e","EXIT_FEE_BPS()":"324d8438","FIELD_SIZE()":"414a37ba","ROOT_HISTORY_SIZE()":"cd87a3b4","SNARK_SCALAR_FIELD()":"25c2cd12","ZERO_VALUE()":"ec732959","accumulatedEntryFees()":"6509055c","accumulatedExitFees()":"cb799633","batchWithdraw(bytes,(bytes32[],bytes32[],address[],uint256[],address[],uint256[]))":"d495f03d","claimFees()":"d294f093","commitmentExists(bytes32)":"86307865","currentRootIndex()":"90eeb02b","deposit(bytes32,uint256)":"1de26e16","distributeEntryFees()":"2b274e51","filledSubtrees(uint256)":"f178e47c","getLastRoot()":"ba70f757","getLeafCount()":"d3ea6125","getRoot()":"5ca1e165","hashLeftRight(uint256,uint256)":"5bb93995","isKnownRoot(uint256)":"a6232a93","levels()":"4ecf518b","nextIndex()":"fc7e9c6f","nullifierSpent(bytes32)":"38c86911","owner()":"8da5cb5b","renounceOwnership()":"715018a6","roots(uint256)":"c2b40ae4","token()":"fc0c546a","transferOwnership(address)":"f2fde38b","verifier()":"2b7ac3f3","withdraw(bytes,bytes32,bytes32,address,uint256,address,uint256)":"a366184a","zeros(uint256)":"e8295588"},"id":35}