{"abi":[{"type":"constructor","inputs":[],"stateMutability":"nonpayable"},{"type":"function","name":"cancelIntent","inputs":[{"name":"intentKey","type":"bytes32","internalType":"bytes32"}],"outputs":[],"stateMutability":"nonpayable"},{"type":"function","name":"claimIntent","inputs":[{"name":"intentKey","type":"bytes32","internalType":"bytes32"}],"outputs":[],"stateMutability":"nonpayable"},{"type":"function","name":"eip712Domain","inputs":[],"outputs":[{"name":"fields","type":"bytes1","internalType":"bytes1"},{"name":"name","type":"string","internalType":"string"},{"name":"version","type":"string","internalType":"string"},{"name":"chainId","type":"uint256","internalType":"uint256"},{"name":"verifyingContract","type":"address","internalType":"address"},{"name":"salt","type":"bytes32","internalType":"bytes32"},{"name":"extensions","type":"uint256[]","internalType":"uint256[]"}],"stateMutability":"view"},{"type":"function","name":"intentKey","inputs":[{"name":"intent","type":"tuple","internalType":"struct IntentPool.WithdrawalIntent","components":[{"name":"user","type":"address","internalType":"address"},{"name":"nullifierHash","type":"bytes32","internalType":"bytes32"},{"name":"root","type":"bytes32","internalType":"bytes32"},{"name":"recipient","type":"address","internalType":"address"},{"name":"denomination","type":"uint256","internalType":"uint256"},{"name":"relayer","type":"address","internalType":"address"},{"name":"fee","type":"uint256","internalType":"uint256"},{"name":"proofHash","type":"bytes32","internalType":"bytes32"},{"name":"nonce","type":"uint256","internalType":"uint256"},{"name":"deadline","type":"uint64","internalType":"uint64"}]}],"outputs":[{"name":"","type":"bytes32","internalType":"bytes32"}],"stateMutability":"pure"},{"type":"function","name":"intents","inputs":[{"name":"","type":"bytes32","internalType":"bytes32"}],"outputs":[{"name":"user","type":"address","internalType":"address"},{"name":"relayer","type":"address","internalType":"address"},{"name":"claimer","type":"address","internalType":"address"},{"name":"deadline","type":"uint64","internalType":"uint64"},{"name":"status","type":"uint8","internalType":"enum IntentPool.IntentStatus"}],"stateMutability":"view"},{"type":"function","name":"nonces","inputs":[{"name":"","type":"address","internalType":"address"}],"outputs":[{"name":"","type":"uint256","internalType":"uint256"}],"stateMutability":"view"},{"type":"function","name":"submitWithdrawalIntent","inputs":[{"name":"intent","type":"tuple","internalType":"struct IntentPool.WithdrawalIntent","components":[{"name":"user","type":"address","internalType":"address"},{"name":"nullifierHash","type":"bytes32","internalType":"bytes32"},{"name":"root","type":"bytes32","internalType":"bytes32"},{"name":"recipient","type":"address","internalType":"address"},{"name":"denomination","type":"uint256","internalType":"uint256"},{"name":"relayer","type":"address","internalType":"address"},{"name":"fee","type":"uint256","internalType":"uint256"},{"name":"proofHash","type":"bytes32","internalType":"bytes32"},{"name":"nonce","type":"uint256","internalType":"uint256"},{"name":"deadline","type":"uint64","internalType":"uint64"}]},{"name":"signature","type":"bytes","internalType":"bytes"}],"outputs":[{"name":"intentKey","type":"bytes32","internalType":"bytes32"}],"stateMutability":"nonpayable"},{"type":"event","name":"EIP712DomainChanged","inputs":[],"anonymous":false},{"type":"event","name":"WithdrawalIntentCancelled","inputs":[{"name":"intentId","type":"bytes32","indexed":true,"internalType":"bytes32"},{"name":"user","type":"address","indexed":true,"internalType":"address"}],"anonymous":false},{"type":"event","name":"WithdrawalIntentClaimed","inputs":[{"name":"intentId","type":"bytes32","indexed":true,"internalType":"bytes32"},{"name":"solver","type":"address","indexed":true,"internalType":"address"}],"anonymous":false},{"type":"event","name":"WithdrawalIntentOpened","inputs":[{"name":"intentId","type":"bytes32","indexed":true,"internalType":"bytes32"},{"name":"user","type":"address","indexed":true,"internalType":"address"},{"name":"relayer","type":"address","indexed":true,"internalType":"address"},{"name":"deadline","type":"uint64","indexed":false,"internalType":"uint64"}],"anonymous":false},{"type":"error","name":"ECDSAInvalidSignature","inputs":[]},{"type":"error","name":"ECDSAInvalidSignatureLength","inputs":[{"name":"length","type":"uint256","internalType":"uint256"}]},{"type":"error","name":"ECDSAInvalidSignatureS","inputs":[{"name":"s","type":"bytes32","internalType":"bytes32"}]},{"type":"error","name":"IntentAlreadyExists","inputs":[]},{"type":"error","name":"IntentExpired","inputs":[]},{"type":"error","name":"IntentNotOpen","inputs":[]},{"type":"error","name":"InvalidDeadline","inputs":[]},{"type":"error","name":"InvalidNonce","inputs":[]},{"type":"error","name":"InvalidShortString","inputs":[]},{"type":"error","name":"InvalidSigner","inputs":[]},{"type":"error","name":"ReentrancyGuardReentrantCall","inputs":[]},{"type":"error","name":"StringTooLong","inputs":[{"name":"str","type":"string","internalType":"string"}]},{"type":"error","name":"UnauthorizedSolver","inputs":[]},{"type":"error","name":"UnauthorizedUser","inputs":[]}],"bytecode":{"object":"0x610160604052348015610010575f5ffd5b50604080518082018252601181527015995a5b119a48125b9d195b9d141bdbdb607a1b602080830191909152825180840190935260018352603160f81b908301529061005c825f610129565b6101205261006b816001610129565b61014052815160208084019190912060e052815190820120610100524660a0526100f760e05161010051604080517f8b73c3c69bb8fe3d512ecc4cf759cc79239f7b179b0ffacaa9a75d522b39400f60208201529081019290925260608201524660808201523060a08201525f9060c00160405160208183030381529060405280519060200120905090565b60805250503060c05260017f9b779b17422d0df92223018b32b4d1fa46e071723d6817e2486d003becc55f005561034b565b5f6020835110156101445761013d8361015b565b9050610155565b8161014f8482610239565b5060ff90505b92915050565b5f5f829050601f8151111561018e578260405163305a27a960e01b815260040161018591906102f3565b60405180910390fd5b805161019982610328565b179392505050565b634e487b7160e01b5f52604160045260245ffd5b600181811c908216806101c957607f821691505b6020821081036101e757634e487b7160e01b5f52602260045260245ffd5b50919050565b601f82111561023457805f5260205f20601f840160051c810160208510156102125750805b601f840160051c820191505b81811015610231575f815560010161021e565b50505b505050565b81516001600160401b03811115610252576102526101a1565b6102668161026084546101b5565b846101ed565b6020601f821160018114610298575f83156102815750848201515b5f19600385901b1c1916600184901b178455610231565b5f84815260208120601f198516915b828110156102c757878501518255602094850194600190920191016102a7565b50848210156102e457868401515f19600387901b60f8161c191681555b50505050600190811b01905550565b602081525f82518060208401528060208501604085015e5f604082850101526040601f19601f83011684010191505092915050565b805160208083015191908110156101e7575f1960209190910360031b1b16919050565b60805160a05160c05160e05161010051610120516101405161109461039c5f395f6107bf01525f61078e01525f610b1c01525f610af401525f610a4f01525f610a7901525f610aa301526110945ff3fe608060405234801561000f575f5ffd5b506004361061007a575f3560e01c80639021578a116100585780639021578a146100e0578063afb670e01461014d578063ca07c8e014610160578063d55f960d14610173575f5ffd5b806340e624cb1461007e5780637ecebe001461009357806384b0196e146100c5575b5f5ffd5b61009161008c366004610da2565b610186565b005b6100b26100a1366004610db9565b60036020525f908152604090205481565b6040519081526020015b60405180910390f35b6100cd6102c3565b6040516100bc9796959493929190610e0d565b61013c6100ee366004610da2565b600260208190525f91825260409091208054600182015491909201546001600160a01b039283169291821691811690600160a01b810467ffffffffffffffff1690600160e01b900460ff1685565b6040516100bc959493929190610eb7565b6100b261015b366004610f2a565b610305565b6100b261016e366004610f45565b610315565b610091610181366004610da2565b610695565b61018e61076c565b5f81815260026020526040902060016002820154600160e01b900460ff1660038111156101bd576101bd610ea3565b146101db57604051630f68bf3d60e11b815260040160405180910390fd5b600281015442600160a01b90910467ffffffffffffffff16101561021257604051631022c88d60e21b815260040160405180910390fd5b60018101546001600160a01b03161580159061023b575060018101546001600160a01b03163314155b15610259576040516348422a6160e01b815260040160405180910390fd5b60028101805433600168ff000000000000000160a01b03199091168117600160e11b1790915560405183907fd414d8d4e9c4a0b1b7e5d829bbafe8d88c64600fcf512db32ef09d6b6f23cddf905f90a3506102c060015f51602061103f5f395f51905f5255565b50565b5f6060805f5f5f60606102d4610787565b6102dc6107b8565b604080515f80825260208201909252600f60f81b9b939a50919850469750309650945092509050565b5f61030f826107e5565b92915050565b5f61031e61076c565b4261033161014086016101208701610fc6565b67ffffffffffffffff16101561035a57604051631da7447960e21b815260040160405180910390fd5b5f60038161036b6020880188610db9565b6001600160a01b03166001600160a01b031681526020019081526020015f2054905080856101000135146103b257604051633ab3447f60e11b815260040160405180910390fd5b5f6103c46103bf8761081e565b610915565b90505f6104068287878080601f0160208091040260200160405190810160405280939291908181526020018383808284375f9201919091525061094192505050565b90506104156020880188610db9565b6001600160a01b0316816001600160a01b03161461044657604051632057875960e21b815260040160405180910390fd5b61044f876107e5565b93505f5f8581526002602081905260409091200154600160e01b900460ff16600381111561047f5761047f610ea3565b1461049d576040516302b000c160e21b815260040160405180910390fd5b6104a8836001610fed565b60035f6104b860208b018b610db9565b6001600160a01b03166001600160a01b031681526020019081526020015f20819055506040518060a00160405280885f0160208101906104f89190610db9565b6001600160a01b0316815260200161051660c08a0160a08b01610db9565b6001600160a01b031681525f602082015260400161053c6101408a016101208b01610fc6565b67ffffffffffffffff168152602001600190525f85815260026020818152604092839020845181546001600160a01b039182166001600160a01b0319918216178355928601516001830180549183169190941617909255928401519183018054606086015167ffffffffffffffff16600160a01b026001600160e01b03199091169390921692909217178082556080840151919060ff60e01b1916600160e01b8360038111156105ee576105ee610ea3565b021790555061060691505060c0880160a08901610db9565b6001600160a01b031661061c6020890189610db9565b6001600160a01b0316857f5a11f7c114b97236385f23740eeb15162f96064191481eec62c4b3a6fea42a376106596101408c016101208d01610fc6565b60405167ffffffffffffffff909116815260200160405180910390a450505061068e60015f51602061103f5f395f51905f5255565b9392505050565b61069d61076c565b5f81815260026020526040902060016002820154600160e01b900460ff1660038111156106cc576106cc610ea3565b146106ea57604051630f68bf3d60e11b815260040160405180910390fd5b80546001600160a01b03163314610714576040516302a43f8b60e01b815260040160405180910390fd5b60028101805460ff60e01b1916600360e01b179055604051339083907fca9ebc73b93307b2729c259419dace22cdade7d852925e70b457e9fb41b2587a905f90a3506102c060015f51602061103f5f395f51905f5255565b610774610969565b60025f51602061103f5f395f51905f5255565b60606107b37f00000000000000000000000000000000000000000000000000000000000000005f61099a565b905090565b60606107b37f0000000000000000000000000000000000000000000000000000000000000000600161099a565b5f6107ef8261081e565b60405160200161080191815260200190565b604051602081830303815290604052805190602001209050919050565b5f7fb520d4316b738404d1143edc0ca2cf877f6271d38bf940e4b5a9d15dfe286fdf61084d6020840184610db9565b602084013560408501356108676080870160608801610db9565b608087013561087c60c0890160a08a01610db9565b60c089013560e08a01356101008b013561089e6101408d016101208e01610fc6565b60408051602081019c909c526001600160a01b039a8b16908c015260608b019890985260808a019690965293871660a089015260c088019290925290941660e086015261010085019390935261012084019290925261014083019190915267ffffffffffffffff1661016082015261018001610801565b5f61030f610921610a43565b8360405161190160f01b8152600281019290925260228201526042902090565b5f5f5f5f61094f8686610b6c565b92509250925061095f8282610bb5565b5090949350505050565b5f51602061103f5f395f51905f525460020361099857604051633ee5aeb560e01b815260040160405180910390fd5b565b606060ff83146109b4576109ad83610c76565b905061030f565b8180546109c09061100c565b80601f01602080910402602001604051908101604052809291908181526020018280546109ec9061100c565b8015610a375780601f10610a0e57610100808354040283529160200191610a37565b820191905f5260205f20905b815481529060010190602001808311610a1a57829003601f168201915b5050505050905061030f565b5f306001600160a01b037f000000000000000000000000000000000000000000000000000000000000000016148015610a9b57507f000000000000000000000000000000000000000000000000000000000000000046145b15610ac557507f000000000000000000000000000000000000000000000000000000000000000090565b6107b3604080517f8b73c3c69bb8fe3d512ecc4cf759cc79239f7b179b0ffacaa9a75d522b39400f60208201527f0000000000000000000000000000000000000000000000000000000000000000918101919091527f000000000000000000000000000000000000000000000000000000000000000060608201524660808201523060a08201525f9060c00160405160208183030381529060405280519060200120905090565b5f5f5f8351604103610ba3576020840151604085015160608601515f1a610b9588828585610cb3565b955095509550505050610bae565b505081515f91506002905b9250925092565b5f826003811115610bc857610bc8610ea3565b03610bd1575050565b6001826003811115610be557610be5610ea3565b03610c035760405163f645eedf60e01b815260040160405180910390fd5b6002826003811115610c1757610c17610ea3565b03610c3d5760405163fce698f760e01b8152600481018290526024015b60405180910390fd5b6003826003811115610c5157610c51610ea3565b03610c72576040516335e2f38360e21b815260048101829052602401610c34565b5050565b60605f610c8283610d7b565b6040805160208082528183019092529192505f91906020820181803683375050509182525060208101929092525090565b5f80807f7fffffffffffffffffffffffffffffff5d576e7357a4501ddfe92f46681b20a0841115610cec57505f91506003905082610d71565b604080515f808252602082018084528a905260ff891692820192909252606081018790526080810186905260019060a0016020604051602081039080840390855afa158015610d3d573d5f5f3e3d5ffd5b5050604051601f1901519150506001600160a01b038116610d6857505f925060019150829050610d71565b92505f91508190505b9450945094915050565b5f60ff8216601f81111561030f57604051632cd44ac360e21b815260040160405180910390fd5b5f60208284031215610db2575f5ffd5b5035919050565b5f60208284031215610dc9575f5ffd5b81356001600160a01b038116811461068e575f5ffd5b5f81518084528060208401602086015e5f602082860101526020601f19601f83011685010191505092915050565b60ff60f81b8816815260e060208201525f610e2b60e0830189610ddf565b8281036040840152610e3d8189610ddf565b606084018890526001600160a01b038716608085015260a0840186905283810360c0850152845180825260208087019350909101905f5b81811015610e92578351835260209384019390920191600101610e74565b50909b9a5050505050505050505050565b634e487b7160e01b5f52602160045260245ffd5b6001600160a01b03868116825285811660208301528416604082015267ffffffffffffffff8316606082015260a0810160048310610f0357634e487b7160e01b5f52602160045260245ffd5b8260808301529695505050505050565b5f6101408284031215610f24575f5ffd5b50919050565b5f6101408284031215610f3b575f5ffd5b61068e8383610f13565b5f5f5f6101608486031215610f58575f5ffd5b610f628585610f13565b925061014084013567ffffffffffffffff811115610f7e575f5ffd5b8401601f81018613610f8e575f5ffd5b803567ffffffffffffffff811115610fa4575f5ffd5b866020828401011115610fb5575f5ffd5b939660209190910195509293505050565b5f60208284031215610fd6575f5ffd5b813567ffffffffffffffff8116811461068e575f5ffd5b8082018082111561030f57634e487b7160e01b5f52601160045260245ffd5b600181811c9082168061102057607f821691505b602082108103610f2457634e487b7160e01b5f52602260045260245ffdfe9b779b17422d0df92223018b32b4d1fa46e071723d6817e2486d003becc55f00a26469706673582212203756e0c9e2977447922fc0feb55bbcc37c9d203994bf583c070d2d3bf1d179c164736f6c634300081b0033","linkReferences":{}},"methodIdentifiers":{"cancelIntent(bytes32)":"d55f960d","claimIntent(bytes32)":"40e624cb","eip712Domain()":"84b0196e","intentKey((address,bytes32,bytes32,address,uint256,address,uint256,bytes32,uint256,uint64))":"afb670e0","intents(bytes32)":"9021578a","nonces(address)":"7ecebe00","submitWithdrawalIntent((address,bytes32,bytes32,address,uint256,address,uint256,bytes32,uint256,uint64),bytes)":"ca07c8e0"},"id":49}