{"abi":[{"type":"constructor","inputs":[{"name":"_veilToken","type":"address","internalType":"address"},{"name":"_poolManager","type":"address","internalType":"address"},{"name":"_stakingContract","type":"address","internalType":"address"},{"name":"_vestingTreasury","type":"address","internalType":"address"},{"name":"_burnAddress","type":"address","internalType":"address"}],"stateMutability":"nonpayable"},{"type":"function","name":"ENTRY_FEE_BPS","inputs":[],"outputs":[{"name":"","type":"uint256","internalType":"uint256"}],"stateMutability":"view"},{"type":"function","name":"EXIT_FEE_BPS","inputs":[],"outputs":[{"name":"","type":"uint256","internalType":"uint256"}],"stateMutability":"view"},{"type":"function","name":"FEE_DENOMINATOR","inputs":[],"outputs":[{"name":"","type":"uint256","internalType":"uint256"}],"stateMutability":"view"},{"type":"function","name":"MAX_SWAP_PER_HOUR","inputs":[],"outputs":[{"name":"","type":"uint256","internalType":"uint256"}],"stateMutability":"view"},{"type":"function","name":"authorizeKeeper","inputs":[{"name":"keeper","type":"address","internalType":"address"},{"name":"status","type":"bool","internalType":"bool"}],"outputs":[],"stateMutability":"nonpayable"},{"type":"function","name":"authorizeVault","inputs":[{"name":"vault","type":"address","internalType":"address"},{"name":"status","type":"bool","internalType":"bool"}],"outputs":[],"stateMutability":"nonpayable"},{"type":"function","name":"burnAddress","inputs":[],"outputs":[{"name":"","type":"address","internalType":"address"}],"stateMutability":"view"},{"type":"function","name":"buybackThreshold","inputs":[],"outputs":[{"name":"","type":"uint256","internalType":"uint256"}],"stateMutability":"view"},{"type":"function","name":"collectEntryFee","inputs":[{"name":"token","type":"address","internalType":"address"},{"name":"fee","type":"uint256","internalType":"uint256"}],"outputs":[],"stateMutability":"nonpayable"},{"type":"function","name":"collectExitFee","inputs":[{"name":"token","type":"address","internalType":"address"},{"name":"fee","type":"uint256","internalType":"uint256"}],"outputs":[],"stateMutability":"nonpayable"},{"type":"function","name":"currentHourStart","inputs":[],"outputs":[{"name":"","type":"uint256","internalType":"uint256"}],"stateMutability":"view"},{"type":"function","name":"entryFeeBalance","inputs":[{"name":"","type":"address","internalType":"address"}],"outputs":[{"name":"","type":"uint256","internalType":"uint256"}],"stateMutability":"view"},{"type":"function","name":"executeBuyback","inputs":[{"name":"token","type":"address","internalType":"address"},{"name":"poolKey","type":"tuple","internalType":"struct PoolKey","components":[{"name":"currency0","type":"address","internalType":"Currency"},{"name":"currency1","type":"address","internalType":"Currency"},{"name":"fee","type":"uint24","internalType":"uint24"},{"name":"tickSpacing","type":"int24","internalType":"int24"},{"name":"hooks","type":"address","internalType":"contract IHooks"}]},{"name":"zeroForOne","type":"bool","internalType":"bool"},{"name":"sqrtPriceLimitX96","type":"uint160","internalType":"uint160"}],"outputs":[],"stateMutability":"nonpayable"},{"type":"function","name":"exitFeeBalance","inputs":[{"name":"","type":"address","internalType":"address"}],"outputs":[{"name":"","type":"uint256","internalType":"uint256"}],"stateMutability":"view"},{"type":"function","name":"isAuthorizedVault","inputs":[{"name":"","type":"address","internalType":"address"}],"outputs":[{"name":"","type":"bool","internalType":"bool"}],"stateMutability":"view"},{"type":"function","name":"isKeeper","inputs":[{"name":"","type":"address","internalType":"address"}],"outputs":[{"name":"","type":"bool","internalType":"bool"}],"stateMutability":"view"},{"type":"function","name":"owner","inputs":[],"outputs":[{"name":"","type":"address","internalType":"address"}],"stateMutability":"view"},{"type":"function","name":"pause","inputs":[],"outputs":[],"stateMutability":"nonpayable"},{"type":"function","name":"paused","inputs":[],"outputs":[{"name":"","type":"bool","internalType":"bool"}],"stateMutability":"view"},{"type":"function","name":"poolManager","inputs":[],"outputs":[{"name":"","type":"address","internalType":"contract IPoolManager"}],"stateMutability":"view"},{"type":"function","name":"renounceOwnership","inputs":[],"outputs":[],"stateMutability":"nonpayable"},{"type":"function","name":"setThreshold","inputs":[{"name":"_threshold","type":"uint256","internalType":"uint256"}],"outputs":[],"stateMutability":"nonpayable"},{"type":"function","name":"stakingContract","inputs":[],"outputs":[{"name":"","type":"address","internalType":"address"}],"stateMutability":"view"},{"type":"function","name":"swapCountThisHour","inputs":[],"outputs":[{"name":"","type":"uint256","internalType":"uint256"}],"stateMutability":"view"},{"type":"function","name":"sweepExitFees","inputs":[{"name":"token","type":"address","internalType":"address"}],"outputs":[],"stateMutability":"nonpayable"},{"type":"function","name":"transferOwnership","inputs":[{"name":"newOwner","type":"address","internalType":"address"}],"outputs":[],"stateMutability":"nonpayable"},{"type":"function","name":"unlockCallback","inputs":[{"name":"data","type":"bytes","internalType":"bytes"}],"outputs":[{"name":"","type":"bytes","internalType":"bytes"}],"stateMutability":"nonpayable"},{"type":"function","name":"unpause","inputs":[],"outputs":[],"stateMutability":"nonpayable"},{"type":"function","name":"veilToken","inputs":[],"outputs":[{"name":"","type":"address","internalType":"contract IERC20"}],"stateMutability":"view"},{"type":"function","name":"vestingTreasury","inputs":[],"outputs":[{"name":"","type":"address","internalType":"address"}],"stateMutability":"view"},{"type":"event","name":"BuybackExecuted","inputs":[{"name":"tokenIn","type":"address","indexed":true,"internalType":"address"},{"name":"amountIn","type":"uint256","indexed":false,"internalType":"uint256"},{"name":"veilOut","type":"uint256","indexed":false,"internalType":"uint256"}],"anonymous":false},{"type":"event","name":"EntryFeeCollected","inputs":[{"name":"token","type":"address","indexed":true,"internalType":"address"},{"name":"amount","type":"uint256","indexed":false,"internalType":"uint256"},{"name":"fee","type":"uint256","indexed":false,"internalType":"uint256"}],"anonymous":false},{"type":"event","name":"ExitFeeCollected","inputs":[{"name":"token","type":"address","indexed":true,"internalType":"address"},{"name":"amount","type":"uint256","indexed":false,"internalType":"uint256"},{"name":"fee","type":"uint256","indexed":false,"internalType":"uint256"}],"anonymous":false},{"type":"event","name":"KeeperAuthorized","inputs":[{"name":"keeper","type":"address","indexed":true,"internalType":"address"},{"name":"status","type":"bool","indexed":false,"internalType":"bool"}],"anonymous":false},{"type":"event","name":"OwnershipTransferred","inputs":[{"name":"previousOwner","type":"address","indexed":true,"internalType":"address"},{"name":"newOwner","type":"address","indexed":true,"internalType":"address"}],"anonymous":false},{"type":"event","name":"TreasuryFunded","inputs":[{"name":"amount","type":"uint256","indexed":false,"internalType":"uint256"}],"anonymous":false},{"type":"event","name":"VaultAuthorized","inputs":[{"name":"vault","type":"address","indexed":true,"internalType":"address"},{"name":"status","type":"bool","indexed":false,"internalType":"bool"}],"anonymous":false},{"type":"error","name":"BelowThreshold","inputs":[]},{"type":"error","name":"InvalidAddress","inputs":[]},{"type":"error","name":"OwnableInvalidOwner","inputs":[{"name":"owner","type":"address","internalType":"address"}]},{"type":"error","name":"OwnableUnauthorizedAccount","inputs":[{"name":"account","type":"address","internalType":"address"}]},{"type":"error","name":"Paused","inputs":[]},{"type":"error","name":"RateLimitExceeded","inputs":[]},{"type":"error","name":"ReentrancyGuardReentrantCall","inputs":[]},{"type":"error","name":"SafeERC20FailedOperation","inputs":[{"name":"token","type":"address","internalType":"address"}]},{"type":"error","name":"SwapFailed","inputs":[]},{"type":"error","name":"Unauthorized","inputs":[]}],"bytecode":{"object":"0x60c0604052633b9aca00600155348015610017575f5ffd5b5060405161197a38038061197a833981016040819052610036916101a8565b338061005b57604051631e4fbdf760e01b81525f600482015260240160405180910390fd5b6100648161013e565b5060017f9b779b17422d0df92223018b32b4d1fa46e071723d6817e2486d003becc55f00556001600160a01b03851615806100a657506001600160a01b038416155b156100c45760405163e6c4247b60e01b815260040160405180910390fd5b6001600160a01b0385811660805284811660a052600280546001600160a01b03199081168684161790915560038054821685841617905560048054909116918316919091179055610117610e1042610209565b600a555050335f908152600660205260409020805460ff1916600117905550610228915050565b5f80546001600160a01b038381166001600160a01b0319831681178455604051919092169283917f8be0079c531659141344cd1fd0a4f28419497f9722a3daafe3b4186f6b6457e09190a35050565b80516001600160a01b03811681146101a3575f5ffd5b919050565b5f5f5f5f5f60a086880312156101bc575f5ffd5b6101c58661018d565b94506101d36020870161018d565b93506101e16040870161018d565b92506101ef6060870161018d565b91506101fd6080870161018d565b90509295509295909350565b5f8261022357634e487b7160e01b5f52601260045260245ffd5b500490565b60805160a0516116eb61028f5f395f81816103eb015281816105ad0152818161061d015281816107080152818161072f015281816108bd0152610e8801525f81816102fd0152818161082501528181610937015281816109e30152610a4101526116eb5ff3fe608060405234801561000f575f5ffd5b50600436106101d1575f3560e01c806387addbbc116100fe578063a567735a1161009e578063dc4c90d31161006e578063dc4c90d3146103e6578063ee99205c1461040d578063f2fde38b14610420578063f7b2d36314610433575f5ffd5b8063a567735a146103a4578063c47fa3f6146103b7578063d0439bc1146103ca578063d73792a9146103dd575f5ffd5b80639089ad0e116100d95780639089ad0e1461035657806391dd73461461035e578063960bfe041461037e5780639a4f79fd14610391575f5ffd5b806387addbbc146102595780638da5cb5b146103275780638ef681bc14610337575f5ffd5b80635c975abb1161017457806370d5ae051161014457806370d5ae05146102dd578063715018a6146102f05780637b4a3b5e146102f85780638456cb591461031f575f5ffd5b80635c975abb1461026957806369a361cc146102865780636ba42aaa1461029957806370716799146102bb575f5ffd5b80631548e7d5116101af5780631548e7d51461023b578063220923e314610250578063324d8438146102595780633f4ba83a14610261575f5ffd5b806303592373146101d557806305c624f01461020557806310f3a9c214610232575b5f5ffd5b6003546101e8906001600160a01b031681565b6040516001600160a01b0390911681526020015b60405180910390f35b6102246102133660046110d4565b60086020525f908152604090205481565b6040519081526020016101fc565b610224600a5481565b61024e6102493660046110f6565b61043c565b005b61022460015481565b610224600a81565b61024e610503565b600b546102769060ff1681565b60405190151581526020016101fc565b61024e610294366004611134565b610517565b6102766102a73660046110d4565b60066020525f908152604090205460ff1681565b6102766102c93660046110d4565b60056020525f908152604090205460ff1681565b6004546101e8906001600160a01b031681565b61024e610576565b6101e87f000000000000000000000000000000000000000000000000000000000000000081565b61024e610589565b5f546001600160a01b03166101e8565b6102246103453660046110d4565b60076020525f908152604090205481565b610224601481565b61037161036c366004611167565b6105a0565b6040516101fc91906111d5565b61024e61038c36600461120a565b610ae1565b61024e61039f3660046110f6565b610aee565b61024e6103b2366004611134565b610bad565b61024e6103c53660046110d4565b610c0c565b61024e6103d8366004611221565b610ccb565b61022461271081565b6101e87f000000000000000000000000000000000000000000000000000000000000000081565b6002546101e8906001600160a01b031681565b61024e61042e3660046110d4565b610f20565b61022460095481565b600b5460ff1615610460576040516313d0ff5960e31b815260040160405180910390fd5b335f9081526005602052604090205460ff1661048e576040516282b42960e81b815260040160405180910390fd5b6001600160a01b0382165f90815260076020526040812080548392906104b5908490611296565b9091555050604080515f8152602081018390526001600160a01b038416917f5a74606b19c6079e5f015f79381a2f04a48de1e3a5764c68a6c39413aecfab4691015b60405180910390a25050565b61050b610f5f565b600b805460ff19169055565b61051f610f5f565b6001600160a01b0382165f81815260056020908152604091829020805460ff191685151590811790915591519182527f18f47f52423fcea7fa18e18e69f46b50562f0a8090b20f6c3ddf12ba6ff84feb91016104f7565b61057e610f5f565b6105875f610f8b565b565b610591610f5f565b600b805460ff19166001179055565b6060336001600160a01b037f000000000000000000000000000000000000000000000000000000000000000016146105ea576040516282b42960e81b815260040160405180910390fd5b5f6105f7838501856113c9565b60208101516040808301519051633cf3645360e21b81529293505f926001600160a01b037f0000000000000000000000000000000000000000000000000000000000000000169263f3cd914c926106509260040161149f565b6020604051808303815f875af115801561066c573d5f5f3e3d5ffd5b505050506040513d601f19601f8201168201806040525081019061069091906114e9565b90505f82604001515f01516106ad578260200151602001516106b4565b6020830151515b90505f83604001515f01516106db576106cd83600f0b90565b6106d690611500565b6106ee565b6106e58360801d90565b6106ee90611500565b6001600160801b0316905061072d6001600160a01b0383167f000000000000000000000000000000000000000000000000000000000000000083610fda565b7f00000000000000000000000000000000000000000000000000000000000000006001600160a01b03166311da60b46040518163ffffffff1660e01b81526004016020604051808303815f875af115801561078a573d5f5f3e3d5ffd5b505050506040513d601f19601f820116820180604052508101906107ae91906114e9565b506040840151515f906107c6576020850151516107d0565b8460200151602001515b90505f85604001515f01516107ee576107e98560801d90565b6107f8565b6107f885600f0b90565b6040516370a0823160e01b81523060048201526001600160801b039190911691505f906001600160a01b037f000000000000000000000000000000000000000000000000000000000000000016906370a0823190602401602060405180830381865afa15801561086a573d5f5f3e3d5ffd5b505050506040513d601f19601f8201168201806040525081019061088e91906114e9565b604051630b0d9c0960e01b81526001600160a01b038581166004830152306024830152604482018590529192507f000000000000000000000000000000000000000000000000000000000000000090911690630b0d9c09906064015f604051808303815f87803b158015610900575f5ffd5b505af1158015610912573d5f5f3e3d5ffd5b50506040516370a0823160e01b81523060048201525f92508391506001600160a01b037f000000000000000000000000000000000000000000000000000000000000000016906370a0823190602401602060405180830381865afa15801561097c573d5f5f3e3d5ffd5b505050506040513d601f19601f820116820180604052508101906109a091906114e9565b6109aa919061152d565b90508015610ac1575f6109be600283611540565b6002549091506001600160a01b031615610a0c57600254610a0c906001600160a01b037f00000000000000000000000000000000000000000000000000000000000000008116911683610fda565b6004546001600160a01b031615610a6857600454610a68906001600160a01b0316610a37838561152d565b6001600160a01b037f0000000000000000000000000000000000000000000000000000000000000000169190610fda565b885f01516001600160a01b03167fce6abc4aa99ab2d137d5f7e34bec0e883a186fd2d76b29f2e1c30afcc68d73368a6040015160200151610aa89061155f565b60408051918252602082018690520160405180910390a2505b60405180602001604052805f815250985050505050505050505b92915050565b610ae9610f5f565b600155565b600b5460ff1615610b12576040516313d0ff5960e31b815260040160405180910390fd5b335f9081526005602052604090205460ff16610b40576040516282b42960e81b815260040160405180910390fd5b6001600160a01b0382165f9081526008602052604081208054839290610b67908490611296565b9091555050604080515f8152602081018390526001600160a01b038416917f4b09200030eb31fe1204267722a552b36caad792869c8dcf7fa0338847d6618e91016104f7565b610bb5610f5f565b6001600160a01b0382165f81815260066020908152604091829020805460ff191685151590811790915591519182527fd370523e7a29cc54b0e1e6b66ffeb47a2c0d6e37b090e2da19993c7282da39ac91016104f7565b600b5460ff1615610c30576040516313d0ff5960e31b815260040160405180910390fd5b610c38611014565b6001600160a01b0381165f908152600860205260409020548015610cb1576001600160a01b038083165f81815260086020526040812055600354610c7d921683610fda565b6040518181527fef7aff843f3420b45d9d058ff62be0d87a95132dea4a67b18925283ba05647dc9060200160405180910390a15b50610cc860015f5160206116965f395f51905f5255565b50565b600b5460ff1615610cef576040516313d0ff5960e31b815260040160405180910390fd5b335f9081526006602052604090205460ff16158015610d1857505f546001600160a01b03163314155b15610d35576040516282b42960e81b815260040160405180910390fd5b610d3d611014565b5f610d4a610e1042611540565b9050600a54811115610d6057600a8190555f6009555b600a60095410610d835760405163a74c1c5f60e01b815260040160405180910390fd5b6001600160a01b0385165f90815260076020526040902054600154811015610dbd57604051625713a160e91b815260040160405180910390fd5b6001600160a01b0386165f9081526007602052604081208190556009805491610de583611579565b91905055505f6040518060600160405280861515815260200183610e089061155f565b8152602001856001600160a01b031681525090505f6040518060600160405280896001600160a01b0316815260200188803603810190610e489190611591565b815260200183815250604051602001610e6191906115ab565b60408051601f19818403018152908290526348c8949160e01b825291506001600160a01b037f000000000000000000000000000000000000000000000000000000000000000016906348c8949190610ebd9084906004016111d5565b5f604051808303815f875af1158015610ed8573d5f5f3e3d5ffd5b505050506040513d5f823e601f3d908101601f19168201604052610eff9190810190611601565b5050505050610f1a60015f5160206116965f395f51905f5255565b50505050565b610f28610f5f565b6001600160a01b038116610f5657604051631e4fbdf760e01b81525f60048201526024015b60405180910390fd5b610cc881610f8b565b5f546001600160a01b031633146105875760405163118cdaa760e01b8152336004820152602401610f4d565b5f80546001600160a01b038381166001600160a01b0319831681178455604051919092169283917f8be0079c531659141344cd1fd0a4f28419497f9722a3daafe3b4186f6b6457e09190a35050565b610fe7838383600161102f565b61100f57604051635274afe760e01b81526001600160a01b0384166004820152602401610f4d565b505050565b61101c611091565b60025f5160206116965f395f51905f5255565b60405163a9059cbb60e01b5f8181526001600160a01b038616600452602485905291602083604481808b5af1925060015f51148316611085578383151615611079573d5f823e3d81fd5b5f873b113d1516831692505b60405250949350505050565b5f5160206116965f395f51905f525460020361058757604051633ee5aeb560e01b815260040160405180910390fd5b6001600160a01b0381168114610cc8575f5ffd5b5f602082840312156110e4575f5ffd5b81356110ef816110c0565b9392505050565b5f5f60408385031215611107575f5ffd5b8235611112816110c0565b946020939093013593505050565b8035801515811461112f575f5ffd5b919050565b5f5f60408385031215611145575f5ffd5b8235611150816110c0565b915061115e60208401611120565b90509250929050565b5f5f60208385031215611178575f5ffd5b823567ffffffffffffffff81111561118e575f5ffd5b8301601f8101851361119e575f5ffd5b803567ffffffffffffffff8111156111b4575f5ffd5b8560208284010111156111c5575f5ffd5b6020919091019590945092505050565b602081525f82518060208401528060208501604085015e5f604082850101526040601f19601f83011684010191505092915050565b5f6020828403121561121a575f5ffd5b5035919050565b5f5f5f5f848603610100811215611236575f5ffd5b8535611241816110c0565b945060a0601f1982011215611254575f5ffd5b5060208501925061126760c08601611120565b915060e0850135611277816110c0565b939692955090935050565b634e487b7160e01b5f52601160045260245ffd5b80820180821115610adb57610adb611282565b634e487b7160e01b5f52604160045260245ffd5b60405160a0810167ffffffffffffffff811182821017156112e0576112e06112a9565b60405290565b6040516060810167ffffffffffffffff811182821017156112e0576112e06112a9565b604051601f8201601f1916810167ffffffffffffffff81118282101715611332576113326112a9565b604052919050565b803561112f816110c0565b5f60a08284031215611355575f5ffd5b61135d6112bd565b9050813561136a816110c0565b8152602082013561137a816110c0565b6020820152604082013562ffffff81168114611394575f5ffd5b60408201526060820135600281900b81146113ad575f5ffd5b60608201526113be6080830161133a565b608082015292915050565b5f818303610120811280156113dc575f5ffd5b506113e56112e6565b83356113f0816110c0565b81526113ff8560208601611345565b6020820152606060bf1983011215611415575f5ffd5b61141d6112e6565b915061142b60c08501611120565b825260e08401356020830152610100840135611446816110c0565b6040838101919091528101919091529392505050565b80516001600160a01b03908116835260208083015182169084015260408083015162ffffff169084015260608083015160020b9084015260809182015116910152565b6114a9818461145c565b8151151560a0820152602082015160c082015260408201516001600160a01b031660e082015261012061010082018190525f908201526101400192915050565b5f602082840312156114f9575f5ffd5b5051919050565b5f81600f0b6f7fffffffffffffffffffffffffffffff19810361152557611525611282565b5f0392915050565b81810381811115610adb57610adb611282565b5f8261155a57634e487b7160e01b5f52601260045260245ffd5b500490565b5f600160ff1b820161157357611573611282565b505f0390565b5f6001820161158a5761158a611282565b5060010190565b5f60a082840312156115a1575f5ffd5b6110ef8383611345565b81516001600160a01b031681526020808301516101208301916115d09084018261145c565b506040928301518051151560c0840152602081015160e0840152909201516001600160a01b03166101009091015290565b5f60208284031215611611575f5ffd5b815167ffffffffffffffff811115611627575f5ffd5b8201601f81018413611637575f5ffd5b805167ffffffffffffffff811115611651576116516112a9565b611664601f8201601f1916602001611309565b818152856020838501011115611678575f5ffd5b8160208401602083015e5f9181016020019190915294935050505056fe9b779b17422d0df92223018b32b4d1fa46e071723d6817e2486d003becc55f00a2646970667358221220570881311378e1b7477e51b0678cdd5e109532040f9a3fcb5b448658073ed99664736f6c634300081b0033","linkReferences":{}},"methodIdentifiers":{"ENTRY_FEE_BPS()":"9089ad0e","EXIT_FEE_BPS()":"324d8438","FEE_DENOMINATOR()":"d73792a9","MAX_SWAP_PER_HOUR()":"87addbbc","authorizeKeeper(address,bool)":"a567735a","authorizeVault(address,bool)":"69a361cc","burnAddress()":"70d5ae05","buybackThreshold()":"220923e3","collectEntryFee(address,uint256)":"1548e7d5","collectExitFee(address,uint256)":"9a4f79fd","currentHourStart()":"10f3a9c2","entryFeeBalance(address)":"8ef681bc","executeBuyback(address,(address,address,uint24,int24,address),bool,uint160)":"d0439bc1","exitFeeBalance(address)":"05c624f0","isAuthorizedVault(address)":"70716799","isKeeper(address)":"6ba42aaa","owner()":"8da5cb5b","pause()":"8456cb59","paused()":"5c975abb","poolManager()":"dc4c90d3","renounceOwnership()":"715018a6","setThreshold(uint256)":"960bfe04","stakingContract()":"ee99205c","swapCountThisHour()":"f7b2d363","sweepExitFees(address)":"c47fa3f6","transferOwnership(address)":"f2fde38b","unlockCallback(bytes)":"91dd7346","unpause()":"3f4ba83a","veilToken()":"7b4a3b5e","vestingTreasury()":"03592373"},"id":51}