{"abi":[{"type":"constructor","inputs":[{"name":"_veilToken","type":"address","internalType":"address"},{"name":"_usdc","type":"address","internalType":"address"},{"name":"_poolManager","type":"address","internalType":"address"},{"name":"_stakingContract","type":"address","internalType":"address"},{"name":"_vestingTreasury","type":"address","internalType":"address"},{"name":"_burnAddress","type":"address","internalType":"address"}],"stateMutability":"nonpayable"},{"type":"function","name":"BUYBACK_THRESHOLD","inputs":[],"outputs":[{"name":"","type":"uint256","internalType":"uint256"}],"stateMutability":"view"},{"type":"function","name":"ENTRY_FEE_BPS","inputs":[],"outputs":[{"name":"","type":"uint256","internalType":"uint256"}],"stateMutability":"view"},{"type":"function","name":"EXIT_FEE_BPS","inputs":[],"outputs":[{"name":"","type":"uint256","internalType":"uint256"}],"stateMutability":"view"},{"type":"function","name":"FEE_DENOMINATOR","inputs":[],"outputs":[{"name":"","type":"uint256","internalType":"uint256"}],"stateMutability":"view"},{"type":"function","name":"MAX_SWAP_PER_HOUR","inputs":[],"outputs":[{"name":"","type":"uint256","internalType":"uint256"}],"stateMutability":"view"},{"type":"function","name":"burnAddress","inputs":[],"outputs":[{"name":"","type":"address","internalType":"address"}],"stateMutability":"view"},{"type":"function","name":"collectEntryFee","inputs":[{"name":"token","type":"address","internalType":"address"},{"name":"amount","type":"uint256","internalType":"uint256"}],"outputs":[{"name":"netAmount","type":"uint256","internalType":"uint256"}],"stateMutability":"nonpayable"},{"type":"function","name":"collectExitFee","inputs":[{"name":"token","type":"address","internalType":"address"},{"name":"amount","type":"uint256","internalType":"uint256"}],"outputs":[{"name":"netAmount","type":"uint256","internalType":"uint256"}],"stateMutability":"nonpayable"},{"type":"function","name":"currentHourStart","inputs":[],"outputs":[{"name":"","type":"uint256","internalType":"uint256"}],"stateMutability":"view"},{"type":"function","name":"emergencyWithdraw","inputs":[{"name":"token","type":"address","internalType":"address"},{"name":"amount","type":"uint256","internalType":"uint256"}],"outputs":[],"stateMutability":"nonpayable"},{"type":"function","name":"entryFeeBalance","inputs":[{"name":"","type":"address","internalType":"address"}],"outputs":[{"name":"","type":"uint256","internalType":"uint256"}],"stateMutability":"view"},{"type":"function","name":"executeBuyback","inputs":[{"name":"token","type":"address","internalType":"address"},{"name":"poolKey","type":"tuple","internalType":"struct PoolKey","components":[{"name":"currency0","type":"address","internalType":"Currency"},{"name":"currency1","type":"address","internalType":"Currency"},{"name":"fee","type":"uint24","internalType":"uint24"},{"name":"tickSpacing","type":"int24","internalType":"int24"},{"name":"hooks","type":"address","internalType":"contract IHooks"}]}],"outputs":[],"stateMutability":"nonpayable"},{"type":"function","name":"exitFeeBalance","inputs":[{"name":"","type":"address","internalType":"address"}],"outputs":[{"name":"","type":"uint256","internalType":"uint256"}],"stateMutability":"view"},{"type":"function","name":"owner","inputs":[],"outputs":[{"name":"","type":"address","internalType":"address"}],"stateMutability":"view"},{"type":"function","name":"pause","inputs":[],"outputs":[],"stateMutability":"nonpayable"},{"type":"function","name":"paused","inputs":[],"outputs":[{"name":"","type":"bool","internalType":"bool"}],"stateMutability":"view"},{"type":"function","name":"poolManager","inputs":[],"outputs":[{"name":"","type":"address","internalType":"contract IPoolManager"}],"stateMutability":"view"},{"type":"function","name":"renounceOwnership","inputs":[],"outputs":[],"stateMutability":"nonpayable"},{"type":"function","name":"setBurnAddress","inputs":[{"name":"_burn","type":"address","internalType":"address"}],"outputs":[],"stateMutability":"nonpayable"},{"type":"function","name":"setStakingContract","inputs":[{"name":"_staking","type":"address","internalType":"address"}],"outputs":[],"stateMutability":"nonpayable"},{"type":"function","name":"setVestingTreasury","inputs":[{"name":"_treasury","type":"address","internalType":"address"}],"outputs":[],"stateMutability":"nonpayable"},{"type":"function","name":"stakingContract","inputs":[],"outputs":[{"name":"","type":"address","internalType":"address"}],"stateMutability":"view"},{"type":"function","name":"swapCountThisHour","inputs":[],"outputs":[{"name":"","type":"uint256","internalType":"uint256"}],"stateMutability":"view"},{"type":"function","name":"sweepExitFees","inputs":[{"name":"token","type":"address","internalType":"address"}],"outputs":[],"stateMutability":"nonpayable"},{"type":"function","name":"transferOwnership","inputs":[{"name":"newOwner","type":"address","internalType":"address"}],"outputs":[],"stateMutability":"nonpayable"},{"type":"function","name":"unpause","inputs":[],"outputs":[],"stateMutability":"nonpayable"},{"type":"function","name":"usdc","inputs":[],"outputs":[{"name":"","type":"address","internalType":"contract IERC20"}],"stateMutability":"view"},{"type":"function","name":"veilToken","inputs":[],"outputs":[{"name":"","type":"address","internalType":"contract IERC20"}],"stateMutability":"view"},{"type":"function","name":"vestingTreasury","inputs":[],"outputs":[{"name":"","type":"address","internalType":"address"}],"stateMutability":"view"},{"type":"event","name":"BuybackExecuted","inputs":[{"name":"tokenIn","type":"address","indexed":true,"internalType":"address"},{"name":"amountIn","type":"uint256","indexed":false,"internalType":"uint256"},{"name":"veilOut","type":"uint256","indexed":false,"internalType":"uint256"},{"name":"staked","type":"uint256","indexed":false,"internalType":"uint256"},{"name":"burned","type":"uint256","indexed":false,"internalType":"uint256"}],"anonymous":false},{"type":"event","name":"EntryFeeCollected","inputs":[{"name":"token","type":"address","indexed":true,"internalType":"address"},{"name":"amount","type":"uint256","indexed":false,"internalType":"uint256"},{"name":"fee","type":"uint256","indexed":false,"internalType":"uint256"}],"anonymous":false},{"type":"event","name":"ExitFeeCollected","inputs":[{"name":"token","type":"address","indexed":true,"internalType":"address"},{"name":"amount","type":"uint256","indexed":false,"internalType":"uint256"},{"name":"fee","type":"uint256","indexed":false,"internalType":"uint256"}],"anonymous":false},{"type":"event","name":"OwnershipTransferred","inputs":[{"name":"previousOwner","type":"address","indexed":true,"internalType":"address"},{"name":"newOwner","type":"address","indexed":true,"internalType":"address"}],"anonymous":false},{"type":"event","name":"TreasuryFunded","inputs":[{"name":"amount","type":"uint256","indexed":false,"internalType":"uint256"}],"anonymous":false},{"type":"error","name":"BelowThreshold","inputs":[]},{"type":"error","name":"InsufficientBalance","inputs":[]},{"type":"error","name":"InvalidAddress","inputs":[]},{"type":"error","name":"InvalidAmount","inputs":[]},{"type":"error","name":"OwnableInvalidOwner","inputs":[{"name":"owner","type":"address","internalType":"address"}]},{"type":"error","name":"OwnableUnauthorizedAccount","inputs":[{"name":"account","type":"address","internalType":"address"}]},{"type":"error","name":"Paused","inputs":[]},{"type":"error","name":"RateLimitExceeded","inputs":[]},{"type":"error","name":"ReentrancyGuardReentrantCall","inputs":[]},{"type":"error","name":"SafeERC20FailedOperation","inputs":[{"name":"token","type":"address","internalType":"address"}]},{"type":"error","name":"Unauthorized","inputs":[]}],"bytecode":{"object":"0x60e060405234801561000f575f5ffd5b506040516110e33803806110e383398101604081905261002e916101a0565b338061005357604051631e4fbdf760e01b81525f600482015260240160405180910390fd5b61005c81610136565b5060017f9b779b17422d0df92223018b32b4d1fa46e071723d6817e2486d003becc55f00556001600160a01b038616158061009e57506001600160a01b038516155b806100b057506001600160a01b038416155b156100ce5760405163e6c4247b60e01b815260040160405180910390fd5b6001600160a01b0386811660805285811660a05284811660c052600180546001600160a01b03199081168684161790915560028054821685841617905560038054909116918316919091179055610127610e1042610210565b6007555061022f945050505050565b5f80546001600160a01b038381166001600160a01b0319831681178455604051919092169283917f8be0079c531659141344cd1fd0a4f28419497f9722a3daafe3b4186f6b6457e09190a35050565b80516001600160a01b038116811461019b575f5ffd5b919050565b5f5f5f5f5f5f60c087890312156101b5575f5ffd5b6101be87610185565b95506101cc60208801610185565b94506101da60408801610185565b93506101e860608801610185565b92506101f660808801610185565b915061020460a08801610185565b90509295509295509295565b5f8261022a57634e487b7160e01b5f52601260045260245ffd5b500490565b60805160a05160c051610e6e6102755f395f81816103b8015261063b01525f61025001525f81816102f2015281816106ca0152818161077501526107c00152610e6e5ff3fe608060405234801561000f575f5ffd5b50600436106101c6575f3560e01c80638456cb59116100fe5780639a4f79fd1161009e578063dc4c90d31161006e578063dc4c90d3146103b3578063ee99205c146103da578063f2fde38b146103ed578063f7b2d36314610400575f5ffd5b80639a4f79fd146103715780639dd373b914610384578063c47fa3f614610397578063d73792a9146103aa575f5ffd5b80638ef681bc116100d95780638ef681bc1461032c5780639089ad0e1461034b57806395ccea6714610353578063960c1e5014610366575f5ffd5b80638456cb591461031457806387addbbc146102435780638da5cb5b1461031c575f5ffd5b806340f852eb116101695780636acb8741116101445780636acb8741146102bf57806370d5ae05146102d2578063715018a6146102e55780637b4a3b5e146102ed575f5ffd5b806340f852eb1461027c5780634b0e72161461028f5780635c975abb146102a2575f5ffd5b80631548e7d5116101a45780631548e7d514610230578063324d8438146102435780633e413bee1461024b5780633f4ba83a14610272575f5ffd5b806303592373146101ca57806305c624f0146101fa57806310f3a9c214610227575b5f5ffd5b6002546101dd906001600160a01b031681565b6040516001600160a01b0390911681526020015b60405180910390f35b610219610208366004610cd6565b60056020525f908152604090205481565b6040519081526020016101f1565b61021960075481565b61021961023e366004610cf6565b610409565b610219600a81565b6101dd7f000000000000000000000000000000000000000000000000000000000000000081565b61027a6104e4565b005b61027a61028a366004610cd6565b6104f8565b61027a61029d366004610cd6565b610522565b6008546102af9060ff1681565b60405190151581526020016101f1565b61027a6102cd366004610d1e565b61054c565b6003546101dd906001600160a01b031681565b61027a61085c565b6101dd7f000000000000000000000000000000000000000000000000000000000000000081565b61027a61086f565b5f546001600160a01b03166101dd565b61021961033a366004610cd6565b60046020525f908152604090205481565b610219601481565b61027a610361366004610cf6565b610886565b610219633b9aca0081565b61021961037f366004610cf6565b6108b7565b61027a610392366004610cd6565b610974565b61027a6103a5366004610cd6565b61099e565b61021961271081565b6101dd7f000000000000000000000000000000000000000000000000000000000000000081565b6001546101dd906001600160a01b031681565b61027a6103fb366004610cd6565b610a77565b61021960065481565b6008545f9060ff161561042f576040516313d0ff5960e31b815260040160405180910390fd5b5f61271061043e601485610d6e565b6104489190610d85565b90506104548184610da4565b915061046b6001600160a01b038516333084610ab6565b6001600160a01b0384165f9081526004602052604081208054839290610492908490610db7565b909155505060408051848152602081018390526001600160a01b038616917f5a74606b19c6079e5f015f79381a2f04a48de1e3a5764c68a6c39413aecfab4691015b60405180910390a2505b92915050565b6104ec610af2565b6008805460ff19169055565b610500610af2565b600280546001600160a01b0319166001600160a01b0392909216919091179055565b61052a610af2565b600380546001600160a01b0319166001600160a01b0392909216919091179055565b60085460ff1615610570576040516313d0ff5960e31b815260040160405180910390fd5b5f61057d610e1042610d85565b90506007548111156105935760078190555f6006555b600a600654106105b65760405163a74c1c5f60e01b815260040160405180910390fd5b60068054905f6105c583610dca565b91905055506105d2610b1e565b6001600160a01b0383165f90815260046020526040902054633b9aca0081101561060e57604051625713a160e91b815260040160405180910390fd5b6001600160a01b038481165f81815260046020819052604080832092909255905163095ea7b360e01b81527f000000000000000000000000000000000000000000000000000000000000000090931690830152602482018390529063095ea7b3906044016020604051808303815f875af115801561068e573d5f5f3e3d5ffd5b505050506040513d601f19601f820116820180604052508101906106b29190610de2565b506040516370a0823160e01b81523060048201525f907f00000000000000000000000000000000000000000000000000000000000000006001600160a01b0316906370a0823190602401602060405180830381865afa158015610717573d5f5f3e3d5ffd5b505050506040513d601f19601f8201168201806040525081019061073b9190610e01565b905080801561083e575f610750600283610d85565b6001549091506001600160a01b03161561079e5760015461079e906001600160a01b037f00000000000000000000000000000000000000000000000000000000000000008116911683610b39565b6003546001600160a01b0316156107e9576003546107e9906001600160a01b037f00000000000000000000000000000000000000000000000000000000000000008116911683610b39565b6040805185815260208101849052908101829052606081018290526001600160a01b038816907faf366b19453ca08fb17cdfa68aabc4aa2127edc0b322a6f2fcd8c6d525dcf50d9060800160405180910390a2505b50505061085760015f516020610e195f395f51905f5255565b505050565b610864610af2565b61086d5f610b6e565b565b610877610af2565b6008805460ff19166001179055565b61088e610af2565b6108b36108a25f546001600160a01b031690565b6001600160a01b0384169083610b39565b5050565b6008545f9060ff16156108dd576040516313d0ff5960e31b815260040160405180910390fd5b5f6127106108ec600a85610d6e565b6108f69190610d85565b90506109028184610da4565b6001600160a01b0385165f9081526005602052604081208054929450839290919061092e908490610db7565b909155505060408051848152602081018390526001600160a01b038616917f4b09200030eb31fe1204267722a552b36caad792869c8dcf7fa0338847d6618e91016104d4565b61097c610af2565b600180546001600160a01b0319166001600160a01b0392909216919091179055565b60085460ff16156109c2576040516313d0ff5960e31b815260040160405180910390fd5b6109ca610b1e565b6001600160a01b0381165f9081526005602052604081205490819003610a0357604051631e9acf1760e31b815260040160405180910390fd5b6001600160a01b038083165f81815260056020526040812055600254610a2a921683610b39565b6040518181527fef7aff843f3420b45d9d058ff62be0d87a95132dea4a67b18925283ba05647dc9060200160405180910390a150610a7460015f516020610e195f395f51905f5255565b50565b610a7f610af2565b6001600160a01b038116610aad57604051631e4fbdf760e01b81525f60048201526024015b60405180910390fd5b610a7481610b6e565b610ac4848484846001610bbd565b610aec57604051635274afe760e01b81526001600160a01b0385166004820152602401610aa4565b50505050565b5f546001600160a01b0316331461086d5760405163118cdaa760e01b8152336004820152602401610aa4565b610b26610c2a565b60025f516020610e195f395f51905f5255565b610b468383836001610c59565b61085757604051635274afe760e01b81526001600160a01b0384166004820152602401610aa4565b5f80546001600160a01b038381166001600160a01b0319831681178455604051919092169283917f8be0079c531659141344cd1fd0a4f28419497f9722a3daafe3b4186f6b6457e09190a35050565b6040516323b872dd60e01b5f8181526001600160a01b038781166004528616602452604485905291602083606481808c5af1925060015f51148316610c19578383151615610c0d573d5f823e3d81fd5b5f883b113d1516831692505b604052505f60605295945050505050565b5f516020610e195f395f51905f525460020361086d57604051633ee5aeb560e01b815260040160405180910390fd5b60405163a9059cbb60e01b5f8181526001600160a01b038616600452602485905291602083604481808b5af1925060015f51148316610caf578383151615610ca3573d5f823e3d81fd5b5f873b113d1516831692505b60405250949350505050565b80356001600160a01b0381168114610cd1575f5ffd5b919050565b5f60208284031215610ce6575f5ffd5b610cef82610cbb565b9392505050565b5f5f60408385031215610d07575f5ffd5b610d1083610cbb565b946020939093013593505050565b5f5f82840360c0811215610d30575f5ffd5b610d3984610cbb565b925060a0601f1982011215610d4c575f5ffd5b506020830190509250929050565b634e487b7160e01b5f52601160045260245ffd5b80820281158282048414176104de576104de610d5a565b5f82610d9f57634e487b7160e01b5f52601260045260245ffd5b500490565b818103818111156104de576104de610d5a565b808201808211156104de576104de610d5a565b5f60018201610ddb57610ddb610d5a565b5060010190565b5f60208284031215610df2575f5ffd5b81518015158114610cef575f5ffd5b5f60208284031215610e11575f5ffd5b505191905056fe9b779b17422d0df92223018b32b4d1fa46e071723d6817e2486d003becc55f00a264697066735822122012ad347d6e5e889670231c30b2c9efc1091a462437ef84381a88df3ee6018d4064736f6c634300081b0033","linkReferences":{}},"methodIdentifiers":{"BUYBACK_THRESHOLD()":"960c1e50","ENTRY_FEE_BPS()":"9089ad0e","EXIT_FEE_BPS()":"324d8438","FEE_DENOMINATOR()":"d73792a9","MAX_SWAP_PER_HOUR()":"87addbbc","burnAddress()":"70d5ae05","collectEntryFee(address,uint256)":"1548e7d5","collectExitFee(address,uint256)":"9a4f79fd","currentHourStart()":"10f3a9c2","emergencyWithdraw(address,uint256)":"95ccea67","entryFeeBalance(address)":"8ef681bc","executeBuyback(address,(address,address,uint24,int24,address))":"6acb8741","exitFeeBalance(address)":"05c624f0","owner()":"8da5cb5b","pause()":"8456cb59","paused()":"5c975abb","poolManager()":"dc4c90d3","renounceOwnership()":"715018a6","setBurnAddress(address)":"4b0e7216","setStakingContract(address)":"9dd373b9","setVestingTreasury(address)":"40f852eb","stakingContract()":"ee99205c","swapCountThisHour()":"f7b2d363","sweepExitFees(address)":"c47fa3f6","transferOwnership(address)":"f2fde38b","unpause()":"3f4ba83a","usdc()":"3e413bee","veilToken()":"7b4a3b5e","vestingTreasury()":"03592373"},"id":50}