{"abi":[{"type":"constructor","inputs":[{"name":"_veilToken","type":"address","internalType":"address"},{"name":"_usdc","type":"address","internalType":"address"},{"name":"_poolManager","type":"address","internalType":"address"},{"name":"_stakingContract","type":"address","internalType":"address"},{"name":"_vestingTreasury","type":"address","internalType":"address"},{"name":"_burnAddress","type":"address","internalType":"address"}],"stateMutability":"nonpayable"},{"type":"function","name":"BUYBACK_THRESHOLD","inputs":[],"outputs":[{"name":"","type":"uint256","internalType":"uint256"}],"stateMutability":"view"},{"type":"function","name":"ENTRY_FEE_BPS","inputs":[],"outputs":[{"name":"","type":"uint256","internalType":"uint256"}],"stateMutability":"view"},{"type":"function","name":"EXIT_FEE_BPS","inputs":[],"outputs":[{"name":"","type":"uint256","internalType":"uint256"}],"stateMutability":"view"},{"type":"function","name":"FEE_DENOMINATOR","inputs":[],"outputs":[{"name":"","type":"uint256","internalType":"uint256"}],"stateMutability":"view"},{"type":"function","name":"MAX_SWAP_PER_HOUR","inputs":[],"outputs":[{"name":"","type":"uint256","internalType":"uint256"}],"stateMutability":"view"},{"type":"function","name":"afterSwap","inputs":[{"name":"","type":"address","internalType":"address"},{"name":"","type":"tuple","internalType":"struct PoolKey","components":[{"name":"currency0","type":"address","internalType":"Currency"},{"name":"currency1","type":"address","internalType":"Currency"},{"name":"fee","type":"uint24","internalType":"uint24"},{"name":"tickSpacing","type":"int24","internalType":"int24"},{"name":"hooks","type":"address","internalType":"contract IHooks"}]},{"name":"","type":"tuple","internalType":"struct IPoolManager.SwapParams","components":[{"name":"zeroForOne","type":"bool","internalType":"bool"},{"name":"amountSpecified","type":"int256","internalType":"int256"},{"name":"sqrtPriceLimitX96","type":"uint160","internalType":"uint160"}]},{"name":"delta","type":"int256","internalType":"BalanceDelta"},{"name":"data","type":"bytes","internalType":"bytes"}],"outputs":[{"name":"","type":"bytes4","internalType":"bytes4"}],"stateMutability":"nonpayable"},{"type":"function","name":"burnAddress","inputs":[],"outputs":[{"name":"","type":"address","internalType":"address"}],"stateMutability":"view"},{"type":"function","name":"collectEntryFee","inputs":[{"name":"token","type":"address","internalType":"address"},{"name":"amount","type":"uint256","internalType":"uint256"}],"outputs":[{"name":"netAmount","type":"uint256","internalType":"uint256"}],"stateMutability":"nonpayable"},{"type":"function","name":"collectExitFee","inputs":[{"name":"token","type":"address","internalType":"address"},{"name":"amount","type":"uint256","internalType":"uint256"}],"outputs":[{"name":"netAmount","type":"uint256","internalType":"uint256"}],"stateMutability":"nonpayable"},{"type":"function","name":"currentHourStart","inputs":[],"outputs":[{"name":"","type":"uint256","internalType":"uint256"}],"stateMutability":"view"},{"type":"function","name":"emergencyWithdraw","inputs":[{"name":"token","type":"address","internalType":"address"},{"name":"amount","type":"uint256","internalType":"uint256"}],"outputs":[],"stateMutability":"nonpayable"},{"type":"function","name":"entryFeeBalance","inputs":[{"name":"","type":"address","internalType":"address"}],"outputs":[{"name":"","type":"uint256","internalType":"uint256"}],"stateMutability":"view"},{"type":"function","name":"executeBuyback","inputs":[{"name":"token","type":"address","internalType":"address"},{"name":"poolKey","type":"tuple","internalType":"struct PoolKey","components":[{"name":"currency0","type":"address","internalType":"Currency"},{"name":"currency1","type":"address","internalType":"Currency"},{"name":"fee","type":"uint24","internalType":"uint24"},{"name":"tickSpacing","type":"int24","internalType":"int24"},{"name":"hooks","type":"address","internalType":"contract IHooks"}]},{"name":"zeroForOne","type":"bool","internalType":"bool"},{"name":"sqrtPriceLimitX96","type":"uint160","internalType":"uint160"}],"outputs":[],"stateMutability":"nonpayable"},{"type":"function","name":"exitFeeBalance","inputs":[{"name":"","type":"address","internalType":"address"}],"outputs":[{"name":"","type":"uint256","internalType":"uint256"}],"stateMutability":"view"},{"type":"function","name":"owner","inputs":[],"outputs":[{"name":"","type":"address","internalType":"address"}],"stateMutability":"view"},{"type":"function","name":"pause","inputs":[],"outputs":[],"stateMutability":"nonpayable"},{"type":"function","name":"paused","inputs":[],"outputs":[{"name":"","type":"bool","internalType":"bool"}],"stateMutability":"view"},{"type":"function","name":"poolManager","inputs":[],"outputs":[{"name":"","type":"address","internalType":"contract IPoolManager"}],"stateMutability":"view"},{"type":"function","name":"renounceOwnership","inputs":[],"outputs":[],"stateMutability":"nonpayable"},{"type":"function","name":"setBurnAddress","inputs":[{"name":"_burn","type":"address","internalType":"address"}],"outputs":[],"stateMutability":"nonpayable"},{"type":"function","name":"setStakingContract","inputs":[{"name":"_staking","type":"address","internalType":"address"}],"outputs":[],"stateMutability":"nonpayable"},{"type":"function","name":"setVestingTreasury","inputs":[{"name":"_treasury","type":"address","internalType":"address"}],"outputs":[],"stateMutability":"nonpayable"},{"type":"function","name":"stakingContract","inputs":[],"outputs":[{"name":"","type":"address","internalType":"address"}],"stateMutability":"view"},{"type":"function","name":"swapCountThisHour","inputs":[],"outputs":[{"name":"","type":"uint256","internalType":"uint256"}],"stateMutability":"view"},{"type":"function","name":"sweepExitFees","inputs":[{"name":"token","type":"address","internalType":"address"}],"outputs":[],"stateMutability":"nonpayable"},{"type":"function","name":"transferOwnership","inputs":[{"name":"newOwner","type":"address","internalType":"address"}],"outputs":[],"stateMutability":"nonpayable"},{"type":"function","name":"unpause","inputs":[],"outputs":[],"stateMutability":"nonpayable"},{"type":"function","name":"usdc","inputs":[],"outputs":[{"name":"","type":"address","internalType":"contract IERC20"}],"stateMutability":"view"},{"type":"function","name":"veilToken","inputs":[],"outputs":[{"name":"","type":"address","internalType":"contract IERC20"}],"stateMutability":"view"},{"type":"function","name":"vestingTreasury","inputs":[],"outputs":[{"name":"","type":"address","internalType":"address"}],"stateMutability":"view"},{"type":"event","name":"BuybackExecuted","inputs":[{"name":"tokenIn","type":"address","indexed":true,"internalType":"address"},{"name":"amountIn","type":"uint256","indexed":false,"internalType":"uint256"},{"name":"veilOut","type":"uint256","indexed":false,"internalType":"uint256"},{"name":"staked","type":"uint256","indexed":false,"internalType":"uint256"},{"name":"burned","type":"uint256","indexed":false,"internalType":"uint256"}],"anonymous":false},{"type":"event","name":"EntryFeeCollected","inputs":[{"name":"token","type":"address","indexed":true,"internalType":"address"},{"name":"amount","type":"uint256","indexed":false,"internalType":"uint256"},{"name":"fee","type":"uint256","indexed":false,"internalType":"uint256"}],"anonymous":false},{"type":"event","name":"ExitFeeCollected","inputs":[{"name":"token","type":"address","indexed":true,"internalType":"address"},{"name":"amount","type":"uint256","indexed":false,"internalType":"uint256"},{"name":"fee","type":"uint256","indexed":false,"internalType":"uint256"}],"anonymous":false},{"type":"event","name":"OwnershipTransferred","inputs":[{"name":"previousOwner","type":"address","indexed":true,"internalType":"address"},{"name":"newOwner","type":"address","indexed":true,"internalType":"address"}],"anonymous":false},{"type":"event","name":"TreasuryFunded","inputs":[{"name":"amount","type":"uint256","indexed":false,"internalType":"uint256"}],"anonymous":false},{"type":"error","name":"BelowThreshold","inputs":[]},{"type":"error","name":"InsufficientBalance","inputs":[]},{"type":"error","name":"InvalidAddress","inputs":[]},{"type":"error","name":"InvalidAmount","inputs":[]},{"type":"error","name":"OwnableInvalidOwner","inputs":[{"name":"owner","type":"address","internalType":"address"}]},{"type":"error","name":"OwnableUnauthorizedAccount","inputs":[{"name":"account","type":"address","internalType":"address"}]},{"type":"error","name":"Paused","inputs":[]},{"type":"error","name":"RateLimitExceeded","inputs":[]},{"type":"error","name":"ReentrancyGuardReentrantCall","inputs":[]},{"type":"error","name":"SafeERC20FailedOperation","inputs":[{"name":"token","type":"address","internalType":"address"}]},{"type":"error","name":"SwapFailed","inputs":[]},{"type":"error","name":"Unauthorized","inputs":[]}],"bytecode":{"object":"0x60e060405234801561000f575f5ffd5b5060405161162a38038061162a83398101604081905261002e916101a0565b338061005357604051631e4fbdf760e01b81525f600482015260240160405180910390fd5b61005c81610136565b5060017f9b779b17422d0df92223018b32b4d1fa46e071723d6817e2486d003becc55f00556001600160a01b038616158061009e57506001600160a01b038516155b806100b057506001600160a01b038416155b156100ce5760405163e6c4247b60e01b815260040160405180910390fd5b6001600160a01b0386811660805285811660a05284811660c052600180546001600160a01b03199081168684161790915560028054821685841617905560038054909116918316919091179055610127610e1042610210565b6007555061022f945050505050565b5f80546001600160a01b038381166001600160a01b0319831681178455604051919092169283917f8be0079c531659141344cd1fd0a4f28419497f9722a3daafe3b4186f6b6457e09190a35050565b80516001600160a01b038116811461019b575f5ffd5b919050565b5f5f5f5f5f5f60c087890312156101b5575f5ffd5b6101be87610185565b95506101cc60208801610185565b94506101da60408801610185565b93506101e860608801610185565b92506101f660808801610185565b915061020460a08801610185565b90509295509295509295565b5f8261022a57634e487b7160e01b5f52601260045260245ffd5b500490565b60805160a05160c0516113996102915f395f81816103ef015281816106d10152818161077401528181610a5a0152610b3901525f61025b01525f81816102ea015281816109bc01528181610c0501528181610cb10152610cfc01526113995ff3fe608060405234801561000f575f5ffd5b50600436106101d1575f3560e01c80638da5cb5b116100fe578063b47b2fb11161009e578063dc4c90d31161006e578063dc4c90d3146103ea578063ee99205c14610411578063f2fde38b14610424578063f7b2d36314610437575f5ffd5b8063b47b2fb11461038f578063c47fa3f6146103bb578063d0439bc1146103ce578063d73792a9146103e1575f5ffd5b806395ccea67116100d957806395ccea671461034b578063960c1e501461035e5780639a4f79fd146103695780639dd373b91461037c575f5ffd5b80638da5cb5b146103145780638ef681bc146103245780639089ad0e14610343575f5ffd5b806340f852eb11610174578063715018a611610144578063715018a6146102dd5780637b4a3b5e146102e55780638456cb591461030c57806387addbbc1461024e575f5ffd5b806340f852eb146102875780634b0e72161461029a5780635c975abb146102ad57806370d5ae05146102ca575f5ffd5b80631548e7d5116101af5780631548e7d51461023b578063324d84381461024e5780633e413bee146102565780633f4ba83a1461027d575f5ffd5b806303592373146101d557806305c624f01461020557806310f3a9c214610232575b5f5ffd5b6002546101e8906001600160a01b031681565b6040516001600160a01b0390911681526020015b60405180910390f35b610224610213366004610ff5565b60056020525f908152604090205481565b6040519081526020016101fc565b61022460075481565b610224610249366004611017565b610440565b610224600a81565b6101e87f000000000000000000000000000000000000000000000000000000000000000081565b61028561051b565b005b610285610295366004610ff5565b61052f565b6102856102a8366004610ff5565b610559565b6008546102ba9060ff1681565b60405190151581526020016101fc565b6003546101e8906001600160a01b031681565b610285610583565b6101e87f000000000000000000000000000000000000000000000000000000000000000081565b610285610596565b5f546001600160a01b03166101e8565b610224610332366004610ff5565b60046020525f908152604090205481565b610224601481565b610285610359366004611017565b6105ad565b610224633b9aca0081565b610224610377366004611017565b6105de565b61028561038a366004610ff5565b61069b565b6103a261039d366004611057565b6106c5565b6040516001600160e01b031990911681526020016101fc565b6102856103c9366004610ff5565b61080a565b6102856103dc36600461111d565b6108e3565b61022461271081565b6101e87f000000000000000000000000000000000000000000000000000000000000000081565b6001546101e8906001600160a01b031681565b610285610432366004610ff5565b610d9d565b61022460065481565b6008545f9060ff1615610466576040516313d0ff5960e31b815260040160405180910390fd5b5f61271061047560148561118a565b61047f91906111a1565b905061048b81846111c0565b91506104a26001600160a01b038516333084610dd7565b6001600160a01b0384165f90815260046020526040812080548392906104c99084906111d3565b909155505060408051848152602081018390526001600160a01b038616917f5a74606b19c6079e5f015f79381a2f04a48de1e3a5764c68a6c39413aecfab4691015b60405180910390a2505b92915050565b610523610e13565b6008805460ff19169055565b610537610e13565b600280546001600160a01b0319166001600160a01b0392909216919091179055565b610561610e13565b600380546001600160a01b0319166001600160a01b0392909216919091179055565b61058b610e13565b6105945f610e3f565b565b61059e610e13565b6008805460ff19166001179055565b6105b5610e13565b6105da6105c95f546001600160a01b031690565b6001600160a01b0384169083610e8e565b5050565b6008545f9060ff1615610604576040516313d0ff5960e31b815260040160405180910390fd5b5f612710610613600a8561118a565b61061d91906111a1565b905061062981846111c0565b6001600160a01b0385165f908152600560205260408120805492945083929091906106559084906111d3565b909155505060408051848152602081018390526001600160a01b038616917f4b09200030eb31fe1204267722a552b36caad792869c8dcf7fa0338847d6618e910161050b565b6106a3610e13565b600180546001600160a01b0319166001600160a01b0392909216919091179055565b5f336001600160a01b037f000000000000000000000000000000000000000000000000000000000000000016146107365760405162461bcd60e51b815260206004820152601060248201526f27b7363c902837b7b626b0b730b3b2b960811b60448201526064015b60405180910390fd5b5f8061074484860186611017565b915091505f6107538760801d90565b600f0b138061076d57505f61076887600f0b90565b600f0b135b156107f5577f00000000000000000000000000000000000000000000000000000000000000006001600160a01b03166311da60b46040518163ffffffff1660e01b81526004016020604051808303815f875af11580156107cf573d5f5f3e3d5ffd5b505050506040513d601f19601f820116820180604052508101906107f391906111e6565b505b5063b47b2fb160e01b98975050505050505050565b60085460ff161561082e576040516313d0ff5960e31b815260040160405180910390fd5b610836610ec8565b6001600160a01b0381165f908152600560205260408120549081900361086f57604051631e9acf1760e31b815260040160405180910390fd5b6001600160a01b038083165f81815260056020526040812055600254610896921683610e8e565b6040518181527fef7aff843f3420b45d9d058ff62be0d87a95132dea4a67b18925283ba05647dc9060200160405180910390a1506108e060015f5160206113445f395f51905f5255565b50565b60085460ff1615610907576040516313d0ff5960e31b815260040160405180910390fd5b5f610914610e10426111a1565b905060075481111561092a5760078190555f6006555b600a6006541061094d5760405163a74c1c5f60e01b815260040160405180910390fd5b60068054905f61095c836111fd565b9190505550610969610ec8565b6001600160a01b0385165f90815260046020526040902054633b9aca008110156109a557604051625713a160e91b815260040160405180910390fd5b6040516370a0823160e01b81523060048201525f907f00000000000000000000000000000000000000000000000000000000000000006001600160a01b0316906370a0823190602401602060405180830381865afa158015610a09573d5f5f3e3d5ffd5b505050506040513d601f19601f82011682018060405250810190610a2d91906111e6565b6001600160a01b038881165f81815260046020819052604080832092909255905163095ea7b360e01b81527f0000000000000000000000000000000000000000000000000000000000000000909316908301526024820185905291925063095ea7b3906044016020604051808303815f875af1158015610aaf573d5f5f3e3d5ffd5b505050506040513d601f19601f82011682018060405250810190610ad39190611215565b506040805160608082018352871515825260208083018690526001600160a01b03808916848601528451908c169181019190915292830185905290915f910160408051601f1981840301815290829052633cf3645360e21b825291506001600160a01b037f0000000000000000000000000000000000000000000000000000000000000000169063f3cd914c90610b72908b908690869060040161126e565b6020604051808303815f875af1925050508015610bac575060408051601f3d908101601f19168201909252610ba9918101906111e6565b60015b610be4576001600160a01b0389165f90815260046020819052604091829020869055815163081ceff360e41b81529151918290030190fd5b6040516370a0823160e01b81523060048201525f9085906001600160a01b037f000000000000000000000000000000000000000000000000000000000000000016906370a0823190602401602060405180830381865afa158015610c4a573d5f5f3e3d5ffd5b505050506040513d601f19601f82011682018060405250810190610c6e91906111e6565b610c7891906111c0565b90508015610d7a575f610c8c6002836111a1565b6001549091506001600160a01b031615610cda57600154610cda906001600160a01b037f00000000000000000000000000000000000000000000000000000000000000008116911683610e8e565b6003546001600160a01b031615610d2557600354610d25906001600160a01b037f00000000000000000000000000000000000000000000000000000000000000008116911683610e8e565b6040805188815260208101849052908101829052606081018290526001600160a01b038d16907faf366b19453ca08fb17cdfa68aabc4aa2127edc0b322a6f2fcd8c6d525dcf50d9060800160405180910390a2505b505050505050610d9660015f5160206113445f395f51905f5255565b5050505050565b610da5610e13565b6001600160a01b038116610dce57604051631e4fbdf760e01b81525f600482015260240161072d565b6108e081610e3f565b610de5848484846001610ee3565b610e0d57604051635274afe760e01b81526001600160a01b038516600482015260240161072d565b50505050565b5f546001600160a01b031633146105945760405163118cdaa760e01b815233600482015260240161072d565b5f80546001600160a01b038381166001600160a01b0319831681178455604051919092169283917f8be0079c531659141344cd1fd0a4f28419497f9722a3daafe3b4186f6b6457e09190a35050565b610e9b8383836001610f50565b610ec357604051635274afe760e01b81526001600160a01b038416600482015260240161072d565b505050565b610ed0610fb2565b60025f5160206113445f395f51905f5255565b6040516323b872dd60e01b5f8181526001600160a01b038781166004528616602452604485905291602083606481808c5af1925060015f51148316610f3f578383151615610f33573d5f823e3d81fd5b5f883b113d1516831692505b604052505f60605295945050505050565b60405163a9059cbb60e01b5f8181526001600160a01b038616600452602485905291602083604481808b5af1925060015f51148316610fa6578383151615610f9a573d5f823e3d81fd5b5f873b113d1516831692505b60405250949350505050565b5f5160206113445f395f51905f525460020361059457604051633ee5aeb560e01b815260040160405180910390fd5b6001600160a01b03811681146108e0575f5ffd5b5f60208284031215611005575f5ffd5b813561101081610fe1565b9392505050565b5f5f60408385031215611028575f5ffd5b823561103381610fe1565b946020939093013593505050565b5f60a08284031215611051575f5ffd5b50919050565b5f5f5f5f5f5f86880361016081121561106e575f5ffd5b873561107981610fe1565b96506110888960208a01611041565b9550606060bf198201121561109b575f5ffd5b5060c087019350610120870135925061014087013567ffffffffffffffff8111156110c4575f5ffd5b8701601f810189136110d4575f5ffd5b803567ffffffffffffffff8111156110ea575f5ffd5b8960208284010111156110fb575f5ffd5b60208201935080925050509295509295509295565b80151581146108e0575f5ffd5b5f5f5f5f6101008587031215611131575f5ffd5b843561113c81610fe1565b935061114b8660208701611041565b925060c085013561115b81611110565b915060e085013561116b81610fe1565b939692955090935050565b634e487b7160e01b5f52601160045260245ffd5b808202811582820484141761051557610515611176565b5f826111bb57634e487b7160e01b5f52601260045260245ffd5b500490565b8181038181111561051557610515611176565b8082018082111561051557610515611176565b5f602082840312156111f6575f5ffd5b5051919050565b5f6001820161120e5761120e611176565b5060010190565b5f60208284031215611225575f5ffd5b815161101081611110565b803561123b81610fe1565b919050565b5f81518084528060208401602086015e5f602082860101526020601f19601f83011685010191505092915050565b5f843561127a81610fe1565b6001600160a01b03168252602085013561129381610fe1565b6001600160a01b03166020830152604085013562ffffff81168082146112b7575f5ffd5b6040840152506060850135600281900b81146112d1575f5ffd5b6112e0606084018260020b9052565b506112ed60808601611230565b6001600160a01b0381166080840152508351151560a0830152602084015160c083015260408401516001600160a01b031660e083015261012061010083015261133a610120830184611240565b9594505050505056fe9b779b17422d0df92223018b32b4d1fa46e071723d6817e2486d003becc55f00a2646970667358221220a09395a8e841dfe93d1e7b0625a73ac39e8951f51dc876a9ad6729b9353f445b64736f6c634300081b0033","linkReferences":{}},"methodIdentifiers":{"BUYBACK_THRESHOLD()":"960c1e50","ENTRY_FEE_BPS()":"9089ad0e","EXIT_FEE_BPS()":"324d8438","FEE_DENOMINATOR()":"d73792a9","MAX_SWAP_PER_HOUR()":"87addbbc","afterSwap(address,(address,address,uint24,int24,address),(bool,int256,uint160),int256,bytes)":"b47b2fb1","burnAddress()":"70d5ae05","collectEntryFee(address,uint256)":"1548e7d5","collectExitFee(address,uint256)":"9a4f79fd","currentHourStart()":"10f3a9c2","emergencyWithdraw(address,uint256)":"95ccea67","entryFeeBalance(address)":"8ef681bc","executeBuyback(address,(address,address,uint24,int24,address),bool,uint160)":"d0439bc1","exitFeeBalance(address)":"05c624f0","owner()":"8da5cb5b","pause()":"8456cb59","paused()":"5c975abb","poolManager()":"dc4c90d3","renounceOwnership()":"715018a6","setBurnAddress(address)":"4b0e7216","setStakingContract(address)":"9dd373b9","setVestingTreasury(address)":"40f852eb","stakingContract()":"ee99205c","swapCountThisHour()":"f7b2d363","sweepExitFees(address)":"c47fa3f6","transferOwnership(address)":"f2fde38b","unpause()":"3f4ba83a","usdc()":"3e413bee","veilToken()":"7b4a3b5e","vestingTreasury()":"03592373"},"id":66}