{"abi":[{"type":"constructor","inputs":[{"name":"_token","type":"address","internalType":"address"},{"name":"_treasury","type":"address","internalType":"address"},{"name":"_owner","type":"address","internalType":"address"}],"stateMutability":"nonpayable"},{"type":"function","name":"BPS_DENOM","inputs":[],"outputs":[{"name":"","type":"uint256","internalType":"uint256"}],"stateMutability":"view"},{"type":"function","name":"DENOM_LARGE","inputs":[],"outputs":[{"name":"","type":"uint256","internalType":"uint256"}],"stateMutability":"view"},{"type":"function","name":"DENOM_MEDIUM","inputs":[],"outputs":[{"name":"","type":"uint256","internalType":"uint256"}],"stateMutability":"view"},{"type":"function","name":"DENOM_SMALL","inputs":[],"outputs":[{"name":"","type":"uint256","internalType":"uint256"}],"stateMutability":"view"},{"type":"function","name":"FEE_BPS","inputs":[],"outputs":[{"name":"","type":"uint256","internalType":"uint256"}],"stateMutability":"view"},{"type":"function","name":"TREE_DEPTH","inputs":[],"outputs":[{"name":"","type":"uint8","internalType":"uint8"}],"stateMutability":"view"},{"type":"function","name":"commitmentExists","inputs":[{"name":"commitment","type":"bytes32","internalType":"bytes32"}],"outputs":[{"name":"","type":"bool","internalType":"bool"}],"stateMutability":"view"},{"type":"function","name":"currentRoot","inputs":[],"outputs":[{"name":"","type":"bytes32","internalType":"bytes32"}],"stateMutability":"view"},{"type":"function","name":"deposit","inputs":[{"name":"commitment","type":"bytes32","internalType":"bytes32"},{"name":"denomination","type":"uint256","internalType":"uint256"}],"outputs":[],"stateMutability":"nonpayable"},{"type":"function","name":"depositsPaused","inputs":[],"outputs":[{"name":"","type":"bool","internalType":"bool"}],"stateMutability":"view"},{"type":"function","name":"isKnownRoot","inputs":[{"name":"root","type":"bytes32","internalType":"bytes32"}],"outputs":[{"name":"","type":"bool","internalType":"bool"}],"stateMutability":"view"},{"type":"function","name":"isSpent","inputs":[{"name":"nullifierHash","type":"bytes32","internalType":"bytes32"}],"outputs":[{"name":"","type":"bool","internalType":"bool"}],"stateMutability":"view"},{"type":"function","name":"knownRoots","inputs":[{"name":"","type":"bytes32","internalType":"bytes32"}],"outputs":[{"name":"","type":"bool","internalType":"bool"}],"stateMutability":"view"},{"type":"function","name":"nullifierSpent","inputs":[{"name":"","type":"bytes32","internalType":"bytes32"}],"outputs":[{"name":"","type":"bool","internalType":"bool"}],"stateMutability":"view"},{"type":"function","name":"owner","inputs":[],"outputs":[{"name":"","type":"address","internalType":"address"}],"stateMutability":"view"},{"type":"function","name":"pauseDeposits","inputs":[],"outputs":[],"stateMutability":"nonpayable"},{"type":"function","name":"renounceOwnership","inputs":[],"outputs":[],"stateMutability":"nonpayable"},{"type":"function","name":"setTreasury","inputs":[{"name":"_treasury","type":"address","internalType":"address"}],"outputs":[],"stateMutability":"nonpayable"},{"type":"function","name":"token","inputs":[],"outputs":[{"name":"","type":"address","internalType":"contract IERC20"}],"stateMutability":"view"},{"type":"function","name":"totalDeposits","inputs":[],"outputs":[{"name":"","type":"uint256","internalType":"uint256"}],"stateMutability":"view"},{"type":"function","name":"transferOwnership","inputs":[{"name":"newOwner","type":"address","internalType":"address"}],"outputs":[],"stateMutability":"nonpayable"},{"type":"function","name":"treasury","inputs":[],"outputs":[{"name":"","type":"address","internalType":"address"}],"stateMutability":"view"},{"type":"function","name":"unpauseDeposits","inputs":[],"outputs":[],"stateMutability":"nonpayable"},{"type":"function","name":"withdraw","inputs":[{"name":"nullifierHash","type":"bytes32","internalType":"bytes32"},{"name":"root","type":"bytes32","internalType":"bytes32"},{"name":"recipient","type":"address","internalType":"address"},{"name":"denomination","type":"uint256","internalType":"uint256"},{"name":"proof","type":"bytes","internalType":"bytes"}],"outputs":[],"stateMutability":"nonpayable"},{"type":"event","name":"Deposit","inputs":[{"name":"commitment","type":"bytes32","indexed":true,"internalType":"bytes32"},{"name":"leafIndex","type":"uint256","indexed":false,"internalType":"uint256"},{"name":"denomination","type":"uint256","indexed":false,"internalType":"uint256"},{"name":"timestamp","type":"uint256","indexed":false,"internalType":"uint256"}],"anonymous":false},{"type":"event","name":"OwnershipTransferred","inputs":[{"name":"previousOwner","type":"address","indexed":true,"internalType":"address"},{"name":"newOwner","type":"address","indexed":true,"internalType":"address"}],"anonymous":false},{"type":"event","name":"RootAdded","inputs":[{"name":"root","type":"bytes32","indexed":true,"internalType":"bytes32"}],"anonymous":false},{"type":"event","name":"Withdrawal","inputs":[{"name":"nullifierHash","type":"bytes32","indexed":true,"internalType":"bytes32"},{"name":"recipient","type":"address","indexed":true,"internalType":"address"},{"name":"denomination","type":"uint256","indexed":false,"internalType":"uint256"},{"name":"fee","type":"uint256","indexed":false,"internalType":"uint256"},{"name":"timestamp","type":"uint256","indexed":false,"internalType":"uint256"}],"anonymous":false},{"type":"error","name":"CommitmentAlreadyExists","inputs":[]},{"type":"error","name":"DepositsArePaused","inputs":[]},{"type":"error","name":"InvalidDenomination","inputs":[]},{"type":"error","name":"InvalidProof","inputs":[]},{"type":"error","name":"InvalidRoot","inputs":[]},{"type":"error","name":"NullifierAlreadySpent","inputs":[]},{"type":"error","name":"OwnableInvalidOwner","inputs":[{"name":"owner","type":"address","internalType":"address"}]},{"type":"error","name":"OwnableUnauthorizedAccount","inputs":[{"name":"account","type":"address","internalType":"address"}]},{"type":"error","name":"ReentrancyGuardReentrantCall","inputs":[]},{"type":"error","name":"SafeERC20FailedOperation","inputs":[{"name":"token","type":"address","internalType":"address"}]},{"type":"error","name":"TreeFull","inputs":[]},{"type":"error","name":"ZeroAddress","inputs":[]}],"bytecode":{"object":"0x60a060405234801562000010575f80fd5b506040516200131a3803806200131a833981016040819052620000339162000344565b8060017f9b779b17422d0df92223018b32b4d1fa46e071723d6817e2486d003becc55f00556001600160a01b0381166200008757604051631e4fbdf760e01b81525f60048201526024015b60405180910390fd5b620000928162000151565b506001600160a01b038316620000bb5760405163d92e233d60e01b815260040160405180910390fd5b6001600160a01b038216620000e35760405163d92e233d60e01b815260040160405180910390fd5b6001600160a01b0381166200010b5760405163d92e233d60e01b815260040160405180910390fd5b6001600160a01b03838116608052600880546001600160a01b0319169184169190911790556200013e60016014620001a0565b620001486200027f565b505050620003ab565b5f80546001600160a01b038381166001600160a01b0319831681178455604051919092169283917f8be0079c531659141344cd1fd0a4f28419497f9722a3daafe3b4186f6b6457e09190a35050565b600160ff821610801590620001b95750602060ff821611155b620002135760405162461bcd60e51b815260206004820152602360248201527f496e6372656d656e74616c547265653a206465707468206f7574206f662072616044820152626e676560e81b60648201526084016200007e565b815460ff191660ff82161782555f805b8260ff168160ff161015620002725760ff81165f908152600385016020908152604091829020849055815180830190925283825281018390526200026790620002c4565b915060010162000223565b5060019092019190915550565b6002545f81815260076020526040808220805460ff191660011790555182917f388a5f4af784e29fc791e14e90d372b6057e8379d9d5556e843545420c675dea91a250565b80516020808301516040805180840194909452838101919091528051808403820181526060909301905281519101205f9062000322907f30644e72e131a029b85045b68181585d2833e84879b9709143e1f593f0000001906200038b565b92915050565b80516001600160a01b03811681146200033f575f80fd5b919050565b5f805f6060848603121562000357575f80fd5b620003628462000328565b9250620003726020850162000328565b9150620003826040850162000328565b90509250925092565b5f82620003a657634e487b7160e01b5f52601260045260245ffd5b500690565b608051610f41620003d95f395f81816103240152818161044801528181610648015261067e0152610f415ff3fe608060405234801561000f575f80fd5b5060043610610153575f3560e01c80637d882097116100bf578063e5285dcc11610079578063e5285dcc146102bd578063f0f44260146102df578063f1650536146102f2578063f2fde38b1461030c578063fc0c546a1461031f578063fdab463d14610346575f80fd5b80637d8820971461026b57806386307865146102735780638da5cb5b14610286578063b269d81214610296578063b3f15741146102a2578063bf333f2c146102b5575f80fd5b806360da3e831161011057806360da3e83146101f157806361d027b31461020557806363d8882a146102305780636637e38c146102385780636d9833e314610241578063715018a614610263575f80fd5b806302191980146101575780630ffe92ea146101615780631de26e161461017f57806338c869111461019257806338d1b172146101c45780634e73da7d146101cf575b5f80fd5b61015f61034e565b005b61016c6305f5e10081565b6040519081526020015b60405180910390f35b61015f61018d366004610c6e565b61036b565b6101b46101a0366004610c8e565b60066020525f908152604090205460ff1681565b6040519015158152602001610176565b61016c633b9aca0081565b6101b46101dd366004610c8e565b60076020525f908152604090205460ff1681565b6008546101b490600160a01b900460ff1681565b600854610218906001600160a01b031681565b6040516001600160a01b039091168152602001610176565b61015f6104e3565b61016c61271081565b6101b461024f366004610c8e565b5f9081526007602052604090205460ff1690565b61015f6104fa565b60035461016c565b6101b4610281366004610c8e565b61050d565b5f546001600160a01b0316610218565b61016c6402540be40081565b61015f6102b0366004610cbb565b61051f565b61016c601e81565b6101b46102cb366004610c8e565b5f9081526006602052604090205460ff1690565b61015f6102ed366004610d52565b610711565b6102fa601481565b60405160ff9091168152602001610176565b61015f61031a366004610d52565b610762565b6102187f000000000000000000000000000000000000000000000000000000000000000081565b60025461016c565b6103566107a9565b6008805460ff60a01b1916600160a01b179055565b6103736107d5565b600854600160a01b900460ff161561039e57604051630b4cba3160e31b815260040160405180910390fd5b6305f5e10081141580156103b65750633b9aca008114155b80156103c757506402540be4008114155b156103e557604051637833d9e360e11b815260040160405180910390fd5b6103f06001836107f0565b1561040e5760405163145718a760e01b815260040160405180910390fd5b61041a60146002610e66565b6003541061043b57604051631691e59f60e31b815260040160405180910390fd5b6104706001600160a01b037f000000000000000000000000000000000000000000000000000000000000000016333084610847565b5f61047c600184610883565b9050610486610a46565b60408051828152602081018490524281830152905184917faefea07450efad478ebe2bfc47102612d416637dc1b8e0555b6f7507df6c720c919081900360600190a2506104df60015f80516020610eec83398151915255565b5050565b6104eb6107a9565b6008805460ff60a01b19169055565b6105026107a9565b61050b5f610a8b565b565b5f6105196001836107f0565b92915050565b6105276107d5565b6001600160a01b03841661054e5760405163d92e233d60e01b815260040160405180910390fd5b6305f5e10083141580156105665750633b9aca008314155b801561057757506402540be4008314155b1561059557604051637833d9e360e11b815260040160405180910390fd5b5f8581526007602052604090205460ff166105c35760405163504570e360e01b815260040160405180910390fd5b5f8681526006602052604090205460ff16156105f25760405163b115d85760e01b815260040160405180910390fd5b5f868152600660205260408120805460ff19166001179055612710610618601e86610e74565b6106229190610e9f565b90505f61062f8286610eb2565b9050811561067157600854610671906001600160a01b037f00000000000000000000000000000000000000000000000000000000000000008116911684610ada565b6106a56001600160a01b037f0000000000000000000000000000000000000000000000000000000000000000168783610ada565b6040805186815260208101849052428183015290516001600160a01b038816918a917f487a416f24bcc885bc08173dffb0fa399c40b1c48256608044dcabd1686bd5fd9181900360600190a3505061070960015f80516020610eec83398151915255565b505050505050565b6107196107a9565b6001600160a01b0381166107405760405163d92e233d60e01b815260040160405180910390fd5b600880546001600160a01b0319166001600160a01b0392909216919091179055565b61076a6107a9565b6001600160a01b03811661079857604051631e4fbdf760e01b81525f60048201526024015b60405180910390fd5b6107a181610a8b565b50565b919050565b5f546001600160a01b0316331461050b5760405163118cdaa760e01b815233600482015260240161078f565b6107dd610b14565b60025f80516020610eec83398151915255565b60028201545f908290825b8181101561083c575f80805260048701602090815260408083206001851684529091529020548390036108345760019350505050610519565b6001016107fb565b505f95945050505050565b610855848484846001610b43565b61087d57604051635274afe760e01b81526001600160a01b038516600482015260240161078f565b50505050565b81545f9060ff1682610896826002610e66565b8560020154106108e85760405162461bcd60e51b815260206004820152601d60248201527f496e6372656d656e74616c547265653a20747265652069732066756c6c000000604482015260640161078f565b805f036109435760405162461bcd60e51b8152602060048201526024808201527f496e6372656d656e74616c547265653a206c6561662063616e6e6f74206265206044820152637a65726f60e01b606482015260840161078f565b6002850154925082815f5b8460ff168160ff161015610a1a57826001165f036109a55760ff81165f81815260048a016020908152604080832083805280835281842087905593835260038c0182528083205460018452939091529020556109c8565b60ff81165f90815260048901602090815260408083206001845290915290208290555b60408051808201825260ff83165f90815260048b0160209081528382208280528082528483205484526001835281529290205491810191909152610a0b90610bb0565b600193841c939092500161094e565b5060018088018290556002880180545f90610a36908490610ec5565b9091555094979650505050505050565b6002545f81815260076020526040808220805460ff191660011790555182917f388a5f4af784e29fc791e14e90d372b6057e8379d9d5556e843545420c675dea91a250565b5f80546001600160a01b038381166001600160a01b0319831681178455604051919092169283917f8be0079c531659141344cd1fd0a4f28419497f9722a3daafe3b4186f6b6457e09190a35050565b610ae78383836001610c0c565b610b0f57604051635274afe760e01b81526001600160a01b038416600482015260240161078f565b505050565b5f80516020610eec8339815191525460020361050b57604051633ee5aeb560e01b815260040160405180910390fd5b6040516323b872dd60e01b5f8181526001600160a01b038781166004528616602452604485905291602083606481808c5af1925060015f51148316610b9f578383151615610b93573d5f823e3d81fd5b5f883b113d1516831692505b604052505f60605295945050505050565b80516020808301516040805180840194909452838101919091528051808403820181526060909301905281519101205f90610519907f30644e72e131a029b85045b68181585d2833e84879b9709143e1f593f000000190610ed8565b60405163a9059cbb60e01b5f8181526001600160a01b038616600452602485905291602083604481808b5af1925060015f51148316610c62578383151615610c56573d5f823e3d81fd5b5f873b113d1516831692505b60405250949350505050565b5f8060408385031215610c7f575f80fd5b50508035926020909101359150565b5f60208284031215610c9e575f80fd5b5035919050565b80356001600160a01b03811681146107a4575f80fd5b5f805f805f8060a08789031215610cd0575f80fd5b8635955060208701359450610ce760408801610ca5565b935060608701359250608087013567ffffffffffffffff80821115610d0a575f80fd5b818901915089601f830112610d1d575f80fd5b813581811115610d2b575f80fd5b8a6020828501011115610d3c575f80fd5b6020830194508093505050509295509295509295565b5f60208284031215610d62575f80fd5b610d6b82610ca5565b9392505050565b634e487b7160e01b5f52601160045260245ffd5b600181815b80851115610dc057815f1904821115610da657610da6610d72565b80851615610db357918102915b93841c9390800290610d8b565b509250929050565b5f82610dd657506001610519565b81610de257505f610519565b8160018114610df85760028114610e0257610e1e565b6001915050610519565b60ff841115610e1357610e13610d72565b50506001821b610519565b5060208310610133831016604e8410600b8410161715610e41575081810a610519565b610e4b8383610d86565b805f1904821115610e5e57610e5e610d72565b029392505050565b5f610d6b60ff841683610dc8565b808202811582820484141761051957610519610d72565b634e487b7160e01b5f52601260045260245ffd5b5f82610ead57610ead610e8b565b500490565b8181038181111561051957610519610d72565b8082018082111561051957610519610d72565b5f82610ee657610ee6610e8b565b50069056fe9b779b17422d0df92223018b32b4d1fa46e071723d6817e2486d003becc55f00a26469706673582212205d86092c33d7259505bc16616b19dfa1782f45dedf5093da44ccc01729916ff964736f6c63430008170033","linkReferences":{}},"methodIdentifiers":{"BPS_DENOM()":"6637e38c","DENOM_LARGE()":"b269d812","DENOM_MEDIUM()":"38d1b172","DENOM_SMALL()":"0ffe92ea","FEE_BPS()":"bf333f2c","TREE_DEPTH()":"f1650536","commitmentExists(bytes32)":"86307865","currentRoot()":"fdab463d","deposit(bytes32,uint256)":"1de26e16","depositsPaused()":"60da3e83","isKnownRoot(bytes32)":"6d9833e3","isSpent(bytes32)":"e5285dcc","knownRoots(bytes32)":"4e73da7d","nullifierSpent(bytes32)":"38c86911","owner()":"8da5cb5b","pauseDeposits()":"02191980","renounceOwnership()":"715018a6","setTreasury(address)":"f0f44260","token()":"fc0c546a","totalDeposits()":"7d882097","transferOwnership(address)":"f2fde38b","treasury()":"61d027b3","unpauseDeposits()":"63d8882a","withdraw(bytes32,bytes32,address,uint256,bytes)":"b3f15741"},"id":0}