{"abi":[{"type":"constructor","inputs":[],"stateMutability":"nonpayable"},{"type":"function","name":"FIELD_SIZE","inputs":[],"outputs":[{"name":"","type":"uint256","internalType":"uint256"}],"stateMutability":"view"},{"type":"function","name":"ROOT_HISTORY_SIZE","inputs":[],"outputs":[{"name":"","type":"uint32","internalType":"uint32"}],"stateMutability":"view"},{"type":"function","name":"ZERO_VALUE","inputs":[],"outputs":[{"name":"","type":"uint256","internalType":"uint256"}],"stateMutability":"view"},{"type":"function","name":"addCleanSource","inputs":[{"name":"source","type":"address","internalType":"address"}],"outputs":[],"stateMutability":"nonpayable"},{"type":"function","name":"addValidator","inputs":[{"name":"validator","type":"address","internalType":"address"}],"outputs":[],"stateMutability":"nonpayable"},{"type":"function","name":"batchAddCleanSources","inputs":[{"name":"sources","type":"address[]","internalType":"address[]"}],"outputs":[],"stateMutability":"nonpayable"},{"type":"function","name":"batchValidateCommitments","inputs":[{"name":"commitments","type":"bytes32[]","internalType":"bytes32[]"}],"outputs":[],"stateMutability":"nonpayable"},{"type":"function","name":"cleanSources","inputs":[{"name":"","type":"address","internalType":"address"}],"outputs":[{"name":"","type":"bool","internalType":"bool"}],"stateMutability":"view"},{"type":"function","name":"currentRootIndex","inputs":[],"outputs":[{"name":"","type":"uint32","internalType":"uint32"}],"stateMutability":"view"},{"type":"function","name":"filledSubtrees","inputs":[{"name":"","type":"uint256","internalType":"uint256"}],"outputs":[{"name":"","type":"uint256","internalType":"uint256"}],"stateMutability":"view"},{"type":"function","name":"getCleanSetRoot","inputs":[],"outputs":[{"name":"","type":"bytes32","internalType":"bytes32"}],"stateMutability":"view"},{"type":"function","name":"getLastRoot","inputs":[],"outputs":[{"name":"","type":"uint256","internalType":"uint256"}],"stateMutability":"view"},{"type":"function","name":"governance","inputs":[],"outputs":[{"name":"","type":"address","internalType":"address"}],"stateMutability":"view"},{"type":"function","name":"hashLeftRight","inputs":[{"name":"_left","type":"uint256","internalType":"uint256"},{"name":"_right","type":"uint256","internalType":"uint256"}],"outputs":[{"name":"","type":"uint256","internalType":"uint256"}],"stateMutability":"pure"},{"type":"function","name":"isCleanSource","inputs":[{"name":"source","type":"address","internalType":"address"}],"outputs":[{"name":"","type":"bool","internalType":"bool"}],"stateMutability":"view"},{"type":"function","name":"isCommitmentValidated","inputs":[{"name":"commitment","type":"bytes32","internalType":"bytes32"}],"outputs":[{"name":"","type":"bool","internalType":"bool"}],"stateMutability":"view"},{"type":"function","name":"isKnownRoot","inputs":[{"name":"_root","type":"uint256","internalType":"uint256"}],"outputs":[{"name":"","type":"bool","internalType":"bool"}],"stateMutability":"view"},{"type":"function","name":"levels","inputs":[],"outputs":[{"name":"","type":"uint32","internalType":"uint32"}],"stateMutability":"view"},{"type":"function","name":"nextIndex","inputs":[],"outputs":[{"name":"","type":"uint32","internalType":"uint32"}],"stateMutability":"view"},{"type":"function","name":"removeCleanSource","inputs":[{"name":"source","type":"address","internalType":"address"}],"outputs":[],"stateMutability":"nonpayable"},{"type":"function","name":"removeValidator","inputs":[{"name":"validator","type":"address","internalType":"address"}],"outputs":[],"stateMutability":"nonpayable"},{"type":"function","name":"roots","inputs":[{"name":"","type":"uint256","internalType":"uint256"}],"outputs":[{"name":"","type":"uint256","internalType":"uint256"}],"stateMutability":"view"},{"type":"function","name":"transferGovernance","inputs":[{"name":"newGovernance","type":"address","internalType":"address"}],"outputs":[],"stateMutability":"nonpayable"},{"type":"function","name":"validateCommitment","inputs":[{"name":"commitment","type":"bytes32","internalType":"bytes32"}],"outputs":[],"stateMutability":"nonpayable"},{"type":"function","name":"validatedCommitments","inputs":[{"name":"","type":"bytes32","internalType":"bytes32"}],"outputs":[{"name":"","type":"bool","internalType":"bool"}],"stateMutability":"view"},{"type":"function","name":"validators","inputs":[{"name":"","type":"address","internalType":"address"}],"outputs":[{"name":"","type":"bool","internalType":"bool"}],"stateMutability":"view"},{"type":"function","name":"verifyCleanSource","inputs":[{"name":"source","type":"address","internalType":"address"},{"name":"path","type":"uint256[20]","internalType":"uint256[20]"},{"name":"indices","type":"bool[20]","internalType":"bool[20]"}],"outputs":[{"name":"","type":"bool","internalType":"bool"}],"stateMutability":"view"},{"type":"function","name":"zeros","inputs":[{"name":"i","type":"uint256","internalType":"uint256"}],"outputs":[{"name":"","type":"uint256","internalType":"uint256"}],"stateMutability":"pure"},{"type":"event","name":"CommitmentValidated","inputs":[{"name":"commitment","type":"bytes32","indexed":true,"internalType":"bytes32"},{"name":"leafIndex","type":"uint256","indexed":true,"internalType":"uint256"}],"anonymous":false},{"type":"event","name":"SourceAdded","inputs":[{"name":"source","type":"address","indexed":true,"internalType":"address"},{"name":"timestamp","type":"uint256","indexed":false,"internalType":"uint256"}],"anonymous":false},{"type":"event","name":"SourceRemoved","inputs":[{"name":"source","type":"address","indexed":true,"internalType":"address"},{"name":"timestamp","type":"uint256","indexed":false,"internalType":"uint256"}],"anonymous":false},{"type":"event","name":"ValidatorAdded","inputs":[{"name":"validator","type":"address","indexed":true,"internalType":"address"}],"anonymous":false},{"type":"event","name":"ValidatorRemoved","inputs":[{"name":"validator","type":"address","indexed":true,"internalType":"address"}],"anonymous":false},{"type":"error","name":"AlreadyClean","inputs":[]},{"type":"error","name":"CommitmentAlreadyValidated","inputs":[]},{"type":"error","name":"InvalidSource","inputs":[]},{"type":"error","name":"NotClean","inputs":[]},{"type":"error","name":"Unauthorized","inputs":[]}],"bytecode":{"object":"0x6080604052600380546001600160401b031916905534801561001f575f5ffd5b506014610030565b60405180910390fd5b60208163ffffffff16106100865760405162461bcd60e51b815260206004820152601e60248201527f5f6c6576656c732073686f756c64206265206c657373207468616e20333200006044820152606401610027565b5f805463ffffffff191663ffffffff83161781555b8163ffffffff168163ffffffff1610156100df576100be63ffffffff821661015e565b63ffffffff82165f908152600160208190526040909120919091550161009b565b506100f96100ee600183610765565b63ffffffff1661015e565b7fac33ff75c19e70fe83507db0d683fd3465c996598dc972688b7ace676c89077b555060038054600160401b600160e01b03191633680100000000000000008102919091179091555f908152600460205260409020805460ff19166001179055610793565b5f815f0361016d57505f919050565b8160010361019c57507f18dfb8dc9b82229cff974efefc8df78b1ce96d9d844236b496785c698bc6732e919050565b816002036101cb57507f2c0d184fc7a25c124a27a67b2c46220b039b1a5072c3b693a18ffee458f6425d919050565b816003036101fa57507f268b2b93ac5fe540e618a378b8a71b8f2407232744d71e501ce8699980b306e5919050565b8160040361022957507f2d436f654e14cc4febcafdf4a753b149dd8c88a75df9e5d6707e83a853b5f791919050565b8160050361025857507f0b66fdef5a7f00f6fb45d1498b4d7131218e69ccf0a2751b6a1fb1bcd982867d919050565b8160060361028757507f1d542b476c671bb6f0d2ab2939335d7cbad03476f1e3bcba70973b1adfe88b91919050565b816007036102b657507f0680c6388c5798caf80642a1e84316b8b2f7caa99da076f3057d2962a46c5358919050565b816008036102e557507f03c53ce5296e3e895171f89aa09f84214e3fb0755fe7a423b87888e4b3d731b8919050565b8160090361031457507f2dd4e2510b33275359bba6edf72e6bdacad259950b024b2cc19d63c3a5b761df919050565b81600a0361034357507f11cb221f69d954d521fb5393767e77fe4d14133757a706b318e62fa984f98157919050565b81600b0361037257507f039d78bac8f890788eefe39af15eee5825056648f99210054fd03c25213f4de7919050565b81600c036103a157507f0c55b828a83062a77d2b3e0a66bbb50cb6040990d9f368da8b24c0e82b692349919050565b81600d036103d057507f24c866ac88715851268d808487e20e6986084fc222d7188e2a8e0f5b9f8457ef919050565b81600e036103ff57507f0f6a94e437b9dfb35cdedf41e2e154c3ae449b7c04c13add0996a7b53cde5400919050565b81600f0361042e57507f22afe7696b87cb782742e2d3ecb0f749a9beefbbb2159d178b09000e55b22cab919050565b8160100361045d57507f121b01164d32e9ab841ba8f5602b0ec58b576e62552c96911d4d988d49468cdd919050565b8160110361048c57507f05f3810707b1336c953b7db191215dab2b5772f93025aa345b954b43135b627b919050565b816012036104bb57507f287515b2d5975c74e3fd85a20d68611a463ffe605a1c54d8140ab16d1b77f57b919050565b816013036104ea57507f276ff13fde3afa1adb26149ddc3aa67240d603b6a91da5e494c8e58706381a38919050565b8160140361051957507f3039bcb20f03fd9c8650138ef2cfe643edeed152f9c20999f43aeed54d79e387919050565b8160150361054857507f087e5af439450ef09ce6f12a47571971d83309bb6fd1e280c29baf69257f8a4f919050565b8160160361057757507f1821495b1919fa5439ae4a314ff98843067381a3c015f744592bfd64101def1d919050565b816017036105a657507f25789f32f958568364c8139771d7864d93f97efb5bbb87cce1959e7e7443ac80919050565b816018036105d557507f25ad0850411551115fd697c4d91668f92dde52421be59650357cd50363880543919050565b8160190361060457507f10b604f35a902419a0fdcf8ee57123e92f0d650ab009b5105916cac7813c9137919050565b81601a0361063357507f1bb07b96cdddee486afb20c78a3b82208cb80d2c55e596896fa1879164a751db919050565b81601b0361066257507f04ab93e9c494b67162063e77960cd36f4e3e5cdee5388a603dc55a03875c72bb919050565b81601c0361069157507f0f9e7f4ad948e7e487831c37fef6e032d66ab2cd3d742d024274612a86cc55ed919050565b81601d036106c057507f2f1c6920644cd674376a6d3ba4fd3cbe3a571685af0d9ab28e1461e4c1d6fc0a919050565b81601e036106ef57507f0de2cd9dffe1e710647fdc179884bd0367276612ef83d2aeea0f7d8aecb9c3d7919050565b81601f0361071d57507e77ed17dad4b561a9b4a21cf58720ef0c057699fec72b92f2ca26fdf6b48a83919050565b60405162461bcd60e51b815260206004820152601360248201527f496e646578206f7574206f6620626f756e6473000000000000000000000000006044820152606401610027565b63ffffffff828116828216039081111561078d57634e487b7160e01b5f52601160045260245ffd5b92915050565b612b69806107a05f395ff3fe608060405234801561000f575f5ffd5b50600436106101bb575f3560e01c8063bc3ee51e116100f3578063e70dab2411610093578063ec7329591161006e578063ec7329591461042e578063f178e47c14610435578063fa52c7d814610454578063fc7e9c6f14610476575f5ffd5b8063e70dab24146103dd578063e829558814610408578063ec4c62841461041b575f5ffd5b8063cd87a3b4116100ce578063cd87a3b41461039c578063d38bfff4146103a4578063e1c40de9146103b7578063e1dd7d91146103ca575f5ffd5b8063bc3ee51e14610348578063c2b40ae41461035b578063c908906c1461037a575f5ffd5b806350e965361161015e57806390eeb02b1161013957806390eeb02b146102f6578063a6232a9314610306578063ba70f75714610319578063bc02cb4914610335575f5ffd5b806350e965361461029e5780635aa6e675146102b15780635bb93995146102e3575f5ffd5b806340a141ff1161019957806340a141ff1461023e578063414a37ba146102535780634d238c8e146102675780634ecf518b1461027a575f5ffd5b80631609ebbd146101bf578063281e8e69146101ea5780633a5ffbf21461021c575b5f5ffd5b60035463ffffffff165f908152600260205260409020545b6040519081526020015b60405180910390f35b61020c6101f83660046127ab565b5f9081526006602052604090205460ff1690565b60405190151581526020016101e1565b61020c61022a3660046127ab565b60066020525f908152604090205460ff1681565b61025161024c3660046127d8565b610493565b005b6101d75f516020612b145f395f51905f5281565b6102516102753660046127d8565b61050c565b5f546102899063ffffffff1681565b60405163ffffffff90911681526020016101e1565b6102516102ac3660046127d8565b610588565b6003546102cb90600160401b90046001600160a01b031681565b6040516001600160a01b0390911681526020016101e1565b6101d76102f13660046127f1565b61064d565b6003546102899063ffffffff1681565b61020c6103143660046127ab565b610728565b60035463ffffffff165f908152600260205260409020546101d7565b6102516103433660046127d8565b6107a1565b610251610356366004612859565b6108e5565b6101d76103693660046127ab565b60026020525f908152604090205481565b61020c6103883660046127d8565b60056020525f908152604090205460ff1681565b610289606481565b6102516103b23660046127d8565b610adc565b61020c6103c53660046128a9565b610b3e565b6102516103d8366004612859565b610c45565b61020c6103eb3660046127d8565b6001600160a01b03165f9081526005602052604090205460ff1690565b6101d76104163660046127ab565b610d62565b6102516104293660046127ab565b61135f565b6101d75f81565b6101d76104433660046127ab565b60016020525f908152604090205481565b61020c6104623660046127d8565b60046020525f908152604090205460ff1681565b60035461028990640100000000900463ffffffff1681565b919050565b600354600160401b90046001600160a01b031633146104c4576040516282b42960e81b815260040160405180910390fd5b6001600160a01b0381165f81815260046020526040808220805460ff19169055517fe1434e25d6611e0db941968fdc97811c982ac1602e951637d206f5fdda9dd8f19190a250565b600354600160401b90046001600160a01b0316331461053d576040516282b42960e81b815260040160405180910390fd5b6001600160a01b0381165f81815260046020526040808220805460ff19166001179055517fe366c1c0452ed8eec96861e9e54141ebff23c9ec89fe27b996b45f5ec38849879190a250565b600354600160401b90046001600160a01b031633146105b9576040516282b42960e81b815260040160405180910390fd5b6001600160a01b0381165f9081526005602052604090205460ff166105f157604051630d21d8e760e41b815260040160405180910390fd5b6001600160a01b0381165f8181526005602052604090819020805460ff19169055517f914b176382f02881dc58a7486ceb426db34f64588606ea2788b87c97428bfa26906106429042815260200190565b60405180910390a250565b5f5f516020612b145f395f51905f5283106106af5760405162461bcd60e51b815260206004820181905260248201527f5f6c6566742073686f756c6420626520696e7369646520746865206669656c6460448201526064015b60405180910390fd5b5f516020612b145f395f51905f5282106107155760405162461bcd60e51b815260206004820152602160248201527f5f72696768742073686f756c6420626520696e7369646520746865206669656c6044820152601960fa1b60648201526084016106a6565b61071f8383611420565b90505b92915050565b5f815f0361073757505f919050565b60035463ffffffff16805b63ffffffff81165f908152600260205260409020548403610767575060019392505050565b8063ffffffff165f03610778575060645b8061078281612901565b9150508163ffffffff168163ffffffff160361074257505f9392505050565b600354600160401b90046001600160a01b031633146107d2576040516282b42960e81b815260040160405180910390fd5b6001600160a01b0381166107f957604051638154374b60e01b815260040160405180910390fd5b6001600160a01b0381165f9081526005602052604090205460ff16156108325760405163e5c099fb60e01b815260040160405180910390fd5b6001600160a01b0381165f908152600560209081526040808320805460ff19166001179055516108779184910160609190911b6001600160601b031916815260140190565b6040516020818303038152906040528051906020012090505f61089b825f1c61147c565b9050826001600160a01b03167f4599483543f98164ba8860ed8115742ca9d0b29473d7c8f55c4e367a028d94a4426040516108d891815260200190565b60405180910390a2505050565b600354600160401b90046001600160a01b03163314610916576040516282b42960e81b815260040160405180910390fd5b5f5b81811015610ad7575f8383838181106109335761093361291f565b905060200201602081019061094891906127d8565b6001600160a01b031614610acf5760055f84848481811061096b5761096b61291f565b905060200201602081019061098091906127d8565b6001600160a01b0316815260208101919091526040015f205460ff16610acf57600160055f8585858181106109b7576109b761291f565b90506020020160208101906109cc91906127d8565b6001600160a01b0316815260208101919091526040015f908120805460ff191692151592909217909155838383818110610a0857610a0861291f565b9050602002016020810190610a1d91906127d8565b604051602001610a40919060609190911b6001600160601b031916815260140190565b604051602081830303815290604052805190602001209050610a63815f1c61147c565b50838383818110610a7657610a7661291f565b9050602002016020810190610a8b91906127d8565b6001600160a01b03167f4599483543f98164ba8860ed8115742ca9d0b29473d7c8f55c4e367a028d94a442604051610ac591815260200190565b60405180910390a2505b600101610918565b505050565b600354600160401b90046001600160a01b03163314610b0d576040516282b42960e81b815260040160405180910390fd5b600380546001600160a01b03909216600160401b0268010000000000000000600160e01b0319909216919091179055565b6040516001600160601b0319606085901b1660208201525f90819060340160408051601f1981840301815291905280516020909101209050805f5b6014811015610c31575f868260148110610b9557610b9561291f565b60200201359050858260148110610bae57610bae61291f565b602002016020810190610bc19190612933565b15610bf9576040805160208101839052908101849052606001604051602081830303815290604052805190602001205f1c9250610c28565b6040805160208101859052908101829052606001604051602081830303815290604052805190602001205f1c92505b50600101610b79565b50610c3b81610728565b9695505050505050565b335f9081526004602052604090205460ff16158015610c765750600354600160401b90046001600160a01b03163314155b15610c93576040516282b42960e81b815260040160405180910390fd5b5f5b81811015610ad75760065f848484818110610cb257610cb261291f565b602090810292909201358352508101919091526040015f205460ff16610d5a57600160065f858585818110610ce957610ce961291f565b9050602002013581526020019081526020015f205f6101000a81548160ff0219169083151502179055505f838383818110610d2657610d2661291f565b905060200201357f562950892f71d7ce2640869b8425b16ce25da8a2bbdb8eb1f66492b07bbc80f160405160405180910390a35b600101610c95565b5f815f03610d7157505f919050565b81600103610da057507f18dfb8dc9b82229cff974efefc8df78b1ce96d9d844236b496785c698bc6732e919050565b81600203610dcf57507f2c0d184fc7a25c124a27a67b2c46220b039b1a5072c3b693a18ffee458f6425d919050565b81600303610dfe57507f268b2b93ac5fe540e618a378b8a71b8f2407232744d71e501ce8699980b306e5919050565b81600403610e2d57507f2d436f654e14cc4febcafdf4a753b149dd8c88a75df9e5d6707e83a853b5f791919050565b81600503610e5c57507f0b66fdef5a7f00f6fb45d1498b4d7131218e69ccf0a2751b6a1fb1bcd982867d919050565b81600603610e8b57507f1d542b476c671bb6f0d2ab2939335d7cbad03476f1e3bcba70973b1adfe88b91919050565b81600703610eba57507f0680c6388c5798caf80642a1e84316b8b2f7caa99da076f3057d2962a46c5358919050565b81600803610ee957507f03c53ce5296e3e895171f89aa09f84214e3fb0755fe7a423b87888e4b3d731b8919050565b81600903610f1857507f2dd4e2510b33275359bba6edf72e6bdacad259950b024b2cc19d63c3a5b761df919050565b81600a03610f4757507f11cb221f69d954d521fb5393767e77fe4d14133757a706b318e62fa984f98157919050565b81600b03610f7657507f039d78bac8f890788eefe39af15eee5825056648f99210054fd03c25213f4de7919050565b81600c03610fa557507f0c55b828a83062a77d2b3e0a66bbb50cb6040990d9f368da8b24c0e82b692349919050565b81600d03610fd457507f24c866ac88715851268d808487e20e6986084fc222d7188e2a8e0f5b9f8457ef919050565b81600e0361100357507f0f6a94e437b9dfb35cdedf41e2e154c3ae449b7c04c13add0996a7b53cde5400919050565b81600f0361103257507f22afe7696b87cb782742e2d3ecb0f749a9beefbbb2159d178b09000e55b22cab919050565b8160100361106157507f121b01164d32e9ab841ba8f5602b0ec58b576e62552c96911d4d988d49468cdd919050565b8160110361109057507f05f3810707b1336c953b7db191215dab2b5772f93025aa345b954b43135b627b919050565b816012036110bf57507f287515b2d5975c74e3fd85a20d68611a463ffe605a1c54d8140ab16d1b77f57b919050565b816013036110ee57507f276ff13fde3afa1adb26149ddc3aa67240d603b6a91da5e494c8e58706381a38919050565b8160140361111d57507f3039bcb20f03fd9c8650138ef2cfe643edeed152f9c20999f43aeed54d79e387919050565b8160150361114c57507f087e5af439450ef09ce6f12a47571971d83309bb6fd1e280c29baf69257f8a4f919050565b8160160361117b57507f1821495b1919fa5439ae4a314ff98843067381a3c015f744592bfd64101def1d919050565b816017036111aa57507f25789f32f958568364c8139771d7864d93f97efb5bbb87cce1959e7e7443ac80919050565b816018036111d957507f25ad0850411551115fd697c4d91668f92dde52421be59650357cd50363880543919050565b8160190361120857507f10b604f35a902419a0fdcf8ee57123e92f0d650ab009b5105916cac7813c9137919050565b81601a0361123757507f1bb07b96cdddee486afb20c78a3b82208cb80d2c55e596896fa1879164a751db919050565b81601b0361126657507f04ab93e9c494b67162063e77960cd36f4e3e5cdee5388a603dc55a03875c72bb919050565b81601c0361129557507f0f9e7f4ad948e7e487831c37fef6e032d66ab2cd3d742d024274612a86cc55ed919050565b81601d036112c457507f2f1c6920644cd674376a6d3ba4fd3cbe3a571685af0d9ab28e1461e4c1d6fc0a919050565b81601e036112f357507f0de2cd9dffe1e710647fdc179884bd0367276612ef83d2aeea0f7d8aecb9c3d7919050565b81601f0361132157507e77ed17dad4b561a9b4a21cf58720ef0c057699fec72b92f2ca26fdf6b48a83919050565b60405162461bcd60e51b8152602060048201526013602482015272496e646578206f7574206f6620626f756e647360681b60448201526064016106a6565b335f9081526004602052604090205460ff161580156113905750600354600160401b90046001600160a01b03163314155b156113ad576040516282b42960e81b815260040160405180910390fd5b5f8181526006602052604090205460ff16156113dc576040516355a23e2560e01b815260040160405180910390fd5b5f81815260066020526040808220805460ff191660011790555182907f562950892f71d7ce2640869b8425b16ce25da8a2bbdb8eb1f66492b07bbc80f1908390a350565b5f61142961278d565b6114405f516020612b145f395f51905f528561296d565b81526114595f516020612b145f395f51905f528461296d565b60208201525f6040820181905260608201526114748161163c565b519392505050565b6003545f8054909163ffffffff6401000000009091048116916114a191166002612a92565b63ffffffff168163ffffffff16036115145760405162461bcd60e51b815260206004820152603060248201527f4d65726b6c6520747265652069732066756c6c2e204e6f206d6f7265206c656160448201526f1d995cc818d85b88189948185919195960821b60648201526084016106a6565b80835f80805b5f5463ffffffff90811690821610156115b057611538600286612aa9565b63ffffffff165f03611574578392506115568163ffffffff16610d62565b63ffffffff82165f908152600160205260409020859055915061158f565b63ffffffff81165f9081526001602052604090205492508391505b611599838361064d565b93506115a6600286612ad0565b945060010161151a565b506003545f906064906115ca9063ffffffff166001612af7565b6115d49190612aa9565b6003805463ffffffff191663ffffffff83169081179091555f9081526002602052604090208590559050611609866001612af7565b6003805463ffffffff929092166401000000000267ffffffff000000001990921691909117905550939695505050505050565b611645816123de565b6116d2817f19b849f69450b06848da1d39bd5e4a4302bb86744edc26238b0878e269ed23e57f265ddfe127dd51bd7239347b758f0a1320eb2cc7450acc1dad47f80c8dcf34d67f199750ec472f1809e0f66a545e1e51624108ac845015c2aa3dfc36bab497d8aa7f157ff3fe65ac7208110f06a5f74302b14d743ea25067f0ffd032f787c7f1cdf8612515565b61175f817f2e49c43c4569dd9c5fd35ac45fca33f10b15c590692f8beefe18f4896ac949027f0e35fb89981890520d4aef2b6d6506c3cb2f0b6973c24fa82731345ffa2d1f1e7f251ad47cb15c4f1105f109ae5e944f1ba9d9e7806d667ffec6fe723002e0b9967f13da07dc64d428369873e97160234641f8beb56fdd05e5f3563fa39d9c22df4e612515565b6117ec817f0c009b84e650e6d23dc00c7dccef7483a553939689d350cd46e7b89055fd47387f011f16b1c63a854f01992e3956f42d8b04eb650c6d535eb0203dec74befdca067f0ed69e5e383a688f209d9a561daa79612f3f78d0467ad45485df07093f3675497f04dba94a7b0ce9e221acad41472b6bbe3aec507f5eb3d33f463672264c9f789b612515565b611879817f0a3f2637d840f3a16eb094271c9d237b6036757d4bb50bf7ce732ff1d4fa28e87f259a666f129eea198f8a1c502fdb38fa39b1f075569564b6e54a485d1182323f7f28bf7459c9b2f4c6d8e7d06a4ee3a47f7745d4271038e5157a32fdf7ede0d6a17f0a1ca941f057037526ea200f489be8d4c37c85bbcce6a2aeec91bd6941432447612515565b6118a3817f0c6f8f958be0e93053d7fd4fc54512855535ed1539f051dcb43a26fd926361cf6125d1565b6118cd817f123106a93cd17578d426e8128ac9d90aa9e8a00708e296e084dd57e69caaf8116125d1565b6118f7817f26e1ba52ad9285d97dd3ab52f8e840085e8fa83ff1e8f1877b074867cd2dee756125d1565b611921817f1cb55cad7bd133de18a64c5c47b9c97cbe4d8b7bf9e095864471537e6a4ae2c56125d1565b61194b817f1dcd73e46acd8f8e0e2c7ce04bde7f6d2a53043d5060a41c7143f08e6e9055d06125d1565b611975817f011003e32f6d9c66f5852f05474a4def0cda294a0eb4e9b9b12b9bb4512e55746125d1565b61199f817f2b1e809ac1d10ab29ad5f20d03a57dfebadfe5903f58bafed7c508dd2287ae8c6125d1565b6119c9817f2539de1785b735999fb4dac35ee17ed0ef995d05ab2fc5faeaa69ae87bcec0a56125d1565b6119f3817f0c246c5a2ef8ee0126497f222b3e0a0ef4e1c3d41c86d46e43982cb11d77951d6125d1565b611a1d817f192089c4974f68e95408148f7c0632edbb09e6a6ad1a1c2f3f0305f5d03b527b6125d1565b611a47817f1eae0ad8ab68b2f06a0ee36eeb0d0c058529097d91096b756d8fdc2fb5a60d856125d1565b611a71817f179190e5d0e22179e46f8282872abc88db6e2fdc0dee99e69768bd98c5d06bfb6125d1565b611a9b817f29bb9e2c9076732576e9a81c7ac4b83214528f7db00f31bf6cafe794a9b3cd1c6125d1565b611ac5817f225d394e42207599403efd0c2464a90d52652645882aac35b10e590e6e691e086125d1565b611aef817f064760623c25c8cf753d238055b444532be13557451c087de09efd454b23fd596125d1565b611b19817f10ba3a0e01df92e87f301c4b716d8a394d67f4bf42a75c10922910a78f6b5b876125d1565b611b43817f0e070bf53f8451b24f9c6e96b0c2a801cb511bc0c242eb9d361b77693f21471c6125d1565b611b6d817f1b94cd61b051b04dd39755ff93821a73ccd6cb11d2491d8aa7f921014de252fb6125d1565b611b97817f1d7cb39bafb8c744e148787a2e70230f9d4e917d5713bb050487b5aa7d74070b6125d1565b611bc1817f2ec93189bd1ab4f69117d0fe980c80ff8785c2961829f701bb74ac1f303b17db6125d1565b611beb817f2db366bfdd36d277a692bb825b86275beac404a19ae07a9082ea46bd835179266125d1565b611c15817f062100eb485db06269655cf186a68532985275428450359adc99cec6960711b86125d1565b611c3f817f0761d33c66614aaa570e7f1e8244ca1120243f92fa59e4f900c567bf41f5a59b6125d1565b611c69817f20fc411a114d13992c2705aa034e3f315d78608a0f7de4ccf7a72e494855ad0d6125d1565b611c93817f25b5c004a4bdfcb5add9ec4e9ab219ba102c67e8b3effb5fc3a30f317250bc5a6125d1565b611cbd817f23b1822d278ed632a494e58f6df6f5ed038b186d8474155ad87e7dff62b37f4b6125d1565b611ce7817f22734b4c5c3f9493606c4ba9012499bf0f14d13bfcfcccaa16102a29cc2f69e06125d1565b611d11817f26c0c8fe09eb30b7e27a74dc33492347e5bdff409aa3610254413d3fad795ce56125d1565b611d3b817f070dd0ccb6bd7bbae88eac03fa1fbb26196be3083a809829bbd626df348ccad96125d1565b611d65817f12b6595bdb329b6fb043ba78bb28c3bec2c0a6de46d8c5ad6067c4ebfd4250da6125d1565b611d8f817f248d97d7f76283d63bec30e7a5876c11c06fca9b275c671c5e33d95bb7e8d7296125d1565b611db9817f1a306d439d463b0816fc6fd64cc939318b45eb759ddde4aa106d15d9bd9baaaa6125d1565b611de3817f28a8f8372e3c38daced7c00421cb4621f4f1b54ddc27821b0d62d3d6ec7c56cf6125d1565b611e0c817e94975717f9a8a8bb35152f24d43294071ce320c829f388bc852183e1e2ce7e6125d1565b611e36817f04d5ee4c3aa78f7d80fde60d716480d3593f74d4f653ae83f4103246db2e8d656125d1565b611e60817f2a6cf5e9aa03d4336349ad6fb8ed2269c7bef54b8822cc76d08495c12efde1876125d1565b611e8a817f2304d31eaab960ba9274da43e19ddeb7f792180808fd6e43baae48d7efcba3f36125d1565b611eb4817f03fd9ac865a4b2a6d5e7009785817249bff08a7e0726fcb4e1c11d39d199f0b06125d1565b611edd817eb7258ded52bbda2248404d55ee5044798afc3a209193073f7954d4d63b0b646125d1565b611f07817f159f81ada0771799ec38fca2d4bf65ebb13d3a74f3298db36272c5ca65e92d9a6125d1565b611f31817f1ef90e67437fbc8550237a75bc28e3bb9000130ea25f0c5471e144cf4264431f6125d1565b611f5b817f1e65f838515e5ff0196b49aa41a2d2568df739bc176b08ec95a79ed82932e30d6125d1565b611f85817f2b1b045def3a166cec6ce768d079ba74b18c844e570e1f826575c1068c94c33f6125d1565b611faf817f0832e5753ceb0ff6402543b1109229c165dc2d73bef715e3f1c6e07c168bb1736125d1565b611fd9817f02f614e9cedfb3dc6b762ae0a37d41bab1b841c2e8b6451bc5a8e3c390b6ad166125d1565b612003817f0e2427d38bd46a60dd640b8e362cad967370ebb777bedff40f6a0be27e7ed7056125d1565b61202d817f0493630b7c670b6deb7c84d414e7ce79049f0ec098c3c7c50768bbe29214a53a6125d1565b612057817f22ead100e8e482674decdab17066c5a26bb1515355d5461a3dc06cc85327cea96125d1565b612081817f25b3e56e655b42cdaae2626ed2554d48583f1ae35626d04de5084e0b6d2a6f166125d1565b6120ab817f1e32752ada8836ef5837a6cde8ff13dbb599c336349e4c584b4fdc0a0cf6f9d06125d1565b6120d5817f2fa2a871c15a387cc50f68f6f3c3455b23c00995f05078f672a9864074d412e56125d1565b6120ff817f2f569b8a9a4424c9278e1db7311e889f54ccbf10661bab7fcd18e7c7a7d835056125d1565b612129817f044cb455110a8fdd531ade530234c518a7df93f7332ffd2144165374b246b43d6125d1565b612153817f227808de93906d5d420246157f2e42b191fe8c90adfe118178ddc723a53190256125d1565b61217d817f02fcca2934e046bc623adead873579865d03781ae090ad4a8579d2e7a68003556125d1565b6121a7817f0ef915f0ac120b876abccceb344a1d36bad3f3c5ab91a8ddcbec2e060d8befac6125d1565b612234817f1797130f4b7a3e1777eb757bc6f287f6ab0fb85f6be63b09f3b16ef2b1405d387f0a76225dc04170ae3306c85abab59e608c7f497c20156d4d36c668555decc6e57f1fffb9ec1992d66ba1e77a7b93209af6f8fa76d48acb664796174b5326a31a5c7f25721c4fc15a3f2853b57c338fa538d85f8fbba6c6b9c6090611889b797b9c5f612515565b6122c1817f0c817fd42d5f7a41215e3d07ba197216adb4c3790705da95eb63b982bfcaf75a7f13abe3f5239915d39f7e13c2c24970b6df8cf86ce00a22002bc15866e52b5a967f2106feea546224ea12ef7f39987a46c85c1bc3dc29bdbd7a92cd60acb4d391ce7f21ca859468a746b6aaa79474a37dab49f1ca5a28c748bc7157e1b3345bb0f959612515565b61234e817f05ccd6255c1e6f0c5cf1f0df934194c62911d14d0321662a8f1a48999e34185b7f0f0e34a64b70a626e464d846674c4c8816c4fb267fe44fe6ea28678cb09490a47f0558531a4e25470c6157794ca36d0e9647dbfcfe350d64838f5b1a8a2de0d4bf7f09d3dca9173ed2faceea125157683d18924cadad3f655a60b72f5864961f1455612515565b6123db817f0328cbd54e8c0913493f866ed03d218bf23f92d68aaec48617d4c722e5bd43357f2bf07216e2aff0a223a487b1a7094e07e79e7bcc9798c648ee3347dd5329d34b7f1daf345a58006b736499c583cb76c316d6f78ed6a6dffc82111e11a63fe412df7f176563472456aaa746b694c60e1823611ef39039b2edc7ff391e6f2293d2c404612515565b50565b602081015181515f915f516020612b145f395f51905f52910890505f5f516020612b145f395f51905f52836003602002015184600260200201510860208401519091505f905f516020612b145f395f51905f52908390829080080860608501519091505f905f516020612b145f395f51905f52908590829080080890505f5f516020612b145f395f51905f5284850890505f516020612b145f395f51905f5281820890505f516020612b145f395f51905f5282820890505f5f516020612b145f395f51905f5286870890505f516020612b145f395f51905f5281820890505f516020612b145f395f51905f5284820890505f5f516020612b145f395f51905f5282850890505f5f516020612b145f395f51905f52848708918952506020880191909152604087015260609095019490945250505050565b84515f516020612b145f395f51905f5290859008855260208501515f516020612b145f395f51905f5290849008602086015260408501515f516020612b145f395f51905f5290839008604086015260608501515f516020612b145f395f51905f5290829008606086015261258f855f5b6020020151612600565b855261259c856001612585565b60208601526125ac856002612585565b60408601526125bc856003612585565b60608601526125ca856123de565b5050505050565b81515f516020612b145f395f51905f529082900882526125f1825f612585565b82526125fc82612642565b5050565b5f805f516020612b145f395f51905f5283840990505f5f516020612b145f395f51905f5282830990505f516020612b145f395f51905f52848209949350505050565b5f5f516020612b145f395f51905f52808360036020020151846002602002015108602084015184515f516020612b145f395f51905f529190080890505f516020612b145f395f51905f52815f516020612b145f395f51905f52845f60200201517f10dc6e9c006ea38b04b1e03b4bd9490c0d03f98929ca1d7fb56821fd19d3b6e70908825260208201515f516020612b145f395f51905f5290829082907f0c28145b6a44df3e0149b3d0a30b3bb599df9756d4dd9b84a86b38cfb45a740b0908602083015260408201515f516020612b145f395f51905f5290829082907e544b8338791518b2c7645a50392798b21f75bb60e3596170067d00141cac150908604083015260608201515f516020612b145f395f51905f5290829082907f222c01175718386f2e2e82eb122789e352e105a3b8fa852613bc534433ee428b090882600360200201525050565b60405180608001604052806004906020820280368337509192915050565b5f602082840312156127bb575f5ffd5b5035919050565b80356001600160a01b038116811461048e575f5ffd5b5f602082840312156127e8575f5ffd5b61071f826127c2565b5f5f60408385031215612802575f5ffd5b50508035926020909101359150565b5f5f83601f840112612821575f5ffd5b50813567ffffffffffffffff811115612838575f5ffd5b6020830191508360208260051b8501011115612852575f5ffd5b9250929050565b5f5f6020838503121561286a575f5ffd5b823567ffffffffffffffff811115612880575f5ffd5b61288c85828601612811565b90969095509350505050565b806102808101831015610722575f5ffd5b5f5f5f61052084860312156128bc575f5ffd5b6128c5846127c2565b92506128d48560208601612898565b91506128e4856102a08601612898565b90509250925092565b634e487b7160e01b5f52601160045260245ffd5b5f63ffffffff821680612916576129166128ed565b5f190192915050565b634e487b7160e01b5f52603260045260245ffd5b5f60208284031215612943575f5ffd5b81358015158114612952575f5ffd5b9392505050565b634e487b7160e01b5f52601260045260245ffd5b5f8261297b5761297b612959565b500690565b6001815b60018411156129bb5780850481111561299f5761299f6128ed565b60018416156129ad57908102905b60019390931c928002612984565b935093915050565b5f826129d157506001610722565b816129dd57505f610722565b81600181146129f357600281146129fd57612a2e565b6001915050610722565b60ff841115612a0e57612a0e6128ed565b6001841b915063ffffffff821115612a2857612a286128ed565b50610722565b5060208310610133831016604e8410600b8410161715612a65575081810a63ffffffff811115612a6057612a606128ed565b610722565b612a7463ffffffff8484612980565b8063ffffffff04821115612a8a57612a8a6128ed565b029392505050565b5f61071f63ffffffff841663ffffffff84166129c3565b5f63ffffffff831680612abe57612abe612959565b8063ffffffff84160691505092915050565b5f63ffffffff831680612ae557612ae5612959565b8063ffffffff84160491505092915050565b63ffffffff8181168382160190811115610722576107226128ed56fe30644e72e131a029b85045b68181585d2833e84879b9709143e1f593f0000001a2646970667358221220e3bb72da118139aeaf6fc7432dceb4fd354ccb430c500a315fceebf51541723364736f6c634300081b0033","linkReferences":{}},"methodIdentifiers":{"FIELD_SIZE()":"414a37ba","ROOT_HISTORY_SIZE()":"cd87a3b4","ZERO_VALUE()":"ec732959","addCleanSource(address)":"bc02cb49","addValidator(address)":"4d238c8e","batchAddCleanSources(address[])":"bc3ee51e","batchValidateCommitments(bytes32[])":"e1dd7d91","cleanSources(address)":"c908906c","currentRootIndex()":"90eeb02b","filledSubtrees(uint256)":"f178e47c","getCleanSetRoot()":"1609ebbd","getLastRoot()":"ba70f757","governance()":"5aa6e675","hashLeftRight(uint256,uint256)":"5bb93995","isCleanSource(address)":"e70dab24","isCommitmentValidated(bytes32)":"281e8e69","isKnownRoot(uint256)":"a6232a93","levels()":"4ecf518b","nextIndex()":"fc7e9c6f","removeCleanSource(address)":"50e96536","removeValidator(address)":"40a141ff","roots(uint256)":"c2b40ae4","transferGovernance(address)":"d38bfff4","validateCommitment(bytes32)":"ec4c6284","validatedCommitments(bytes32)":"3a5ffbf2","validators(address)":"fa52c7d8","verifyCleanSource(address,uint256[20],bool[20])":"e1c40de9","zeros(uint256)":"e8295588"},"id":55}