{"abi":[{"type":"constructor","inputs":[{"name":"_vault","type":"address","internalType":"address"}],"stateMutability":"nonpayable"},{"type":"function","name":"MAX_BATCH_SIZE","inputs":[],"outputs":[{"name":"","type":"uint256","internalType":"uint256"}],"stateMutability":"view"},{"type":"function","name":"executeBatch","inputs":[{"name":"intents","type":"tuple[]","internalType":"struct BatchManager.Intent[]","components":[{"name":"proof","type":"bytes","internalType":"bytes"},{"name":"nullifierHash","type":"bytes32","internalType":"bytes32"},{"name":"root","type":"bytes32","internalType":"bytes32"},{"name":"recipient","type":"address","internalType":"address"},{"name":"denomination","type":"uint256","internalType":"uint256"},{"name":"relayer","type":"address","internalType":"address"},{"name":"fee","type":"uint256","internalType":"uint256"}]}],"outputs":[],"stateMutability":"nonpayable"},{"type":"function","name":"vault","inputs":[],"outputs":[{"name":"","type":"address","internalType":"address"}],"stateMutability":"view"},{"type":"event","name":"BatchWithdrawal","inputs":[{"name":"nullifierHash","type":"bytes32","indexed":true,"internalType":"bytes32"},{"name":"recipient","type":"address","indexed":true,"internalType":"address"},{"name":"success","type":"bool","indexed":false,"internalType":"bool"},{"name":"reason","type":"string","indexed":false,"internalType":"string"}],"anonymous":false},{"type":"error","name":"BatchTooLarge","inputs":[]},{"type":"error","name":"EmptyBatch","inputs":[]},{"type":"error","name":"ReentrancyGuardReentrantCall","inputs":[]}],"bytecode":{"object":"0x60a0604052348015600e575f5ffd5b50604051610773380380610773833981016040819052602b91605f565b60017f9b779b17422d0df92223018b32b4d1fa46e071723d6817e2486d003becc55f00556001600160a01b0316608052608a565b5f60208284031215606e575f5ffd5b81516001600160a01b03811681146083575f5ffd5b9392505050565b6080516106cb6100a85f395f81816078015261013801526106cb5ff3fe608060405234801561000f575f5ffd5b506004361061003f575f3560e01c8063cfdbf25414610043578063e6c4aca41461005e578063fbfa77cf14610073575b5f5ffd5b61004b600a81565b6040519081526020015b60405180910390f35b61007161006c366004610402565b6100b2565b005b61009a7f000000000000000000000000000000000000000000000000000000000000000081565b6040516001600160a01b039091168152602001610055565b6100ba61038d565b5f8190036100db5760405163c2e5347d60e01b815260040160405180910390fd5b600a8111156100fd576040516305beb17160e11b815260040160405180910390fd5b5f5b8181101561035f573683838381811061011a5761011a610473565b905060200281019061012c9190610487565b90506001600160a01b037f00000000000000000000000000000000000000000000000000000000000000001663a366184a61016783806104a5565b6020850135604086013561018160808801606089016104ef565b608088013561019660c08a0160a08b016104ef565b8960c001356040518963ffffffff1660e01b81526004016101be98979695949392919061051c565b5f604051808303815f87803b1580156101d5575f5ffd5b505af19250505080156101e6575060015b6102ed576101f2610582565b806308c379a00361026e57506102066105d3565b806102115750610270565b61022160808301606084016104ef565b6001600160a01b031682602001357f7efdd9ed7397ddf06b70ee227c546f5d52a8523317d909e8dd8c2f85384a05e35f84604051610260929190610657565b60405180910390a350610356565b505b61028060808201606083016104ef565b6001600160a01b031681602001357f7efdd9ed7397ddf06b70ee227c546f5d52a8523317d909e8dd8c2f85384a05e35f6040516102e09115158152604060208201819052600790820152663ab735b737bbb760c91b606082015260800190565b60405180910390a3610356565b6102fd60808201606083016104ef565b6001600160a01b031681602001357f7efdd9ed7397ddf06b70ee227c546f5d52a8523317d909e8dd8c2f85384a05e3600160405161034d91151581526040602082018190525f9082015260600190565b60405180910390a35b506001016100ff565b5061038960017f9b779b17422d0df92223018b32b4d1fa46e071723d6817e2486d003becc55f0055565b5050565b6103956103be565b60027f9b779b17422d0df92223018b32b4d1fa46e071723d6817e2486d003becc55f0055565b90565b7f9b779b17422d0df92223018b32b4d1fa46e071723d6817e2486d003becc55f005460020361040057604051633ee5aeb560e01b815260040160405180910390fd5b565b5f5f60208385031215610413575f5ffd5b823567ffffffffffffffff811115610429575f5ffd5b8301601f81018513610439575f5ffd5b803567ffffffffffffffff81111561044f575f5ffd5b8560208260051b8401011115610463575f5ffd5b6020919091019590945092505050565b634e487b7160e01b5f52603260045260245ffd5b5f823560de1983360301811261049b575f5ffd5b9190910192915050565b5f5f8335601e198436030181126104ba575f5ffd5b83018035915067ffffffffffffffff8211156104d4575f5ffd5b6020019150368190038213156104e8575f5ffd5b9250929050565b5f602082840312156104ff575f5ffd5b81356001600160a01b0381168114610515575f5ffd5b9392505050565b60e081528760e082015287896101008301375f610100898301810191909152602082019790975260408101959095526001600160a01b039384166060860152608085019290925290911660a083015260c0820152601f909201601f191690910101919050565b5f60033d11156103bb5760045f5f3e505f5160e01c90565b601f8201601f1916810167ffffffffffffffff811182821017156105cc57634e487b7160e01b5f52604160045260245ffd5b6040525050565b5f60443d10156105e05790565b6040513d600319016004823e80513d602482011167ffffffffffffffff8211171561060a57505090565b808201805167ffffffffffffffff811115610626575050505090565b3d8401600319018282016020011115610640575050505090565b61064f6020828501018561059a565b509392505050565b8215158152604060208201525f82518060408401528060208501606085015e5f606082850101526060601f19601f830116840101915050939250505056fea26469706673582212209de81601f5041bc2f014ccdc73ef87e0382c0c7aad21a8ebd769e0d2d290fe3b64736f6c634300081b0033","linkReferences":{}},"methodIdentifiers":{"MAX_BATCH_SIZE()":"cfdbf254","executeBatch((bytes,bytes32,bytes32,address,uint256,address,uint256)[])":"e6c4aca4","vault()":"fbfa77cf"},"id":44}