{"abi":[{"type":"constructor","inputs":[{"name":"_poolManager","type":"address","internalType":"contract IPoolManager"},{"name":"_vault","type":"address","internalType":"address"},{"name":"_verifier","type":"address","internalType":"address"}],"stateMutability":"nonpayable"},{"type":"function","name":"SNARK_SCALAR_FIELD","inputs":[],"outputs":[{"name":"","type":"uint256","internalType":"uint256"}],"stateMutability":"view"},{"type":"function","name":"afterAddLiquidity","inputs":[{"name":"","type":"address","internalType":"address"},{"name":"","type":"tuple","internalType":"struct PoolKey","components":[{"name":"currency0","type":"address","internalType":"Currency"},{"name":"currency1","type":"address","internalType":"Currency"},{"name":"fee","type":"uint24","internalType":"uint24"},{"name":"tickSpacing","type":"int24","internalType":"int24"},{"name":"hooks","type":"address","internalType":"contract IHooks"}]},{"name":"","type":"tuple","internalType":"struct IPoolManager.ModifyLiquidityParams","components":[{"name":"tickLower","type":"int24","internalType":"int24"},{"name":"tickUpper","type":"int24","internalType":"int24"},{"name":"liquidityDelta","type":"int256","internalType":"int256"},{"name":"salt","type":"bytes32","internalType":"bytes32"}]},{"name":"","type":"int256","internalType":"BalanceDelta"},{"name":"","type":"int256","internalType":"BalanceDelta"},{"name":"","type":"bytes","internalType":"bytes"}],"outputs":[{"name":"","type":"bytes4","internalType":"bytes4"},{"name":"","type":"int256","internalType":"BalanceDelta"}],"stateMutability":"pure"},{"type":"function","name":"afterDonate","inputs":[{"name":"","type":"address","internalType":"address"},{"name":"","type":"tuple","internalType":"struct PoolKey","components":[{"name":"currency0","type":"address","internalType":"Currency"},{"name":"currency1","type":"address","internalType":"Currency"},{"name":"fee","type":"uint24","internalType":"uint24"},{"name":"tickSpacing","type":"int24","internalType":"int24"},{"name":"hooks","type":"address","internalType":"contract IHooks"}]},{"name":"","type":"uint256","internalType":"uint256"},{"name":"","type":"uint256","internalType":"uint256"},{"name":"","type":"bytes","internalType":"bytes"}],"outputs":[{"name":"","type":"bytes4","internalType":"bytes4"}],"stateMutability":"pure"},{"type":"function","name":"afterInitialize","inputs":[{"name":"","type":"address","internalType":"address"},{"name":"","type":"tuple","internalType":"struct PoolKey","components":[{"name":"currency0","type":"address","internalType":"Currency"},{"name":"currency1","type":"address","internalType":"Currency"},{"name":"fee","type":"uint24","internalType":"uint24"},{"name":"tickSpacing","type":"int24","internalType":"int24"},{"name":"hooks","type":"address","internalType":"contract IHooks"}]},{"name":"","type":"uint160","internalType":"uint160"},{"name":"","type":"int24","internalType":"int24"}],"outputs":[{"name":"","type":"bytes4","internalType":"bytes4"}],"stateMutability":"pure"},{"type":"function","name":"afterRemoveLiquidity","inputs":[{"name":"","type":"address","internalType":"address"},{"name":"","type":"tuple","internalType":"struct PoolKey","components":[{"name":"currency0","type":"address","internalType":"Currency"},{"name":"currency1","type":"address","internalType":"Currency"},{"name":"fee","type":"uint24","internalType":"uint24"},{"name":"tickSpacing","type":"int24","internalType":"int24"},{"name":"hooks","type":"address","internalType":"contract IHooks"}]},{"name":"","type":"tuple","internalType":"struct IPoolManager.ModifyLiquidityParams","components":[{"name":"tickLower","type":"int24","internalType":"int24"},{"name":"tickUpper","type":"int24","internalType":"int24"},{"name":"liquidityDelta","type":"int256","internalType":"int256"},{"name":"salt","type":"bytes32","internalType":"bytes32"}]},{"name":"","type":"int256","internalType":"BalanceDelta"},{"name":"","type":"int256","internalType":"BalanceDelta"},{"name":"","type":"bytes","internalType":"bytes"}],"outputs":[{"name":"","type":"bytes4","internalType":"bytes4"},{"name":"","type":"int256","internalType":"BalanceDelta"}],"stateMutability":"pure"},{"type":"function","name":"afterSwap","inputs":[{"name":"sender","type":"address","internalType":"address"},{"name":"key","type":"tuple","internalType":"struct PoolKey","components":[{"name":"currency0","type":"address","internalType":"Currency"},{"name":"currency1","type":"address","internalType":"Currency"},{"name":"fee","type":"uint24","internalType":"uint24"},{"name":"tickSpacing","type":"int24","internalType":"int24"},{"name":"hooks","type":"address","internalType":"contract IHooks"}]},{"name":"params","type":"tuple","internalType":"struct IPoolManager.SwapParams","components":[{"name":"zeroForOne","type":"bool","internalType":"bool"},{"name":"amountSpecified","type":"int256","internalType":"int256"},{"name":"sqrtPriceLimitX96","type":"uint160","internalType":"uint160"}]},{"name":"delta","type":"int256","internalType":"BalanceDelta"},{"name":"hookData","type":"bytes","internalType":"bytes"}],"outputs":[{"name":"","type":"bytes4","internalType":"bytes4"},{"name":"","type":"int128","internalType":"int128"}],"stateMutability":"nonpayable"},{"type":"function","name":"authorizePool","inputs":[{"name":"key","type":"tuple","internalType":"struct PoolKey","components":[{"name":"currency0","type":"address","internalType":"Currency"},{"name":"currency1","type":"address","internalType":"Currency"},{"name":"fee","type":"uint24","internalType":"uint24"},{"name":"tickSpacing","type":"int24","internalType":"int24"},{"name":"hooks","type":"address","internalType":"contract IHooks"}]}],"outputs":[],"stateMutability":"nonpayable"},{"type":"function","name":"authorizedPools","inputs":[{"name":"","type":"bytes32","internalType":"PoolId"}],"outputs":[{"name":"","type":"bool","internalType":"bool"}],"stateMutability":"view"},{"type":"function","name":"beforeAddLiquidity","inputs":[{"name":"","type":"address","internalType":"address"},{"name":"","type":"tuple","internalType":"struct PoolKey","components":[{"name":"currency0","type":"address","internalType":"Currency"},{"name":"currency1","type":"address","internalType":"Currency"},{"name":"fee","type":"uint24","internalType":"uint24"},{"name":"tickSpacing","type":"int24","internalType":"int24"},{"name":"hooks","type":"address","internalType":"contract IHooks"}]},{"name":"","type":"tuple","internalType":"struct IPoolManager.ModifyLiquidityParams","components":[{"name":"tickLower","type":"int24","internalType":"int24"},{"name":"tickUpper","type":"int24","internalType":"int24"},{"name":"liquidityDelta","type":"int256","internalType":"int256"},{"name":"salt","type":"bytes32","internalType":"bytes32"}]},{"name":"","type":"bytes","internalType":"bytes"}],"outputs":[{"name":"","type":"bytes4","internalType":"bytes4"}],"stateMutability":"pure"},{"type":"function","name":"beforeDonate","inputs":[{"name":"","type":"address","internalType":"address"},{"name":"","type":"tuple","internalType":"struct PoolKey","components":[{"name":"currency0","type":"address","internalType":"Currency"},{"name":"currency1","type":"address","internalType":"Currency"},{"name":"fee","type":"uint24","internalType":"uint24"},{"name":"tickSpacing","type":"int24","internalType":"int24"},{"name":"hooks","type":"address","internalType":"contract IHooks"}]},{"name":"","type":"uint256","internalType":"uint256"},{"name":"","type":"uint256","internalType":"uint256"},{"name":"","type":"bytes","internalType":"bytes"}],"outputs":[{"name":"","type":"bytes4","internalType":"bytes4"}],"stateMutability":"pure"},{"type":"function","name":"beforeInitialize","inputs":[{"name":"","type":"address","internalType":"address"},{"name":"","type":"tuple","internalType":"struct PoolKey","components":[{"name":"currency0","type":"address","internalType":"Currency"},{"name":"currency1","type":"address","internalType":"Currency"},{"name":"fee","type":"uint24","internalType":"uint24"},{"name":"tickSpacing","type":"int24","internalType":"int24"},{"name":"hooks","type":"address","internalType":"contract IHooks"}]},{"name":"","type":"uint160","internalType":"uint160"}],"outputs":[{"name":"","type":"bytes4","internalType":"bytes4"}],"stateMutability":"pure"},{"type":"function","name":"beforeRemoveLiquidity","inputs":[{"name":"","type":"address","internalType":"address"},{"name":"","type":"tuple","internalType":"struct PoolKey","components":[{"name":"currency0","type":"address","internalType":"Currency"},{"name":"currency1","type":"address","internalType":"Currency"},{"name":"fee","type":"uint24","internalType":"uint24"},{"name":"tickSpacing","type":"int24","internalType":"int24"},{"name":"hooks","type":"address","internalType":"contract IHooks"}]},{"name":"","type":"tuple","internalType":"struct IPoolManager.ModifyLiquidityParams","components":[{"name":"tickLower","type":"int24","internalType":"int24"},{"name":"tickUpper","type":"int24","internalType":"int24"},{"name":"liquidityDelta","type":"int256","internalType":"int256"},{"name":"salt","type":"bytes32","internalType":"bytes32"}]},{"name":"","type":"bytes","internalType":"bytes"}],"outputs":[{"name":"","type":"bytes4","internalType":"bytes4"}],"stateMutability":"pure"},{"type":"function","name":"beforeSwap","inputs":[{"name":"sender","type":"address","internalType":"address"},{"name":"key","type":"tuple","internalType":"struct PoolKey","components":[{"name":"currency0","type":"address","internalType":"Currency"},{"name":"currency1","type":"address","internalType":"Currency"},{"name":"fee","type":"uint24","internalType":"uint24"},{"name":"tickSpacing","type":"int24","internalType":"int24"},{"name":"hooks","type":"address","internalType":"contract IHooks"}]},{"name":"params","type":"tuple","internalType":"struct IPoolManager.SwapParams","components":[{"name":"zeroForOne","type":"bool","internalType":"bool"},{"name":"amountSpecified","type":"int256","internalType":"int256"},{"name":"sqrtPriceLimitX96","type":"uint160","internalType":"uint160"}]},{"name":"hookData","type":"bytes","internalType":"bytes"}],"outputs":[{"name":"","type":"bytes4","internalType":"bytes4"},{"name":"","type":"int256","internalType":"BeforeSwapDelta"},{"name":"","type":"uint24","internalType":"uint24"}],"stateMutability":"nonpayable"},{"type":"function","name":"executePrivateSwap","inputs":[{"name":"key","type":"tuple","internalType":"struct PoolKey","components":[{"name":"currency0","type":"address","internalType":"Currency"},{"name":"currency1","type":"address","internalType":"Currency"},{"name":"fee","type":"uint24","internalType":"uint24"},{"name":"tickSpacing","type":"int24","internalType":"int24"},{"name":"hooks","type":"address","internalType":"contract IHooks"}]},{"name":"intent","type":"tuple","internalType":"struct VeilHook.SwapIntent","components":[{"name":"nullifierHash","type":"bytes32","internalType":"bytes32"},{"name":"merkleRoot","type":"bytes32","internalType":"bytes32"},{"name":"tokenIn","type":"address","internalType":"address"},{"name":"tokenOut","type":"address","internalType":"address"},{"name":"amountIn","type":"uint256","internalType":"uint256"},{"name":"amountOut","type":"uint256","internalType":"uint256"},{"name":"outputCommitment","type":"bytes32","internalType":"bytes32"},{"name":"newSecret","type":"bytes32","internalType":"bytes32"},{"name":"deadline","type":"uint256","internalType":"uint256"},{"name":"solver","type":"address","internalType":"address"},{"name":"solverFee","type":"uint256","internalType":"uint256"}]},{"name":"proof","type":"bytes","internalType":"bytes"}],"outputs":[{"name":"","type":"int256","internalType":"BalanceDelta"}],"stateMutability":"nonpayable"},{"type":"function","name":"getHookPermissions","inputs":[],"outputs":[{"name":"","type":"uint160","internalType":"uint160"}],"stateMutability":"pure"},{"type":"function","name":"isNullifierSpent","inputs":[{"name":"nullifierHash","type":"bytes32","internalType":"bytes32"}],"outputs":[{"name":"","type":"bool","internalType":"bool"}],"stateMutability":"view"},{"type":"function","name":"isPoolAuthorized","inputs":[{"name":"poolId","type":"bytes32","internalType":"PoolId"}],"outputs":[{"name":"","type":"bool","internalType":"bool"}],"stateMutability":"view"},{"type":"function","name":"poolManager","inputs":[],"outputs":[{"name":"","type":"address","internalType":"contract IPoolManager"}],"stateMutability":"view"},{"type":"function","name":"swapNullifierSpent","inputs":[{"name":"","type":"bytes32","internalType":"bytes32"}],"outputs":[{"name":"","type":"bool","internalType":"bool"}],"stateMutability":"view"},{"type":"function","name":"vault","inputs":[],"outputs":[{"name":"","type":"address","internalType":"contract IVeilVault"}],"stateMutability":"view"},{"type":"function","name":"verifier","inputs":[],"outputs":[{"name":"","type":"address","internalType":"contract IUltraHonkVerifier"}],"stateMutability":"view"},{"type":"event","name":"PoolAuthorized","inputs":[{"name":"poolId","type":"bytes32","indexed":true,"internalType":"PoolId"},{"name":"token0","type":"address","indexed":false,"internalType":"address"},{"name":"token1","type":"address","indexed":false,"internalType":"address"}],"anonymous":false},{"type":"event","name":"PrivateSwap","inputs":[{"name":"nullifierHash","type":"bytes32","indexed":true,"internalType":"bytes32"},{"name":"outputCommitment","type":"bytes32","indexed":true,"internalType":"bytes32"},{"name":"tokenIn","type":"address","indexed":false,"internalType":"address"},{"name":"tokenOut","type":"address","indexed":false,"internalType":"address"},{"name":"amountIn","type":"uint256","indexed":false,"internalType":"uint256"},{"name":"amountOut","type":"uint256","indexed":false,"internalType":"uint256"},{"name":"solver","type":"address","indexed":false,"internalType":"address"}],"anonymous":false},{"type":"error","name":"InvalidMerkleRoot","inputs":[]},{"type":"error","name":"InvalidOutputCommitment","inputs":[]},{"type":"error","name":"InvalidProof","inputs":[]},{"type":"error","name":"InvalidTokenPair","inputs":[]},{"type":"error","name":"NullifierAlreadySpent","inputs":[]},{"type":"error","name":"SlippageExceeded","inputs":[{"name":"actual","type":"uint256","internalType":"uint256"},{"name":"minimum","type":"uint256","internalType":"uint256"}]},{"type":"error","name":"SolverFeeTooHigh","inputs":[]},{"type":"error","name":"SwapExpired","inputs":[]},{"type":"error","name":"UnauthorizedPool","inputs":[]}],"bytecode":{"object":"0x60e060405234801561000f575f5ffd5b5060405161182f38038061182f83398101604081905261002e91610062565b6001600160a01b0392831660805290821660a0521660c0526100ac565b6001600160a01b038116811461005f575f5ffd5b50565b5f5f5f60608486031215610074575f5ffd5b835161007f8161004b565b60208501519093506100908161004b565b60408501519092506100a18161004b565b809150509250925092565b60805160a05160c0516117286101075f395f81816101fe015261083e01525f818161042c0152818161064a01528181610c3a0152610cd801525f81816103c80152818161047e015281816109ce0152610bc501526117285ff3fe608060405234801561000f575f5ffd5b5060043610610132575f3560e01c80639f063efc116100b4578063d5a4e32511610079578063d5a4e325146103a1578063dc4c90d3146103c3578063dc98354e146103ea578063e1b4af6914610407578063fbfa77cf14610427578063ff59f1771461044e575f5ffd5b80639f063efc146102ff578063b47b2fb114610322578063b6a8b0fa14610358578063bdda1be314610378578063c4e833ce1461039a575f5ffd5b8063575e24b4116100fa578063575e24b4146102385780635aaa30b0146102765780636c2bbe7e146102895780636fe7e6eb146102cc5780639786d7b3146102ea575f5ffd5b806321d0ee70146101365780632531f6f614610173578063259982e5146101a557806325c2cd12146101c45780632b7ac3f3146101f9575b5f5ffd5b610155610144366004610e67565b63021d0ee760e41b95945050505050565b6040516001600160e01b031990911681526020015b60405180910390f35b610195610181366004610ede565b5f6020819052908152604090205460ff1681565b604051901515815260200161016a565b6101556101b3366004610e67565b63259982e560e01b95945050505050565b6101eb7f30644e72e131a029b85045b68181585d2833e84879b9709143e1f593f000000181565b60405190815260200161016a565b6102207f000000000000000000000000000000000000000000000000000000000000000081565b6040516001600160a01b03909116815260200161016a565b61024b610246366004610f05565b610470565b604080516001600160e01b03199094168452602084019290925262ffffff169082015260600161016a565b6101eb610284366004610f5f565b61090d565b6102ac610297366004610fcb565b633615df3f60e11b5f97509795505050505050565b604080516001600160e01b0319909316835260208301919091520161016a565b6101556102da366004611067565b636fe7e6eb60e01b949350505050565b6102fd6102f83660046110be565b610a55565b005b6102ac61030d366004610fcb565b6327c18fbf60e21b5f97509795505050505050565b6103356103303660046110df565b610aed565b604080516001600160e01b03199093168352600f9190910b60208301520161016a565b610155610366366004611160565b635b54587d60e11b9695505050505050565b610195610386366004610ede565b60016020525f908152604090205460ff1681565b60c0610220565b6101956103af366004610ede565b5f9081526020819052604090205460ff1690565b6102207f000000000000000000000000000000000000000000000000000000000000000081565b6101556103f83660046111ba565b636e4c1aa760e11b9392505050565b610155610415366004611160565b63e1b4af6960e01b9695505050505050565b6102207f000000000000000000000000000000000000000000000000000000000000000081565b61019561045c366004610ede565b5f9081526001602052604090205460ff1690565b5f8080336001600160a01b037f000000000000000000000000000000000000000000000000000000000000000016146104bc576040516309bde33960e01b815260040160405180910390fd5b5f806104ca868801886112ca565b915091508161010001514211156104f457604051632b32713d60e01b815260040160405180910390fd5b5f61050e610507368c90038c018c6113b9565b60a0902090565b5f8181526001602052604090205490915060ff1661053f576040516364d89ec160e11b815260040160405180910390fd5b60408301515f906001600160a01b031661055c60208d018d61144d565b6001600160a01b0316148015610596575060608401516001600160a01b031661058b60408d0160208e0161144d565b6001600160a01b0316145b806105f257506040808501516001600160a01b0316906105bb908d0160208e0161144d565b6001600160a01b03161480156105f2575060608401516001600160a01b03166105e760208d018d61144d565b6001600160a01b0316145b90508061061257604051638686656d60e01b815260040160405180910390fd5b83515f9081526020819052604090205460ff16156106435760405163b115d85760e01b815260040160405180910390fd5b83602001517f00000000000000000000000000000000000000000000000000000000000000006001600160a01b0316635ca1e1656040518163ffffffff1660e01b8152600401602060405180830381865afa1580156106a4573d5f5f3e3d5ffd5b505050506040513d601f19601f820116820180604052508101906106c89190611468565b146106e657604051639dd854d360e01b815260040160405180910390fd5b60408051600780825261010082019092525f916020820160e080368337505086518251929350918391505f9061071e5761071e61147f565b602002602001018181525050846020015181600160ff16815181106107455761074561147f565b60200260200101818152505084604001516001600160a01b03165f1b81600260ff16815181106107775761077761147f565b60200260200101818152505084606001516001600160a01b03165f1b81600360ff16815181106107a9576107a961147f565b602090810291909101015260808501518151829060049081106107ce576107ce61147f565b602090810291909101015260a08501518151829060059081106107f3576107f361147f565b6020026020010181815250508460c0015181600660ff168151811061081a5761081a61147f565b6020908102919091010152604051633a94343960e21b81525f906001600160a01b037f0000000000000000000000000000000000000000000000000000000000000000169063ea50d0e49061087590889086906004016114c1565b602060405180830381865afa158015610890573d5f5f3e3d5ffd5b505050506040513d601f19601f820116820180604052508101906108b49190611526565b9050806108d4576040516309bde33960e01b815260040160405180910390fd5b505092515f908152602081905260408120805460ff191660011790556315d7892d60e21b96509450849350505050955095509592505050565b5f5f84848460405160200161092493929190611569565b60405160208183030381529060405290505f856040016020810190610949919061144d565b6001600160a01b031661095f602089018961144d565b6001600160a01b03161490505f8161098b5773fffd8963efd1fc6a506488495d951d5263988d24610992565b6401000276a45b60408051606081018252841515815260808a013560208201526001600160a01b03808416828401529151633cf3645360e21b8152929350915f917f0000000000000000000000000000000000000000000000000000000000000000169063f3cd914c90610a07908d9086908a90600401611627565b6020604051808303815f875af1158015610a23573d5f5f3e3d5ffd5b505050506040513d601f19601f82011682018060405250810190610a479190611468565b9a9950505050505050505050565b5f610a68610507368490038401846113b9565b5f818152600160208181526040909220805460ff1916909117905590915081907fe5254f607a1b0b7ab91457fa4b25181c0483d9a976f9ea876cb688bc453e4daa90610ab69085018561144d565b610ac6604086016020870161144d565b604080516001600160a01b0393841681529290911660208301520160405180910390a25050565b5f8080610afc848601866112ca565b5090505f610b0d60208901896116d7565b610b2057610b1b8760801d90565b610b2a565b610b2a87600f0b90565b90505f81600f0b13610b4f576040516309bde33960e01b815260040160405180910390fd5b6fffffffffffffffffffffffffffffffff81165f610b7060208b018b6116d7565b610b8657610b8160208c018c61144d565b610b96565b610b9660408c0160208d0161144d565b604051630b0d9c0960e01b81526001600160a01b038083166004830152306024830152604482018590529192507f000000000000000000000000000000000000000000000000000000000000000090911690630b0d9c09906064015f604051808303815f87803b158015610c08575f5ffd5b505af1158015610c1a573d5f5f3e3d5ffd5b50505050606084015160405163095ea7b360e01b81526001600160a01b037f000000000000000000000000000000000000000000000000000000000000000081166004830152602482018590529091169063095ea7b3906044016020604051808303815f875af1158015610c90573d5f5f3e3d5ffd5b505050506040513d601f19601f82011682018060405250810190610cb49190611526565b5060c0840151604051630ef1370b60e11b81526004810191909152602481018390527f00000000000000000000000000000000000000000000000000000000000000006001600160a01b031690631de26e16906044015f604051808303815f87803b158015610d21575f5ffd5b505af1158015610d33573d5f5f3e3d5ffd5b505050508360c00151845f01517f074e19961663fe48dc155a0676dbeb26fd7ecdc00f423cd9c555aa36d0e366e3866040015187606001518860800151878a6101200151604051610db39594939291906001600160a01b039586168152938516602085015260408401929092526060830152909116608082015260a00190565b60405180910390a35063b47b2fb160e01b9b5f9b509950505050505050505050565b6001600160a01b0381168114610de9575f5ffd5b50565b8035610df781610dd5565b919050565b5f60a08284031215610e0c575f5ffd5b50919050565b5f60808284031215610e0c575f5ffd5b5f5f83601f840112610e32575f5ffd5b50813567ffffffffffffffff811115610e49575f5ffd5b602083019150836020828501011115610e60575f5ffd5b9250929050565b5f5f5f5f5f6101608688031215610e7c575f5ffd5b8535610e8781610dd5565b9450610e968760208801610dfc565b9350610ea58760c08801610e12565b925061014086013567ffffffffffffffff811115610ec1575f5ffd5b610ecd88828901610e22565b969995985093965092949392505050565b5f60208284031215610eee575f5ffd5b5035919050565b5f60608284031215610e0c575f5ffd5b5f5f5f5f5f6101408688031215610f1a575f5ffd5b8535610f2581610dd5565b9450610f348760208801610dfc565b9350610f438760c08801610ef5565b925061012086013567ffffffffffffffff811115610ec1575f5ffd5b5f5f5f5f848603610220811215610f74575f5ffd5b610f7e8787610dfc565b9450610160609f1982011215610f92575f5ffd5b5060a08501925061020085013567ffffffffffffffff811115610fb3575f5ffd5b610fbf87828801610e22565b95989497509550505050565b5f5f5f5f5f5f5f6101a0888a031215610fe2575f5ffd5b8735610fed81610dd5565b9650610ffc8960208a01610dfc565b955061100b8960c08a01610e12565b94506101408801359350610160880135925061018088013567ffffffffffffffff811115611037575f5ffd5b6110438a828b01610e22565b989b979a50959850939692959293505050565b8035600281900b8114610df7575f5ffd5b5f5f5f5f610100858703121561107b575f5ffd5b843561108681610dd5565b93506110958660208701610dfc565b925060c08501356110a581610dd5565b91506110b360e08601611056565b905092959194509250565b5f60a082840312156110ce575f5ffd5b6110d88383610dfc565b9392505050565b5f5f5f5f5f5f61016087890312156110f5575f5ffd5b863561110081610dd5565b955061110f8860208901610dfc565b945061111e8860c08901610ef5565b9350610120870135925061014087013567ffffffffffffffff811115611142575f5ffd5b61114e89828a01610e22565b979a9699509497509295939492505050565b5f5f5f5f5f5f6101208789031215611176575f5ffd5b863561118181610dd5565b95506111908860208901610dfc565b945060c0870135935060e0870135925061010087013567ffffffffffffffff811115611142575f5ffd5b5f5f5f60e084860312156111cc575f5ffd5b83356111d781610dd5565b92506111e68560208601610dfc565b915060c08401356111f681610dd5565b809150509250925092565b634e487b7160e01b5f52604160045260245ffd5b604051610160810167ffffffffffffffff8111828210171561123957611239611201565b60405290565b5f82601f83011261124e575f5ffd5b813567ffffffffffffffff81111561126857611268611201565b604051601f8201601f19908116603f0116810167ffffffffffffffff8111828210171561129757611297611201565b6040528181528382016020018510156112ae575f5ffd5b816020850160208301375f918101602001919091529392505050565b5f5f8284036101808112156112dd575f5ffd5b6101608112156112eb575f5ffd5b506112f4611215565b833581526020808501359082015261130e60408501610dec565b604082015261131f60608501610dec565b60608201526080848101359082015260a0808501359082015260c0808501359082015260e0808501359082015261010080850135908201526113646101208501610dec565b6101208201526101408481013590820152915061016083013567ffffffffffffffff811115611391575f5ffd5b61139d8582860161123f565b9150509250929050565b803562ffffff81168114610df7575f5ffd5b5f60a08284031280156113ca575f5ffd5b5060405160a0810167ffffffffffffffff811182821017156113ee576113ee611201565b60405282356113fc81610dd5565b8152602083013561140c81610dd5565b602082015261141d604084016113a7565b604082015261142e60608401611056565b6060820152608083013561144181610dd5565b60808201529392505050565b5f6020828403121561145d575f5ffd5b81356110d881610dd5565b5f60208284031215611478575f5ffd5b5051919050565b634e487b7160e01b5f52603260045260245ffd5b5f81518084528060208401602086015e5f602082860101526020601f19601f83011685010191505092915050565b604081525f6114d36040830185611493565b82810360208401528084518083526020830191506020860192505f5b8181101561150d5783518352602093840193909201916001016114ef565b50909695505050505050565b8015158114610de9575f5ffd5b5f60208284031215611536575f5ffd5b81516110d881611519565b81835281816020850137505f828201602090810191909152601f909101601f19169091010190565b83358152602080850135908201525f61158460408601610dec565b6001600160a01b0316604083015261159e60608601610dec565b6001600160a01b031660608301526080858101359083015260a0808601359083015260c0808601359083015260e0808601359083015261010080860135908301526115ec6101208601610dec565b6001600160a01b03166101208301526101408581013590830152610180610160830181905261161e9083018486611541565b95945050505050565b5f843561163381610dd5565b6001600160a01b03168252602085013561164c81610dd5565b6001600160a01b0316602083015262ffffff61166a604087016113a7565b16604083015261167c60608601611056565b60020b6060830152608085013561169281610dd5565b6001600160a01b0390811660808401528451151560a0840152602085015160c084015260408501511660e083015261012061010083015261161e610120830184611493565b5f602082840312156116e7575f5ffd5b81356110d88161151956fea26469706673582212201970228a5e2667f0495e590a6311c412927efbecbb28cca53c81cf7317a0a69364736f6c634300081b0033","linkReferences":{}},"methodIdentifiers":{"SNARK_SCALAR_FIELD()":"25c2cd12","afterAddLiquidity(address,(address,address,uint24,int24,address),(int24,int24,int256,bytes32),int256,int256,bytes)":"9f063efc","afterDonate(address,(address,address,uint24,int24,address),uint256,uint256,bytes)":"e1b4af69","afterInitialize(address,(address,address,uint24,int24,address),uint160,int24)":"6fe7e6eb","afterRemoveLiquidity(address,(address,address,uint24,int24,address),(int24,int24,int256,bytes32),int256,int256,bytes)":"6c2bbe7e","afterSwap(address,(address,address,uint24,int24,address),(bool,int256,uint160),int256,bytes)":"b47b2fb1","authorizePool((address,address,uint24,int24,address))":"9786d7b3","authorizedPools(bytes32)":"bdda1be3","beforeAddLiquidity(address,(address,address,uint24,int24,address),(int24,int24,int256,bytes32),bytes)":"259982e5","beforeDonate(address,(address,address,uint24,int24,address),uint256,uint256,bytes)":"b6a8b0fa","beforeInitialize(address,(address,address,uint24,int24,address),uint160)":"dc98354e","beforeRemoveLiquidity(address,(address,address,uint24,int24,address),(int24,int24,int256,bytes32),bytes)":"21d0ee70","beforeSwap(address,(address,address,uint24,int24,address),(bool,int256,uint160),bytes)":"575e24b4","executePrivateSwap((address,address,uint24,int24,address),(bytes32,bytes32,address,address,uint256,uint256,bytes32,bytes32,uint256,address,uint256),bytes)":"5aaa30b0","getHookPermissions()":"c4e833ce","isNullifierSpent(bytes32)":"d5a4e325","isPoolAuthorized(bytes32)":"ff59f177","poolManager()":"dc4c90d3","swapNullifierSpent(bytes32)":"2531f6f6","vault()":"fbfa77cf","verifier()":"2b7ac3f3"},"id":52}