{"abi":[{"type":"constructor","inputs":[{"name":"_poolManager","type":"address","internalType":"contract IPoolManager"},{"name":"_vault","type":"address","internalType":"address"},{"name":"_verifier","type":"address","internalType":"address"},{"name":"_guardian","type":"address","internalType":"address"}],"stateMutability":"nonpayable"},{"type":"function","name":"MAX_SWAPS_PER_HOUR","inputs":[],"outputs":[{"name":"","type":"uint256","internalType":"uint256"}],"stateMutability":"view"},{"type":"function","name":"SNARK_SCALAR_FIELD","inputs":[],"outputs":[{"name":"","type":"uint256","internalType":"uint256"}],"stateMutability":"view"},{"type":"function","name":"afterAddLiquidity","inputs":[{"name":"","type":"address","internalType":"address"},{"name":"","type":"tuple","internalType":"struct PoolKey","components":[{"name":"currency0","type":"address","internalType":"Currency"},{"name":"currency1","type":"address","internalType":"Currency"},{"name":"fee","type":"uint24","internalType":"uint24"},{"name":"tickSpacing","type":"int24","internalType":"int24"},{"name":"hooks","type":"address","internalType":"contract IHooks"}]},{"name":"","type":"tuple","internalType":"struct IPoolManager.ModifyLiquidityParams","components":[{"name":"tickLower","type":"int24","internalType":"int24"},{"name":"tickUpper","type":"int24","internalType":"int24"},{"name":"liquidityDelta","type":"int256","internalType":"int256"},{"name":"salt","type":"bytes32","internalType":"bytes32"}]},{"name":"","type":"int256","internalType":"BalanceDelta"},{"name":"","type":"int256","internalType":"BalanceDelta"},{"name":"","type":"bytes","internalType":"bytes"}],"outputs":[{"name":"","type":"bytes4","internalType":"bytes4"},{"name":"","type":"int256","internalType":"BalanceDelta"}],"stateMutability":"pure"},{"type":"function","name":"afterDonate","inputs":[{"name":"","type":"address","internalType":"address"},{"name":"","type":"tuple","internalType":"struct PoolKey","components":[{"name":"currency0","type":"address","internalType":"Currency"},{"name":"currency1","type":"address","internalType":"Currency"},{"name":"fee","type":"uint24","internalType":"uint24"},{"name":"tickSpacing","type":"int24","internalType":"int24"},{"name":"hooks","type":"address","internalType":"contract IHooks"}]},{"name":"","type":"uint256","internalType":"uint256"},{"name":"","type":"uint256","internalType":"uint256"},{"name":"","type":"bytes","internalType":"bytes"}],"outputs":[{"name":"","type":"bytes4","internalType":"bytes4"}],"stateMutability":"pure"},{"type":"function","name":"afterInitialize","inputs":[{"name":"","type":"address","internalType":"address"},{"name":"","type":"tuple","internalType":"struct PoolKey","components":[{"name":"currency0","type":"address","internalType":"Currency"},{"name":"currency1","type":"address","internalType":"Currency"},{"name":"fee","type":"uint24","internalType":"uint24"},{"name":"tickSpacing","type":"int24","internalType":"int24"},{"name":"hooks","type":"address","internalType":"contract IHooks"}]},{"name":"","type":"uint160","internalType":"uint160"},{"name":"","type":"int24","internalType":"int24"}],"outputs":[{"name":"","type":"bytes4","internalType":"bytes4"}],"stateMutability":"pure"},{"type":"function","name":"afterRemoveLiquidity","inputs":[{"name":"","type":"address","internalType":"address"},{"name":"","type":"tuple","internalType":"struct PoolKey","components":[{"name":"currency0","type":"address","internalType":"Currency"},{"name":"currency1","type":"address","internalType":"Currency"},{"name":"fee","type":"uint24","internalType":"uint24"},{"name":"tickSpacing","type":"int24","internalType":"int24"},{"name":"hooks","type":"address","internalType":"contract IHooks"}]},{"name":"","type":"tuple","internalType":"struct IPoolManager.ModifyLiquidityParams","components":[{"name":"tickLower","type":"int24","internalType":"int24"},{"name":"tickUpper","type":"int24","internalType":"int24"},{"name":"liquidityDelta","type":"int256","internalType":"int256"},{"name":"salt","type":"bytes32","internalType":"bytes32"}]},{"name":"","type":"int256","internalType":"BalanceDelta"},{"name":"","type":"int256","internalType":"BalanceDelta"},{"name":"","type":"bytes","internalType":"bytes"}],"outputs":[{"name":"","type":"bytes4","internalType":"bytes4"},{"name":"","type":"int256","internalType":"BalanceDelta"}],"stateMutability":"pure"},{"type":"function","name":"afterSwap","inputs":[{"name":"sender","type":"address","internalType":"address"},{"name":"key","type":"tuple","internalType":"struct PoolKey","components":[{"name":"currency0","type":"address","internalType":"Currency"},{"name":"currency1","type":"address","internalType":"Currency"},{"name":"fee","type":"uint24","internalType":"uint24"},{"name":"tickSpacing","type":"int24","internalType":"int24"},{"name":"hooks","type":"address","internalType":"contract IHooks"}]},{"name":"params","type":"tuple","internalType":"struct IPoolManager.SwapParams","components":[{"name":"zeroForOne","type":"bool","internalType":"bool"},{"name":"amountSpecified","type":"int256","internalType":"int256"},{"name":"sqrtPriceLimitX96","type":"uint160","internalType":"uint160"}]},{"name":"delta","type":"int256","internalType":"BalanceDelta"},{"name":"hookData","type":"bytes","internalType":"bytes"}],"outputs":[{"name":"","type":"bytes4","internalType":"bytes4"},{"name":"","type":"int128","internalType":"int128"}],"stateMutability":"nonpayable"},{"type":"function","name":"authorizePool","inputs":[{"name":"key","type":"tuple","internalType":"struct PoolKey","components":[{"name":"currency0","type":"address","internalType":"Currency"},{"name":"currency1","type":"address","internalType":"Currency"},{"name":"fee","type":"uint24","internalType":"uint24"},{"name":"tickSpacing","type":"int24","internalType":"int24"},{"name":"hooks","type":"address","internalType":"contract IHooks"}]}],"outputs":[],"stateMutability":"nonpayable"},{"type":"function","name":"authorizedPools","inputs":[{"name":"","type":"bytes32","internalType":"PoolId"}],"outputs":[{"name":"","type":"bool","internalType":"bool"}],"stateMutability":"view"},{"type":"function","name":"beforeAddLiquidity","inputs":[{"name":"","type":"address","internalType":"address"},{"name":"","type":"tuple","internalType":"struct PoolKey","components":[{"name":"currency0","type":"address","internalType":"Currency"},{"name":"currency1","type":"address","internalType":"Currency"},{"name":"fee","type":"uint24","internalType":"uint24"},{"name":"tickSpacing","type":"int24","internalType":"int24"},{"name":"hooks","type":"address","internalType":"contract IHooks"}]},{"name":"","type":"tuple","internalType":"struct IPoolManager.ModifyLiquidityParams","components":[{"name":"tickLower","type":"int24","internalType":"int24"},{"name":"tickUpper","type":"int24","internalType":"int24"},{"name":"liquidityDelta","type":"int256","internalType":"int256"},{"name":"salt","type":"bytes32","internalType":"bytes32"}]},{"name":"","type":"bytes","internalType":"bytes"}],"outputs":[{"name":"","type":"bytes4","internalType":"bytes4"}],"stateMutability":"pure"},{"type":"function","name":"beforeDonate","inputs":[{"name":"","type":"address","internalType":"address"},{"name":"","type":"tuple","internalType":"struct PoolKey","components":[{"name":"currency0","type":"address","internalType":"Currency"},{"name":"currency1","type":"address","internalType":"Currency"},{"name":"fee","type":"uint24","internalType":"uint24"},{"name":"tickSpacing","type":"int24","internalType":"int24"},{"name":"hooks","type":"address","internalType":"contract IHooks"}]},{"name":"","type":"uint256","internalType":"uint256"},{"name":"","type":"uint256","internalType":"uint256"},{"name":"","type":"bytes","internalType":"bytes"}],"outputs":[{"name":"","type":"bytes4","internalType":"bytes4"}],"stateMutability":"pure"},{"type":"function","name":"beforeInitialize","inputs":[{"name":"","type":"address","internalType":"address"},{"name":"","type":"tuple","internalType":"struct PoolKey","components":[{"name":"currency0","type":"address","internalType":"Currency"},{"name":"currency1","type":"address","internalType":"Currency"},{"name":"fee","type":"uint24","internalType":"uint24"},{"name":"tickSpacing","type":"int24","internalType":"int24"},{"name":"hooks","type":"address","internalType":"contract IHooks"}]},{"name":"","type":"uint160","internalType":"uint160"}],"outputs":[{"name":"","type":"bytes4","internalType":"bytes4"}],"stateMutability":"pure"},{"type":"function","name":"beforeRemoveLiquidity","inputs":[{"name":"","type":"address","internalType":"address"},{"name":"","type":"tuple","internalType":"struct PoolKey","components":[{"name":"currency0","type":"address","internalType":"Currency"},{"name":"currency1","type":"address","internalType":"Currency"},{"name":"fee","type":"uint24","internalType":"uint24"},{"name":"tickSpacing","type":"int24","internalType":"int24"},{"name":"hooks","type":"address","internalType":"contract IHooks"}]},{"name":"","type":"tuple","internalType":"struct IPoolManager.ModifyLiquidityParams","components":[{"name":"tickLower","type":"int24","internalType":"int24"},{"name":"tickUpper","type":"int24","internalType":"int24"},{"name":"liquidityDelta","type":"int256","internalType":"int256"},{"name":"salt","type":"bytes32","internalType":"bytes32"}]},{"name":"","type":"bytes","internalType":"bytes"}],"outputs":[{"name":"","type":"bytes4","internalType":"bytes4"}],"stateMutability":"pure"},{"type":"function","name":"beforeSwap","inputs":[{"name":"sender","type":"address","internalType":"address"},{"name":"key","type":"tuple","internalType":"struct PoolKey","components":[{"name":"currency0","type":"address","internalType":"Currency"},{"name":"currency1","type":"address","internalType":"Currency"},{"name":"fee","type":"uint24","internalType":"uint24"},{"name":"tickSpacing","type":"int24","internalType":"int24"},{"name":"hooks","type":"address","internalType":"contract IHooks"}]},{"name":"params","type":"tuple","internalType":"struct IPoolManager.SwapParams","components":[{"name":"zeroForOne","type":"bool","internalType":"bool"},{"name":"amountSpecified","type":"int256","internalType":"int256"},{"name":"sqrtPriceLimitX96","type":"uint160","internalType":"uint160"}]},{"name":"hookData","type":"bytes","internalType":"bytes"}],"outputs":[{"name":"","type":"bytes4","internalType":"bytes4"},{"name":"","type":"int256","internalType":"BeforeSwapDelta"},{"name":"","type":"uint24","internalType":"uint24"}],"stateMutability":"nonpayable"},{"type":"function","name":"currentHourStart","inputs":[],"outputs":[{"name":"","type":"uint256","internalType":"uint256"}],"stateMutability":"view"},{"type":"function","name":"deauthorizePool","inputs":[{"name":"key","type":"tuple","internalType":"struct PoolKey","components":[{"name":"currency0","type":"address","internalType":"Currency"},{"name":"currency1","type":"address","internalType":"Currency"},{"name":"fee","type":"uint24","internalType":"uint24"},{"name":"tickSpacing","type":"int24","internalType":"int24"},{"name":"hooks","type":"address","internalType":"contract IHooks"}]}],"outputs":[],"stateMutability":"nonpayable"},{"type":"function","name":"executePrivateSwap","inputs":[{"name":"key","type":"tuple","internalType":"struct PoolKey","components":[{"name":"currency0","type":"address","internalType":"Currency"},{"name":"currency1","type":"address","internalType":"Currency"},{"name":"fee","type":"uint24","internalType":"uint24"},{"name":"tickSpacing","type":"int24","internalType":"int24"},{"name":"hooks","type":"address","internalType":"contract IHooks"}]},{"name":"intent","type":"tuple","internalType":"struct VeilHook.SwapIntent","components":[{"name":"nullifierHash","type":"bytes32","internalType":"bytes32"},{"name":"merkleRoot","type":"bytes32","internalType":"bytes32"},{"name":"tokenIn","type":"address","internalType":"address"},{"name":"tokenOut","type":"address","internalType":"address"},{"name":"amountIn","type":"uint256","internalType":"uint256"},{"name":"amountOut","type":"uint256","internalType":"uint256"},{"name":"outputCommitment","type":"bytes32","internalType":"bytes32"},{"name":"newSecret","type":"bytes32","internalType":"bytes32"},{"name":"deadline","type":"uint256","internalType":"uint256"},{"name":"solver","type":"address","internalType":"address"},{"name":"solverFee","type":"uint256","internalType":"uint256"}]},{"name":"proof","type":"bytes","internalType":"bytes"}],"outputs":[{"name":"","type":"int256","internalType":"BalanceDelta"}],"stateMutability":"nonpayable"},{"type":"function","name":"getHookPermissions","inputs":[],"outputs":[{"name":"","type":"uint160","internalType":"uint160"}],"stateMutability":"pure"},{"type":"function","name":"guardian","inputs":[],"outputs":[{"name":"","type":"address","internalType":"address"}],"stateMutability":"view"},{"type":"function","name":"isNullifierSpent","inputs":[{"name":"nullifierHash","type":"bytes32","internalType":"bytes32"}],"outputs":[{"name":"","type":"bool","internalType":"bool"}],"stateMutability":"view"},{"type":"function","name":"isPoolAuthorized","inputs":[{"name":"poolId","type":"bytes32","internalType":"PoolId"}],"outputs":[{"name":"","type":"bool","internalType":"bool"}],"stateMutability":"view"},{"type":"function","name":"owner","inputs":[],"outputs":[{"name":"","type":"address","internalType":"address"}],"stateMutability":"view"},{"type":"function","name":"pause","inputs":[],"outputs":[],"stateMutability":"nonpayable"},{"type":"function","name":"paused","inputs":[],"outputs":[{"name":"","type":"bool","internalType":"bool"}],"stateMutability":"view"},{"type":"function","name":"poolManager","inputs":[],"outputs":[{"name":"","type":"address","internalType":"contract IPoolManager"}],"stateMutability":"view"},{"type":"function","name":"renounceOwnership","inputs":[],"outputs":[],"stateMutability":"nonpayable"},{"type":"function","name":"setGuardian","inputs":[{"name":"_guardian","type":"address","internalType":"address"}],"outputs":[],"stateMutability":"nonpayable"},{"type":"function","name":"swapCountThisHour","inputs":[],"outputs":[{"name":"","type":"uint256","internalType":"uint256"}],"stateMutability":"view"},{"type":"function","name":"swapNullifierSpent","inputs":[{"name":"","type":"bytes32","internalType":"bytes32"}],"outputs":[{"name":"","type":"bool","internalType":"bool"}],"stateMutability":"view"},{"type":"function","name":"transferOwnership","inputs":[{"name":"newOwner","type":"address","internalType":"address"}],"outputs":[],"stateMutability":"nonpayable"},{"type":"function","name":"unpause","inputs":[],"outputs":[],"stateMutability":"nonpayable"},{"type":"function","name":"vault","inputs":[],"outputs":[{"name":"","type":"address","internalType":"contract IVeilVault"}],"stateMutability":"view"},{"type":"function","name":"verifier","inputs":[],"outputs":[{"name":"","type":"address","internalType":"contract IUltraHonkVerifier"}],"stateMutability":"view"},{"type":"event","name":"OwnershipTransferred","inputs":[{"name":"previousOwner","type":"address","indexed":true,"internalType":"address"},{"name":"newOwner","type":"address","indexed":true,"internalType":"address"}],"anonymous":false},{"type":"event","name":"PoolAuthorized","inputs":[{"name":"poolId","type":"bytes32","indexed":true,"internalType":"PoolId"},{"name":"token0","type":"address","indexed":false,"internalType":"address"},{"name":"token1","type":"address","indexed":false,"internalType":"address"}],"anonymous":false},{"type":"event","name":"PrivateSwap","inputs":[{"name":"nullifierHash","type":"bytes32","indexed":true,"internalType":"bytes32"},{"name":"outputCommitment","type":"bytes32","indexed":true,"internalType":"bytes32"},{"name":"tokenIn","type":"address","indexed":false,"internalType":"address"},{"name":"tokenOut","type":"address","indexed":false,"internalType":"address"},{"name":"amountIn","type":"uint256","indexed":false,"internalType":"uint256"},{"name":"amountOut","type":"uint256","indexed":false,"internalType":"uint256"},{"name":"solver","type":"address","indexed":false,"internalType":"address"}],"anonymous":false},{"type":"error","name":"InvalidGuardian","inputs":[]},{"type":"error","name":"InvalidMerkleRoot","inputs":[]},{"type":"error","name":"InvalidOutputCommitment","inputs":[]},{"type":"error","name":"InvalidProof","inputs":[]},{"type":"error","name":"InvalidTokenPair","inputs":[]},{"type":"error","name":"NullifierAlreadySpent","inputs":[]},{"type":"error","name":"OwnableInvalidOwner","inputs":[{"name":"owner","type":"address","internalType":"address"}]},{"type":"error","name":"OwnableUnauthorizedAccount","inputs":[{"name":"account","type":"address","internalType":"address"}]},{"type":"error","name":"Paused","inputs":[]},{"type":"error","name":"RateLimitExceeded","inputs":[]},{"type":"error","name":"SlippageExceeded","inputs":[{"name":"actual","type":"uint256","internalType":"uint256"},{"name":"minimum","type":"uint256","internalType":"uint256"}]},{"type":"error","name":"SolverFeeTooHigh","inputs":[]},{"type":"error","name":"SwapExpired","inputs":[]},{"type":"error","name":"UnauthorizedPool","inputs":[]}],"bytecode":{"object":"0x60e060405234801561000f575f5ffd5b50604051611cdb380380611cdb83398101604081905261002e91610114565b338061005357604051631e4fbdf760e01b81525f600482015260240160405180910390fd5b61005c816100ae565b506001600160a01b0380851660805283811660a05282811660c0526003805491831661010002610100600160a81b03199092169190911790556100a1610e1042610170565b6002555061018f92505050565b5f80546001600160a01b038381166001600160a01b0319831681178455604051919092169283917f8be0079c531659141344cd1fd0a4f28419497f9722a3daafe3b4186f6b6457e09190a35050565b6001600160a01b0381168114610111575f5ffd5b50565b5f5f5f5f60808587031215610127575f5ffd5b8451610132816100fd565b6020860151909450610143816100fd565b6040860151909350610154816100fd565b6060860151909250610165816100fd565b939692955090935050565b5f8261018a57634e487b7160e01b5f52601260045260245ffd5b500490565b60805160a05160c051611af16101ea5f395f81816102c70152610a3301525f818161058c0152818161083f01528181610f060152610fa401525f818161050c0152818161067301528181610bc40152610e910152611af15ff3fe608060405234801561000f575f5ffd5b50600436106101f2575f3560e01c806385e7360a11610114578063c4e833ce116100a9578063e1b4af6911610079578063e1b4af691461054b578063f2fde38b1461056b578063f7b2d3631461057e578063fbfa77cf14610587578063ff59f177146105ae575f5ffd5b8063c4e833ce146104de578063d5a4e325146104e5578063dc4c90d314610507578063dc98354e1461052e575f5ffd5b80639f063efc116100e45780639f063efc14610443578063b47b2fb114610466578063b6a8b0fa1461049c578063bdda1be3146104bc575f5ffd5b806385e7360a146103fa5780638a0dac4a1461040d5780638da5cb5b146104205780639786d7b314610430575f5ffd5b8063575e24b41161018a5780636fe7e6eb1161015a5780636fe7e6eb146103c457806370c6ddce146103e2578063715018a6146103ea5780638456cb59146103f2575f5ffd5b8063575e24b4146103235780635aaa30b0146103615780635c975abb146103745780636c2bbe7e14610381575f5ffd5b806325c2cd12116101c557806325c2cd121461029b5780632b7ac3f3146102c25780633f4ba83a14610301578063452a93201461030b575f5ffd5b806310f3a9c2146101f657806321d0ee70146102125780632531f6f61461024a578063259982e51461027c575b5f5ffd5b6101ff60025481565b6040519081526020015b60405180910390f35b6102316102203660046111ed565b63021d0ee760e41b95945050505050565b6040516001600160e01b03199091168152602001610209565b61026c610258366004611264565b60046020525f908152604090205460ff1681565b6040519015158152602001610209565b61023161028a3660046111ed565b63259982e560e01b95945050505050565b6101ff7f30644e72e131a029b85045b68181585d2833e84879b9709143e1f593f000000181565b6102e97f000000000000000000000000000000000000000000000000000000000000000081565b6040516001600160a01b039091168152602001610209565b6103096105d0565b005b6003546102e99061010090046001600160a01b031681565b61033661033136600461128b565b6105e4565b604080516001600160e01b03199094168452602084019290925262ffffff1690820152606001610209565b6101ff61036f3660046112e5565b610b03565b60035461026c9060ff1681565b6103a461038f366004611351565b633615df3f60e11b5f97509795505050505050565b604080516001600160e01b03199093168352602083019190915201610209565b6102316103d23660046113ed565b636fe7e6eb60e01b949350505050565b6101ff606481565b610309610c4b565b610309610c5e565b610309610408366004611444565b610cb5565b61030961041b366004611465565b610ce9565b5f546001600160a01b03166102e9565b61030961043e366004611444565b610d19565b6103a4610451366004611351565b6327c18fbf60e21b5f97509795505050505050565b610479610474366004611480565b610db9565b604080516001600160e01b03199093168352600f9190910b602083015201610209565b6102316104aa366004611501565b635b54587d60e11b9695505050505050565b61026c6104ca366004611264565b60056020525f908152604090205460ff1681565b60c06102e9565b61026c6104f3366004611264565b5f9081526004602052604090205460ff1690565b6102e97f000000000000000000000000000000000000000000000000000000000000000081565b61023161053c36600461155b565b636e4c1aa760e11b9392505050565b610231610559366004611501565b63e1b4af6960e01b9695505050505050565b610309610579366004611465565b6110a1565b6101ff60015481565b6102e97f000000000000000000000000000000000000000000000000000000000000000081565b61026c6105bc366004611264565b5f9081526005602052604090205460ff1690565b6105d86110e3565b6003805460ff19169055565b6003545f908190819060ff161561060e576040516313d0ff5960e31b815260040160405180910390fd5b5f61061b610e10426115a2565b90506002548111156106315760028190555f6001555b6064600154106106545760405163a74c1c5f60e01b815260040160405180910390fd5b60018054905f610663836115c1565b9091555050336001600160a01b037f000000000000000000000000000000000000000000000000000000000000000016146106b1576040516309bde33960e01b815260040160405180910390fd5b5f806106bf878901896116ae565b915091508161010001514211156106e957604051632b32713d60e01b815260040160405180910390fd5b5f6107036106fc368d90038d018d61179d565b60a0902090565b5f8181526005602052604090205490915060ff16610734576040516364d89ec160e11b815260040160405180910390fd5b60408301515f906001600160a01b031661075160208e018e611465565b6001600160a01b031614801561078b575060608401516001600160a01b031661078060408e0160208f01611465565b6001600160a01b0316145b806107e757506040808501516001600160a01b0316906107b0908e0160208f01611465565b6001600160a01b03161480156107e7575060608401516001600160a01b03166107dc60208e018e611465565b6001600160a01b0316145b90508061080757604051638686656d60e01b815260040160405180910390fd5b83515f9081526004602052604090205460ff16156108385760405163b115d85760e01b815260040160405180910390fd5b83602001517f00000000000000000000000000000000000000000000000000000000000000006001600160a01b0316635ca1e1656040518163ffffffff1660e01b8152600401602060405180830381865afa158015610899573d5f5f3e3d5ffd5b505050506040513d601f19601f820116820180604052508101906108bd9190611831565b146108db57604051639dd854d360e01b815260040160405180910390fd5b60408051600780825261010082019092525f916020820160e080368337505086518251929350918391505f9061091357610913611848565b602002602001018181525050846020015181600160ff168151811061093a5761093a611848565b60200260200101818152505084604001516001600160a01b03165f1b81600260ff168151811061096c5761096c611848565b60200260200101818152505084606001516001600160a01b03165f1b81600360ff168151811061099e5761099e611848565b602090810291909101015260808501518151829060049081106109c3576109c3611848565b602090810291909101015260a08501518151829060059081106109e8576109e8611848565b6020026020010181815250508460c0015181600660ff1681518110610a0f57610a0f611848565b6020908102919091010152604051633a94343960e21b81525f906001600160a01b037f0000000000000000000000000000000000000000000000000000000000000000169063ea50d0e490610a6a908890869060040161188a565b602060405180830381865afa158015610a85573d5f5f3e3d5ffd5b505050506040513d601f19601f82011682018060405250810190610aa991906118ef565b905080610ac9576040516309bde33960e01b815260040160405180910390fd5b505092515f908152600460205260408120805460ff191660011790556315d7892d60e21b9750955085945050505050955095509592505050565b5f5f848484604051602001610b1a93929190611932565b60405160208183030381529060405290505f856040016020810190610b3f9190611465565b6001600160a01b0316610b556020890189611465565b6001600160a01b03161490505f81610b815773fffd8963efd1fc6a506488495d951d5263988d24610b88565b6401000276a45b60408051606081018252841515815260808a013560208201526001600160a01b03808416828401529151633cf3645360e21b8152929350915f917f0000000000000000000000000000000000000000000000000000000000000000169063f3cd914c90610bfd908d9086908a906004016119f0565b6020604051808303815f875af1158015610c19573d5f5f3e3d5ffd5b505050506040513d601f19601f82011682018060405250810190610c3d9190611831565b9a9950505050505050505050565b610c536110e3565b610c5c5f61110f565b565b60035461010090046001600160a01b03163314801590610c8857505f546001600160a01b03163314155b15610ca65760405163a6c1146b60e01b815260040160405180910390fd5b6003805460ff19166001179055565b610cbd6110e3565b5f610cd06106fc3684900384018461179d565b5f908152600560205260409020805460ff191690555050565b610cf16110e3565b600380546001600160a01b0390921661010002610100600160a81b0319909216919091179055565b610d216110e3565b5f610d346106fc3684900384018461179d565b5f818152600560209081526040909120805460ff1916600117905590915081907fe5254f607a1b0b7ab91457fa4b25181c0483d9a976f9ea876cb688bc453e4daa90610d8290850185611465565b610d926040860160208701611465565b604080516001600160a01b0393841681529290911660208301520160405180910390a25050565b5f8080610dc8848601866116ae565b5090505f610dd96020890189611aa0565b610dec57610de78760801d90565b610df6565b610df687600f0b90565b90505f81600f0b13610e1b576040516309bde33960e01b815260040160405180910390fd5b6fffffffffffffffffffffffffffffffff81165f610e3c60208b018b611aa0565b610e5257610e4d60208c018c611465565b610e62565b610e6260408c0160208d01611465565b604051630b0d9c0960e01b81526001600160a01b038083166004830152306024830152604482018590529192507f000000000000000000000000000000000000000000000000000000000000000090911690630b0d9c09906064015f604051808303815f87803b158015610ed4575f5ffd5b505af1158015610ee6573d5f5f3e3d5ffd5b50505050606084015160405163095ea7b360e01b81526001600160a01b037f000000000000000000000000000000000000000000000000000000000000000081166004830152602482018590529091169063095ea7b3906044016020604051808303815f875af1158015610f5c573d5f5f3e3d5ffd5b505050506040513d601f19601f82011682018060405250810190610f8091906118ef565b5060c0840151604051630ef1370b60e11b81526004810191909152602481018390527f00000000000000000000000000000000000000000000000000000000000000006001600160a01b031690631de26e16906044015f604051808303815f87803b158015610fed575f5ffd5b505af1158015610fff573d5f5f3e3d5ffd5b505050508360c00151845f01517f074e19961663fe48dc155a0676dbeb26fd7ecdc00f423cd9c555aa36d0e366e3866040015187606001518860800151878a610120015160405161107f9594939291906001600160a01b039586168152938516602085015260408401929092526060830152909116608082015260a00190565b60405180910390a35063b47b2fb160e01b9b5f9b509950505050505050505050565b6110a96110e3565b6001600160a01b0381166110d757604051631e4fbdf760e01b81525f60048201526024015b60405180910390fd5b6110e08161110f565b50565b5f546001600160a01b03163314610c5c5760405163118cdaa760e01b81523360048201526024016110ce565b5f80546001600160a01b038381166001600160a01b0319831681178455604051919092169283917f8be0079c531659141344cd1fd0a4f28419497f9722a3daafe3b4186f6b6457e09190a35050565b6001600160a01b03811681146110e0575f5ffd5b803561117d8161115e565b919050565b5f60a08284031215611192575f5ffd5b50919050565b5f60808284031215611192575f5ffd5b5f5f83601f8401126111b8575f5ffd5b50813567ffffffffffffffff8111156111cf575f5ffd5b6020830191508360208285010111156111e6575f5ffd5b9250929050565b5f5f5f5f5f6101608688031215611202575f5ffd5b853561120d8161115e565b945061121c8760208801611182565b935061122b8760c08801611198565b925061014086013567ffffffffffffffff811115611247575f5ffd5b611253888289016111a8565b969995985093965092949392505050565b5f60208284031215611274575f5ffd5b5035919050565b5f60608284031215611192575f5ffd5b5f5f5f5f5f61014086880312156112a0575f5ffd5b85356112ab8161115e565b94506112ba8760208801611182565b93506112c98760c0880161127b565b925061012086013567ffffffffffffffff811115611247575f5ffd5b5f5f5f5f8486036102208112156112fa575f5ffd5b6113048787611182565b9450610160609f1982011215611318575f5ffd5b5060a08501925061020085013567ffffffffffffffff811115611339575f5ffd5b611345878288016111a8565b95989497509550505050565b5f5f5f5f5f5f5f6101a0888a031215611368575f5ffd5b87356113738161115e565b96506113828960208a01611182565b95506113918960c08a01611198565b94506101408801359350610160880135925061018088013567ffffffffffffffff8111156113bd575f5ffd5b6113c98a828b016111a8565b989b979a50959850939692959293505050565b8035600281900b811461117d575f5ffd5b5f5f5f5f6101008587031215611401575f5ffd5b843561140c8161115e565b935061141b8660208701611182565b925060c085013561142b8161115e565b915061143960e086016113dc565b905092959194509250565b5f60a08284031215611454575f5ffd5b61145e8383611182565b9392505050565b5f60208284031215611475575f5ffd5b813561145e8161115e565b5f5f5f5f5f5f6101608789031215611496575f5ffd5b86356114a18161115e565b95506114b08860208901611182565b94506114bf8860c0890161127b565b9350610120870135925061014087013567ffffffffffffffff8111156114e3575f5ffd5b6114ef89828a016111a8565b979a9699509497509295939492505050565b5f5f5f5f5f5f6101208789031215611517575f5ffd5b86356115228161115e565b95506115318860208901611182565b945060c0870135935060e0870135925061010087013567ffffffffffffffff8111156114e3575f5ffd5b5f5f5f60e0848603121561156d575f5ffd5b83356115788161115e565b92506115878560208601611182565b915060c08401356115978161115e565b809150509250925092565b5f826115bc57634e487b7160e01b5f52601260045260245ffd5b500490565b5f600182016115de57634e487b7160e01b5f52601160045260245ffd5b5060010190565b634e487b7160e01b5f52604160045260245ffd5b604051610160810167ffffffffffffffff8111828210171561161d5761161d6115e5565b60405290565b5f82601f830112611632575f5ffd5b813567ffffffffffffffff81111561164c5761164c6115e5565b604051601f8201601f19908116603f0116810167ffffffffffffffff8111828210171561167b5761167b6115e5565b604052818152838201602001851015611692575f5ffd5b816020850160208301375f918101602001919091529392505050565b5f5f8284036101808112156116c1575f5ffd5b6101608112156116cf575f5ffd5b506116d86115f9565b83358152602080850135908201526116f260408501611172565b604082015261170360608501611172565b60608201526080848101359082015260a0808501359082015260c0808501359082015260e0808501359082015261010080850135908201526117486101208501611172565b6101208201526101408481013590820152915061016083013567ffffffffffffffff811115611775575f5ffd5b61178185828601611623565b9150509250929050565b803562ffffff8116811461117d575f5ffd5b5f60a08284031280156117ae575f5ffd5b5060405160a0810167ffffffffffffffff811182821017156117d2576117d26115e5565b60405282356117e08161115e565b815260208301356117f08161115e565b60208201526118016040840161178b565b6040820152611812606084016113dc565b606082015260808301356118258161115e565b60808201529392505050565b5f60208284031215611841575f5ffd5b5051919050565b634e487b7160e01b5f52603260045260245ffd5b5f81518084528060208401602086015e5f602082860101526020601f19601f83011685010191505092915050565b604081525f61189c604083018561185c565b82810360208401528084518083526020830191506020860192505f5b818110156118d65783518352602093840193909201916001016118b8565b50909695505050505050565b80151581146110e0575f5ffd5b5f602082840312156118ff575f5ffd5b815161145e816118e2565b81835281816020850137505f828201602090810191909152601f909101601f19169091010190565b83358152602080850135908201525f61194d60408601611172565b6001600160a01b0316604083015261196760608601611172565b6001600160a01b031660608301526080858101359083015260a0808601359083015260c0808601359083015260e0808601359083015261010080860135908301526119b56101208601611172565b6001600160a01b0316610120830152610140858101359083015261018061016083018190526119e7908301848661190a565b95945050505050565b5f84356119fc8161115e565b6001600160a01b031682526020850135611a158161115e565b6001600160a01b0316602083015262ffffff611a336040870161178b565b166040830152611a45606086016113dc565b60020b60608301526080850135611a5b8161115e565b6001600160a01b0390811660808401528451151560a0840152602085015160c084015260408501511660e08301526101206101008301526119e761012083018461185c565b5f60208284031215611ab0575f5ffd5b813561145e816118e256fea26469706673582212200d54e47ca3dae1f91701b4a434416ef14293d870910eebb5eee1a998094727e364736f6c634300081b0033","linkReferences":{}},"methodIdentifiers":{"MAX_SWAPS_PER_HOUR()":"70c6ddce","SNARK_SCALAR_FIELD()":"25c2cd12","afterAddLiquidity(address,(address,address,uint24,int24,address),(int24,int24,int256,bytes32),int256,int256,bytes)":"9f063efc","afterDonate(address,(address,address,uint24,int24,address),uint256,uint256,bytes)":"e1b4af69","afterInitialize(address,(address,address,uint24,int24,address),uint160,int24)":"6fe7e6eb","afterRemoveLiquidity(address,(address,address,uint24,int24,address),(int24,int24,int256,bytes32),int256,int256,bytes)":"6c2bbe7e","afterSwap(address,(address,address,uint24,int24,address),(bool,int256,uint160),int256,bytes)":"b47b2fb1","authorizePool((address,address,uint24,int24,address))":"9786d7b3","authorizedPools(bytes32)":"bdda1be3","beforeAddLiquidity(address,(address,address,uint24,int24,address),(int24,int24,int256,bytes32),bytes)":"259982e5","beforeDonate(address,(address,address,uint24,int24,address),uint256,uint256,bytes)":"b6a8b0fa","beforeInitialize(address,(address,address,uint24,int24,address),uint160)":"dc98354e","beforeRemoveLiquidity(address,(address,address,uint24,int24,address),(int24,int24,int256,bytes32),bytes)":"21d0ee70","beforeSwap(address,(address,address,uint24,int24,address),(bool,int256,uint160),bytes)":"575e24b4","currentHourStart()":"10f3a9c2","deauthorizePool((address,address,uint24,int24,address))":"85e7360a","executePrivateSwap((address,address,uint24,int24,address),(bytes32,bytes32,address,address,uint256,uint256,bytes32,bytes32,uint256,address,uint256),bytes)":"5aaa30b0","getHookPermissions()":"c4e833ce","guardian()":"452a9320","isNullifierSpent(bytes32)":"d5a4e325","isPoolAuthorized(bytes32)":"ff59f177","owner()":"8da5cb5b","pause()":"8456cb59","paused()":"5c975abb","poolManager()":"dc4c90d3","renounceOwnership()":"715018a6","setGuardian(address)":"8a0dac4a","swapCountThisHour()":"f7b2d363","swapNullifierSpent(bytes32)":"2531f6f6","transferOwnership(address)":"f2fde38b","unpause()":"3f4ba83a","vault()":"fbfa77cf","verifier()":"2b7ac3f3"},"id":56}