{"abi":[{"type":"constructor","inputs":[{"name":"_levels","type":"uint32","internalType":"uint32"}],"stateMutability":"nonpayable"},{"type":"function","name":"FIELD_SIZE","inputs":[],"outputs":[{"name":"","type":"uint256","internalType":"uint256"}],"stateMutability":"view"},{"type":"function","name":"ROOT_HISTORY_SIZE","inputs":[],"outputs":[{"name":"","type":"uint32","internalType":"uint32"}],"stateMutability":"view"},{"type":"function","name":"ZERO_VALUE","inputs":[],"outputs":[{"name":"","type":"uint256","internalType":"uint256"}],"stateMutability":"view"},{"type":"function","name":"currentRootIndex","inputs":[],"outputs":[{"name":"","type":"uint32","internalType":"uint32"}],"stateMutability":"view"},{"type":"function","name":"filledSubtrees","inputs":[{"name":"","type":"uint256","internalType":"uint256"}],"outputs":[{"name":"","type":"uint256","internalType":"uint256"}],"stateMutability":"view"},{"type":"function","name":"getLastRoot","inputs":[],"outputs":[{"name":"","type":"uint256","internalType":"uint256"}],"stateMutability":"view"},{"type":"function","name":"hashLeftRight","inputs":[{"name":"_left","type":"uint256","internalType":"uint256"},{"name":"_right","type":"uint256","internalType":"uint256"}],"outputs":[{"name":"","type":"uint256","internalType":"uint256"}],"stateMutability":"pure"},{"type":"function","name":"isKnownRoot","inputs":[{"name":"_root","type":"uint256","internalType":"uint256"}],"outputs":[{"name":"","type":"bool","internalType":"bool"}],"stateMutability":"view"},{"type":"function","name":"levels","inputs":[],"outputs":[{"name":"","type":"uint32","internalType":"uint32"}],"stateMutability":"view"},{"type":"function","name":"nextIndex","inputs":[],"outputs":[{"name":"","type":"uint32","internalType":"uint32"}],"stateMutability":"view"},{"type":"function","name":"roots","inputs":[{"name":"","type":"uint256","internalType":"uint256"}],"outputs":[{"name":"","type":"uint256","internalType":"uint256"}],"stateMutability":"view"},{"type":"function","name":"zeros","inputs":[{"name":"i","type":"uint256","internalType":"uint256"}],"outputs":[{"name":"","type":"uint256","internalType":"uint256"}],"stateMutability":"pure"}],"bytecode":{"object":"0x6080604052600380546001600160401b031916905534801561001f575f5ffd5b506040516123d33803806123d383398101604081905261003e916107a4565b5f8163ffffffff16116100a45760405162461bcd60e51b815260206004820152602360248201527f5f6c6576656c732073686f756c642062652067726561746572207468616e207a60448201526265726f60e81b60648201526084015b60405180910390fd5b60208163ffffffff16106100fa5760405162461bcd60e51b815260206004820152601e60248201527f5f6c6576656c732073686f756c64206265206c657373207468616e2033320000604482015260640161009b565b5f805463ffffffff191663ffffffff83161781555b8163ffffffff168163ffffffff1610156101535761013263ffffffff821661019d565b63ffffffff82165f908152600160208190526040909120919091550161010f565b5061016d6101626001836107ce565b63ffffffff1661019d565b5f805260026020527fac33ff75c19e70fe83507db0d683fd3465c996598dc972688b7ace676c89077b55506107fc565b5f815f036101ac57505f919050565b816001036101db57507f18dfb8dc9b82229cff974efefc8df78b1ce96d9d844236b496785c698bc6732e919050565b8160020361020a57507f2c0d184fc7a25c124a27a67b2c46220b039b1a5072c3b693a18ffee458f6425d919050565b8160030361023957507f268b2b93ac5fe540e618a378b8a71b8f2407232744d71e501ce8699980b306e5919050565b8160040361026857507f2d436f654e14cc4febcafdf4a753b149dd8c88a75df9e5d6707e83a853b5f791919050565b8160050361029757507f0b66fdef5a7f00f6fb45d1498b4d7131218e69ccf0a2751b6a1fb1bcd982867d919050565b816006036102c657507f1d542b476c671bb6f0d2ab2939335d7cbad03476f1e3bcba70973b1adfe88b91919050565b816007036102f557507f0680c6388c5798caf80642a1e84316b8b2f7caa99da076f3057d2962a46c5358919050565b8160080361032457507f03c53ce5296e3e895171f89aa09f84214e3fb0755fe7a423b87888e4b3d731b8919050565b8160090361035357507f2dd4e2510b33275359bba6edf72e6bdacad259950b024b2cc19d63c3a5b761df919050565b81600a0361038257507f11cb221f69d954d521fb5393767e77fe4d14133757a706b318e62fa984f98157919050565b81600b036103b157507f039d78bac8f890788eefe39af15eee5825056648f99210054fd03c25213f4de7919050565b81600c036103e057507f0c55b828a83062a77d2b3e0a66bbb50cb6040990d9f368da8b24c0e82b692349919050565b81600d0361040f57507f24c866ac88715851268d808487e20e6986084fc222d7188e2a8e0f5b9f8457ef919050565b81600e0361043e57507f0f6a94e437b9dfb35cdedf41e2e154c3ae449b7c04c13add0996a7b53cde5400919050565b81600f0361046d57507f22afe7696b87cb782742e2d3ecb0f749a9beefbbb2159d178b09000e55b22cab919050565b8160100361049c57507f121b01164d32e9ab841ba8f5602b0ec58b576e62552c96911d4d988d49468cdd919050565b816011036104cb57507f05f3810707b1336c953b7db191215dab2b5772f93025aa345b954b43135b627b919050565b816012036104fa57507f287515b2d5975c74e3fd85a20d68611a463ffe605a1c54d8140ab16d1b77f57b919050565b8160130361052957507f276ff13fde3afa1adb26149ddc3aa67240d603b6a91da5e494c8e58706381a38919050565b8160140361055857507f3039bcb20f03fd9c8650138ef2cfe643edeed152f9c20999f43aeed54d79e387919050565b8160150361058757507f087e5af439450ef09ce6f12a47571971d83309bb6fd1e280c29baf69257f8a4f919050565b816016036105b657507f1821495b1919fa5439ae4a314ff98843067381a3c015f744592bfd64101def1d919050565b816017036105e557507f25789f32f958568364c8139771d7864d93f97efb5bbb87cce1959e7e7443ac80919050565b8160180361061457507f25ad0850411551115fd697c4d91668f92dde52421be59650357cd50363880543919050565b8160190361064357507f10b604f35a902419a0fdcf8ee57123e92f0d650ab009b5105916cac7813c9137919050565b81601a0361067257507f1bb07b96cdddee486afb20c78a3b82208cb80d2c55e596896fa1879164a751db919050565b81601b036106a157507f04ab93e9c494b67162063e77960cd36f4e3e5cdee5388a603dc55a03875c72bb919050565b81601c036106d057507f0f9e7f4ad948e7e487831c37fef6e032d66ab2cd3d742d024274612a86cc55ed919050565b81601d036106ff57507f2f1c6920644cd674376a6d3ba4fd3cbe3a571685af0d9ab28e1461e4c1d6fc0a919050565b81601e0361072e57507f0de2cd9dffe1e710647fdc179884bd0367276612ef83d2aeea0f7d8aecb9c3d7919050565b81601f0361075c57507e77ed17dad4b561a9b4a21cf58720ef0c057699fec72b92f2ca26fdf6b48a83919050565b60405162461bcd60e51b815260206004820152601360248201527f496e646578206f7574206f6620626f756e647300000000000000000000000000604482015260640161009b565b5f602082840312156107b4575f5ffd5b815163ffffffff811681146107c7575f5ffd5b9392505050565b63ffffffff82811682821603908111156107f657634e487b7160e01b5f52601160045260245ffd5b92915050565b611bca806108095f395ff3fe608060405234801561000f575f5ffd5b50600436106100b1575f3560e01c8063c2b40ae41161006e578063c2b40ae414610162578063cd87a3b414610181578063e829558814610189578063ec7329591461019c578063f178e47c146101a3578063fc7e9c6f146101c2575f5ffd5b8063414a37ba146100b55780634ecf518b146100dc5780635bb939951461010057806390eeb02b14610113578063a6232a9314610123578063ba70f75714610146575b5f5ffd5b6100c95f516020611b755f395f51905f5281565b6040519081526020015b60405180910390f35b5f546100eb9063ffffffff1681565b60405163ffffffff90911681526020016100d3565b6100c961010e366004611af4565b6101da565b6003546100eb9063ffffffff1681565b610136610131366004611b14565b6102b3565b60405190151581526020016100d3565b60035463ffffffff165f908152600260205260409020546100c9565b6100c9610170366004611b14565b60026020525f908152604090205481565b6100eb606481565b6100c9610197366004611b14565b61032c565b6100c95f81565b6100c96101b1366004611b14565b60016020525f908152604090205481565b6003546100eb90640100000000900463ffffffff1681565b5f5f516020611b755f395f51905f52831061023c5760405162461bcd60e51b815260206004820181905260248201527f5f6c6566742073686f756c6420626520696e7369646520746865206669656c6460448201526064015b60405180910390fd5b5f516020611b755f395f51905f5282106102a25760405162461bcd60e51b815260206004820152602160248201527f5f72696768742073686f756c6420626520696e7369646520746865206669656c6044820152601960fa1b6064820152608401610233565b6102ac8383610929565b9392505050565b5f815f036102c257505f919050565b60035463ffffffff16805b63ffffffff81165f9081526002602052604090205484036102f2575060019392505050565b8063ffffffff165f03610303575060645b8061030d81611b2b565b9150508163ffffffff168163ffffffff16036102cd57505f9392505050565b5f815f0361033b57505f919050565b8160010361036a57507f18dfb8dc9b82229cff974efefc8df78b1ce96d9d844236b496785c698bc6732e919050565b8160020361039957507f2c0d184fc7a25c124a27a67b2c46220b039b1a5072c3b693a18ffee458f6425d919050565b816003036103c857507f268b2b93ac5fe540e618a378b8a71b8f2407232744d71e501ce8699980b306e5919050565b816004036103f757507f2d436f654e14cc4febcafdf4a753b149dd8c88a75df9e5d6707e83a853b5f791919050565b8160050361042657507f0b66fdef5a7f00f6fb45d1498b4d7131218e69ccf0a2751b6a1fb1bcd982867d919050565b8160060361045557507f1d542b476c671bb6f0d2ab2939335d7cbad03476f1e3bcba70973b1adfe88b91919050565b8160070361048457507f0680c6388c5798caf80642a1e84316b8b2f7caa99da076f3057d2962a46c5358919050565b816008036104b357507f03c53ce5296e3e895171f89aa09f84214e3fb0755fe7a423b87888e4b3d731b8919050565b816009036104e257507f2dd4e2510b33275359bba6edf72e6bdacad259950b024b2cc19d63c3a5b761df919050565b81600a0361051157507f11cb221f69d954d521fb5393767e77fe4d14133757a706b318e62fa984f98157919050565b81600b0361054057507f039d78bac8f890788eefe39af15eee5825056648f99210054fd03c25213f4de7919050565b81600c0361056f57507f0c55b828a83062a77d2b3e0a66bbb50cb6040990d9f368da8b24c0e82b692349919050565b81600d0361059e57507f24c866ac88715851268d808487e20e6986084fc222d7188e2a8e0f5b9f8457ef919050565b81600e036105cd57507f0f6a94e437b9dfb35cdedf41e2e154c3ae449b7c04c13add0996a7b53cde5400919050565b81600f036105fc57507f22afe7696b87cb782742e2d3ecb0f749a9beefbbb2159d178b09000e55b22cab919050565b8160100361062b57507f121b01164d32e9ab841ba8f5602b0ec58b576e62552c96911d4d988d49468cdd919050565b8160110361065a57507f05f3810707b1336c953b7db191215dab2b5772f93025aa345b954b43135b627b919050565b8160120361068957507f287515b2d5975c74e3fd85a20d68611a463ffe605a1c54d8140ab16d1b77f57b919050565b816013036106b857507f276ff13fde3afa1adb26149ddc3aa67240d603b6a91da5e494c8e58706381a38919050565b816014036106e757507f3039bcb20f03fd9c8650138ef2cfe643edeed152f9c20999f43aeed54d79e387919050565b8160150361071657507f087e5af439450ef09ce6f12a47571971d83309bb6fd1e280c29baf69257f8a4f919050565b8160160361074557507f1821495b1919fa5439ae4a314ff98843067381a3c015f744592bfd64101def1d919050565b8160170361077457507f25789f32f958568364c8139771d7864d93f97efb5bbb87cce1959e7e7443ac80919050565b816018036107a357507f25ad0850411551115fd697c4d91668f92dde52421be59650357cd50363880543919050565b816019036107d257507f10b604f35a902419a0fdcf8ee57123e92f0d650ab009b5105916cac7813c9137919050565b81601a0361080157507f1bb07b96cdddee486afb20c78a3b82208cb80d2c55e596896fa1879164a751db919050565b81601b0361083057507f04ab93e9c494b67162063e77960cd36f4e3e5cdee5388a603dc55a03875c72bb919050565b81601c0361085f57507f0f9e7f4ad948e7e487831c37fef6e032d66ab2cd3d742d024274612a86cc55ed919050565b81601d0361088e57507f2f1c6920644cd674376a6d3ba4fd3cbe3a571685af0d9ab28e1461e4c1d6fc0a919050565b81601e036108bd57507f0de2cd9dffe1e710647fdc179884bd0367276612ef83d2aeea0f7d8aecb9c3d7919050565b81601f036108eb57507e77ed17dad4b561a9b4a21cf58720ef0c057699fec72b92f2ca26fdf6b48a83919050565b60405162461bcd60e51b8152602060048201526013602482015272496e646578206f7574206f6620626f756e647360681b6044820152606401610233565b5f610932611ad6565b6109495f516020611b755f395f51905f5285611b55565b81526109625f516020611b755f395f51905f5284611b55565b60208201525f60408201819052606082015261097d81610985565b519392505050565b61098e81611727565b610a1b817f19b849f69450b06848da1d39bd5e4a4302bb86744edc26238b0878e269ed23e57f265ddfe127dd51bd7239347b758f0a1320eb2cc7450acc1dad47f80c8dcf34d67f199750ec472f1809e0f66a545e1e51624108ac845015c2aa3dfc36bab497d8aa7f157ff3fe65ac7208110f06a5f74302b14d743ea25067f0ffd032f787c7f1cdf861185e565b610aa8817f2e49c43c4569dd9c5fd35ac45fca33f10b15c590692f8beefe18f4896ac949027f0e35fb89981890520d4aef2b6d6506c3cb2f0b6973c24fa82731345ffa2d1f1e7f251ad47cb15c4f1105f109ae5e944f1ba9d9e7806d667ffec6fe723002e0b9967f13da07dc64d428369873e97160234641f8beb56fdd05e5f3563fa39d9c22df4e61185e565b610b35817f0c009b84e650e6d23dc00c7dccef7483a553939689d350cd46e7b89055fd47387f011f16b1c63a854f01992e3956f42d8b04eb650c6d535eb0203dec74befdca067f0ed69e5e383a688f209d9a561daa79612f3f78d0467ad45485df07093f3675497f04dba94a7b0ce9e221acad41472b6bbe3aec507f5eb3d33f463672264c9f789b61185e565b610bc2817f0a3f2637d840f3a16eb094271c9d237b6036757d4bb50bf7ce732ff1d4fa28e87f259a666f129eea198f8a1c502fdb38fa39b1f075569564b6e54a485d1182323f7f28bf7459c9b2f4c6d8e7d06a4ee3a47f7745d4271038e5157a32fdf7ede0d6a17f0a1ca941f057037526ea200f489be8d4c37c85bbcce6a2aeec91bd694143244761185e565b610bec817f0c6f8f958be0e93053d7fd4fc54512855535ed1539f051dcb43a26fd926361cf61191a565b610c16817f123106a93cd17578d426e8128ac9d90aa9e8a00708e296e084dd57e69caaf81161191a565b610c40817f26e1ba52ad9285d97dd3ab52f8e840085e8fa83ff1e8f1877b074867cd2dee7561191a565b610c6a817f1cb55cad7bd133de18a64c5c47b9c97cbe4d8b7bf9e095864471537e6a4ae2c561191a565b610c94817f1dcd73e46acd8f8e0e2c7ce04bde7f6d2a53043d5060a41c7143f08e6e9055d061191a565b610cbe817f011003e32f6d9c66f5852f05474a4def0cda294a0eb4e9b9b12b9bb4512e557461191a565b610ce8817f2b1e809ac1d10ab29ad5f20d03a57dfebadfe5903f58bafed7c508dd2287ae8c61191a565b610d12817f2539de1785b735999fb4dac35ee17ed0ef995d05ab2fc5faeaa69ae87bcec0a561191a565b610d3c817f0c246c5a2ef8ee0126497f222b3e0a0ef4e1c3d41c86d46e43982cb11d77951d61191a565b610d66817f192089c4974f68e95408148f7c0632edbb09e6a6ad1a1c2f3f0305f5d03b527b61191a565b610d90817f1eae0ad8ab68b2f06a0ee36eeb0d0c058529097d91096b756d8fdc2fb5a60d8561191a565b610dba817f179190e5d0e22179e46f8282872abc88db6e2fdc0dee99e69768bd98c5d06bfb61191a565b610de4817f29bb9e2c9076732576e9a81c7ac4b83214528f7db00f31bf6cafe794a9b3cd1c61191a565b610e0e817f225d394e42207599403efd0c2464a90d52652645882aac35b10e590e6e691e0861191a565b610e38817f064760623c25c8cf753d238055b444532be13557451c087de09efd454b23fd5961191a565b610e62817f10ba3a0e01df92e87f301c4b716d8a394d67f4bf42a75c10922910a78f6b5b8761191a565b610e8c817f0e070bf53f8451b24f9c6e96b0c2a801cb511bc0c242eb9d361b77693f21471c61191a565b610eb6817f1b94cd61b051b04dd39755ff93821a73ccd6cb11d2491d8aa7f921014de252fb61191a565b610ee0817f1d7cb39bafb8c744e148787a2e70230f9d4e917d5713bb050487b5aa7d74070b61191a565b610f0a817f2ec93189bd1ab4f69117d0fe980c80ff8785c2961829f701bb74ac1f303b17db61191a565b610f34817f2db366bfdd36d277a692bb825b86275beac404a19ae07a9082ea46bd8351792661191a565b610f5e817f062100eb485db06269655cf186a68532985275428450359adc99cec6960711b861191a565b610f88817f0761d33c66614aaa570e7f1e8244ca1120243f92fa59e4f900c567bf41f5a59b61191a565b610fb2817f20fc411a114d13992c2705aa034e3f315d78608a0f7de4ccf7a72e494855ad0d61191a565b610fdc817f25b5c004a4bdfcb5add9ec4e9ab219ba102c67e8b3effb5fc3a30f317250bc5a61191a565b611006817f23b1822d278ed632a494e58f6df6f5ed038b186d8474155ad87e7dff62b37f4b61191a565b611030817f22734b4c5c3f9493606c4ba9012499bf0f14d13bfcfcccaa16102a29cc2f69e061191a565b61105a817f26c0c8fe09eb30b7e27a74dc33492347e5bdff409aa3610254413d3fad795ce561191a565b611084817f070dd0ccb6bd7bbae88eac03fa1fbb26196be3083a809829bbd626df348ccad961191a565b6110ae817f12b6595bdb329b6fb043ba78bb28c3bec2c0a6de46d8c5ad6067c4ebfd4250da61191a565b6110d8817f248d97d7f76283d63bec30e7a5876c11c06fca9b275c671c5e33d95bb7e8d72961191a565b611102817f1a306d439d463b0816fc6fd64cc939318b45eb759ddde4aa106d15d9bd9baaaa61191a565b61112c817f28a8f8372e3c38daced7c00421cb4621f4f1b54ddc27821b0d62d3d6ec7c56cf61191a565b611155817e94975717f9a8a8bb35152f24d43294071ce320c829f388bc852183e1e2ce7e61191a565b61117f817f04d5ee4c3aa78f7d80fde60d716480d3593f74d4f653ae83f4103246db2e8d6561191a565b6111a9817f2a6cf5e9aa03d4336349ad6fb8ed2269c7bef54b8822cc76d08495c12efde18761191a565b6111d3817f2304d31eaab960ba9274da43e19ddeb7f792180808fd6e43baae48d7efcba3f361191a565b6111fd817f03fd9ac865a4b2a6d5e7009785817249bff08a7e0726fcb4e1c11d39d199f0b061191a565b611226817eb7258ded52bbda2248404d55ee5044798afc3a209193073f7954d4d63b0b6461191a565b611250817f159f81ada0771799ec38fca2d4bf65ebb13d3a74f3298db36272c5ca65e92d9a61191a565b61127a817f1ef90e67437fbc8550237a75bc28e3bb9000130ea25f0c5471e144cf4264431f61191a565b6112a4817f1e65f838515e5ff0196b49aa41a2d2568df739bc176b08ec95a79ed82932e30d61191a565b6112ce817f2b1b045def3a166cec6ce768d079ba74b18c844e570e1f826575c1068c94c33f61191a565b6112f8817f0832e5753ceb0ff6402543b1109229c165dc2d73bef715e3f1c6e07c168bb17361191a565b611322817f02f614e9cedfb3dc6b762ae0a37d41bab1b841c2e8b6451bc5a8e3c390b6ad1661191a565b61134c817f0e2427d38bd46a60dd640b8e362cad967370ebb777bedff40f6a0be27e7ed70561191a565b611376817f0493630b7c670b6deb7c84d414e7ce79049f0ec098c3c7c50768bbe29214a53a61191a565b6113a0817f22ead100e8e482674decdab17066c5a26bb1515355d5461a3dc06cc85327cea961191a565b6113ca817f25b3e56e655b42cdaae2626ed2554d48583f1ae35626d04de5084e0b6d2a6f1661191a565b6113f4817f1e32752ada8836ef5837a6cde8ff13dbb599c336349e4c584b4fdc0a0cf6f9d061191a565b61141e817f2fa2a871c15a387cc50f68f6f3c3455b23c00995f05078f672a9864074d412e561191a565b611448817f2f569b8a9a4424c9278e1db7311e889f54ccbf10661bab7fcd18e7c7a7d8350561191a565b611472817f044cb455110a8fdd531ade530234c518a7df93f7332ffd2144165374b246b43d61191a565b61149c817f227808de93906d5d420246157f2e42b191fe8c90adfe118178ddc723a531902561191a565b6114c6817f02fcca2934e046bc623adead873579865d03781ae090ad4a8579d2e7a680035561191a565b6114f0817f0ef915f0ac120b876abccceb344a1d36bad3f3c5ab91a8ddcbec2e060d8befac61191a565b61157d817f1797130f4b7a3e1777eb757bc6f287f6ab0fb85f6be63b09f3b16ef2b1405d387f0a76225dc04170ae3306c85abab59e608c7f497c20156d4d36c668555decc6e57f1fffb9ec1992d66ba1e77a7b93209af6f8fa76d48acb664796174b5326a31a5c7f25721c4fc15a3f2853b57c338fa538d85f8fbba6c6b9c6090611889b797b9c5f61185e565b61160a817f0c817fd42d5f7a41215e3d07ba197216adb4c3790705da95eb63b982bfcaf75a7f13abe3f5239915d39f7e13c2c24970b6df8cf86ce00a22002bc15866e52b5a967f2106feea546224ea12ef7f39987a46c85c1bc3dc29bdbd7a92cd60acb4d391ce7f21ca859468a746b6aaa79474a37dab49f1ca5a28c748bc7157e1b3345bb0f95961185e565b611697817f05ccd6255c1e6f0c5cf1f0df934194c62911d14d0321662a8f1a48999e34185b7f0f0e34a64b70a626e464d846674c4c8816c4fb267fe44fe6ea28678cb09490a47f0558531a4e25470c6157794ca36d0e9647dbfcfe350d64838f5b1a8a2de0d4bf7f09d3dca9173ed2faceea125157683d18924cadad3f655a60b72f5864961f145561185e565b611724817f0328cbd54e8c0913493f866ed03d218bf23f92d68aaec48617d4c722e5bd43357f2bf07216e2aff0a223a487b1a7094e07e79e7bcc9798c648ee3347dd5329d34b7f1daf345a58006b736499c583cb76c316d6f78ed6a6dffc82111e11a63fe412df7f176563472456aaa746b694c60e1823611ef39039b2edc7ff391e6f2293d2c40461185e565b50565b602081015181515f915f516020611b755f395f51905f52910890505f5f516020611b755f395f51905f52836003602002015184600260200201510860208401519091505f905f516020611b755f395f51905f52908390829080080860608501519091505f905f516020611b755f395f51905f52908590829080080890505f5f516020611b755f395f51905f5284850890505f516020611b755f395f51905f5281820890505f516020611b755f395f51905f5282820890505f5f516020611b755f395f51905f5286870890505f516020611b755f395f51905f5281820890505f516020611b755f395f51905f5284820890505f5f516020611b755f395f51905f5282850890505f5f516020611b755f395f51905f52848708918952506020880191909152604087015260609095019490945250505050565b84515f516020611b755f395f51905f5290859008855260208501515f516020611b755f395f51905f5290849008602086015260408501515f516020611b755f395f51905f5290839008604086015260608501515f516020611b755f395f51905f529082900860608601526118d8855f5b6020020151611949565b85526118e58560016118ce565b60208601526118f58560026118ce565b60408601526119058560036118ce565b606086015261191385611727565b5050505050565b81515f516020611b755f395f51905f5290829008825261193a825f6118ce565b82526119458261198b565b5050565b5f805f516020611b755f395f51905f5283840990505f5f516020611b755f395f51905f5282830990505f516020611b755f395f51905f52848209949350505050565b5f5f516020611b755f395f51905f52808360036020020151846002602002015108602084015184515f516020611b755f395f51905f529190080890505f516020611b755f395f51905f52815f516020611b755f395f51905f52845f60200201517f10dc6e9c006ea38b04b1e03b4bd9490c0d03f98929ca1d7fb56821fd19d3b6e70908825260208201515f516020611b755f395f51905f5290829082907f0c28145b6a44df3e0149b3d0a30b3bb599df9756d4dd9b84a86b38cfb45a740b0908602083015260408201515f516020611b755f395f51905f5290829082907e544b8338791518b2c7645a50392798b21f75bb60e3596170067d00141cac150908604083015260608201515f516020611b755f395f51905f5290829082907f222c01175718386f2e2e82eb122789e352e105a3b8fa852613bc534433ee428b090882600360200201525050565b60405180608001604052806004906020820280368337509192915050565b5f5f60408385031215611b05575f5ffd5b50508035926020909101359150565b5f60208284031215611b24575f5ffd5b5035919050565b5f63ffffffff821680611b4c57634e487b7160e01b5f52601160045260245ffd5b5f190192915050565b5f82611b6f57634e487b7160e01b5f52601260045260245ffd5b50069056fe30644e72e131a029b85045b68181585d2833e84879b9709143e1f593f0000001a26469706673582212204394f7b944730a24ef150ad0083cd8871244753f9a22fd1a2fc454a860699ee064736f6c634300081b0033","linkReferences":{}},"methodIdentifiers":{"FIELD_SIZE()":"414a37ba","ROOT_HISTORY_SIZE()":"cd87a3b4","ZERO_VALUE()":"ec732959","currentRootIndex()":"90eeb02b","filledSubtrees(uint256)":"f178e47c","getLastRoot()":"ba70f757","hashLeftRight(uint256,uint256)":"5bb93995","isKnownRoot(uint256)":"a6232a93","levels()":"4ecf518b","nextIndex()":"fc7e9c6f","roots(uint256)":"c2b40ae4","zeros(uint256)":"e8295588"},"id":52}