{"abi":[{"type":"constructor","inputs":[{"name":"_verifier","type":"address","internalType":"address"},{"name":"_token","type":"address","internalType":"address"}],"stateMutability":"nonpayable"},{"type":"function","name":"DENOM_LARGE","inputs":[],"outputs":[{"name":"","type":"uint256","internalType":"uint256"}],"stateMutability":"view"},{"type":"function","name":"DENOM_MEDIUM","inputs":[],"outputs":[{"name":"","type":"uint256","internalType":"uint256"}],"stateMutability":"view"},{"type":"function","name":"DENOM_SMALL","inputs":[],"outputs":[{"name":"","type":"uint256","internalType":"uint256"}],"stateMutability":"view"},{"type":"function","name":"FIELD_SIZE","inputs":[],"outputs":[{"name":"","type":"uint256","internalType":"uint256"}],"stateMutability":"view"},{"type":"function","name":"ROOT_HISTORY_SIZE","inputs":[],"outputs":[{"name":"","type":"uint32","internalType":"uint32"}],"stateMutability":"view"},{"type":"function","name":"SNARK_SCALAR_FIELD","inputs":[],"outputs":[{"name":"","type":"uint256","internalType":"uint256"}],"stateMutability":"view"},{"type":"function","name":"ZERO_VALUE","inputs":[],"outputs":[{"name":"","type":"uint256","internalType":"uint256"}],"stateMutability":"view"},{"type":"function","name":"commitments","inputs":[{"name":"","type":"bytes32","internalType":"bytes32"}],"outputs":[{"name":"","type":"bool","internalType":"bool"}],"stateMutability":"view"},{"type":"function","name":"currentRootIndex","inputs":[],"outputs":[{"name":"","type":"uint32","internalType":"uint32"}],"stateMutability":"view"},{"type":"function","name":"deposit","inputs":[{"name":"commitment","type":"bytes32","internalType":"bytes32"},{"name":"denomination","type":"uint256","internalType":"uint256"}],"outputs":[],"stateMutability":"nonpayable"},{"type":"function","name":"filledSubtrees","inputs":[{"name":"","type":"uint256","internalType":"uint256"}],"outputs":[{"name":"","type":"uint256","internalType":"uint256"}],"stateMutability":"view"},{"type":"function","name":"getLastRoot","inputs":[],"outputs":[{"name":"","type":"uint256","internalType":"uint256"}],"stateMutability":"view"},{"type":"function","name":"getLeafCount","inputs":[],"outputs":[{"name":"","type":"uint256","internalType":"uint256"}],"stateMutability":"view"},{"type":"function","name":"getRoot","inputs":[],"outputs":[{"name":"","type":"bytes32","internalType":"bytes32"}],"stateMutability":"view"},{"type":"function","name":"hashLeftRight","inputs":[{"name":"_left","type":"uint256","internalType":"uint256"},{"name":"_right","type":"uint256","internalType":"uint256"}],"outputs":[{"name":"","type":"uint256","internalType":"uint256"}],"stateMutability":"pure"},{"type":"function","name":"isKnownRoot","inputs":[{"name":"_root","type":"uint256","internalType":"uint256"}],"outputs":[{"name":"","type":"bool","internalType":"bool"}],"stateMutability":"view"},{"type":"function","name":"isSpent","inputs":[{"name":"_nullifierHash","type":"bytes32","internalType":"bytes32"}],"outputs":[{"name":"","type":"bool","internalType":"bool"}],"stateMutability":"view"},{"type":"function","name":"isSpentArray","inputs":[{"name":"_nullifierHashes","type":"bytes32[]","internalType":"bytes32[]"}],"outputs":[{"name":"spent","type":"bool[]","internalType":"bool[]"}],"stateMutability":"view"},{"type":"function","name":"levels","inputs":[],"outputs":[{"name":"","type":"uint32","internalType":"uint32"}],"stateMutability":"view"},{"type":"function","name":"nextIndex","inputs":[],"outputs":[{"name":"","type":"uint32","internalType":"uint32"}],"stateMutability":"view"},{"type":"function","name":"nullifierHashes","inputs":[{"name":"","type":"bytes32","internalType":"bytes32"}],"outputs":[{"name":"","type":"bool","internalType":"bool"}],"stateMutability":"view"},{"type":"function","name":"roots","inputs":[{"name":"","type":"uint256","internalType":"uint256"}],"outputs":[{"name":"","type":"uint256","internalType":"uint256"}],"stateMutability":"view"},{"type":"function","name":"token","inputs":[],"outputs":[{"name":"","type":"address","internalType":"contract IERC20"}],"stateMutability":"view"},{"type":"function","name":"verifier","inputs":[],"outputs":[{"name":"","type":"address","internalType":"contract IHonkVerifier"}],"stateMutability":"view"},{"type":"function","name":"withdraw","inputs":[{"name":"proof","type":"bytes","internalType":"bytes"},{"name":"root","type":"bytes32","internalType":"bytes32"},{"name":"nullifierHash","type":"bytes32","internalType":"bytes32"},{"name":"recipient","type":"address","internalType":"address"},{"name":"denomination","type":"uint256","internalType":"uint256"},{"name":"relayer","type":"address","internalType":"address"},{"name":"fee","type":"uint256","internalType":"uint256"}],"outputs":[],"stateMutability":"nonpayable"},{"type":"function","name":"zeros","inputs":[{"name":"i","type":"uint256","internalType":"uint256"}],"outputs":[{"name":"","type":"uint256","internalType":"uint256"}],"stateMutability":"pure"},{"type":"event","name":"Deposit","inputs":[{"name":"commitment","type":"bytes32","indexed":true,"internalType":"bytes32"},{"name":"leafIndex","type":"uint32","indexed":false,"internalType":"uint32"},{"name":"timestamp","type":"uint256","indexed":false,"internalType":"uint256"}],"anonymous":false},{"type":"event","name":"Withdrawal","inputs":[{"name":"to","type":"address","indexed":false,"internalType":"address"},{"name":"nullifierHash","type":"bytes32","indexed":false,"internalType":"bytes32"},{"name":"relayer","type":"address","indexed":true,"internalType":"address"},{"name":"fee","type":"uint256","indexed":false,"internalType":"uint256"}],"anonymous":false},{"type":"error","name":"CommitmentAlreadyExists","inputs":[]},{"type":"error","name":"CommitmentOutOfField","inputs":[]},{"type":"error","name":"FeeTooHigh","inputs":[]},{"type":"error","name":"InvalidDenomination","inputs":[]},{"type":"error","name":"InvalidRoot","inputs":[]},{"type":"error","name":"NullifierAlreadySpent","inputs":[]},{"type":"error","name":"ProofVerificationFailed","inputs":[]},{"type":"error","name":"ReentrancyGuardReentrantCall","inputs":[]},{"type":"error","name":"SafeERC20FailedOperation","inputs":[{"name":"token","type":"address","internalType":"address"}]},{"type":"error","name":"ZeroRecipient","inputs":[]}],"bytecode":{"object":"0x60c0604052600380546001600160401b031916905534801561001f575f5ffd5b5060405161340838038061340883398101604081905261003e916107e4565b81601461004f565b60405180910390fd5b60208163ffffffff16106100a55760405162461bcd60e51b815260206004820152601e60248201527f5f6c6576656c732073686f756c64206265206c657373207468616e20333200006044820152606401610046565b5f805463ffffffff191663ffffffff83161781555b8163ffffffff168163ffffffff1610156100fe576100dd63ffffffff82166101c2565b63ffffffff82165f90815260016020819052604090912091909155016100ba565b5061011861010d600183610815565b63ffffffff166101c2565b5f805260026020527fac33ff75c19e70fe83507db0d683fd3465c996598dc972688b7ace676c89077b555060017f9b779b17422d0df92223018b32b4d1fa46e071723d6817e2486d003becc55f00556001600160a01b0390811660805281166101b05760405162461bcd60e51b815260206004820152600a6024820152693d32b937903a37b5b2b760b11b6044820152606401610046565b6001600160a01b031660a05250610843565b5f815f036101d157505f919050565b8160010361020057507f18dfb8dc9b82229cff974efefc8df78b1ce96d9d844236b496785c698bc6732e919050565b8160020361022f57507f2c0d184fc7a25c124a27a67b2c46220b039b1a5072c3b693a18ffee458f6425d919050565b8160030361025e57507f268b2b93ac5fe540e618a378b8a71b8f2407232744d71e501ce8699980b306e5919050565b8160040361028d57507f2d436f654e14cc4febcafdf4a753b149dd8c88a75df9e5d6707e83a853b5f791919050565b816005036102bc57507f0b66fdef5a7f00f6fb45d1498b4d7131218e69ccf0a2751b6a1fb1bcd982867d919050565b816006036102eb57507f1d542b476c671bb6f0d2ab2939335d7cbad03476f1e3bcba70973b1adfe88b91919050565b8160070361031a57507f0680c6388c5798caf80642a1e84316b8b2f7caa99da076f3057d2962a46c5358919050565b8160080361034957507f03c53ce5296e3e895171f89aa09f84214e3fb0755fe7a423b87888e4b3d731b8919050565b8160090361037857507f2dd4e2510b33275359bba6edf72e6bdacad259950b024b2cc19d63c3a5b761df919050565b81600a036103a757507f11cb221f69d954d521fb5393767e77fe4d14133757a706b318e62fa984f98157919050565b81600b036103d657507f039d78bac8f890788eefe39af15eee5825056648f99210054fd03c25213f4de7919050565b81600c0361040557507f0c55b828a83062a77d2b3e0a66bbb50cb6040990d9f368da8b24c0e82b692349919050565b81600d0361043457507f24c866ac88715851268d808487e20e6986084fc222d7188e2a8e0f5b9f8457ef919050565b81600e0361046357507f0f6a94e437b9dfb35cdedf41e2e154c3ae449b7c04c13add0996a7b53cde5400919050565b81600f0361049257507f22afe7696b87cb782742e2d3ecb0f749a9beefbbb2159d178b09000e55b22cab919050565b816010036104c157507f121b01164d32e9ab841ba8f5602b0ec58b576e62552c96911d4d988d49468cdd919050565b816011036104f057507f05f3810707b1336c953b7db191215dab2b5772f93025aa345b954b43135b627b919050565b8160120361051f57507f287515b2d5975c74e3fd85a20d68611a463ffe605a1c54d8140ab16d1b77f57b919050565b8160130361054e57507f276ff13fde3afa1adb26149ddc3aa67240d603b6a91da5e494c8e58706381a38919050565b8160140361057d57507f3039bcb20f03fd9c8650138ef2cfe643edeed152f9c20999f43aeed54d79e387919050565b816015036105ac57507f087e5af439450ef09ce6f12a47571971d83309bb6fd1e280c29baf69257f8a4f919050565b816016036105db57507f1821495b1919fa5439ae4a314ff98843067381a3c015f744592bfd64101def1d919050565b8160170361060a57507f25789f32f958568364c8139771d7864d93f97efb5bbb87cce1959e7e7443ac80919050565b8160180361063957507f25ad0850411551115fd697c4d91668f92dde52421be59650357cd50363880543919050565b8160190361066857507f10b604f35a902419a0fdcf8ee57123e92f0d650ab009b5105916cac7813c9137919050565b81601a0361069757507f1bb07b96cdddee486afb20c78a3b82208cb80d2c55e596896fa1879164a751db919050565b81601b036106c657507f04ab93e9c494b67162063e77960cd36f4e3e5cdee5388a603dc55a03875c72bb919050565b81601c036106f557507f0f9e7f4ad948e7e487831c37fef6e032d66ab2cd3d742d024274612a86cc55ed919050565b81601d0361072457507f2f1c6920644cd674376a6d3ba4fd3cbe3a571685af0d9ab28e1461e4c1d6fc0a919050565b81601e0361075357507f0de2cd9dffe1e710647fdc179884bd0367276612ef83d2aeea0f7d8aecb9c3d7919050565b81601f0361078157507e77ed17dad4b561a9b4a21cf58720ef0c057699fec72b92f2ca26fdf6b48a83919050565b60405162461bcd60e51b815260206004820152601360248201527f496e646578206f7574206f6620626f756e6473000000000000000000000000006044820152606401610046565b80516001600160a01b03811681146107df575f5ffd5b919050565b5f5f604083850312156107f5575f5ffd5b6107fe836107c9565b915061080c602084016107c9565b90509250929050565b63ffffffff828116828216039081111561083d57634e487b7160e01b5f52601160045260245ffd5b92915050565b60805160a051612b886108805f395f81816103c2015281816112a701528181611346015261139901525f818161020901526108c40152612b885ff3fe608060405234801561000f575f5ffd5b5060043610610187575f3560e01c8063a366184a116100d9578063d3ea612511610093578063ec7329591161006e578063ec73295914610397578063f178e47c1461039e578063fc0c546a146103bd578063fc7e9c6f146103e4575f5ffd5b8063d3ea61251461034c578063e5285dcc14610362578063e829558814610384575f5ffd5b8063a366184a146102f3578063a6232a9314610306578063b269d81214610319578063ba70f75714610285578063c2b40ae414610325578063cd87a3b414610344575f5ffd5b8063414a37ba116101445780635ca1e1651161011f5780635ca1e16514610285578063839df945146102a157806390eeb02b146102c35780639fa12d0b146102d3575f5ffd5b8063414a37ba146101f05780634ecf518b1461024e5780635bb9399514610272575f5ffd5b80630ffe92ea1461018b57806317cc915c146101a95780631de26e16146101db57806325c2cd12146101f05780632b7ac3f31461020457806338d1b17214610243575b5f5ffd5b6101966305f5e10081565b6040519081526020015b60405180910390f35b6101cb6101b7366004612699565b60056020525f908152604090205460ff1681565b60405190151581526020016101a0565b6101ee6101e93660046126b0565b6103fc565b005b6101965f516020612b135f395f51905f5281565b61022b7f000000000000000000000000000000000000000000000000000000000000000081565b6040516001600160a01b0390911681526020016101a0565b610196633b9aca0081565b5f5461025d9063ffffffff1681565b60405163ffffffff90911681526020016101a0565b6101966102803660046126b0565b61052e565b60035463ffffffff165f90815260026020526040902054610196565b6101cb6102af366004612699565b60046020525f908152604090205460ff1681565b60035461025d9063ffffffff1681565b6102e66102e13660046126d0565b61060e565b6040516101a09190612741565b6101ee61030136600461279b565b6106c6565b6101cb610314366004612699565b610a08565b6101966402540be40081565b610196610333366004612699565b60026020525f908152604090205481565b61025d606481565b600354640100000000900463ffffffff16610196565b6101cb610370366004612699565b5f9081526005602052604090205460ff1690565b610196610392366004612699565b610a81565b6101965f81565b6101966103ac366004612699565b60016020525f908152604090205481565b61022b7f000000000000000000000000000000000000000000000000000000000000000081565b60035461025d90640100000000900463ffffffff1681565b61040461107e565b6305f5e100811415801561041c5750633b9aca008114155b801561042d57506402540be4008114155b1561044b57604051637833d9e360e11b815260040160405180910390fd5b5f516020612b135f395f51905f52821061047857604051632e4eedd760e21b815260040160405180910390fd5b5f8281526004602052604090205460ff16156104a75760405163145718a760e01b815260040160405180910390fd5b5f828152600460205260408120805460ff191660011790556104c883611099565b90506104d382611259565b6040805163ffffffff8316815242602082015284917fa945e51eec50ab98c161376f0db4cf2aeba3ec92755fe2fcd388bdbbb80ff196910160405180910390a25061052a60015f516020612b335f395f51905f5255565b5050565b5f5f516020612b135f395f51905f5283106105905760405162461bcd60e51b815260206004820181905260248201527f5f6c6566742073686f756c6420626520696e7369646520746865206669656c6460448201526064015b60405180910390fd5b5f516020612b135f395f51905f5282106105f65760405162461bcd60e51b815260206004820152602160248201527f5f72696768742073686f756c6420626520696e7369646520746865206669656c6044820152601960fa1b6064820152608401610587565b61060083836112d2565b90505b92915050565b919050565b60608167ffffffffffffffff8111156106295761062961284d565b604051908082528060200260200182016040528015610652578160200160208202803683370190505b5090505f5b828110156106bf5760055f85858481811061067457610674612861565b9050602002013581526020019081526020015f205f9054906101000a900460ff168282815181106106a7576106a7612861565b91151560209283029190910190910152600101610657565b5092915050565b6106ce61107e565b6001600160a01b0384166106f55760405163d27b444360e01b815260040160405180910390fd5b6106fe86610a08565b61071b5760405163504570e360e01b815260040160405180910390fd5b5f8581526005602052604090205460ff161561074a5760405163b115d85760e01b815260040160405180910390fd5b6305f5e10083141580156107625750633b9aca008314155b801561077357506402540be4008314155b1561079157604051637833d9e360e11b815260040160405180910390fd5b8281106107b15760405163cd4e616760e01b815260040160405180910390fd5b60408051600680825260e082019092525f916020820160c08036833701905050905085815f815181106107e6576107e6612861565b602002602001018181525050868160018151811061080657610806612861565b602002602001018181525050846001600160a01b03165f1b8160028151811061083157610831612861565b602002602001018181525050835f1b8160038151811061085357610853612861565b602002602001018181525050826001600160a01b03165f1b8160048151811061087e5761087e612861565b602002602001018181525050815f1b816005815181106108a0576108a0612861565b6020908102919091010152604051633a94343960e21b81525f906001600160a01b037f0000000000000000000000000000000000000000000000000000000000000000169063ea50d0e4906108fd908d908d908790600401612875565b602060405180830381865afa925050508015610936575060408051601f3d908101601f19168201909252610933918101906128ed565b60015b61095357604051631ac2386360e31b815260040160405180910390fd5b90508061097357604051631ac2386360e31b815260040160405180910390fd5b5f878152600560205260409020805460ff191660011790556109978685878661132e565b604080516001600160a01b038881168252602082018a9052918101859052908516907fe9e508bad6d4c3227e881ca19068f099da81b5164dd6d62b2eaf1e8bc6c349319060600160405180910390a250506109fe60015f516020612b335f395f51905f5255565b5050505050505050565b5f815f03610a1757505f919050565b60035463ffffffff16805b63ffffffff81165f908152600260205260409020548403610a47575060019392505050565b8063ffffffff165f03610a58575060645b80610a6281612927565b9150508163ffffffff168163ffffffff1603610a2257505f9392505050565b5f815f03610a9057505f919050565b81600103610abf57507f18dfb8dc9b82229cff974efefc8df78b1ce96d9d844236b496785c698bc6732e919050565b81600203610aee57507f2c0d184fc7a25c124a27a67b2c46220b039b1a5072c3b693a18ffee458f6425d919050565b81600303610b1d57507f268b2b93ac5fe540e618a378b8a71b8f2407232744d71e501ce8699980b306e5919050565b81600403610b4c57507f2d436f654e14cc4febcafdf4a753b149dd8c88a75df9e5d6707e83a853b5f791919050565b81600503610b7b57507f0b66fdef5a7f00f6fb45d1498b4d7131218e69ccf0a2751b6a1fb1bcd982867d919050565b81600603610baa57507f1d542b476c671bb6f0d2ab2939335d7cbad03476f1e3bcba70973b1adfe88b91919050565b81600703610bd957507f0680c6388c5798caf80642a1e84316b8b2f7caa99da076f3057d2962a46c5358919050565b81600803610c0857507f03c53ce5296e3e895171f89aa09f84214e3fb0755fe7a423b87888e4b3d731b8919050565b81600903610c3757507f2dd4e2510b33275359bba6edf72e6bdacad259950b024b2cc19d63c3a5b761df919050565b81600a03610c6657507f11cb221f69d954d521fb5393767e77fe4d14133757a706b318e62fa984f98157919050565b81600b03610c9557507f039d78bac8f890788eefe39af15eee5825056648f99210054fd03c25213f4de7919050565b81600c03610cc457507f0c55b828a83062a77d2b3e0a66bbb50cb6040990d9f368da8b24c0e82b692349919050565b81600d03610cf357507f24c866ac88715851268d808487e20e6986084fc222d7188e2a8e0f5b9f8457ef919050565b81600e03610d2257507f0f6a94e437b9dfb35cdedf41e2e154c3ae449b7c04c13add0996a7b53cde5400919050565b81600f03610d5157507f22afe7696b87cb782742e2d3ecb0f749a9beefbbb2159d178b09000e55b22cab919050565b81601003610d8057507f121b01164d32e9ab841ba8f5602b0ec58b576e62552c96911d4d988d49468cdd919050565b81601103610daf57507f05f3810707b1336c953b7db191215dab2b5772f93025aa345b954b43135b627b919050565b81601203610dde57507f287515b2d5975c74e3fd85a20d68611a463ffe605a1c54d8140ab16d1b77f57b919050565b81601303610e0d57507f276ff13fde3afa1adb26149ddc3aa67240d603b6a91da5e494c8e58706381a38919050565b81601403610e3c57507f3039bcb20f03fd9c8650138ef2cfe643edeed152f9c20999f43aeed54d79e387919050565b81601503610e6b57507f087e5af439450ef09ce6f12a47571971d83309bb6fd1e280c29baf69257f8a4f919050565b81601603610e9a57507f1821495b1919fa5439ae4a314ff98843067381a3c015f744592bfd64101def1d919050565b81601703610ec957507f25789f32f958568364c8139771d7864d93f97efb5bbb87cce1959e7e7443ac80919050565b81601803610ef857507f25ad0850411551115fd697c4d91668f92dde52421be59650357cd50363880543919050565b81601903610f2757507f10b604f35a902419a0fdcf8ee57123e92f0d650ab009b5105916cac7813c9137919050565b81601a03610f5657507f1bb07b96cdddee486afb20c78a3b82208cb80d2c55e596896fa1879164a751db919050565b81601b03610f8557507f04ab93e9c494b67162063e77960cd36f4e3e5cdee5388a603dc55a03875c72bb919050565b81601c03610fb457507f0f9e7f4ad948e7e487831c37fef6e032d66ab2cd3d742d024274612a86cc55ed919050565b81601d03610fe357507f2f1c6920644cd674376a6d3ba4fd3cbe3a571685af0d9ab28e1461e4c1d6fc0a919050565b81601e0361101257507f0de2cd9dffe1e710647fdc179884bd0367276612ef83d2aeea0f7d8aecb9c3d7919050565b81601f0361104057507e77ed17dad4b561a9b4a21cf58720ef0c057699fec72b92f2ca26fdf6b48a83919050565b60405162461bcd60e51b8152602060048201526013602482015272496e646578206f7574206f6620626f756e647360681b6044820152606401610587565b6110866113c8565b60025f516020612b335f395f51905f5255565b6003545f8054909163ffffffff6401000000009091048116916110be91166002612a57565b63ffffffff168163ffffffff16036111315760405162461bcd60e51b815260206004820152603060248201527f4d65726b6c6520747265652069732066756c6c2e204e6f206d6f7265206c656160448201526f1d995cc818d85b88189948185919195960821b6064820152608401610587565b80835f80805b5f5463ffffffff90811690821610156111cd57611155600286612a82565b63ffffffff165f03611191578392506111738163ffffffff16610a81565b63ffffffff82165f90815260016020526040902085905591506111ac565b63ffffffff81165f9081526001602052604090205492508391505b6111b6838361052e565b93506111c3600286612aa9565b9450600101611137565b506003545f906064906111e79063ffffffff166001612ad0565b6111f19190612a82565b6003805463ffffffff191663ffffffff83169081179091555f9081526002602052604090208590559050611226866001612ad0565b6003805463ffffffff929092166401000000000267ffffffff000000001990921691909117905550939695505050505050565b341561129a5760405162461bcd60e51b815260206004820152601060248201526f115512081b9bdd081858d8d95c1d195960821b6044820152606401610587565b6112cf6001600160a01b037f0000000000000000000000000000000000000000000000000000000000000000163330846113f9565b50565b5f6112db61267b565b6112f25f516020612b135f395f51905f5285612aec565b815261130b5f516020612b135f395f51905f5284612aec565b60208201525f6040820181905260608201526113268161142f565b519392505050565b61136d8461133c8385612aff565b6001600160a01b037f00000000000000000000000000000000000000000000000000000000000000001691906121ce565b80156113c2575f6001600160a01b038416611388573361138a565b835b90506113c06001600160a01b037f00000000000000000000000000000000000000000000000000000000000000001682846121ce565b505b50505050565b5f516020612b335f395f51905f52546002036113f757604051633ee5aeb560e01b815260040160405180910390fd5b565b611407848484846001612208565b6113c257604051635274afe760e01b81526001600160a01b0385166004820152602401610587565b61143881612275565b6114c5817f19b849f69450b06848da1d39bd5e4a4302bb86744edc26238b0878e269ed23e57f265ddfe127dd51bd7239347b758f0a1320eb2cc7450acc1dad47f80c8dcf34d67f199750ec472f1809e0f66a545e1e51624108ac845015c2aa3dfc36bab497d8aa7f157ff3fe65ac7208110f06a5f74302b14d743ea25067f0ffd032f787c7f1cdf86123ac565b611552817f2e49c43c4569dd9c5fd35ac45fca33f10b15c590692f8beefe18f4896ac949027f0e35fb89981890520d4aef2b6d6506c3cb2f0b6973c24fa82731345ffa2d1f1e7f251ad47cb15c4f1105f109ae5e944f1ba9d9e7806d667ffec6fe723002e0b9967f13da07dc64d428369873e97160234641f8beb56fdd05e5f3563fa39d9c22df4e6123ac565b6115df817f0c009b84e650e6d23dc00c7dccef7483a553939689d350cd46e7b89055fd47387f011f16b1c63a854f01992e3956f42d8b04eb650c6d535eb0203dec74befdca067f0ed69e5e383a688f209d9a561daa79612f3f78d0467ad45485df07093f3675497f04dba94a7b0ce9e221acad41472b6bbe3aec507f5eb3d33f463672264c9f789b6123ac565b61166c817f0a3f2637d840f3a16eb094271c9d237b6036757d4bb50bf7ce732ff1d4fa28e87f259a666f129eea198f8a1c502fdb38fa39b1f075569564b6e54a485d1182323f7f28bf7459c9b2f4c6d8e7d06a4ee3a47f7745d4271038e5157a32fdf7ede0d6a17f0a1ca941f057037526ea200f489be8d4c37c85bbcce6a2aeec91bd69414324476123ac565b611696817f0c6f8f958be0e93053d7fd4fc54512855535ed1539f051dcb43a26fd926361cf612461565b6116c0817f123106a93cd17578d426e8128ac9d90aa9e8a00708e296e084dd57e69caaf811612461565b6116ea817f26e1ba52ad9285d97dd3ab52f8e840085e8fa83ff1e8f1877b074867cd2dee75612461565b611714817f1cb55cad7bd133de18a64c5c47b9c97cbe4d8b7bf9e095864471537e6a4ae2c5612461565b61173e817f1dcd73e46acd8f8e0e2c7ce04bde7f6d2a53043d5060a41c7143f08e6e9055d0612461565b611768817f011003e32f6d9c66f5852f05474a4def0cda294a0eb4e9b9b12b9bb4512e5574612461565b611792817f2b1e809ac1d10ab29ad5f20d03a57dfebadfe5903f58bafed7c508dd2287ae8c612461565b6117bc817f2539de1785b735999fb4dac35ee17ed0ef995d05ab2fc5faeaa69ae87bcec0a5612461565b6117e6817f0c246c5a2ef8ee0126497f222b3e0a0ef4e1c3d41c86d46e43982cb11d77951d612461565b611810817f192089c4974f68e95408148f7c0632edbb09e6a6ad1a1c2f3f0305f5d03b527b612461565b61183a817f1eae0ad8ab68b2f06a0ee36eeb0d0c058529097d91096b756d8fdc2fb5a60d85612461565b611864817f179190e5d0e22179e46f8282872abc88db6e2fdc0dee99e69768bd98c5d06bfb612461565b61188e817f29bb9e2c9076732576e9a81c7ac4b83214528f7db00f31bf6cafe794a9b3cd1c612461565b6118b8817f225d394e42207599403efd0c2464a90d52652645882aac35b10e590e6e691e08612461565b6118e2817f064760623c25c8cf753d238055b444532be13557451c087de09efd454b23fd59612461565b61190c817f10ba3a0e01df92e87f301c4b716d8a394d67f4bf42a75c10922910a78f6b5b87612461565b611936817f0e070bf53f8451b24f9c6e96b0c2a801cb511bc0c242eb9d361b77693f21471c612461565b611960817f1b94cd61b051b04dd39755ff93821a73ccd6cb11d2491d8aa7f921014de252fb612461565b61198a817f1d7cb39bafb8c744e148787a2e70230f9d4e917d5713bb050487b5aa7d74070b612461565b6119b4817f2ec93189bd1ab4f69117d0fe980c80ff8785c2961829f701bb74ac1f303b17db612461565b6119de817f2db366bfdd36d277a692bb825b86275beac404a19ae07a9082ea46bd83517926612461565b611a08817f062100eb485db06269655cf186a68532985275428450359adc99cec6960711b8612461565b611a32817f0761d33c66614aaa570e7f1e8244ca1120243f92fa59e4f900c567bf41f5a59b612461565b611a5c817f20fc411a114d13992c2705aa034e3f315d78608a0f7de4ccf7a72e494855ad0d612461565b611a86817f25b5c004a4bdfcb5add9ec4e9ab219ba102c67e8b3effb5fc3a30f317250bc5a612461565b611ab0817f23b1822d278ed632a494e58f6df6f5ed038b186d8474155ad87e7dff62b37f4b612461565b611ada817f22734b4c5c3f9493606c4ba9012499bf0f14d13bfcfcccaa16102a29cc2f69e0612461565b611b04817f26c0c8fe09eb30b7e27a74dc33492347e5bdff409aa3610254413d3fad795ce5612461565b611b2e817f070dd0ccb6bd7bbae88eac03fa1fbb26196be3083a809829bbd626df348ccad9612461565b611b58817f12b6595bdb329b6fb043ba78bb28c3bec2c0a6de46d8c5ad6067c4ebfd4250da612461565b611b82817f248d97d7f76283d63bec30e7a5876c11c06fca9b275c671c5e33d95bb7e8d729612461565b611bac817f1a306d439d463b0816fc6fd64cc939318b45eb759ddde4aa106d15d9bd9baaaa612461565b611bd6817f28a8f8372e3c38daced7c00421cb4621f4f1b54ddc27821b0d62d3d6ec7c56cf612461565b611bff817e94975717f9a8a8bb35152f24d43294071ce320c829f388bc852183e1e2ce7e612461565b611c29817f04d5ee4c3aa78f7d80fde60d716480d3593f74d4f653ae83f4103246db2e8d65612461565b611c53817f2a6cf5e9aa03d4336349ad6fb8ed2269c7bef54b8822cc76d08495c12efde187612461565b611c7d817f2304d31eaab960ba9274da43e19ddeb7f792180808fd6e43baae48d7efcba3f3612461565b611ca7817f03fd9ac865a4b2a6d5e7009785817249bff08a7e0726fcb4e1c11d39d199f0b0612461565b611cd0817eb7258ded52bbda2248404d55ee5044798afc3a209193073f7954d4d63b0b64612461565b611cfa817f159f81ada0771799ec38fca2d4bf65ebb13d3a74f3298db36272c5ca65e92d9a612461565b611d24817f1ef90e67437fbc8550237a75bc28e3bb9000130ea25f0c5471e144cf4264431f612461565b611d4e817f1e65f838515e5ff0196b49aa41a2d2568df739bc176b08ec95a79ed82932e30d612461565b611d78817f2b1b045def3a166cec6ce768d079ba74b18c844e570e1f826575c1068c94c33f612461565b611da2817f0832e5753ceb0ff6402543b1109229c165dc2d73bef715e3f1c6e07c168bb173612461565b611dcc817f02f614e9cedfb3dc6b762ae0a37d41bab1b841c2e8b6451bc5a8e3c390b6ad16612461565b611df6817f0e2427d38bd46a60dd640b8e362cad967370ebb777bedff40f6a0be27e7ed705612461565b611e20817f0493630b7c670b6deb7c84d414e7ce79049f0ec098c3c7c50768bbe29214a53a612461565b611e4a817f22ead100e8e482674decdab17066c5a26bb1515355d5461a3dc06cc85327cea9612461565b611e74817f25b3e56e655b42cdaae2626ed2554d48583f1ae35626d04de5084e0b6d2a6f16612461565b611e9e817f1e32752ada8836ef5837a6cde8ff13dbb599c336349e4c584b4fdc0a0cf6f9d0612461565b611ec8817f2fa2a871c15a387cc50f68f6f3c3455b23c00995f05078f672a9864074d412e5612461565b611ef2817f2f569b8a9a4424c9278e1db7311e889f54ccbf10661bab7fcd18e7c7a7d83505612461565b611f1c817f044cb455110a8fdd531ade530234c518a7df93f7332ffd2144165374b246b43d612461565b611f46817f227808de93906d5d420246157f2e42b191fe8c90adfe118178ddc723a5319025612461565b611f70817f02fcca2934e046bc623adead873579865d03781ae090ad4a8579d2e7a6800355612461565b611f9a817f0ef915f0ac120b876abccceb344a1d36bad3f3c5ab91a8ddcbec2e060d8befac612461565b612027817f1797130f4b7a3e1777eb757bc6f287f6ab0fb85f6be63b09f3b16ef2b1405d387f0a76225dc04170ae3306c85abab59e608c7f497c20156d4d36c668555decc6e57f1fffb9ec1992d66ba1e77a7b93209af6f8fa76d48acb664796174b5326a31a5c7f25721c4fc15a3f2853b57c338fa538d85f8fbba6c6b9c6090611889b797b9c5f6123ac565b6120b4817f0c817fd42d5f7a41215e3d07ba197216adb4c3790705da95eb63b982bfcaf75a7f13abe3f5239915d39f7e13c2c24970b6df8cf86ce00a22002bc15866e52b5a967f2106feea546224ea12ef7f39987a46c85c1bc3dc29bdbd7a92cd60acb4d391ce7f21ca859468a746b6aaa79474a37dab49f1ca5a28c748bc7157e1b3345bb0f9596123ac565b612141817f05ccd6255c1e6f0c5cf1f0df934194c62911d14d0321662a8f1a48999e34185b7f0f0e34a64b70a626e464d846674c4c8816c4fb267fe44fe6ea28678cb09490a47f0558531a4e25470c6157794ca36d0e9647dbfcfe350d64838f5b1a8a2de0d4bf7f09d3dca9173ed2faceea125157683d18924cadad3f655a60b72f5864961f14556123ac565b6112cf817f0328cbd54e8c0913493f866ed03d218bf23f92d68aaec48617d4c722e5bd43357f2bf07216e2aff0a223a487b1a7094e07e79e7bcc9798c648ee3347dd5329d34b7f1daf345a58006b736499c583cb76c316d6f78ed6a6dffc82111e11a63fe412df7f176563472456aaa746b694c60e1823611ef39039b2edc7ff391e6f2293d2c4046123ac565b6121db838383600161248c565b61220357604051635274afe760e01b81526001600160a01b0384166004820152602401610587565b505050565b6040516323b872dd60e01b5f8181526001600160a01b038781166004528616602452604485905291602083606481808c5af1925060015f51148316612264578383151615612258573d5f823e3d81fd5b5f883b113d1516831692505b604052505f60605295945050505050565b602081015181515f915f516020612b135f395f51905f52910890505f5f516020612b135f395f51905f52836003602002015184600260200201510860208401519091505f905f516020612b135f395f51905f52908390829080080860608501519091505f905f516020612b135f395f51905f52908590829080080890505f5f516020612b135f395f51905f5284850890505f516020612b135f395f51905f5281820890505f516020612b135f395f51905f5282820890505f5f516020612b135f395f51905f5286870890505f516020612b135f395f51905f5281820890505f516020612b135f395f51905f5284820890505f5f516020612b135f395f51905f5282850890505f5f516020612b135f395f51905f52848708918952506020880191909152604087015260609095019490945250505050565b84515f516020612b135f395f51905f5290859008855260208501515f516020612b135f395f51905f5290849008602086015260408501515f516020612b135f395f51905f5290839008604086015260608501515f516020612b135f395f51905f52908290086060860152612426855f5b60200201516124ee565b855261243385600161241c565b602086015261244385600261241c565b604086015261245385600361241c565b60608601526113c085612275565b81515f516020612b135f395f51905f52908290088252612481825f61241c565b825261052a82612530565b60405163a9059cbb60e01b5f8181526001600160a01b038616600452602485905291602083604481808b5af1925060015f511483166124e25783831516156124d6573d5f823e3d81fd5b5f873b113d1516831692505b60405250949350505050565b5f805f516020612b135f395f51905f5283840990505f5f516020612b135f395f51905f5282830990505f516020612b135f395f51905f52848209949350505050565b5f5f516020612b135f395f51905f52808360036020020151846002602002015108602084015184515f516020612b135f395f51905f529190080890505f516020612b135f395f51905f52815f516020612b135f395f51905f52845f60200201517f10dc6e9c006ea38b04b1e03b4bd9490c0d03f98929ca1d7fb56821fd19d3b6e70908825260208201515f516020612b135f395f51905f5290829082907f0c28145b6a44df3e0149b3d0a30b3bb599df9756d4dd9b84a86b38cfb45a740b0908602083015260408201515f516020612b135f395f51905f5290829082907e544b8338791518b2c7645a50392798b21f75bb60e3596170067d00141cac150908604083015260608201515f516020612b135f395f51905f5290829082907f222c01175718386f2e2e82eb122789e352e105a3b8fa852613bc534433ee428b090882600360200201525050565b60405180608001604052806004906020820280368337509192915050565b5f602082840312156126a9575f5ffd5b5035919050565b5f5f604083850312156126c1575f5ffd5b50508035926020909101359150565b5f5f602083850312156126e1575f5ffd5b823567ffffffffffffffff8111156126f7575f5ffd5b8301601f81018513612707575f5ffd5b803567ffffffffffffffff81111561271d575f5ffd5b8560208260051b8401011115612731575f5ffd5b6020919091019590945092505050565b602080825282518282018190525f918401906040840190835b8181101561277a578351151583526020938401939092019160010161275a565b509095945050505050565b80356001600160a01b0381168114610609575f5ffd5b5f5f5f5f5f5f5f5f60e0898b0312156127b2575f5ffd5b883567ffffffffffffffff8111156127c8575f5ffd5b8901601f81018b136127d8575f5ffd5b803567ffffffffffffffff8111156127ee575f5ffd5b8b60208284010111156127ff575f5ffd5b60209182019950975089013595506040890135945061282060608a01612785565b93506080890135925061283560a08a01612785565b979a969950949793969295919450919260c001359150565b634e487b7160e01b5f52604160045260245ffd5b634e487b7160e01b5f52603260045260245ffd5b60408152826040820152828460608301375f606084830101525f601f19601f85011682016060810160608483030160208501528085518083526080840191506020870193505f92505b808310156128e157835182526020820191506020840193506001830192506128be565b50979650505050505050565b5f602082840312156128fd575f5ffd5b8151801515811461290c575f5ffd5b9392505050565b634e487b7160e01b5f52601160045260245ffd5b5f63ffffffff82168061293c5761293c612913565b5f190192915050565b6001815b60018411156129805780850481111561296457612964612913565b600184161561297257908102905b60019390931c928002612949565b935093915050565b5f8261299657506001610603565b816129a257505f610603565b81600181146129b857600281146129c2576129f3565b6001915050610603565b60ff8411156129d3576129d3612913565b6001841b915063ffffffff8211156129ed576129ed612913565b50610603565b5060208310610133831016604e8410600b8410161715612a2a575081810a63ffffffff811115612a2557612a25612913565b610603565b612a3963ffffffff8484612945565b8063ffffffff04821115612a4f57612a4f612913565b029392505050565b5f61060063ffffffff841663ffffffff8416612988565b634e487b7160e01b5f52601260045260245ffd5b5f63ffffffff831680612a9757612a97612a6e565b8063ffffffff84160691505092915050565b5f63ffffffff831680612abe57612abe612a6e565b8063ffffffff84160491505092915050565b63ffffffff818116838216019081111561060357610603612913565b5f82612afa57612afa612a6e565b500690565b818103818111156106035761060361291356fe30644e72e131a029b85045b68181585d2833e84879b9709143e1f593f00000019b779b17422d0df92223018b32b4d1fa46e071723d6817e2486d003becc55f00a2646970667358221220ec013f1715e31af2a27f7065446f2e09b3b97415e1c1f08284003bff280df47964736f6c634300081b0033","linkReferences":{}},"methodIdentifiers":{"DENOM_LARGE()":"b269d812","DENOM_MEDIUM()":"38d1b172","DENOM_SMALL()":"0ffe92ea","FIELD_SIZE()":"414a37ba","ROOT_HISTORY_SIZE()":"cd87a3b4","SNARK_SCALAR_FIELD()":"25c2cd12","ZERO_VALUE()":"ec732959","commitments(bytes32)":"839df945","currentRootIndex()":"90eeb02b","deposit(bytes32,uint256)":"1de26e16","filledSubtrees(uint256)":"f178e47c","getLastRoot()":"ba70f757","getLeafCount()":"d3ea6125","getRoot()":"5ca1e165","hashLeftRight(uint256,uint256)":"5bb93995","isKnownRoot(uint256)":"a6232a93","isSpent(bytes32)":"e5285dcc","isSpentArray(bytes32[])":"9fa12d0b","levels()":"4ecf518b","nextIndex()":"fc7e9c6f","nullifierHashes(bytes32)":"17cc915c","roots(uint256)":"c2b40ae4","token()":"fc0c546a","verifier()":"2b7ac3f3","withdraw(bytes,bytes32,bytes32,address,uint256,address,uint256)":"a366184a","zeros(uint256)":"e8295588"},"id":46}