{"abi":[{"type":"constructor","inputs":[{"name":"_verifier","type":"address","internalType":"address"},{"name":"_token","type":"address","internalType":"address"},{"name":"_feeManager","type":"address","internalType":"address"},{"name":"_denomination","type":"uint256","internalType":"uint256"},{"name":"_depositCap","type":"uint256","internalType":"uint256"}],"stateMutability":"nonpayable"},{"type":"function","name":"FIELD_SIZE","inputs":[],"outputs":[{"name":"","type":"uint256","internalType":"uint256"}],"stateMutability":"view"},{"type":"function","name":"GUARDED_PERIOD","inputs":[],"outputs":[{"name":"","type":"uint256","internalType":"uint256"}],"stateMutability":"view"},{"type":"function","name":"ROOT_HISTORY_SIZE","inputs":[],"outputs":[{"name":"","type":"uint32","internalType":"uint32"}],"stateMutability":"view"},{"type":"function","name":"SNARK_SCALAR_FIELD","inputs":[],"outputs":[{"name":"","type":"uint256","internalType":"uint256"}],"stateMutability":"view"},{"type":"function","name":"ZERO_VALUE","inputs":[],"outputs":[{"name":"","type":"uint256","internalType":"uint256"}],"stateMutability":"view"},{"type":"function","name":"commitments","inputs":[{"name":"","type":"bytes32","internalType":"bytes32"}],"outputs":[{"name":"","type":"bool","internalType":"bool"}],"stateMutability":"view"},{"type":"function","name":"currentRootIndex","inputs":[],"outputs":[{"name":"","type":"uint32","internalType":"uint32"}],"stateMutability":"view"},{"type":"function","name":"currentTVL","inputs":[],"outputs":[{"name":"","type":"uint256","internalType":"uint256"}],"stateMutability":"view"},{"type":"function","name":"denomination","inputs":[],"outputs":[{"name":"","type":"uint256","internalType":"uint256"}],"stateMutability":"view"},{"type":"function","name":"deposit","inputs":[{"name":"commitment","type":"bytes32","internalType":"bytes32"}],"outputs":[],"stateMutability":"nonpayable"},{"type":"function","name":"depositCap","inputs":[],"outputs":[{"name":"","type":"uint256","internalType":"uint256"}],"stateMutability":"view"},{"type":"function","name":"feeManager","inputs":[],"outputs":[{"name":"","type":"address","internalType":"contract IFeeManager"}],"stateMutability":"view"},{"type":"function","name":"filledSubtrees","inputs":[{"name":"","type":"uint256","internalType":"uint256"}],"outputs":[{"name":"","type":"uint256","internalType":"uint256"}],"stateMutability":"view"},{"type":"function","name":"getLastRoot","inputs":[],"outputs":[{"name":"","type":"uint256","internalType":"uint256"}],"stateMutability":"view"},{"type":"function","name":"getRoot","inputs":[],"outputs":[{"name":"","type":"bytes32","internalType":"bytes32"}],"stateMutability":"view"},{"type":"function","name":"guardian","inputs":[],"outputs":[{"name":"","type":"address","internalType":"address"}],"stateMutability":"view"},{"type":"function","name":"hashLeftRight","inputs":[{"name":"_left","type":"uint256","internalType":"uint256"},{"name":"_right","type":"uint256","internalType":"uint256"}],"outputs":[{"name":"","type":"uint256","internalType":"uint256"}],"stateMutability":"pure"},{"type":"function","name":"isKnownRoot","inputs":[{"name":"_root","type":"uint256","internalType":"uint256"}],"outputs":[{"name":"","type":"bool","internalType":"bool"}],"stateMutability":"view"},{"type":"function","name":"isSpent","inputs":[{"name":"_nullifierHash","type":"bytes32","internalType":"bytes32"}],"outputs":[{"name":"","type":"bool","internalType":"bool"}],"stateMutability":"view"},{"type":"function","name":"launchStartTime","inputs":[],"outputs":[{"name":"","type":"uint256","internalType":"uint256"}],"stateMutability":"view"},{"type":"function","name":"levels","inputs":[],"outputs":[{"name":"","type":"uint32","internalType":"uint32"}],"stateMutability":"view"},{"type":"function","name":"nextIndex","inputs":[],"outputs":[{"name":"","type":"uint32","internalType":"uint32"}],"stateMutability":"view"},{"type":"function","name":"nullifierHashes","inputs":[{"name":"","type":"bytes32","internalType":"bytes32"}],"outputs":[{"name":"","type":"bool","internalType":"bool"}],"stateMutability":"view"},{"type":"function","name":"owner","inputs":[],"outputs":[{"name":"","type":"address","internalType":"address"}],"stateMutability":"view"},{"type":"function","name":"pause","inputs":[],"outputs":[],"stateMutability":"nonpayable"},{"type":"function","name":"paused","inputs":[],"outputs":[{"name":"","type":"bool","internalType":"bool"}],"stateMutability":"view"},{"type":"function","name":"renounceOwnership","inputs":[],"outputs":[],"stateMutability":"nonpayable"},{"type":"function","name":"roots","inputs":[{"name":"","type":"uint256","internalType":"uint256"}],"outputs":[{"name":"","type":"uint256","internalType":"uint256"}],"stateMutability":"view"},{"type":"function","name":"setGuardian","inputs":[{"name":"_guardian","type":"address","internalType":"address"}],"outputs":[],"stateMutability":"nonpayable"},{"type":"function","name":"token","inputs":[],"outputs":[{"name":"","type":"address","internalType":"contract IERC20"}],"stateMutability":"view"},{"type":"function","name":"transferOwnership","inputs":[{"name":"newOwner","type":"address","internalType":"address"}],"outputs":[],"stateMutability":"nonpayable"},{"type":"function","name":"unpause","inputs":[],"outputs":[],"stateMutability":"nonpayable"},{"type":"function","name":"updateDepositCap","inputs":[{"name":"_newCap","type":"uint256","internalType":"uint256"}],"outputs":[],"stateMutability":"nonpayable"},{"type":"function","name":"verifier","inputs":[],"outputs":[{"name":"","type":"address","internalType":"contract IHonkVerifier"}],"stateMutability":"view"},{"type":"function","name":"withdraw","inputs":[{"name":"proof","type":"bytes","internalType":"bytes"},{"name":"root","type":"bytes32","internalType":"bytes32"},{"name":"nullifierHash","type":"bytes32","internalType":"bytes32"},{"name":"recipient","type":"address","internalType":"address"},{"name":"relayer","type":"address","internalType":"address"},{"name":"fee","type":"uint256","internalType":"uint256"},{"name":"token","type":"address","internalType":"address"}],"outputs":[],"stateMutability":"nonpayable"},{"type":"function","name":"withdrawPaused","inputs":[],"outputs":[{"name":"","type":"bool","internalType":"bool"}],"stateMutability":"view"},{"type":"function","name":"zeros","inputs":[{"name":"i","type":"uint256","internalType":"uint256"}],"outputs":[{"name":"","type":"uint256","internalType":"uint256"}],"stateMutability":"pure"},{"type":"event","name":"Deposit","inputs":[{"name":"commitment","type":"bytes32","indexed":true,"internalType":"bytes32"},{"name":"leafIndex","type":"uint32","indexed":false,"internalType":"uint32"},{"name":"timestamp","type":"uint256","indexed":false,"internalType":"uint256"}],"anonymous":false},{"type":"event","name":"DepositCapUpdated","inputs":[{"name":"newCap","type":"uint256","indexed":false,"internalType":"uint256"}],"anonymous":false},{"type":"event","name":"EmergencyPause","inputs":[{"name":"depositsPaused","type":"bool","indexed":false,"internalType":"bool"},{"name":"withdrawsPaused","type":"bool","indexed":false,"internalType":"bool"}],"anonymous":false},{"type":"event","name":"GuardianUpdated","inputs":[{"name":"newGuardian","type":"address","indexed":false,"internalType":"address"}],"anonymous":false},{"type":"event","name":"OwnershipTransferred","inputs":[{"name":"previousOwner","type":"address","indexed":true,"internalType":"address"},{"name":"newOwner","type":"address","indexed":true,"internalType":"address"}],"anonymous":false},{"type":"event","name":"Withdrawal","inputs":[{"name":"to","type":"address","indexed":false,"internalType":"address"},{"name":"nullifierHash","type":"bytes32","indexed":false,"internalType":"bytes32"},{"name":"relayer","type":"address","indexed":true,"internalType":"address"},{"name":"fee","type":"uint256","indexed":false,"internalType":"uint256"}],"anonymous":false},{"type":"error","name":"CommitmentAlreadyExists","inputs":[]},{"type":"error","name":"CommitmentOutOfField","inputs":[]},{"type":"error","name":"DepositCapExceeded","inputs":[]},{"type":"error","name":"FeeTooHigh","inputs":[]},{"type":"error","name":"InvalidDenomination","inputs":[]},{"type":"error","name":"InvalidGuardian","inputs":[]},{"type":"error","name":"InvalidRoot","inputs":[]},{"type":"error","name":"NullifierAlreadySpent","inputs":[]},{"type":"error","name":"OwnableInvalidOwner","inputs":[{"name":"owner","type":"address","internalType":"address"}]},{"type":"error","name":"OwnableUnauthorizedAccount","inputs":[{"name":"account","type":"address","internalType":"address"}]},{"type":"error","name":"Paused","inputs":[]},{"type":"error","name":"ProofVerificationFailed","inputs":[]},{"type":"error","name":"ReentrancyGuardReentrantCall","inputs":[]},{"type":"error","name":"SafeERC20FailedOperation","inputs":[{"name":"token","type":"address","internalType":"address"}]},{"type":"error","name":"Unauthorized","inputs":[]},{"type":"error","name":"WithdrawPaused","inputs":[]},{"type":"error","name":"ZeroRecipient","inputs":[]}],"bytecode":{"object":"0x60e0604052600380546001600160401b031916905534801561001f575f5ffd5b50604051613d73380380613d7383398101604081905261003e916108fe565b848282336014610052565b60405180910390fd5b60208163ffffffff16106100a85760405162461bcd60e51b815260206004820152601e60248201527f5f6c6576656c732073686f756c64206265206c657373207468616e20333200006044820152606401610049565b5f805463ffffffff191663ffffffff83161781555b8163ffffffff168163ffffffff161015610101576100e063ffffffff821661027a565b63ffffffff82165f90815260016020819052604090912091909155016100bd565b5061011b610110600183610950565b63ffffffff1661027a565b5f805260026020527fac33ff75c19e70fe83507db0d683fd3465c996598dc972688b7ace676c89077b555060017f9b779b17422d0df92223018b32b4d1fa46e071723d6817e2486d003becc55f00556001600160a01b03811661019357604051631e4fbdf760e01b81525f6004820152602401610049565b61019c81610881565b506001600160a01b0392831660805260a091909152600655426008556009805462010000600160b01b031916336201000002179055841661020c5760405162461bcd60e51b815260206004820152600a6024820152693d32b937903a37b5b2b760b11b6044820152606401610049565b5f821161024f5760405162461bcd60e51b81526020600482015260116024820152703d32b937903232b737b6b4b730ba34b7b760791b6044820152606401610049565b50506001600160a01b0391821660c052600a80546001600160a01b031916919092161790555061097e565b5f815f0361028957505f919050565b816001036102b857507f18dfb8dc9b82229cff974efefc8df78b1ce96d9d844236b496785c698bc6732e919050565b816002036102e757507f2c0d184fc7a25c124a27a67b2c46220b039b1a5072c3b693a18ffee458f6425d919050565b8160030361031657507f268b2b93ac5fe540e618a378b8a71b8f2407232744d71e501ce8699980b306e5919050565b8160040361034557507f2d436f654e14cc4febcafdf4a753b149dd8c88a75df9e5d6707e83a853b5f791919050565b8160050361037457507f0b66fdef5a7f00f6fb45d1498b4d7131218e69ccf0a2751b6a1fb1bcd982867d919050565b816006036103a357507f1d542b476c671bb6f0d2ab2939335d7cbad03476f1e3bcba70973b1adfe88b91919050565b816007036103d257507f0680c6388c5798caf80642a1e84316b8b2f7caa99da076f3057d2962a46c5358919050565b8160080361040157507f03c53ce5296e3e895171f89aa09f84214e3fb0755fe7a423b87888e4b3d731b8919050565b8160090361043057507f2dd4e2510b33275359bba6edf72e6bdacad259950b024b2cc19d63c3a5b761df919050565b81600a0361045f57507f11cb221f69d954d521fb5393767e77fe4d14133757a706b318e62fa984f98157919050565b81600b0361048e57507f039d78bac8f890788eefe39af15eee5825056648f99210054fd03c25213f4de7919050565b81600c036104bd57507f0c55b828a83062a77d2b3e0a66bbb50cb6040990d9f368da8b24c0e82b692349919050565b81600d036104ec57507f24c866ac88715851268d808487e20e6986084fc222d7188e2a8e0f5b9f8457ef919050565b81600e0361051b57507f0f6a94e437b9dfb35cdedf41e2e154c3ae449b7c04c13add0996a7b53cde5400919050565b81600f0361054a57507f22afe7696b87cb782742e2d3ecb0f749a9beefbbb2159d178b09000e55b22cab919050565b8160100361057957507f121b01164d32e9ab841ba8f5602b0ec58b576e62552c96911d4d988d49468cdd919050565b816011036105a857507f05f3810707b1336c953b7db191215dab2b5772f93025aa345b954b43135b627b919050565b816012036105d757507f287515b2d5975c74e3fd85a20d68611a463ffe605a1c54d8140ab16d1b77f57b919050565b8160130361060657507f276ff13fde3afa1adb26149ddc3aa67240d603b6a91da5e494c8e58706381a38919050565b8160140361063557507f3039bcb20f03fd9c8650138ef2cfe643edeed152f9c20999f43aeed54d79e387919050565b8160150361066457507f087e5af439450ef09ce6f12a47571971d83309bb6fd1e280c29baf69257f8a4f919050565b8160160361069357507f1821495b1919fa5439ae4a314ff98843067381a3c015f744592bfd64101def1d919050565b816017036106c257507f25789f32f958568364c8139771d7864d93f97efb5bbb87cce1959e7e7443ac80919050565b816018036106f157507f25ad0850411551115fd697c4d91668f92dde52421be59650357cd50363880543919050565b8160190361072057507f10b604f35a902419a0fdcf8ee57123e92f0d650ab009b5105916cac7813c9137919050565b81601a0361074f57507f1bb07b96cdddee486afb20c78a3b82208cb80d2c55e596896fa1879164a751db919050565b81601b0361077e57507f04ab93e9c494b67162063e77960cd36f4e3e5cdee5388a603dc55a03875c72bb919050565b81601c036107ad57507f0f9e7f4ad948e7e487831c37fef6e032d66ab2cd3d742d024274612a86cc55ed919050565b81601d036107dc57507f2f1c6920644cd674376a6d3ba4fd3cbe3a571685af0d9ab28e1461e4c1d6fc0a919050565b81601e0361080b57507f0de2cd9dffe1e710647fdc179884bd0367276612ef83d2aeea0f7d8aecb9c3d7919050565b81601f0361083957507e77ed17dad4b561a9b4a21cf58720ef0c057699fec72b92f2ca26fdf6b48a83919050565b60405162461bcd60e51b815260206004820152601360248201527f496e646578206f7574206f6620626f756e6473000000000000000000000000006044820152606401610049565b600380546001600160a01b0383811668010000000000000000818102600160401b600160e01b031985161790945560405193909204169182907f8be0079c531659141344cd1fd0a4f28419497f9722a3daafe3b4186f6b6457e0905f90a35050565b80516001600160a01b03811681146108f9575f5ffd5b919050565b5f5f5f5f5f60a08688031215610912575f5ffd5b61091b866108e3565b9450610929602087016108e3565b9350610937604087016108e3565b6060870151608090970151959894975095949392505050565b63ffffffff828116828216039081111561097857634e487b7160e01b5f52601160045260245ffd5b92915050565b60805160a05160c051613362610a115f395f818161050101528181611891015281816118d00152818161191301528181611aa301528181611ae601528181611b750152611bc801525f81816103b5015281816108960152818161097e015281816109b801528181610ae601528181610bb301528181610d500152610d8901525f81816102950152610c8301526133625ff3fe608060405234801561000f575f5ffd5b506004361061021e575f3560e01c80638da5cb5b1161012a578063d0fb0203116100b4578063ec73295911610079578063ec732959146104c3578063f178e47c146104ca578063f2fde38b146104e9578063fc0c546a146104fc578063fc7e9c6f14610523575f5ffd5b8063d0fb020314610468578063dbc0d4231461047b578063dbd5edc714610485578063e5285dcc1461048e578063e8295588146104b0575f5ffd5b8063b214faa5116100fa578063b214faa51461041b578063ba70f75714610346578063bc7c5f4b1461042e578063c2b40ae414610441578063cd87a3b414610460575f5ffd5b80638da5cb5b146103d757806390eeb02b146103ef578063a6232a93146103ff578063a95411e014610412575f5ffd5b80635bb93995116101ab5780637bb501ec1161017b5780637bb501ec1461036a578063839df945146103735780638456cb59146103955780638a0dac4a1461039d5780638bca6d16146103b0575f5ffd5b80635bb93995146103265780635c975abb146103395780635ca1e16514610346578063715018a614610362575f5ffd5b80632f3ffb9f116101f15780632f3ffb9f146102cf5780633f4ba83a146102e1578063414a37ba1461026e578063452a9320146102e95780634ecf518b14610302575f5ffd5b8063171e5e881461022257806317cc915c1461023757806325c2cd121461026e5780632b7ac3f314610290575b5f5ffd5b610235610230366004612eca565b61053b565b005b610259610245366004612eca565b60056020525f908152604090205460ff1681565b60405190151581526020015b60405180910390f35b6102825f5160206132ed5f395f51905f5281565b604051908152602001610265565b6102b77f000000000000000000000000000000000000000000000000000000000000000081565b6040516001600160a01b039091168152602001610265565b60095461025990610100900460ff1681565b61023561057f565b6009546102b7906201000090046001600160a01b031681565b5f546103119063ffffffff1681565b60405163ffffffff9091168152602001610265565b610282610334366004612ee1565b6105cd565b6009546102599060ff1681565b60035463ffffffff165f90815260026020526040902054610282565b6102356106ad565b61028260085481565b610259610381366004612eca565b60046020525f908152604090205460ff1681565b6102356106c0565b6102356103ab366004612f17565b610768565b6102827f000000000000000000000000000000000000000000000000000000000000000081565b600354600160401b90046001600160a01b03166102b7565b6003546103119063ffffffff1681565b61025961040d366004612eca565b6107ef565b61028260075481565b610235610429366004612eca565b610868565b61023561043c366004612f30565b610a37565b61028261044f366004612eca565b60026020525f908152604090205481565b610311606481565b600a546102b7906001600160a01b031681565b6102826276a70081565b61028260065481565b61025961049c366004612eca565b5f9081526005602052604090205460ff1690565b6102826104be366004612eca565b610e1f565b6102825f81565b6102826104d8366004612eca565b60016020525f908152604090205481565b6102356104f7366004612f17565b61141c565b6102b77f000000000000000000000000000000000000000000000000000000000000000081565b60035461031190640100000000900463ffffffff1681565b610543611456565b60068190556040518181527f333b26cca69716ad4680ddb07663f5bfb4f06045671f336af9a83690a3ae00f9906020015b60405180910390a150565b610587611456565b6009805461ffff19169055604080515f80825260208201527fda15e989e02798e0b63a6157a39cc71779d78c48dc9d8b643392aef18f20954b91015b60405180910390a1565b5f5f5160206132ed5f395f51905f52831061062f5760405162461bcd60e51b815260206004820181905260248201527f5f6c6566742073686f756c6420626520696e7369646520746865206669656c6460448201526064015b60405180910390fd5b5f5160206132ed5f395f51905f5282106106955760405162461bcd60e51b815260206004820152602160248201527f5f72696768742073686f756c6420626520696e7369646520746865206669656c6044820152601960fa1b6064820152608401610626565b61069f838361148b565b90505b92915050565b919050565b6106b5611456565b6106be5f6114e7565b565b6009546201000090046001600160a01b031633148015906107055750600354600160401b90046001600160a01b03166001600160a01b0316336001600160a01b031614155b156107235760405163a6c1146b60e01b815260040160405180910390fd5b6009805461ffff191661010117905560408051600180825260208201527fda15e989e02798e0b63a6157a39cc71779d78c48dc9d8b643392aef18f20954b91016105c3565b610770611456565b6001600160a01b0381166107975760405163a6c1146b60e01b815260040160405180910390fd5b6009805462010000600160b01b031916620100006001600160a01b038416908102919091179091556040519081527f6bb7ff33e730289800c62ad882105a144a74010d2bdbb9a942544a3005ad55bf90602001610574565b5f815f036107fe57505f919050565b60035463ffffffff16805b63ffffffff81165f90815260026020526040902054840361082e575060019392505050565b8063ffffffff165f0361083f575060645b8061084981612ffb565b9150508163ffffffff168163ffffffff160361080957505f9392505050565b610870611549565b60095460ff1615610894576040516313d0ff5960e31b815260040160405180910390fd5b7f00000000000000000000000000000000000000000000000000000000000000006276a7006008546108c69190613019565b4210156108fd57600654816007546108de9190613019565b11156108fd576040516324d758c360e21b815260040160405180910390fd5b5f5160206132ed5f395f51905f52821061092a57604051632e4eedd760e21b815260040160405180910390fd5b5f8281526004602052604090205460ff16156109595760405163145718a760e01b815260040160405180910390fd5b5f828152600460205260408120805460ff1916600117905561097a83611564565b90507f000000000000000000000000000000000000000000000000000000000000000060075f8282546109ad9190613019565b909155506109dc90507f0000000000000000000000000000000000000000000000000000000000000000611724565b6040805163ffffffff8316815242602082015284917fa945e51eec50ab98c161376f0db4cf2aeba3ec92755fe2fcd388bdbbb80ff196910160405180910390a25050610a3460015f51602061330d5f395f51905f5255565b50565b610a3f611549565b600954610100900460ff1615610a685760405163e0a3980360e01b815260040160405180910390fd5b6001600160a01b038416610a8f5760405163d27b444360e01b815260040160405180910390fd5b610a98866107ef565b610ab55760405163504570e360e01b815260040160405180910390fd5b5f8581526005602052604090205460ff1615610ae45760405163b115d85760e01b815260040160405180910390fd5b7f00000000000000000000000000000000000000000000000000000000000000008210610b245760405163cd4e616760e01b815260040160405180910390fd5b60408051600780825261010082019092525f916020820160e08036833701905050905085815f81518110610b5a57610b5a61302c565b6020026020010181815250508681600181518110610b7a57610b7a61302c565b602002602001018181525050846001600160a01b03165f1b81600281518110610ba557610ba561302c565b6020026020010181815250507f00000000000000000000000000000000000000000000000000000000000000005f1b81600381518110610be757610be761302c565b602002602001018181525050836001600160a01b03165f1b81600481518110610c1257610c1261302c565b602002602001018181525050825f1b81600581518110610c3457610c3461302c565b602002602001018181525050816001600160a01b03165f1b81600681518110610c5f57610c5f61302c565b6020908102919091010152604051633a94343960e21b81525f906001600160a01b037f0000000000000000000000000000000000000000000000000000000000000000169063ea50d0e490610cbc908d908d908790600401613040565b602060405180830381865afa925050508015610cf5575060408051601f3d908101601f19168201909252610cf2918101906130b8565b60015b610d1257604051631ac2386360e31b815260040160405180910390fd5b905080610d3257604051631ac2386360e31b815260040160405180910390fd5b5f878152600560205260408120805460ff19166001179055600780547f00000000000000000000000000000000000000000000000000000000000000009290610d7c9084906130de565b90915550610dae905086867f000000000000000000000000000000000000000000000000000000000000000087611980565b604080516001600160a01b038881168252602082018a9052918101869052908616907fe9e508bad6d4c3227e881ca19068f099da81b5164dd6d62b2eaf1e8bc6c349319060600160405180910390a25050610e1560015f51602061330d5f395f51905f5255565b5050505050505050565b5f815f03610e2e57505f919050565b81600103610e5d57507f18dfb8dc9b82229cff974efefc8df78b1ce96d9d844236b496785c698bc6732e919050565b81600203610e8c57507f2c0d184fc7a25c124a27a67b2c46220b039b1a5072c3b693a18ffee458f6425d919050565b81600303610ebb57507f268b2b93ac5fe540e618a378b8a71b8f2407232744d71e501ce8699980b306e5919050565b81600403610eea57507f2d436f654e14cc4febcafdf4a753b149dd8c88a75df9e5d6707e83a853b5f791919050565b81600503610f1957507f0b66fdef5a7f00f6fb45d1498b4d7131218e69ccf0a2751b6a1fb1bcd982867d919050565b81600603610f4857507f1d542b476c671bb6f0d2ab2939335d7cbad03476f1e3bcba70973b1adfe88b91919050565b81600703610f7757507f0680c6388c5798caf80642a1e84316b8b2f7caa99da076f3057d2962a46c5358919050565b81600803610fa657507f03c53ce5296e3e895171f89aa09f84214e3fb0755fe7a423b87888e4b3d731b8919050565b81600903610fd557507f2dd4e2510b33275359bba6edf72e6bdacad259950b024b2cc19d63c3a5b761df919050565b81600a0361100457507f11cb221f69d954d521fb5393767e77fe4d14133757a706b318e62fa984f98157919050565b81600b0361103357507f039d78bac8f890788eefe39af15eee5825056648f99210054fd03c25213f4de7919050565b81600c0361106257507f0c55b828a83062a77d2b3e0a66bbb50cb6040990d9f368da8b24c0e82b692349919050565b81600d0361109157507f24c866ac88715851268d808487e20e6986084fc222d7188e2a8e0f5b9f8457ef919050565b81600e036110c057507f0f6a94e437b9dfb35cdedf41e2e154c3ae449b7c04c13add0996a7b53cde5400919050565b81600f036110ef57507f22afe7696b87cb782742e2d3ecb0f749a9beefbbb2159d178b09000e55b22cab919050565b8160100361111e57507f121b01164d32e9ab841ba8f5602b0ec58b576e62552c96911d4d988d49468cdd919050565b8160110361114d57507f05f3810707b1336c953b7db191215dab2b5772f93025aa345b954b43135b627b919050565b8160120361117c57507f287515b2d5975c74e3fd85a20d68611a463ffe605a1c54d8140ab16d1b77f57b919050565b816013036111ab57507f276ff13fde3afa1adb26149ddc3aa67240d603b6a91da5e494c8e58706381a38919050565b816014036111da57507f3039bcb20f03fd9c8650138ef2cfe643edeed152f9c20999f43aeed54d79e387919050565b8160150361120957507f087e5af439450ef09ce6f12a47571971d83309bb6fd1e280c29baf69257f8a4f919050565b8160160361123857507f1821495b1919fa5439ae4a314ff98843067381a3c015f744592bfd64101def1d919050565b8160170361126757507f25789f32f958568364c8139771d7864d93f97efb5bbb87cce1959e7e7443ac80919050565b8160180361129657507f25ad0850411551115fd697c4d91668f92dde52421be59650357cd50363880543919050565b816019036112c557507f10b604f35a902419a0fdcf8ee57123e92f0d650ab009b5105916cac7813c9137919050565b81601a036112f457507f1bb07b96cdddee486afb20c78a3b82208cb80d2c55e596896fa1879164a751db919050565b81601b0361132357507f04ab93e9c494b67162063e77960cd36f4e3e5cdee5388a603dc55a03875c72bb919050565b81601c0361135257507f0f9e7f4ad948e7e487831c37fef6e032d66ab2cd3d742d024274612a86cc55ed919050565b81601d0361138157507f2f1c6920644cd674376a6d3ba4fd3cbe3a571685af0d9ab28e1461e4c1d6fc0a919050565b81601e036113b057507f0de2cd9dffe1e710647fdc179884bd0367276612ef83d2aeea0f7d8aecb9c3d7919050565b81601f036113de57507e77ed17dad4b561a9b4a21cf58720ef0c057699fec72b92f2ca26fdf6b48a83919050565b60405162461bcd60e51b8152602060048201526013602482015272496e646578206f7574206f6620626f756e647360681b6044820152606401610626565b611424611456565b6001600160a01b03811661144d57604051631e4fbdf760e01b81525f6004820152602401610626565b610a34816114e7565b6003546001600160a01b03600160401b9091041633146106be5760405163118cdaa760e01b8152336004820152602401610626565b5f611494612eac565b6114ab5f5160206132ed5f395f51905f5285613105565b81526114c45f5160206132ed5f395f51905f5284613105565b60208201525f6040820181905260608201526114df81611bef565b519392505050565b600380546001600160a01b03838116600160401b81810268010000000000000000600160e01b031985161790945560405193909204169182907f8be0079c531659141344cd1fd0a4f28419497f9722a3daafe3b4186f6b6457e0905f90a35050565b61155161298e565b60025f51602061330d5f395f51905f5255565b6003545f8054909163ffffffff6401000000009091048116916115899116600261322a565b63ffffffff168163ffffffff16036115fc5760405162461bcd60e51b815260206004820152603060248201527f4d65726b6c6520747265652069732066756c6c2e204e6f206d6f7265206c656160448201526f1d995cc818d85b88189948185919195960821b6064820152608401610626565b80835f80805b5f5463ffffffff908116908216101561169857611620600286613241565b63ffffffff165f0361165c5783925061163e8163ffffffff16610e1f565b63ffffffff82165f9081526001602052604090208590559150611677565b63ffffffff81165f9081526001602052604090205492508391505b61168183836105cd565b935061168e600286613268565b9450600101611602565b506003545f906064906116b29063ffffffff16600161328f565b6116bc9190613241565b6003805463ffffffff191663ffffffff83169081179091555f90815260026020526040902085905590506116f186600161328f565b6003805463ffffffff929092166401000000000267ffffffff000000001990921691909117905550939695505050505050565b34156117655760405162461bcd60e51b815260206004820152601060248201526f115512081b9bdd081858d8d95c1d195960821b6044820152606401610626565b600a545f906001600160a01b03161561187757600a5f9054906101000a90046001600160a01b03166001600160a01b031663d73792a96040518163ffffffff1660e01b8152600401602060405180830381865afa1580156117c8573d5f5f3e3d5ffd5b505050506040513d601f19601f820116820180604052508101906117ec91906132ab565b600a5f9054906101000a90046001600160a01b03166001600160a01b0316639089ad0e6040518163ffffffff1660e01b8152600401602060405180830381865afa15801561183c573d5f5f3e3d5ffd5b505050506040513d601f19601f8201168201806040525081019061186091906132ab565b61186a90846132c2565b61187491906132d9565b90505b5f6118828284613019565b90506118b96001600160a01b037f0000000000000000000000000000000000000000000000000000000000000000163330846129bd565b811561197b57600a546118f9906001600160a01b037f000000000000000000000000000000000000000000000000000000000000000081169116846129f9565b600a54604051631548e7d560e01b81526001600160a01b037f0000000000000000000000000000000000000000000000000000000000000000811660048301526024820185905290911690631548e7d5906044015f604051808303815f87803b158015611964575f5ffd5b505af1158015611976573d5f5f3e3d5ffd5b505050505b505050565b600a545f906001600160a01b031615611b4e57600a5f9054906101000a90046001600160a01b03166001600160a01b031663d73792a96040518163ffffffff1660e01b8152600401602060405180830381865afa1580156119e3573d5f5f3e3d5ffd5b505050506040513d601f19601f82011682018060405250810190611a0791906132ab565b600a5f9054906101000a90046001600160a01b03166001600160a01b031663324d84386040518163ffffffff1660e01b8152600401602060405180830381865afa158015611a57573d5f5f3e3d5ffd5b505050506040513d601f19601f82011682018060405250810190611a7b91906132ab565b611a8590856132c2565b611a8f91906132d9565b600a54909150611acc906001600160a01b037f000000000000000000000000000000000000000000000000000000000000000081169116836129f9565b600a54604051639a4f79fd60e01b81526001600160a01b037f0000000000000000000000000000000000000000000000000000000000000000811660048301526024820184905290911690639a4f79fd906044015f604051808303815f87803b158015611b37575f5ffd5b505af1158015611b49573d5f5f3e3d5ffd5b505050505b5f611b5982856130de565b90505f611b6684836130de565b9050611b9c6001600160a01b037f00000000000000000000000000000000000000000000000000000000000000001688836129f9565b8315611976575f6001600160a01b038716611bb75733611bb9565b865b9050610e156001600160a01b037f00000000000000000000000000000000000000000000000000000000000000001682876129f9565b611bf881612a2e565b611c85817f19b849f69450b06848da1d39bd5e4a4302bb86744edc26238b0878e269ed23e57f265ddfe127dd51bd7239347b758f0a1320eb2cc7450acc1dad47f80c8dcf34d67f199750ec472f1809e0f66a545e1e51624108ac845015c2aa3dfc36bab497d8aa7f157ff3fe65ac7208110f06a5f74302b14d743ea25067f0ffd032f787c7f1cdf8612b65565b611d12817f2e49c43c4569dd9c5fd35ac45fca33f10b15c590692f8beefe18f4896ac949027f0e35fb89981890520d4aef2b6d6506c3cb2f0b6973c24fa82731345ffa2d1f1e7f251ad47cb15c4f1105f109ae5e944f1ba9d9e7806d667ffec6fe723002e0b9967f13da07dc64d428369873e97160234641f8beb56fdd05e5f3563fa39d9c22df4e612b65565b611d9f817f0c009b84e650e6d23dc00c7dccef7483a553939689d350cd46e7b89055fd47387f011f16b1c63a854f01992e3956f42d8b04eb650c6d535eb0203dec74befdca067f0ed69e5e383a688f209d9a561daa79612f3f78d0467ad45485df07093f3675497f04dba94a7b0ce9e221acad41472b6bbe3aec507f5eb3d33f463672264c9f789b612b65565b611e2c817f0a3f2637d840f3a16eb094271c9d237b6036757d4bb50bf7ce732ff1d4fa28e87f259a666f129eea198f8a1c502fdb38fa39b1f075569564b6e54a485d1182323f7f28bf7459c9b2f4c6d8e7d06a4ee3a47f7745d4271038e5157a32fdf7ede0d6a17f0a1ca941f057037526ea200f489be8d4c37c85bbcce6a2aeec91bd6941432447612b65565b611e56817f0c6f8f958be0e93053d7fd4fc54512855535ed1539f051dcb43a26fd926361cf612c21565b611e80817f123106a93cd17578d426e8128ac9d90aa9e8a00708e296e084dd57e69caaf811612c21565b611eaa817f26e1ba52ad9285d97dd3ab52f8e840085e8fa83ff1e8f1877b074867cd2dee75612c21565b611ed4817f1cb55cad7bd133de18a64c5c47b9c97cbe4d8b7bf9e095864471537e6a4ae2c5612c21565b611efe817f1dcd73e46acd8f8e0e2c7ce04bde7f6d2a53043d5060a41c7143f08e6e9055d0612c21565b611f28817f011003e32f6d9c66f5852f05474a4def0cda294a0eb4e9b9b12b9bb4512e5574612c21565b611f52817f2b1e809ac1d10ab29ad5f20d03a57dfebadfe5903f58bafed7c508dd2287ae8c612c21565b611f7c817f2539de1785b735999fb4dac35ee17ed0ef995d05ab2fc5faeaa69ae87bcec0a5612c21565b611fa6817f0c246c5a2ef8ee0126497f222b3e0a0ef4e1c3d41c86d46e43982cb11d77951d612c21565b611fd0817f192089c4974f68e95408148f7c0632edbb09e6a6ad1a1c2f3f0305f5d03b527b612c21565b611ffa817f1eae0ad8ab68b2f06a0ee36eeb0d0c058529097d91096b756d8fdc2fb5a60d85612c21565b612024817f179190e5d0e22179e46f8282872abc88db6e2fdc0dee99e69768bd98c5d06bfb612c21565b61204e817f29bb9e2c9076732576e9a81c7ac4b83214528f7db00f31bf6cafe794a9b3cd1c612c21565b612078817f225d394e42207599403efd0c2464a90d52652645882aac35b10e590e6e691e08612c21565b6120a2817f064760623c25c8cf753d238055b444532be13557451c087de09efd454b23fd59612c21565b6120cc817f10ba3a0e01df92e87f301c4b716d8a394d67f4bf42a75c10922910a78f6b5b87612c21565b6120f6817f0e070bf53f8451b24f9c6e96b0c2a801cb511bc0c242eb9d361b77693f21471c612c21565b612120817f1b94cd61b051b04dd39755ff93821a73ccd6cb11d2491d8aa7f921014de252fb612c21565b61214a817f1d7cb39bafb8c744e148787a2e70230f9d4e917d5713bb050487b5aa7d74070b612c21565b612174817f2ec93189bd1ab4f69117d0fe980c80ff8785c2961829f701bb74ac1f303b17db612c21565b61219e817f2db366bfdd36d277a692bb825b86275beac404a19ae07a9082ea46bd83517926612c21565b6121c8817f062100eb485db06269655cf186a68532985275428450359adc99cec6960711b8612c21565b6121f2817f0761d33c66614aaa570e7f1e8244ca1120243f92fa59e4f900c567bf41f5a59b612c21565b61221c817f20fc411a114d13992c2705aa034e3f315d78608a0f7de4ccf7a72e494855ad0d612c21565b612246817f25b5c004a4bdfcb5add9ec4e9ab219ba102c67e8b3effb5fc3a30f317250bc5a612c21565b612270817f23b1822d278ed632a494e58f6df6f5ed038b186d8474155ad87e7dff62b37f4b612c21565b61229a817f22734b4c5c3f9493606c4ba9012499bf0f14d13bfcfcccaa16102a29cc2f69e0612c21565b6122c4817f26c0c8fe09eb30b7e27a74dc33492347e5bdff409aa3610254413d3fad795ce5612c21565b6122ee817f070dd0ccb6bd7bbae88eac03fa1fbb26196be3083a809829bbd626df348ccad9612c21565b612318817f12b6595bdb329b6fb043ba78bb28c3bec2c0a6de46d8c5ad6067c4ebfd4250da612c21565b612342817f248d97d7f76283d63bec30e7a5876c11c06fca9b275c671c5e33d95bb7e8d729612c21565b61236c817f1a306d439d463b0816fc6fd64cc939318b45eb759ddde4aa106d15d9bd9baaaa612c21565b612396817f28a8f8372e3c38daced7c00421cb4621f4f1b54ddc27821b0d62d3d6ec7c56cf612c21565b6123bf817e94975717f9a8a8bb35152f24d43294071ce320c829f388bc852183e1e2ce7e612c21565b6123e9817f04d5ee4c3aa78f7d80fde60d716480d3593f74d4f653ae83f4103246db2e8d65612c21565b612413817f2a6cf5e9aa03d4336349ad6fb8ed2269c7bef54b8822cc76d08495c12efde187612c21565b61243d817f2304d31eaab960ba9274da43e19ddeb7f792180808fd6e43baae48d7efcba3f3612c21565b612467817f03fd9ac865a4b2a6d5e7009785817249bff08a7e0726fcb4e1c11d39d199f0b0612c21565b612490817eb7258ded52bbda2248404d55ee5044798afc3a209193073f7954d4d63b0b64612c21565b6124ba817f159f81ada0771799ec38fca2d4bf65ebb13d3a74f3298db36272c5ca65e92d9a612c21565b6124e4817f1ef90e67437fbc8550237a75bc28e3bb9000130ea25f0c5471e144cf4264431f612c21565b61250e817f1e65f838515e5ff0196b49aa41a2d2568df739bc176b08ec95a79ed82932e30d612c21565b612538817f2b1b045def3a166cec6ce768d079ba74b18c844e570e1f826575c1068c94c33f612c21565b612562817f0832e5753ceb0ff6402543b1109229c165dc2d73bef715e3f1c6e07c168bb173612c21565b61258c817f02f614e9cedfb3dc6b762ae0a37d41bab1b841c2e8b6451bc5a8e3c390b6ad16612c21565b6125b6817f0e2427d38bd46a60dd640b8e362cad967370ebb777bedff40f6a0be27e7ed705612c21565b6125e0817f0493630b7c670b6deb7c84d414e7ce79049f0ec098c3c7c50768bbe29214a53a612c21565b61260a817f22ead100e8e482674decdab17066c5a26bb1515355d5461a3dc06cc85327cea9612c21565b612634817f25b3e56e655b42cdaae2626ed2554d48583f1ae35626d04de5084e0b6d2a6f16612c21565b61265e817f1e32752ada8836ef5837a6cde8ff13dbb599c336349e4c584b4fdc0a0cf6f9d0612c21565b612688817f2fa2a871c15a387cc50f68f6f3c3455b23c00995f05078f672a9864074d412e5612c21565b6126b2817f2f569b8a9a4424c9278e1db7311e889f54ccbf10661bab7fcd18e7c7a7d83505612c21565b6126dc817f044cb455110a8fdd531ade530234c518a7df93f7332ffd2144165374b246b43d612c21565b612706817f227808de93906d5d420246157f2e42b191fe8c90adfe118178ddc723a5319025612c21565b612730817f02fcca2934e046bc623adead873579865d03781ae090ad4a8579d2e7a6800355612c21565b61275a817f0ef915f0ac120b876abccceb344a1d36bad3f3c5ab91a8ddcbec2e060d8befac612c21565b6127e7817f1797130f4b7a3e1777eb757bc6f287f6ab0fb85f6be63b09f3b16ef2b1405d387f0a76225dc04170ae3306c85abab59e608c7f497c20156d4d36c668555decc6e57f1fffb9ec1992d66ba1e77a7b93209af6f8fa76d48acb664796174b5326a31a5c7f25721c4fc15a3f2853b57c338fa538d85f8fbba6c6b9c6090611889b797b9c5f612b65565b612874817f0c817fd42d5f7a41215e3d07ba197216adb4c3790705da95eb63b982bfcaf75a7f13abe3f5239915d39f7e13c2c24970b6df8cf86ce00a22002bc15866e52b5a967f2106feea546224ea12ef7f39987a46c85c1bc3dc29bdbd7a92cd60acb4d391ce7f21ca859468a746b6aaa79474a37dab49f1ca5a28c748bc7157e1b3345bb0f959612b65565b612901817f05ccd6255c1e6f0c5cf1f0df934194c62911d14d0321662a8f1a48999e34185b7f0f0e34a64b70a626e464d846674c4c8816c4fb267fe44fe6ea28678cb09490a47f0558531a4e25470c6157794ca36d0e9647dbfcfe350d64838f5b1a8a2de0d4bf7f09d3dca9173ed2faceea125157683d18924cadad3f655a60b72f5864961f1455612b65565b610a34817f0328cbd54e8c0913493f866ed03d218bf23f92d68aaec48617d4c722e5bd43357f2bf07216e2aff0a223a487b1a7094e07e79e7bcc9798c648ee3347dd5329d34b7f1daf345a58006b736499c583cb76c316d6f78ed6a6dffc82111e11a63fe412df7f176563472456aaa746b694c60e1823611ef39039b2edc7ff391e6f2293d2c404612b65565b5f51602061330d5f395f51905f52546002036106be57604051633ee5aeb560e01b815260040160405180910390fd5b6129cb848484846001612c50565b6129f357604051635274afe760e01b81526001600160a01b0385166004820152602401610626565b50505050565b612a068383836001612cbd565b61197b57604051635274afe760e01b81526001600160a01b0384166004820152602401610626565b602081015181515f915f5160206132ed5f395f51905f52910890505f5f5160206132ed5f395f51905f52836003602002015184600260200201510860208401519091505f905f5160206132ed5f395f51905f52908390829080080860608501519091505f905f5160206132ed5f395f51905f52908590829080080890505f5f5160206132ed5f395f51905f5284850890505f5160206132ed5f395f51905f5281820890505f5160206132ed5f395f51905f5282820890505f5f5160206132ed5f395f51905f5286870890505f5160206132ed5f395f51905f5281820890505f5160206132ed5f395f51905f5284820890505f5f5160206132ed5f395f51905f5282850890505f5f5160206132ed5f395f51905f52848708918952506020880191909152604087015260609095019490945250505050565b84515f5160206132ed5f395f51905f5290859008855260208501515f5160206132ed5f395f51905f5290849008602086015260408501515f5160206132ed5f395f51905f5290839008604086015260608501515f5160206132ed5f395f51905f52908290086060860152612bdf855f5b6020020151612d1f565b8552612bec856001612bd5565b6020860152612bfc856002612bd5565b6040860152612c0c856003612bd5565b6060860152612c1a85612a2e565b5050505050565b81515f5160206132ed5f395f51905f52908290088252612c41825f612bd5565b8252612c4c82612d61565b5050565b6040516323b872dd60e01b5f8181526001600160a01b038781166004528616602452604485905291602083606481808c5af1925060015f51148316612cac578383151615612ca0573d5f823e3d81fd5b5f883b113d1516831692505b604052505f60605295945050505050565b60405163a9059cbb60e01b5f8181526001600160a01b038616600452602485905291602083604481808b5af1925060015f51148316612d13578383151615612d07573d5f823e3d81fd5b5f873b113d1516831692505b60405250949350505050565b5f805f5160206132ed5f395f51905f5283840990505f5f5160206132ed5f395f51905f5282830990505f5160206132ed5f395f51905f52848209949350505050565b5f5f5160206132ed5f395f51905f52808360036020020151846002602002015108602084015184515f5160206132ed5f395f51905f529190080890505f5160206132ed5f395f51905f52815f5160206132ed5f395f51905f52845f60200201517f10dc6e9c006ea38b04b1e03b4bd9490c0d03f98929ca1d7fb56821fd19d3b6e70908825260208201515f5160206132ed5f395f51905f5290829082907f0c28145b6a44df3e0149b3d0a30b3bb599df9756d4dd9b84a86b38cfb45a740b0908602083015260408201515f5160206132ed5f395f51905f5290829082907e544b8338791518b2c7645a50392798b21f75bb60e3596170067d00141cac150908604083015260608201515f5160206132ed5f395f51905f5290829082907f222c01175718386f2e2e82eb122789e352e105a3b8fa852613bc534433ee428b090882600360200201525050565b60405180608001604052806004906020820280368337509192915050565b5f60208284031215612eda575f5ffd5b5035919050565b5f5f60408385031215612ef2575f5ffd5b50508035926020909101359150565b80356001600160a01b03811681146106a8575f5ffd5b5f60208284031215612f27575f5ffd5b61069f82612f01565b5f5f5f5f5f5f5f5f60e0898b031215612f47575f5ffd5b883567ffffffffffffffff811115612f5d575f5ffd5b8901601f81018b13612f6d575f5ffd5b803567ffffffffffffffff811115612f83575f5ffd5b8b6020828401011115612f94575f5ffd5b602091820199509750890135955060408901359450612fb560608a01612f01565b9350612fc360808a01612f01565b925060a08901359150612fd860c08a01612f01565b90509295985092959890939650565b634e487b7160e01b5f52601160045260245ffd5b5f63ffffffff82168061301057613010612fe7565b5f190192915050565b808201808211156106a2576106a2612fe7565b634e487b7160e01b5f52603260045260245ffd5b60408152826040820152828460608301375f606084830101525f601f19601f85011682016060810160608483030160208501528085518083526080840191506020870193505f92505b808310156130ac5783518252602082019150602084019350600183019250613089565b50979650505050505050565b5f602082840312156130c8575f5ffd5b815180151581146130d7575f5ffd5b9392505050565b818103818111156106a2576106a2612fe7565b634e487b7160e01b5f52601260045260245ffd5b5f82613113576131136130f1565b500690565b6001815b60018411156131535780850481111561313757613137612fe7565b600184161561314557908102905b60019390931c92800261311c565b935093915050565b5f82613169575060016106a2565b8161317557505f6106a2565b816001811461318b5760028114613195576131c6565b60019150506106a2565b60ff8411156131a6576131a6612fe7565b6001841b915063ffffffff8211156131c0576131c0612fe7565b506106a2565b5060208310610133831016604e8410600b84101617156131fd575081810a63ffffffff8111156131f8576131f8612fe7565b6106a2565b61320c63ffffffff8484613118565b8063ffffffff0482111561322257613222612fe7565b029392505050565b5f61069f63ffffffff841663ffffffff841661315b565b5f63ffffffff831680613256576132566130f1565b8063ffffffff84160691505092915050565b5f63ffffffff83168061327d5761327d6130f1565b8063ffffffff84160491505092915050565b63ffffffff81811683821601908111156106a2576106a2612fe7565b5f602082840312156132bb575f5ffd5b5051919050565b80820281158282048414176106a2576106a2612fe7565b5f826132e7576132e76130f1565b50049056fe30644e72e131a029b85045b68181585d2833e84879b9709143e1f593f00000019b779b17422d0df92223018b32b4d1fa46e071723d6817e2486d003becc55f00a26469706673582212203989328700d38fb69c305aea0e76392af007d90e0902a4270f4e6bd3d103a7ae64736f6c634300081b0033","linkReferences":{}},"methodIdentifiers":{"FIELD_SIZE()":"414a37ba","GUARDED_PERIOD()":"dbc0d423","ROOT_HISTORY_SIZE()":"cd87a3b4","SNARK_SCALAR_FIELD()":"25c2cd12","ZERO_VALUE()":"ec732959","commitments(bytes32)":"839df945","currentRootIndex()":"90eeb02b","currentTVL()":"a95411e0","denomination()":"8bca6d16","deposit(bytes32)":"b214faa5","depositCap()":"dbd5edc7","feeManager()":"d0fb0203","filledSubtrees(uint256)":"f178e47c","getLastRoot()":"ba70f757","getRoot()":"5ca1e165","guardian()":"452a9320","hashLeftRight(uint256,uint256)":"5bb93995","isKnownRoot(uint256)":"a6232a93","isSpent(bytes32)":"e5285dcc","launchStartTime()":"7bb501ec","levels()":"4ecf518b","nextIndex()":"fc7e9c6f","nullifierHashes(bytes32)":"17cc915c","owner()":"8da5cb5b","pause()":"8456cb59","paused()":"5c975abb","renounceOwnership()":"715018a6","roots(uint256)":"c2b40ae4","setGuardian(address)":"8a0dac4a","token()":"fc0c546a","transferOwnership(address)":"f2fde38b","unpause()":"3f4ba83a","updateDepositCap(uint256)":"171e5e88","verifier()":"2b7ac3f3","withdraw(bytes,bytes32,bytes32,address,address,uint256,address)":"bc7c5f4b","withdrawPaused()":"2f3ffb9f","zeros(uint256)":"e8295588"},"id":50}