{"abi":[{"type":"constructor","inputs":[{"name":"_verifier","type":"address","internalType":"address"},{"name":"_token","type":"address","internalType":"address"},{"name":"_feeManager","type":"address","internalType":"address"},{"name":"_depositCap","type":"uint256","internalType":"uint256"}],"stateMutability":"nonpayable"},{"type":"function","name":"DENOM_LARGE","inputs":[],"outputs":[{"name":"","type":"uint256","internalType":"uint256"}],"stateMutability":"view"},{"type":"function","name":"DENOM_MEDIUM","inputs":[],"outputs":[{"name":"","type":"uint256","internalType":"uint256"}],"stateMutability":"view"},{"type":"function","name":"DENOM_SMALL","inputs":[],"outputs":[{"name":"","type":"uint256","internalType":"uint256"}],"stateMutability":"view"},{"type":"function","name":"ENTRY_FEE_BPS","inputs":[],"outputs":[{"name":"","type":"uint256","internalType":"uint256"}],"stateMutability":"view"},{"type":"function","name":"EXIT_FEE_BPS","inputs":[],"outputs":[{"name":"","type":"uint256","internalType":"uint256"}],"stateMutability":"view"},{"type":"function","name":"FEE_DENOMINATOR","inputs":[],"outputs":[{"name":"","type":"uint256","internalType":"uint256"}],"stateMutability":"view"},{"type":"function","name":"FIELD_SIZE","inputs":[],"outputs":[{"name":"","type":"uint256","internalType":"uint256"}],"stateMutability":"view"},{"type":"function","name":"GUARDED_PERIOD","inputs":[],"outputs":[{"name":"","type":"uint256","internalType":"uint256"}],"stateMutability":"view"},{"type":"function","name":"ROOT_HISTORY_SIZE","inputs":[],"outputs":[{"name":"","type":"uint32","internalType":"uint32"}],"stateMutability":"view"},{"type":"function","name":"SNARK_SCALAR_FIELD","inputs":[],"outputs":[{"name":"","type":"uint256","internalType":"uint256"}],"stateMutability":"view"},{"type":"function","name":"ZERO_VALUE","inputs":[],"outputs":[{"name":"","type":"uint256","internalType":"uint256"}],"stateMutability":"view"},{"type":"function","name":"commitments","inputs":[{"name":"","type":"bytes32","internalType":"bytes32"}],"outputs":[{"name":"","type":"bool","internalType":"bool"}],"stateMutability":"view"},{"type":"function","name":"currentRootIndex","inputs":[],"outputs":[{"name":"","type":"uint32","internalType":"uint32"}],"stateMutability":"view"},{"type":"function","name":"currentTVL","inputs":[],"outputs":[{"name":"","type":"uint256","internalType":"uint256"}],"stateMutability":"view"},{"type":"function","name":"deposit","inputs":[{"name":"commitment","type":"bytes32","internalType":"bytes32"},{"name":"denomination","type":"uint256","internalType":"uint256"}],"outputs":[],"stateMutability":"nonpayable"},{"type":"function","name":"depositCap","inputs":[],"outputs":[{"name":"","type":"uint256","internalType":"uint256"}],"stateMutability":"view"},{"type":"function","name":"emergencyUpdateTVL","inputs":[{"name":"_newTVL","type":"uint256","internalType":"uint256"}],"outputs":[],"stateMutability":"nonpayable"},{"type":"function","name":"feeManager","inputs":[],"outputs":[{"name":"","type":"address","internalType":"contract IFeeManager"}],"stateMutability":"view"},{"type":"function","name":"filledSubtrees","inputs":[{"name":"","type":"uint256","internalType":"uint256"}],"outputs":[{"name":"","type":"uint256","internalType":"uint256"}],"stateMutability":"view"},{"type":"function","name":"getLastRoot","inputs":[],"outputs":[{"name":"","type":"uint256","internalType":"uint256"}],"stateMutability":"view"},{"type":"function","name":"getLeafCount","inputs":[],"outputs":[{"name":"","type":"uint256","internalType":"uint256"}],"stateMutability":"view"},{"type":"function","name":"getRoot","inputs":[],"outputs":[{"name":"","type":"bytes32","internalType":"bytes32"}],"stateMutability":"view"},{"type":"function","name":"guardian","inputs":[],"outputs":[{"name":"","type":"address","internalType":"address"}],"stateMutability":"view"},{"type":"function","name":"hashLeftRight","inputs":[{"name":"_left","type":"uint256","internalType":"uint256"},{"name":"_right","type":"uint256","internalType":"uint256"}],"outputs":[{"name":"","type":"uint256","internalType":"uint256"}],"stateMutability":"pure"},{"type":"function","name":"isGuardedLaunchActive","inputs":[],"outputs":[{"name":"","type":"bool","internalType":"bool"}],"stateMutability":"view"},{"type":"function","name":"isKnownRoot","inputs":[{"name":"_root","type":"uint256","internalType":"uint256"}],"outputs":[{"name":"","type":"bool","internalType":"bool"}],"stateMutability":"view"},{"type":"function","name":"isSpent","inputs":[{"name":"_nullifierHash","type":"bytes32","internalType":"bytes32"}],"outputs":[{"name":"","type":"bool","internalType":"bool"}],"stateMutability":"view"},{"type":"function","name":"isSpentArray","inputs":[{"name":"_nullifierHashes","type":"bytes32[]","internalType":"bytes32[]"}],"outputs":[{"name":"spent","type":"bool[]","internalType":"bool[]"}],"stateMutability":"view"},{"type":"function","name":"launchStartTime","inputs":[],"outputs":[{"name":"","type":"uint256","internalType":"uint256"}],"stateMutability":"view"},{"type":"function","name":"levels","inputs":[],"outputs":[{"name":"","type":"uint32","internalType":"uint32"}],"stateMutability":"view"},{"type":"function","name":"nextIndex","inputs":[],"outputs":[{"name":"","type":"uint32","internalType":"uint32"}],"stateMutability":"view"},{"type":"function","name":"nullifierHashes","inputs":[{"name":"","type":"bytes32","internalType":"bytes32"}],"outputs":[{"name":"","type":"bool","internalType":"bool"}],"stateMutability":"view"},{"type":"function","name":"owner","inputs":[],"outputs":[{"name":"","type":"address","internalType":"address"}],"stateMutability":"view"},{"type":"function","name":"pauseDeposits","inputs":[],"outputs":[],"stateMutability":"nonpayable"},{"type":"function","name":"pauseWithdrawals","inputs":[],"outputs":[],"stateMutability":"nonpayable"},{"type":"function","name":"paused","inputs":[],"outputs":[{"name":"","type":"bool","internalType":"bool"}],"stateMutability":"view"},{"type":"function","name":"remainingCapacity","inputs":[],"outputs":[{"name":"","type":"uint256","internalType":"uint256"}],"stateMutability":"view"},{"type":"function","name":"renounceOwnership","inputs":[],"outputs":[],"stateMutability":"nonpayable"},{"type":"function","name":"roots","inputs":[{"name":"","type":"uint256","internalType":"uint256"}],"outputs":[{"name":"","type":"uint256","internalType":"uint256"}],"stateMutability":"view"},{"type":"function","name":"setGuardian","inputs":[{"name":"_guardian","type":"address","internalType":"address"}],"outputs":[],"stateMutability":"nonpayable"},{"type":"function","name":"token","inputs":[],"outputs":[{"name":"","type":"address","internalType":"contract IERC20"}],"stateMutability":"view"},{"type":"function","name":"transferOwnership","inputs":[{"name":"newOwner","type":"address","internalType":"address"}],"outputs":[],"stateMutability":"nonpayable"},{"type":"function","name":"unpauseDeposits","inputs":[],"outputs":[],"stateMutability":"nonpayable"},{"type":"function","name":"unpauseWithdrawals","inputs":[],"outputs":[],"stateMutability":"nonpayable"},{"type":"function","name":"updateDepositCap","inputs":[{"name":"_newCap","type":"uint256","internalType":"uint256"}],"outputs":[],"stateMutability":"nonpayable"},{"type":"function","name":"verifier","inputs":[],"outputs":[{"name":"","type":"address","internalType":"contract IHonkVerifier"}],"stateMutability":"view"},{"type":"function","name":"withdraw","inputs":[{"name":"proof","type":"bytes","internalType":"bytes"},{"name":"root","type":"bytes32","internalType":"bytes32"},{"name":"nullifierHash","type":"bytes32","internalType":"bytes32"},{"name":"recipient","type":"address","internalType":"address"},{"name":"denomination","type":"uint256","internalType":"uint256"},{"name":"relayer","type":"address","internalType":"address"},{"name":"fee","type":"uint256","internalType":"uint256"}],"outputs":[],"stateMutability":"nonpayable"},{"type":"function","name":"withdrawPaused","inputs":[],"outputs":[{"name":"","type":"bool","internalType":"bool"}],"stateMutability":"view"},{"type":"function","name":"zeros","inputs":[{"name":"i","type":"uint256","internalType":"uint256"}],"outputs":[{"name":"","type":"uint256","internalType":"uint256"}],"stateMutability":"pure"},{"type":"event","name":"Deposit","inputs":[{"name":"commitment","type":"bytes32","indexed":true,"internalType":"bytes32"},{"name":"leafIndex","type":"uint32","indexed":false,"internalType":"uint32"},{"name":"timestamp","type":"uint256","indexed":false,"internalType":"uint256"}],"anonymous":false},{"type":"event","name":"DepositCapUpdated","inputs":[{"name":"newCap","type":"uint256","indexed":false,"internalType":"uint256"}],"anonymous":false},{"type":"event","name":"EmergencyPause","inputs":[{"name":"depositsPaused","type":"bool","indexed":false,"internalType":"bool"},{"name":"withdrawsPaused","type":"bool","indexed":false,"internalType":"bool"}],"anonymous":false},{"type":"event","name":"GuardianUpdated","inputs":[{"name":"newGuardian","type":"address","indexed":false,"internalType":"address"}],"anonymous":false},{"type":"event","name":"OwnershipTransferred","inputs":[{"name":"previousOwner","type":"address","indexed":true,"internalType":"address"},{"name":"newOwner","type":"address","indexed":true,"internalType":"address"}],"anonymous":false},{"type":"event","name":"Withdrawal","inputs":[{"name":"to","type":"address","indexed":false,"internalType":"address"},{"name":"nullifierHash","type":"bytes32","indexed":false,"internalType":"bytes32"},{"name":"relayer","type":"address","indexed":true,"internalType":"address"},{"name":"fee","type":"uint256","indexed":false,"internalType":"uint256"}],"anonymous":false},{"type":"error","name":"CommitmentAlreadyExists","inputs":[]},{"type":"error","name":"CommitmentOutOfField","inputs":[]},{"type":"error","name":"DepositCapExceeded","inputs":[]},{"type":"error","name":"FeeTooHigh","inputs":[]},{"type":"error","name":"GuardedLaunchExpired","inputs":[]},{"type":"error","name":"InvalidDenomination","inputs":[]},{"type":"error","name":"InvalidGuardian","inputs":[]},{"type":"error","name":"InvalidRoot","inputs":[]},{"type":"error","name":"NullifierAlreadySpent","inputs":[]},{"type":"error","name":"OwnableInvalidOwner","inputs":[{"name":"owner","type":"address","internalType":"address"}]},{"type":"error","name":"OwnableUnauthorizedAccount","inputs":[{"name":"account","type":"address","internalType":"address"}]},{"type":"error","name":"Paused","inputs":[]},{"type":"error","name":"ProofVerificationFailed","inputs":[]},{"type":"error","name":"ReentrancyGuardReentrantCall","inputs":[]},{"type":"error","name":"SafeERC20FailedOperation","inputs":[{"name":"token","type":"address","internalType":"address"}]},{"type":"error","name":"Unauthorized","inputs":[]},{"type":"error","name":"WithdrawPaused","inputs":[]},{"type":"error","name":"ZeroRecipient","inputs":[]}],"bytecode":{"object":"0x60c0604052600380546001600160401b031916905534801561001f575f5ffd5b50604051613dca380380613dca83398101604081905261003e916108b3565b8381336014610051565b60405180910390fd5b60208163ffffffff16106100a75760405162461bcd60e51b815260206004820152601e60248201527f5f6c6576656c732073686f756c64206265206c657373207468616e20333200006044820152606401610048565b5f805463ffffffff191663ffffffff83161781555b8163ffffffff168163ffffffff161015610100576100df63ffffffff821661022f565b63ffffffff82165f90815260016020819052604090912091909155016100bc565b5061011a61010f6001836108fb565b63ffffffff1661022f565b5f805260026020527fac33ff75c19e70fe83507db0d683fd3465c996598dc972688b7ace676c89077b555060017f9b779b17422d0df92223018b32b4d1fa46e071723d6817e2486d003becc55f00556001600160a01b03811661019257604051631e4fbdf760e01b81525f6004820152602401610048565b61019b81610836565b506001600160a01b03918216608052600655426008556009805462010000600160b01b03191633620100000217905583166102055760405162461bcd60e51b815260206004820152600a6024820152693d32b937903a37b5b2b760b11b6044820152606401610048565b506001600160a01b0391821660a052600a80546001600160a01b0319169190921617905550610929565b5f815f0361023e57505f919050565b8160010361026d57507f18dfb8dc9b82229cff974efefc8df78b1ce96d9d844236b496785c698bc6732e919050565b8160020361029c57507f2c0d184fc7a25c124a27a67b2c46220b039b1a5072c3b693a18ffee458f6425d919050565b816003036102cb57507f268b2b93ac5fe540e618a378b8a71b8f2407232744d71e501ce8699980b306e5919050565b816004036102fa57507f2d436f654e14cc4febcafdf4a753b149dd8c88a75df9e5d6707e83a853b5f791919050565b8160050361032957507f0b66fdef5a7f00f6fb45d1498b4d7131218e69ccf0a2751b6a1fb1bcd982867d919050565b8160060361035857507f1d542b476c671bb6f0d2ab2939335d7cbad03476f1e3bcba70973b1adfe88b91919050565b8160070361038757507f0680c6388c5798caf80642a1e84316b8b2f7caa99da076f3057d2962a46c5358919050565b816008036103b657507f03c53ce5296e3e895171f89aa09f84214e3fb0755fe7a423b87888e4b3d731b8919050565b816009036103e557507f2dd4e2510b33275359bba6edf72e6bdacad259950b024b2cc19d63c3a5b761df919050565b81600a0361041457507f11cb221f69d954d521fb5393767e77fe4d14133757a706b318e62fa984f98157919050565b81600b0361044357507f039d78bac8f890788eefe39af15eee5825056648f99210054fd03c25213f4de7919050565b81600c0361047257507f0c55b828a83062a77d2b3e0a66bbb50cb6040990d9f368da8b24c0e82b692349919050565b81600d036104a157507f24c866ac88715851268d808487e20e6986084fc222d7188e2a8e0f5b9f8457ef919050565b81600e036104d057507f0f6a94e437b9dfb35cdedf41e2e154c3ae449b7c04c13add0996a7b53cde5400919050565b81600f036104ff57507f22afe7696b87cb782742e2d3ecb0f749a9beefbbb2159d178b09000e55b22cab919050565b8160100361052e57507f121b01164d32e9ab841ba8f5602b0ec58b576e62552c96911d4d988d49468cdd919050565b8160110361055d57507f05f3810707b1336c953b7db191215dab2b5772f93025aa345b954b43135b627b919050565b8160120361058c57507f287515b2d5975c74e3fd85a20d68611a463ffe605a1c54d8140ab16d1b77f57b919050565b816013036105bb57507f276ff13fde3afa1adb26149ddc3aa67240d603b6a91da5e494c8e58706381a38919050565b816014036105ea57507f3039bcb20f03fd9c8650138ef2cfe643edeed152f9c20999f43aeed54d79e387919050565b8160150361061957507f087e5af439450ef09ce6f12a47571971d83309bb6fd1e280c29baf69257f8a4f919050565b8160160361064857507f1821495b1919fa5439ae4a314ff98843067381a3c015f744592bfd64101def1d919050565b8160170361067757507f25789f32f958568364c8139771d7864d93f97efb5bbb87cce1959e7e7443ac80919050565b816018036106a657507f25ad0850411551115fd697c4d91668f92dde52421be59650357cd50363880543919050565b816019036106d557507f10b604f35a902419a0fdcf8ee57123e92f0d650ab009b5105916cac7813c9137919050565b81601a0361070457507f1bb07b96cdddee486afb20c78a3b82208cb80d2c55e596896fa1879164a751db919050565b81601b0361073357507f04ab93e9c494b67162063e77960cd36f4e3e5cdee5388a603dc55a03875c72bb919050565b81601c0361076257507f0f9e7f4ad948e7e487831c37fef6e032d66ab2cd3d742d024274612a86cc55ed919050565b81601d0361079157507f2f1c6920644cd674376a6d3ba4fd3cbe3a571685af0d9ab28e1461e4c1d6fc0a919050565b81601e036107c057507f0de2cd9dffe1e710647fdc179884bd0367276612ef83d2aeea0f7d8aecb9c3d7919050565b81601f036107ee57507e77ed17dad4b561a9b4a21cf58720ef0c057699fec72b92f2ca26fdf6b48a83919050565b60405162461bcd60e51b815260206004820152601360248201527f496e646578206f7574206f6620626f756e6473000000000000000000000000006044820152606401610048565b600380546001600160a01b0383811668010000000000000000818102600160401b600160e01b031985161790945560405193909204169182907f8be0079c531659141344cd1fd0a4f28419497f9722a3daafe3b4186f6b6457e0905f90a35050565b80516001600160a01b03811681146108ae575f5ffd5b919050565b5f5f5f5f608085870312156108c6575f5ffd5b6108cf85610898565b93506108dd60208601610898565b92506108eb60408601610898565b6060959095015193969295505050565b63ffffffff828116828216039081111561092357634e487b7160e01b5f52601160045260245ffd5b92915050565b60805160a0516134566109745f395f8181610611015281816119b801528181611a0f01528181611b3d01528181611b900152611be801525f81816103560152610ea301526134565ff3fe608060405234801561000f575f5ffd5b50600436106102b1575f3560e01c80638da5cb5b1161017b578063d0fb0203116100e4578063e5285dcc1161009e578063f178e47c11610079578063f178e47c146105da578063f2fde38b146105f9578063fc0c546a1461060c578063fc7e9c6f14610633575f5ffd5b8063e5285dcc1461059e578063e8295588146105c0578063ec732959146105d3575f5ffd5b8063d0fb020314610551578063d3ea612514610564578063d73792a91461057a578063dbc0d42314610583578063dbd5edc71461058d578063e4c4be5814610596575f5ffd5b8063a78c7b0811610135578063a78c7b081461050d578063a95411e014610515578063b269d8121461051e578063ba70f7571461041a578063c2b40ae41461052a578063cd87a3b414610549575f5ffd5b80638da5cb5b146104975780639089ad0e146104af57806390eeb02b146104b75780639fa12d0b146104c7578063a366184a146104e7578063a6232a93146104fa575f5ffd5b8063452a93201161021d5780635f181025116101d75780635f1810251461043657806363d8882a14610449578063715018a6146104515780637bb501ec14610459578063839df945146104625780638a0dac4a14610484575f5ffd5b8063452a9320146103b55780634ecf518b146103ce57806356bb54a7146103f25780635bb93995146103fa5780635c975abb1461040d5780635ca1e1651461041a575f5ffd5b806325c2cd121161026e57806325c2cd121461033d5780632b7ac3f3146103515780632f3ffb9f14610390578063324d8438146103a257806338d1b172146103aa578063414a37ba1461033d575f5ffd5b806302191980146102b55780630ffe92ea146102bf578063171e5e88146102dd57806317cc915c146102f05780631c11cec9146103225780631de26e161461032a575b5f5ffd5b6102bd61064b565b005b6102ca6305f5e10081565b6040519081526020015b60405180910390f35b6102bd6102eb366004612ef1565b6106f1565b6103126102fe366004612ef1565b60056020525f908152604090205460ff1681565b60405190151581526020016102d4565b610312610735565b6102bd610338366004612f08565b61074e565b6102ca5f5160206133e15f395f51905f5281565b6103787f000000000000000000000000000000000000000000000000000000000000000081565b6040516001600160a01b0390911681526020016102d4565b60095461031290610100900460ff1681565b6102ca600a81565b6102ca633b9aca0081565b600954610378906201000090046001600160a01b031681565b5f546103dd9063ffffffff1681565b60405163ffffffff90911681526020016102d4565b6102bd610905565b6102ca610408366004612f08565b6109a2565b6009546103129060ff1681565b60035463ffffffff165f908152600260205260409020546102ca565b6102bd610444366004612ef1565b610a82565b6102bd610aea565b6102bd610b2a565b6102ca60085481565b610312610470366004612ef1565b60046020525f908152604090205460ff1681565b6102bd610492366004612f3e565b610b3d565b600354600160401b90046001600160a01b0316610378565b6102ca601481565b6003546103dd9063ffffffff1681565b6104da6104d5366004612f57565b610bc4565b6040516102d49190612fc8565b6102bd6104f536600461300c565b610c7c565b610312610508366004612ef1565b610fff565b6102ca611078565b6102ca60075481565b6102ca6402540be40081565b6102ca610538366004612ef1565b60026020525f908152604090205481565b6103dd606481565b600a54610378906001600160a01b031681565b600354640100000000900463ffffffff166102ca565b6102ca61271081565b6102ca6276a70081565b6102ca60065481565b6102bd6110bb565b6103126105ac366004612ef1565b5f9081526005602052604090205460ff1690565b6102ca6105ce366004612ef1565b6110f8565b6102ca5f81565b6102ca6105e8366004612ef1565b60016020525f908152604090205481565b6102bd610607366004612f3e565b6116f5565b6103787f000000000000000000000000000000000000000000000000000000000000000081565b6003546103dd90640100000000900463ffffffff1681565b6009546201000090046001600160a01b031633148015906106905750600354600160401b90046001600160a01b03166001600160a01b0316336001600160a01b031614155b156106ae5760405163a6c1146b60e01b815260040160405180910390fd5b6009805460ff19166001908117918290556040805191825261010090920460ff16151560208201525f5160206133c15f395f51905f5291015b60405180910390a1565b6106f9611732565b60068190556040518181527f333b26cca69716ad4680ddb07663f5bfb4f06045671f336af9a83690a3ae00f9906020015b60405180910390a150565b5f6276a70060085461074791906130d2565b4210905090565b610756611767565b60095460ff161561077a576040516313d0ff5960e31b815260040160405180910390fd5b806276a70060085461078c91906130d2565b4210156107c357600654816007546107a491906130d2565b11156107c3576040516324d758c360e21b815260040160405180910390fd5b6305f5e10082141580156107db5750633b9aca008214155b80156107ec57506402540be4008214155b1561080a57604051637833d9e360e11b815260040160405180910390fd5b5f5160206133e15f395f51905f52831061083757604051632e4eedd760e21b815260040160405180910390fd5b5f8381526004602052604090205460ff16156108665760405163145718a760e01b815260040160405180910390fd5b5f838152600460205260408120805460ff1916600117905561088784611782565b90508260075f82825461089a91906130d2565b909155506108a9905083611942565b6040805163ffffffff8316815242602082015285917fa945e51eec50ab98c161376f0db4cf2aeba3ec92755fe2fcd388bdbbb80ff196910160405180910390a2505061090160015f5160206134015f395f51905f5255565b5050565b6009546201000090046001600160a01b0316331480159061094a5750600354600160401b90046001600160a01b03166001600160a01b0316336001600160a01b031614155b156109685760405163a6c1146b60e01b815260040160405180910390fd5b6009805461010061ff00198216179091556040805160ff90921615158252600160208301525f5160206133c15f395f51905f5291016106e7565b5f5f5160206133e15f395f51905f528310610a045760405162461bcd60e51b815260206004820181905260248201527f5f6c6566742073686f756c6420626520696e7369646520746865206669656c6460448201526064015b60405180910390fd5b5f5160206133e15f395f51905f528210610a6a5760405162461bcd60e51b815260206004820152602160248201527f5f72696768742073686f756c6420626520696e7369646520746865206669656c6044820152601960fa1b60648201526084016109fb565b610a748383611a3d565b90505b92915050565b919050565b6009546201000090046001600160a01b03163314801590610ac75750600354600160401b90046001600160a01b03166001600160a01b0316336001600160a01b031614155b15610ae55760405163a6c1146b60e01b815260040160405180910390fd5b600755565b610af2611732565b6009805460ff191690819055604080515f815261010090920460ff16151560208301525f5160206133c15f395f51905f5291016106e7565b610b32611732565b610b3b5f611a99565b565b610b45611732565b6001600160a01b038116610b6c5760405163a6c1146b60e01b815260040160405180910390fd5b6009805462010000600160b01b031916620100006001600160a01b038416908102919091179091556040519081527f6bb7ff33e730289800c62ad882105a144a74010d2bdbb9a942544a3005ad55bf9060200161072a565b60608167ffffffffffffffff811115610bdf57610bdf6130e5565b604051908082528060200260200182016040528015610c08578160200160208202803683370190505b5090505f5b82811015610c755760055f858584818110610c2a57610c2a6130f9565b9050602002013581526020019081526020015f205f9054906101000a900460ff16828281518110610c5d57610c5d6130f9565b91151560209283029190910190910152600101610c0d565b5092915050565b610c84611767565b600954610100900460ff1615610cad5760405163e0a3980360e01b815260040160405180910390fd5b6001600160a01b038416610cd45760405163d27b444360e01b815260040160405180910390fd5b610cdd86610fff565b610cfa5760405163504570e360e01b815260040160405180910390fd5b5f8581526005602052604090205460ff1615610d295760405163b115d85760e01b815260040160405180910390fd5b6305f5e1008314158015610d415750633b9aca008314155b8015610d5257506402540be4008314155b15610d7057604051637833d9e360e11b815260040160405180910390fd5b828110610d905760405163cd4e616760e01b815260040160405180910390fd5b60408051600680825260e082019092525f916020820160c08036833701905050905085815f81518110610dc557610dc56130f9565b6020026020010181815250508681600181518110610de557610de56130f9565b602002602001018181525050846001600160a01b03165f1b81600281518110610e1057610e106130f9565b602002602001018181525050835f1b81600381518110610e3257610e326130f9565b602002602001018181525050826001600160a01b03165f1b81600481518110610e5d57610e5d6130f9565b602002602001018181525050815f1b81600581518110610e7f57610e7f6130f9565b6020908102919091010152604051633a94343960e21b81525f906001600160a01b037f0000000000000000000000000000000000000000000000000000000000000000169063ea50d0e490610edc908d908d90879060040161310d565b602060405180830381865afa925050508015610f15575060408051601f3d908101601f19168201909252610f1291810190613185565b60015b610f3257604051631ac2386360e31b815260040160405180910390fd5b905080610f5257604051631ac2386360e31b815260040160405180910390fd5b5f878152600560205260408120805460ff1916600117905560078054879290610f7c9084906131ab565b90915550610f8e905086858786611afb565b604080516001600160a01b038881168252602082018a9052918101859052908516907fe9e508bad6d4c3227e881ca19068f099da81b5164dd6d62b2eaf1e8bc6c349319060600160405180910390a25050610ff560015f5160206134015f395f51905f5255565b5050505050505050565b5f815f0361100e57505f919050565b60035463ffffffff16805b63ffffffff81165f90815260026020526040902054840361103e575060019392505050565b8063ffffffff165f0361104f575060645b80611059816131be565b9150508163ffffffff168163ffffffff160361101957505f9392505050565b5f6276a70060085461108a91906130d2565b421061109657505f1990565b600654600754106110a657505f90565b6007546006546110b691906131ab565b905090565b6110c3611732565b6009805461ff001981169091556040805160ff909216151582525f60208301525f5160206133c15f395f51905f5291016106e7565b5f815f0361110757505f919050565b8160010361113657507f18dfb8dc9b82229cff974efefc8df78b1ce96d9d844236b496785c698bc6732e919050565b8160020361116557507f2c0d184fc7a25c124a27a67b2c46220b039b1a5072c3b693a18ffee458f6425d919050565b8160030361119457507f268b2b93ac5fe540e618a378b8a71b8f2407232744d71e501ce8699980b306e5919050565b816004036111c357507f2d436f654e14cc4febcafdf4a753b149dd8c88a75df9e5d6707e83a853b5f791919050565b816005036111f257507f0b66fdef5a7f00f6fb45d1498b4d7131218e69ccf0a2751b6a1fb1bcd982867d919050565b8160060361122157507f1d542b476c671bb6f0d2ab2939335d7cbad03476f1e3bcba70973b1adfe88b91919050565b8160070361125057507f0680c6388c5798caf80642a1e84316b8b2f7caa99da076f3057d2962a46c5358919050565b8160080361127f57507f03c53ce5296e3e895171f89aa09f84214e3fb0755fe7a423b87888e4b3d731b8919050565b816009036112ae57507f2dd4e2510b33275359bba6edf72e6bdacad259950b024b2cc19d63c3a5b761df919050565b81600a036112dd57507f11cb221f69d954d521fb5393767e77fe4d14133757a706b318e62fa984f98157919050565b81600b0361130c57507f039d78bac8f890788eefe39af15eee5825056648f99210054fd03c25213f4de7919050565b81600c0361133b57507f0c55b828a83062a77d2b3e0a66bbb50cb6040990d9f368da8b24c0e82b692349919050565b81600d0361136a57507f24c866ac88715851268d808487e20e6986084fc222d7188e2a8e0f5b9f8457ef919050565b81600e0361139957507f0f6a94e437b9dfb35cdedf41e2e154c3ae449b7c04c13add0996a7b53cde5400919050565b81600f036113c857507f22afe7696b87cb782742e2d3ecb0f749a9beefbbb2159d178b09000e55b22cab919050565b816010036113f757507f121b01164d32e9ab841ba8f5602b0ec58b576e62552c96911d4d988d49468cdd919050565b8160110361142657507f05f3810707b1336c953b7db191215dab2b5772f93025aa345b954b43135b627b919050565b8160120361145557507f287515b2d5975c74e3fd85a20d68611a463ffe605a1c54d8140ab16d1b77f57b919050565b8160130361148457507f276ff13fde3afa1adb26149ddc3aa67240d603b6a91da5e494c8e58706381a38919050565b816014036114b357507f3039bcb20f03fd9c8650138ef2cfe643edeed152f9c20999f43aeed54d79e387919050565b816015036114e257507f087e5af439450ef09ce6f12a47571971d83309bb6fd1e280c29baf69257f8a4f919050565b8160160361151157507f1821495b1919fa5439ae4a314ff98843067381a3c015f744592bfd64101def1d919050565b8160170361154057507f25789f32f958568364c8139771d7864d93f97efb5bbb87cce1959e7e7443ac80919050565b8160180361156f57507f25ad0850411551115fd697c4d91668f92dde52421be59650357cd50363880543919050565b8160190361159e57507f10b604f35a902419a0fdcf8ee57123e92f0d650ab009b5105916cac7813c9137919050565b81601a036115cd57507f1bb07b96cdddee486afb20c78a3b82208cb80d2c55e596896fa1879164a751db919050565b81601b036115fc57507f04ab93e9c494b67162063e77960cd36f4e3e5cdee5388a603dc55a03875c72bb919050565b81601c0361162b57507f0f9e7f4ad948e7e487831c37fef6e032d66ab2cd3d742d024274612a86cc55ed919050565b81601d0361165a57507f2f1c6920644cd674376a6d3ba4fd3cbe3a571685af0d9ab28e1461e4c1d6fc0a919050565b81601e0361168957507f0de2cd9dffe1e710647fdc179884bd0367276612ef83d2aeea0f7d8aecb9c3d7919050565b81601f036116b757507e77ed17dad4b561a9b4a21cf58720ef0c057699fec72b92f2ca26fdf6b48a83919050565b60405162461bcd60e51b8152602060048201526013602482015272496e646578206f7574206f6620626f756e647360681b60448201526064016109fb565b6116fd611732565b6001600160a01b03811661172657604051631e4fbdf760e01b81525f60048201526024016109fb565b61172f81611a99565b50565b6003546001600160a01b03600160401b909104163314610b3b5760405163118cdaa760e01b81523360048201526024016109fb565b61176f611c1a565b60025f5160206134015f395f51905f5255565b6003545f8054909163ffffffff6401000000009091048116916117a7911660026132ee565b63ffffffff168163ffffffff160361181a5760405162461bcd60e51b815260206004820152603060248201527f4d65726b6c6520747265652069732066756c6c2e204e6f206d6f7265206c656160448201526f1d995cc818d85b88189948185919195960821b60648201526084016109fb565b80835f80805b5f5463ffffffff90811690821610156118b65761183e600286613319565b63ffffffff165f0361187a5783925061185c8163ffffffff166110f8565b63ffffffff82165f9081526001602052604090208590559150611895565b63ffffffff81165f9081526001602052604090205492508391505b61189f83836109a2565b93506118ac600286613340565b9450600101611820565b506003545f906064906118d09063ffffffff166001613367565b6118da9190613319565b6003805463ffffffff191663ffffffff83169081179091555f908152600260205260409020859055905061190f866001613367565b6003805463ffffffff929092166401000000000267ffffffff000000001990921691909117905550939695505050505050565b34156119835760405162461bcd60e51b815260206004820152601060248201526f115512081b9bdd081858d8d95c1d195960821b60448201526064016109fb565b5f612710611992601484613383565b61199c919061339a565b90505f6119a982846131ab565b90506119e06001600160a01b037f000000000000000000000000000000000000000000000000000000000000000016333086611c49565b5f821180156119f95750600a546001600160a01b031615155b15611a3857600a54611a38906001600160a01b037f00000000000000000000000000000000000000000000000000000000000000008116911684611c85565b505050565b5f611a46612ed3565b611a5d5f5160206133e15f395f51905f52856133ad565b8152611a765f5160206133e15f395f51905f52846133ad565b60208201525f604082018190526060820152611a9181611cba565b519392505050565b600380546001600160a01b03838116600160401b81810268010000000000000000600160e01b031985161790945560405193909204169182907f8be0079c531659141344cd1fd0a4f28419497f9722a3daafe3b4186f6b6457e0905f90a35050565b5f612710611b0a600a85613383565b611b14919061339a565b90505f611b2182856131ab565b90505f611b2e84836131ab565b9050611b646001600160a01b037f0000000000000000000000000000000000000000000000000000000000000000168883611c85565b8315611bb9575f6001600160a01b038716611b7f5733611b81565b865b9050611bb76001600160a01b037f0000000000000000000000000000000000000000000000000000000000000000168287611c85565b505b5f83118015611bd25750600a546001600160a01b031615155b15611c1157600a54611c11906001600160a01b037f00000000000000000000000000000000000000000000000000000000000000008116911685611c85565b50505050505050565b5f5160206134015f395f51905f5254600203610b3b57604051633ee5aeb560e01b815260040160405180910390fd5b611c57848484846001612a59565b611c7f57604051635274afe760e01b81526001600160a01b03851660048201526024016109fb565b50505050565b611c928383836001612ac6565b611a3857604051635274afe760e01b81526001600160a01b03841660048201526024016109fb565b611cc381612b28565b611d50817f19b849f69450b06848da1d39bd5e4a4302bb86744edc26238b0878e269ed23e57f265ddfe127dd51bd7239347b758f0a1320eb2cc7450acc1dad47f80c8dcf34d67f199750ec472f1809e0f66a545e1e51624108ac845015c2aa3dfc36bab497d8aa7f157ff3fe65ac7208110f06a5f74302b14d743ea25067f0ffd032f787c7f1cdf8612c5f565b611ddd817f2e49c43c4569dd9c5fd35ac45fca33f10b15c590692f8beefe18f4896ac949027f0e35fb89981890520d4aef2b6d6506c3cb2f0b6973c24fa82731345ffa2d1f1e7f251ad47cb15c4f1105f109ae5e944f1ba9d9e7806d667ffec6fe723002e0b9967f13da07dc64d428369873e97160234641f8beb56fdd05e5f3563fa39d9c22df4e612c5f565b611e6a817f0c009b84e650e6d23dc00c7dccef7483a553939689d350cd46e7b89055fd47387f011f16b1c63a854f01992e3956f42d8b04eb650c6d535eb0203dec74befdca067f0ed69e5e383a688f209d9a561daa79612f3f78d0467ad45485df07093f3675497f04dba94a7b0ce9e221acad41472b6bbe3aec507f5eb3d33f463672264c9f789b612c5f565b611ef7817f0a3f2637d840f3a16eb094271c9d237b6036757d4bb50bf7ce732ff1d4fa28e87f259a666f129eea198f8a1c502fdb38fa39b1f075569564b6e54a485d1182323f7f28bf7459c9b2f4c6d8e7d06a4ee3a47f7745d4271038e5157a32fdf7ede0d6a17f0a1ca941f057037526ea200f489be8d4c37c85bbcce6a2aeec91bd6941432447612c5f565b611f21817f0c6f8f958be0e93053d7fd4fc54512855535ed1539f051dcb43a26fd926361cf612d1b565b611f4b817f123106a93cd17578d426e8128ac9d90aa9e8a00708e296e084dd57e69caaf811612d1b565b611f75817f26e1ba52ad9285d97dd3ab52f8e840085e8fa83ff1e8f1877b074867cd2dee75612d1b565b611f9f817f1cb55cad7bd133de18a64c5c47b9c97cbe4d8b7bf9e095864471537e6a4ae2c5612d1b565b611fc9817f1dcd73e46acd8f8e0e2c7ce04bde7f6d2a53043d5060a41c7143f08e6e9055d0612d1b565b611ff3817f011003e32f6d9c66f5852f05474a4def0cda294a0eb4e9b9b12b9bb4512e5574612d1b565b61201d817f2b1e809ac1d10ab29ad5f20d03a57dfebadfe5903f58bafed7c508dd2287ae8c612d1b565b612047817f2539de1785b735999fb4dac35ee17ed0ef995d05ab2fc5faeaa69ae87bcec0a5612d1b565b612071817f0c246c5a2ef8ee0126497f222b3e0a0ef4e1c3d41c86d46e43982cb11d77951d612d1b565b61209b817f192089c4974f68e95408148f7c0632edbb09e6a6ad1a1c2f3f0305f5d03b527b612d1b565b6120c5817f1eae0ad8ab68b2f06a0ee36eeb0d0c058529097d91096b756d8fdc2fb5a60d85612d1b565b6120ef817f179190e5d0e22179e46f8282872abc88db6e2fdc0dee99e69768bd98c5d06bfb612d1b565b612119817f29bb9e2c9076732576e9a81c7ac4b83214528f7db00f31bf6cafe794a9b3cd1c612d1b565b612143817f225d394e42207599403efd0c2464a90d52652645882aac35b10e590e6e691e08612d1b565b61216d817f064760623c25c8cf753d238055b444532be13557451c087de09efd454b23fd59612d1b565b612197817f10ba3a0e01df92e87f301c4b716d8a394d67f4bf42a75c10922910a78f6b5b87612d1b565b6121c1817f0e070bf53f8451b24f9c6e96b0c2a801cb511bc0c242eb9d361b77693f21471c612d1b565b6121eb817f1b94cd61b051b04dd39755ff93821a73ccd6cb11d2491d8aa7f921014de252fb612d1b565b612215817f1d7cb39bafb8c744e148787a2e70230f9d4e917d5713bb050487b5aa7d74070b612d1b565b61223f817f2ec93189bd1ab4f69117d0fe980c80ff8785c2961829f701bb74ac1f303b17db612d1b565b612269817f2db366bfdd36d277a692bb825b86275beac404a19ae07a9082ea46bd83517926612d1b565b612293817f062100eb485db06269655cf186a68532985275428450359adc99cec6960711b8612d1b565b6122bd817f0761d33c66614aaa570e7f1e8244ca1120243f92fa59e4f900c567bf41f5a59b612d1b565b6122e7817f20fc411a114d13992c2705aa034e3f315d78608a0f7de4ccf7a72e494855ad0d612d1b565b612311817f25b5c004a4bdfcb5add9ec4e9ab219ba102c67e8b3effb5fc3a30f317250bc5a612d1b565b61233b817f23b1822d278ed632a494e58f6df6f5ed038b186d8474155ad87e7dff62b37f4b612d1b565b612365817f22734b4c5c3f9493606c4ba9012499bf0f14d13bfcfcccaa16102a29cc2f69e0612d1b565b61238f817f26c0c8fe09eb30b7e27a74dc33492347e5bdff409aa3610254413d3fad795ce5612d1b565b6123b9817f070dd0ccb6bd7bbae88eac03fa1fbb26196be3083a809829bbd626df348ccad9612d1b565b6123e3817f12b6595bdb329b6fb043ba78bb28c3bec2c0a6de46d8c5ad6067c4ebfd4250da612d1b565b61240d817f248d97d7f76283d63bec30e7a5876c11c06fca9b275c671c5e33d95bb7e8d729612d1b565b612437817f1a306d439d463b0816fc6fd64cc939318b45eb759ddde4aa106d15d9bd9baaaa612d1b565b612461817f28a8f8372e3c38daced7c00421cb4621f4f1b54ddc27821b0d62d3d6ec7c56cf612d1b565b61248a817e94975717f9a8a8bb35152f24d43294071ce320c829f388bc852183e1e2ce7e612d1b565b6124b4817f04d5ee4c3aa78f7d80fde60d716480d3593f74d4f653ae83f4103246db2e8d65612d1b565b6124de817f2a6cf5e9aa03d4336349ad6fb8ed2269c7bef54b8822cc76d08495c12efde187612d1b565b612508817f2304d31eaab960ba9274da43e19ddeb7f792180808fd6e43baae48d7efcba3f3612d1b565b612532817f03fd9ac865a4b2a6d5e7009785817249bff08a7e0726fcb4e1c11d39d199f0b0612d1b565b61255b817eb7258ded52bbda2248404d55ee5044798afc3a209193073f7954d4d63b0b64612d1b565b612585817f159f81ada0771799ec38fca2d4bf65ebb13d3a74f3298db36272c5ca65e92d9a612d1b565b6125af817f1ef90e67437fbc8550237a75bc28e3bb9000130ea25f0c5471e144cf4264431f612d1b565b6125d9817f1e65f838515e5ff0196b49aa41a2d2568df739bc176b08ec95a79ed82932e30d612d1b565b612603817f2b1b045def3a166cec6ce768d079ba74b18c844e570e1f826575c1068c94c33f612d1b565b61262d817f0832e5753ceb0ff6402543b1109229c165dc2d73bef715e3f1c6e07c168bb173612d1b565b612657817f02f614e9cedfb3dc6b762ae0a37d41bab1b841c2e8b6451bc5a8e3c390b6ad16612d1b565b612681817f0e2427d38bd46a60dd640b8e362cad967370ebb777bedff40f6a0be27e7ed705612d1b565b6126ab817f0493630b7c670b6deb7c84d414e7ce79049f0ec098c3c7c50768bbe29214a53a612d1b565b6126d5817f22ead100e8e482674decdab17066c5a26bb1515355d5461a3dc06cc85327cea9612d1b565b6126ff817f25b3e56e655b42cdaae2626ed2554d48583f1ae35626d04de5084e0b6d2a6f16612d1b565b612729817f1e32752ada8836ef5837a6cde8ff13dbb599c336349e4c584b4fdc0a0cf6f9d0612d1b565b612753817f2fa2a871c15a387cc50f68f6f3c3455b23c00995f05078f672a9864074d412e5612d1b565b61277d817f2f569b8a9a4424c9278e1db7311e889f54ccbf10661bab7fcd18e7c7a7d83505612d1b565b6127a7817f044cb455110a8fdd531ade530234c518a7df93f7332ffd2144165374b246b43d612d1b565b6127d1817f227808de93906d5d420246157f2e42b191fe8c90adfe118178ddc723a5319025612d1b565b6127fb817f02fcca2934e046bc623adead873579865d03781ae090ad4a8579d2e7a6800355612d1b565b612825817f0ef915f0ac120b876abccceb344a1d36bad3f3c5ab91a8ddcbec2e060d8befac612d1b565b6128b2817f1797130f4b7a3e1777eb757bc6f287f6ab0fb85f6be63b09f3b16ef2b1405d387f0a76225dc04170ae3306c85abab59e608c7f497c20156d4d36c668555decc6e57f1fffb9ec1992d66ba1e77a7b93209af6f8fa76d48acb664796174b5326a31a5c7f25721c4fc15a3f2853b57c338fa538d85f8fbba6c6b9c6090611889b797b9c5f612c5f565b61293f817f0c817fd42d5f7a41215e3d07ba197216adb4c3790705da95eb63b982bfcaf75a7f13abe3f5239915d39f7e13c2c24970b6df8cf86ce00a22002bc15866e52b5a967f2106feea546224ea12ef7f39987a46c85c1bc3dc29bdbd7a92cd60acb4d391ce7f21ca859468a746b6aaa79474a37dab49f1ca5a28c748bc7157e1b3345bb0f959612c5f565b6129cc817f05ccd6255c1e6f0c5cf1f0df934194c62911d14d0321662a8f1a48999e34185b7f0f0e34a64b70a626e464d846674c4c8816c4fb267fe44fe6ea28678cb09490a47f0558531a4e25470c6157794ca36d0e9647dbfcfe350d64838f5b1a8a2de0d4bf7f09d3dca9173ed2faceea125157683d18924cadad3f655a60b72f5864961f1455612c5f565b61172f817f0328cbd54e8c0913493f866ed03d218bf23f92d68aaec48617d4c722e5bd43357f2bf07216e2aff0a223a487b1a7094e07e79e7bcc9798c648ee3347dd5329d34b7f1daf345a58006b736499c583cb76c316d6f78ed6a6dffc82111e11a63fe412df7f176563472456aaa746b694c60e1823611ef39039b2edc7ff391e6f2293d2c404612c5f565b6040516323b872dd60e01b5f8181526001600160a01b038781166004528616602452604485905291602083606481808c5af1925060015f51148316612ab5578383151615612aa9573d5f823e3d81fd5b5f883b113d1516831692505b604052505f60605295945050505050565b60405163a9059cbb60e01b5f8181526001600160a01b038616600452602485905291602083604481808b5af1925060015f51148316612b1c578383151615612b10573d5f823e3d81fd5b5f873b113d1516831692505b60405250949350505050565b602081015181515f915f5160206133e15f395f51905f52910890505f5f5160206133e15f395f51905f52836003602002015184600260200201510860208401519091505f905f5160206133e15f395f51905f52908390829080080860608501519091505f905f5160206133e15f395f51905f52908590829080080890505f5f5160206133e15f395f51905f5284850890505f5160206133e15f395f51905f5281820890505f5160206133e15f395f51905f5282820890505f5f5160206133e15f395f51905f5286870890505f5160206133e15f395f51905f5281820890505f5160206133e15f395f51905f5284820890505f5f5160206133e15f395f51905f5282850890505f5f5160206133e15f395f51905f52848708918952506020880191909152604087015260609095019490945250505050565b84515f5160206133e15f395f51905f5290859008855260208501515f5160206133e15f395f51905f5290849008602086015260408501515f5160206133e15f395f51905f5290839008604086015260608501515f5160206133e15f395f51905f52908290086060860152612cd9855f5b6020020151612d46565b8552612ce6856001612ccf565b6020860152612cf6856002612ccf565b6040860152612d06856003612ccf565b6060860152612d1485612b28565b5050505050565b81515f5160206133e15f395f51905f52908290088252612d3b825f612ccf565b825261090182612d88565b5f805f5160206133e15f395f51905f5283840990505f5f5160206133e15f395f51905f5282830990505f5160206133e15f395f51905f52848209949350505050565b5f5f5160206133e15f395f51905f52808360036020020151846002602002015108602084015184515f5160206133e15f395f51905f529190080890505f5160206133e15f395f51905f52815f5160206133e15f395f51905f52845f60200201517f10dc6e9c006ea38b04b1e03b4bd9490c0d03f98929ca1d7fb56821fd19d3b6e70908825260208201515f5160206133e15f395f51905f5290829082907f0c28145b6a44df3e0149b3d0a30b3bb599df9756d4dd9b84a86b38cfb45a740b0908602083015260408201515f5160206133e15f395f51905f5290829082907e544b8338791518b2c7645a50392798b21f75bb60e3596170067d00141cac150908604083015260608201515f5160206133e15f395f51905f5290829082907f222c01175718386f2e2e82eb122789e352e105a3b8fa852613bc534433ee428b090882600360200201525050565b60405180608001604052806004906020820280368337509192915050565b5f60208284031215612f01575f5ffd5b5035919050565b5f5f60408385031215612f19575f5ffd5b50508035926020909101359150565b80356001600160a01b0381168114610a7d575f5ffd5b5f60208284031215612f4e575f5ffd5b610a7482612f28565b5f5f60208385031215612f68575f5ffd5b823567ffffffffffffffff811115612f7e575f5ffd5b8301601f81018513612f8e575f5ffd5b803567ffffffffffffffff811115612fa4575f5ffd5b8560208260051b8401011115612fb8575f5ffd5b6020919091019590945092505050565b602080825282518282018190525f918401906040840190835b818110156130015783511515835260209384019390920191600101612fe1565b509095945050505050565b5f5f5f5f5f5f5f5f60e0898b031215613023575f5ffd5b883567ffffffffffffffff811115613039575f5ffd5b8901601f81018b13613049575f5ffd5b803567ffffffffffffffff81111561305f575f5ffd5b8b6020828401011115613070575f5ffd5b60209182019950975089013595506040890135945061309160608a01612f28565b9350608089013592506130a660a08a01612f28565b979a969950949793969295919450919260c001359150565b634e487b7160e01b5f52601160045260245ffd5b80820180821115610a7757610a776130be565b634e487b7160e01b5f52604160045260245ffd5b634e487b7160e01b5f52603260045260245ffd5b60408152826040820152828460608301375f606084830101525f601f19601f85011682016060810160608483030160208501528085518083526080840191506020870193505f92505b808310156131795783518252602082019150602084019350600183019250613156565b50979650505050505050565b5f60208284031215613195575f5ffd5b815180151581146131a4575f5ffd5b9392505050565b81810381811115610a7757610a776130be565b5f63ffffffff8216806131d3576131d36130be565b5f190192915050565b6001815b6001841115613217578085048111156131fb576131fb6130be565b600184161561320957908102905b60019390931c9280026131e0565b935093915050565b5f8261322d57506001610a77565b8161323957505f610a77565b816001811461324f57600281146132595761328a565b6001915050610a77565b60ff84111561326a5761326a6130be565b6001841b915063ffffffff821115613284576132846130be565b50610a77565b5060208310610133831016604e8410600b84101617156132c1575081810a63ffffffff8111156132bc576132bc6130be565b610a77565b6132d063ffffffff84846131dc565b8063ffffffff048211156132e6576132e66130be565b029392505050565b5f610a7463ffffffff841663ffffffff841661321f565b634e487b7160e01b5f52601260045260245ffd5b5f63ffffffff83168061332e5761332e613305565b8063ffffffff84160691505092915050565b5f63ffffffff83168061335557613355613305565b8063ffffffff84160491505092915050565b63ffffffff8181168382160190811115610a7757610a776130be565b8082028115828204841417610a7757610a776130be565b5f826133a8576133a8613305565b500490565b5f826133bb576133bb613305565b50069056feda15e989e02798e0b63a6157a39cc71779d78c48dc9d8b643392aef18f20954b30644e72e131a029b85045b68181585d2833e84879b9709143e1f593f00000019b779b17422d0df92223018b32b4d1fa46e071723d6817e2486d003becc55f00a26469706673582212200192c7e20b08ad9f741f9d97e1af98f5bbb35fbd0724e79b40b331623591914f64736f6c634300081b0033","linkReferences":{}},"methodIdentifiers":{"DENOM_LARGE()":"b269d812","DENOM_MEDIUM()":"38d1b172","DENOM_SMALL()":"0ffe92ea","ENTRY_FEE_BPS()":"9089ad0e","EXIT_FEE_BPS()":"324d8438","FEE_DENOMINATOR()":"d73792a9","FIELD_SIZE()":"414a37ba","GUARDED_PERIOD()":"dbc0d423","ROOT_HISTORY_SIZE()":"cd87a3b4","SNARK_SCALAR_FIELD()":"25c2cd12","ZERO_VALUE()":"ec732959","commitments(bytes32)":"839df945","currentRootIndex()":"90eeb02b","currentTVL()":"a95411e0","deposit(bytes32,uint256)":"1de26e16","depositCap()":"dbd5edc7","emergencyUpdateTVL(uint256)":"5f181025","feeManager()":"d0fb0203","filledSubtrees(uint256)":"f178e47c","getLastRoot()":"ba70f757","getLeafCount()":"d3ea6125","getRoot()":"5ca1e165","guardian()":"452a9320","hashLeftRight(uint256,uint256)":"5bb93995","isGuardedLaunchActive()":"1c11cec9","isKnownRoot(uint256)":"a6232a93","isSpent(bytes32)":"e5285dcc","isSpentArray(bytes32[])":"9fa12d0b","launchStartTime()":"7bb501ec","levels()":"4ecf518b","nextIndex()":"fc7e9c6f","nullifierHashes(bytes32)":"17cc915c","owner()":"8da5cb5b","pauseDeposits()":"02191980","pauseWithdrawals()":"56bb54a7","paused()":"5c975abb","remainingCapacity()":"a78c7b08","renounceOwnership()":"715018a6","roots(uint256)":"c2b40ae4","setGuardian(address)":"8a0dac4a","token()":"fc0c546a","transferOwnership(address)":"f2fde38b","unpauseDeposits()":"63d8882a","unpauseWithdrawals()":"e4c4be58","updateDepositCap(uint256)":"171e5e88","verifier()":"2b7ac3f3","withdraw(bytes,bytes32,bytes32,address,uint256,address,uint256)":"a366184a","withdrawPaused()":"2f3ffb9f","zeros(uint256)":"e8295588"},"id":49}